{
	".git/calculaator.sol": {
		"calculatorandall": {
			"abi": [
				{
					"inputs": [],
					"name": "addition",
					"outputs": [
						{
							"internalType": "uint256",
							"name": "",
							"type": "uint256"
						}
					],
					"stateMutability": "view",
					"type": "function"
				},
				{
					"inputs": [],
					"name": "checkage",
					"outputs": [
						{
							"internalType": "string",
							"name": "",
							"type": "string"
						}
					],
					"stateMutability": "view",
					"type": "function"
				},
				{
					"inputs": [],
					"name": "checktime",
					"outputs": [
						{
							"internalType": "string",
							"name": "",
							"type": "string"
						}
					],
					"stateMutability": "view",
					"type": "function"
				},
				{
					"inputs": [],
					"name": "checkweather",
					"outputs": [
						{
							"internalType": "string",
							"name": "",
							"type": "string"
						}
					],
					"stateMutability": "view",
					"type": "function"
				},
				{
					"inputs": [],
					"name": "division",
					"outputs": [
						{
							"internalType": "uint256",
							"name": "",
							"type": "uint256"
						}
					],
					"stateMutability": "view",
					"type": "function"
				},
				{
					"inputs": [
						{
							"internalType": "uint256",
							"name": "_age",
							"type": "uint256"
						}
					],
					"name": "getage",
					"outputs": [],
					"stateMutability": "nonpayable",
					"type": "function"
				},
				{
					"inputs": [
						{
							"internalType": "uint256",
							"name": "_firstnum",
							"type": "uint256"
						}
					],
					"name": "getfirstnum",
					"outputs": [],
					"stateMutability": "nonpayable",
					"type": "function"
				},
				{
					"inputs": [
						{
							"internalType": "uint256",
							"name": "_secnum",
							"type": "uint256"
						}
					],
					"name": "getsecondnum",
					"outputs": [],
					"stateMutability": "nonpayable",
					"type": "function"
				},
				{
					"inputs": [
						{
							"internalType": "uint256",
							"name": "_wet",
							"type": "uint256"
						}
					],
					"name": "getweather",
					"outputs": [],
					"stateMutability": "nonpayable",
					"type": "function"
				},
				{
					"inputs": [],
					"name": "invalid",
					"outputs": [
						{
							"internalType": "uint256",
							"name": "",
							"type": "uint256"
						}
					],
					"stateMutability": "view",
					"type": "function"
				},
				{
					"inputs": [],
					"name": "multiplication",
					"outputs": [
						{
							"internalType": "uint256",
							"name": "",
							"type": "uint256"
						}
					],
					"stateMutability": "view",
					"type": "function"
				},
				{
					"inputs": [],
					"name": "subtraction",
					"outputs": [
						{
							"internalType": "uint256",
							"name": "",
							"type": "uint256"
						}
					],
					"stateMutability": "view",
					"type": "function"
				},
				{
					"inputs": [
						{
							"internalType": "uint256",
							"name": "_ctime",
							"type": "uint256"
						}
					],
					"name": "tracktime",
					"outputs": [],
					"stateMutability": "nonpayable",
					"type": "function"
				}
			],
			"devdoc": {
				"kind": "dev",
				"methods": {},
				"version": 1
			},
			"evm": {
				"assembly": "    /* \".git/calculaator.sol\":60:2104  contract calculatorandall{... */\n  mstore(0x40, 0x80)\n  callvalue\n  dup1\n  iszero\n  tag_1\n  jumpi\n  revert(0x00, 0x00)\ntag_1:\n  pop\n  dataSize(sub_0)\n  dup1\n  dataOffset(sub_0)\n  0x00\n  codecopy\n  0x00\n  return\nstop\n\nsub_0: assembly {\n        /* \".git/calculaator.sol\":60:2104  contract calculatorandall{... */\n      mstore(0x40, 0x80)\n      callvalue\n      dup1\n      iszero\n      tag_1\n      jumpi\n      revert(0x00, 0x00)\n    tag_1:\n      pop\n      jumpi(tag_2, lt(calldatasize, 0x04))\n      shr(0xe0, calldataload(0x00))\n      dup1\n      0x9f17c892\n      gt\n      tag_16\n      jumpi\n      dup1\n      0xbed948c5\n      gt\n      tag_17\n      jumpi\n      dup1\n      0xbed948c5\n      eq\n      tag_12\n      jumpi\n      dup1\n      0xd62ff3a4\n      eq\n      tag_13\n      jumpi\n      dup1\n      0xe3ec0251\n      eq\n      tag_14\n      jumpi\n      dup1\n      0xec597128\n      eq\n      tag_15\n      jumpi\n      jump(tag_2)\n    tag_17:\n      dup1\n      0x9f17c892\n      eq\n      tag_9\n      jumpi\n      dup1\n      0xa59e0d54\n      eq\n      tag_10\n      jumpi\n      dup1\n      0xbde9e40e\n      eq\n      tag_11\n      jumpi\n      jump(tag_2)\n    tag_16:\n      dup1\n      0x011285da\n      eq\n      tag_3\n      jumpi\n      dup1\n      0x12a09447\n      eq\n      tag_4\n      jumpi\n      dup1\n      0x266de1e0\n      eq\n      tag_5\n      jumpi\n      dup1\n      0x3205f5fc\n      eq\n      tag_6\n      jumpi\n      dup1\n      0x48a9066d\n      eq\n      tag_7\n      jumpi\n      dup1\n      0x7f109886\n      eq\n      tag_8\n      jumpi\n    tag_2:\n      revert(0x00, 0x00)\n        /* \".git/calculaator.sol\":590:694  function multiplication()public view returns (uint) {... */\n    tag_3:\n      tag_18\n      tag_19\n      jump\t// in\n    tag_18:\n      mload(0x40)\n      tag_20\n      swap2\n      swap1\n      tag_21\n      jump\t// in\n    tag_20:\n      mload(0x40)\n      dup1\n      swap2\n      sub\n      swap1\n      return\n        /* \".git/calculaator.sol\":1757:1828  function getweather(uint _wet) public {... */\n    tag_4:\n      tag_22\n      0x04\n      dup1\n      calldatasize\n      sub\n      dup2\n      add\n      swap1\n      tag_23\n      swap2\n      swap1\n      tag_24\n      jump\t// in\n    tag_23:\n      tag_25\n      jump\t// in\n    tag_22:\n      stop\n        /* \".git/calculaator.sol\":1394:1751  function checktime()public view returns (string memory){... */\n    tag_5:\n      tag_26\n      tag_27\n      jump\t// in\n    tag_26:\n      mload(0x40)\n      tag_28\n      swap2\n      swap1\n      tag_29\n      jump\t// in\n    tag_28:\n      mload(0x40)\n      dup1\n      swap2\n      sub\n      swap1\n      return\n        /* \".git/calculaator.sol\":703:801  function division()public view returns (uint) {... */\n    tag_6:\n      tag_30\n      tag_31\n      jump\t// in\n    tag_30:\n      mload(0x40)\n      tag_32\n      swap2\n      swap1\n      tag_21\n      jump\t// in\n    tag_32:\n      mload(0x40)\n      dup1\n      swap2\n      sub\n      swap1\n      return\n        /* \".git/calculaator.sol\":191:276  function getfirstnum(uint _firstnum)public {... */\n    tag_7:\n      tag_33\n      0x04\n      dup1\n      calldatasize\n      sub\n      dup2\n      add\n      swap1\n      tag_34\n      swap2\n      swap1\n      tag_24\n      jump\t// in\n    tag_34:\n      tag_35\n      jump\t// in\n    tag_33:\n      stop\n        /* \".git/calculaator.sol\":1836:2099  function checkweather()public view returns (string memory){... */\n    tag_8:\n      tag_36\n      tag_37\n      jump\t// in\n    tag_36:\n      mload(0x40)\n      tag_38\n      swap2\n      swap1\n      tag_29\n      jump\t// in\n    tag_38:\n      mload(0x40)\n      dup1\n      swap2\n      sub\n      swap1\n      return\n        /* \".git/calculaator.sol\":282:365  function getsecondnum(uint _secnum)public {... */\n    tag_9:\n      tag_39\n      0x04\n      dup1\n      calldatasize\n      sub\n      dup2\n      add\n      swap1\n      tag_40\n      swap2\n      swap1\n      tag_24\n      jump\t// in\n    tag_40:\n      tag_41\n      jump\t// in\n    tag_39:\n      stop\n        /* \".git/calculaator.sol\":924:986  function getage(uint _age) public{... */\n    tag_10:\n      tag_42\n      0x04\n      dup1\n      calldatasize\n      sub\n      dup2\n      add\n      swap1\n      tag_43\n      swap2\n      swap1\n      tag_24\n      jump\t// in\n    tag_43:\n      tag_44\n      jump\t// in\n    tag_42:\n      stop\n        /* \".git/calculaator.sol\":810:907  function invalid()public view returns (uint) {... */\n    tag_11:\n      tag_45\n      tag_46\n      jump\t// in\n    tag_45:\n      mload(0x40)\n      tag_47\n      swap2\n      swap1\n      tag_21\n      jump\t// in\n    tag_47:\n      mload(0x40)\n      dup1\n      swap2\n      sub\n      swap1\n      return\n        /* \".git/calculaator.sol\":1317:1388  function tracktime(uint _ctime) public {... */\n    tag_12:\n      tag_48\n      0x04\n      dup1\n      calldatasize\n      sub\n      dup2\n      add\n      swap1\n      tag_49\n      swap2\n      swap1\n      tag_24\n      jump\t// in\n    tag_49:\n      tag_50\n      jump\t// in\n    tag_48:\n      stop\n        /* \".git/calculaator.sol\":992:1311  function checkage()public view returns (string memory){ ... */\n    tag_13:\n      tag_51\n      tag_52\n      jump\t// in\n    tag_51:\n      mload(0x40)\n      tag_53\n      swap2\n      swap1\n      tag_29\n      jump\t// in\n    tag_53:\n      mload(0x40)\n      dup1\n      swap2\n      sub\n      swap1\n      return\n        /* \".git/calculaator.sol\":480:581  function subtraction()public view returns (uint) {... */\n    tag_14:\n      tag_54\n      tag_55\n      jump\t// in\n    tag_54:\n      mload(0x40)\n      tag_56\n      swap2\n      swap1\n      tag_21\n      jump\t// in\n    tag_56:\n      mload(0x40)\n      dup1\n      swap2\n      sub\n      swap1\n      return\n        /* \".git/calculaator.sol\":373:471  function addition()public view returns (uint) {... */\n    tag_15:\n      tag_57\n      tag_58\n      jump\t// in\n    tag_57:\n      mload(0x40)\n      tag_59\n      swap2\n      swap1\n      tag_21\n      jump\t// in\n    tag_59:\n      mload(0x40)\n      dup1\n      swap2\n      sub\n      swap1\n      return\n        /* \".git/calculaator.sol\":590:694  function multiplication()public view returns (uint) {... */\n    tag_19:\n        /* \".git/calculaator.sol\":636:640  uint */\n      0x00\n        /* \".git/calculaator.sol\":674:686  secondnumber */\n      sload(0x01)\n        /* \".git/calculaator.sol\":660:671  firstnumber */\n      sload(0x00)\n        /* \".git/calculaator.sol\":660:686  firstnumber * secondnumber */\n      tag_61\n      swap2\n      swap1\n      tag_62\n      jump\t// in\n    tag_61:\n        /* \".git/calculaator.sol\":653:686  return firstnumber * secondnumber */\n      swap1\n      pop\n        /* \".git/calculaator.sol\":590:694  function multiplication()public view returns (uint) {... */\n      swap1\n      jump\t// out\n        /* \".git/calculaator.sol\":1757:1828  function getweather(uint _wet) public {... */\n    tag_25:\n        /* \".git/calculaator.sol\":1816:1820  _wet */\n      dup1\n        /* \".git/calculaator.sol\":1806:1813  weather */\n      0x04\n        /* \".git/calculaator.sol\":1806:1820  weather = _wet */\n      dup2\n      swap1\n      sstore\n      pop\n        /* \".git/calculaator.sol\":1757:1828  function getweather(uint _wet) public {... */\n      pop\n      jump\t// out\n        /* \".git/calculaator.sol\":1394:1751  function checktime()public view returns (string memory){... */\n    tag_27:\n        /* \".git/calculaator.sol\":1435:1448  string memory */\n      0x60\n        /* \".git/calculaator.sol\":1472:1474  12 */\n      0x0c\n        /* \".git/calculaator.sol\":1464:1468  time */\n      sload(0x03)\n        /* \".git/calculaator.sol\":1464:1474  time <= 12 */\n      gt\n        /* \".git/calculaator.sol\":1460:1744  if (time <= 12){... */\n      tag_65\n      jumpi\n        /* \".git/calculaator.sol\":1490:1511  return \"Good Morning\" */\n      mload(0x40)\n      dup1\n      0x40\n      add\n      0x40\n      mstore\n      dup1\n      0x0c\n      dup2\n      mstore\n      0x20\n      add\n      0x476f6f64204d6f726e696e670000000000000000000000000000000000000000\n      dup2\n      mstore\n      pop\n      swap1\n      pop\n      jump(tag_64)\n        /* \".git/calculaator.sol\":1460:1744  if (time <= 12){... */\n    tag_65:\n        /* \".git/calculaator.sol\":1541:1543  12 */\n      0x0c\n        /* \".git/calculaator.sol\":1533:1537  time */\n      sload(0x03)\n        /* \".git/calculaator.sol\":1533:1543  time >= 12 */\n      lt\n      iszero\n        /* \".git/calculaator.sol\":1533:1557  time >= 12 && time <= 16 */\n      dup1\n      iszero\n      tag_67\n      jumpi\n      pop\n        /* \".git/calculaator.sol\":1555:1557  16 */\n      0x10\n        /* \".git/calculaator.sol\":1547:1551  time */\n      sload(0x03)\n        /* \".git/calculaator.sol\":1547:1557  time <= 16 */\n      gt\n      iszero\n        /* \".git/calculaator.sol\":1533:1557  time >= 12 && time <= 16 */\n    tag_67:\n        /* \".git/calculaator.sol\":1529:1744  if (time >= 12 && time <= 16) {... */\n      iszero\n      tag_68\n      jumpi\n        /* \".git/calculaator.sol\":1574:1597  return \"Good Afternoon\" */\n      mload(0x40)\n      dup1\n      0x40\n      add\n      0x40\n      mstore\n      dup1\n      0x0e\n      dup2\n      mstore\n      0x20\n      add\n      0x476f6f642041667465726e6f6f6e000000000000000000000000000000000000\n      dup2\n      mstore\n      pop\n      swap1\n      pop\n      jump(tag_64)\n        /* \".git/calculaator.sol\":1529:1744  if (time >= 12 && time <= 16) {... */\n    tag_68:\n        /* \".git/calculaator.sol\":1627:1629  16 */\n      0x10\n        /* \".git/calculaator.sol\":1619:1623  time */\n      sload(0x03)\n        /* \".git/calculaator.sol\":1619:1629  time >= 16 */\n      lt\n      iszero\n        /* \".git/calculaator.sol\":1619:1643  time >= 16 && time <= 20 */\n      dup1\n      iszero\n      tag_70\n      jumpi\n      pop\n        /* \".git/calculaator.sol\":1641:1643  20 */\n      0x14\n        /* \".git/calculaator.sol\":1633:1637  time */\n      sload(0x03)\n        /* \".git/calculaator.sol\":1633:1643  time <= 20 */\n      gt\n      iszero\n        /* \".git/calculaator.sol\":1619:1643  time >= 16 && time <= 20 */\n    tag_70:\n        /* \".git/calculaator.sol\":1615:1744  if (time >= 16 && time <= 20) {... */\n      iszero\n      tag_71\n      jumpi\n        /* \".git/calculaator.sol\":1660:1681  return \"Good Evening\" */\n      mload(0x40)\n      dup1\n      0x40\n      add\n      0x40\n      mstore\n      dup1\n      0x0c\n      dup2\n      mstore\n      0x20\n      add\n      0x476f6f64204576656e696e670000000000000000000000000000000000000000\n      dup2\n      mstore\n      pop\n      swap1\n      pop\n      jump(tag_64)\n        /* \".git/calculaator.sol\":1615:1744  if (time >= 16 && time <= 20) {... */\n    tag_71:\n        /* \".git/calculaator.sol\":1713:1732  return \"Good Night\" */\n      mload(0x40)\n      dup1\n      0x40\n      add\n      0x40\n      mstore\n      dup1\n      0x0a\n      dup2\n      mstore\n      0x20\n      add\n      0x476f6f64204e6967687400000000000000000000000000000000000000000000\n      dup2\n      mstore\n      pop\n      swap1\n      pop\n        /* \".git/calculaator.sol\":1394:1751  function checktime()public view returns (string memory){... */\n    tag_64:\n      swap1\n      jump\t// out\n        /* \".git/calculaator.sol\":703:801  function division()public view returns (uint) {... */\n    tag_31:\n        /* \".git/calculaator.sol\":743:747  uint */\n      0x00\n        /* \".git/calculaator.sol\":781:793  secondnumber */\n      sload(0x01)\n        /* \".git/calculaator.sol\":767:778  firstnumber */\n      sload(0x00)\n        /* \".git/calculaator.sol\":767:793  firstnumber / secondnumber */\n      tag_74\n      swap2\n      swap1\n      tag_75\n      jump\t// in\n    tag_74:\n        /* \".git/calculaator.sol\":760:793  return firstnumber / secondnumber */\n      swap1\n      pop\n        /* \".git/calculaator.sol\":703:801  function division()public view returns (uint) {... */\n      swap1\n      jump\t// out\n        /* \".git/calculaator.sol\":191:276  function getfirstnum(uint _firstnum)public {... */\n    tag_35:\n        /* \".git/calculaator.sol\":259:268  _firstnum */\n      dup1\n        /* \".git/calculaator.sol\":245:256  firstnumber */\n      0x00\n        /* \".git/calculaator.sol\":245:268  firstnumber = _firstnum */\n      dup2\n      swap1\n      sstore\n      pop\n        /* \".git/calculaator.sol\":191:276  function getfirstnum(uint _firstnum)public {... */\n      pop\n      jump\t// out\n        /* \".git/calculaator.sol\":1836:2099  function checkweather()public view returns (string memory){... */\n    tag_37:\n        /* \".git/calculaator.sol\":1880:1893  string memory */\n      0x60\n        /* \".git/calculaator.sol\":1920:1922  15 */\n      0x0f\n        /* \".git/calculaator.sol\":1909:1916  weather */\n      sload(0x04)\n        /* \".git/calculaator.sol\":1909:1922  weather <= 15 */\n      gt\n        /* \".git/calculaator.sol\":1905:2092  if (weather <= 15){... */\n      tag_78\n      jumpi\n        /* \".git/calculaator.sol\":1938:1951  return \"cold\" */\n      mload(0x40)\n      dup1\n      0x40\n      add\n      0x40\n      mstore\n      dup1\n      0x04\n      dup2\n      mstore\n      0x20\n      add\n      0x636f6c6400000000000000000000000000000000000000000000000000000000\n      dup2\n      mstore\n      pop\n      swap1\n      pop\n      jump(tag_77)\n        /* \".git/calculaator.sol\":1905:2092  if (weather <= 15){... */\n    tag_78:\n        /* \".git/calculaator.sol\":1984:1986  15 */\n      0x0f\n        /* \".git/calculaator.sol\":1973:1980  weather */\n      sload(0x04)\n        /* \".git/calculaator.sol\":1973:1986  weather >= 15 */\n      lt\n      iszero\n        /* \".git/calculaator.sol\":1973:2003  weather >= 15 && weather <= 25 */\n      dup1\n      iszero\n      tag_80\n      jumpi\n      pop\n        /* \".git/calculaator.sol\":2001:2003  25 */\n      0x19\n        /* \".git/calculaator.sol\":1990:1997  weather */\n      sload(0x04)\n        /* \".git/calculaator.sol\":1990:2003  weather <= 25 */\n      gt\n      iszero\n        /* \".git/calculaator.sol\":1973:2003  weather >= 15 && weather <= 25 */\n    tag_80:\n        /* \".git/calculaator.sol\":1969:2092  if (weather >= 15 && weather <= 25) {... */\n      iszero\n      tag_81\n      jumpi\n        /* \".git/calculaator.sol\":2020:2035  return \"normal\" */\n      mload(0x40)\n      dup1\n      0x40\n      add\n      0x40\n      mstore\n      dup1\n      0x06\n      dup2\n      mstore\n      0x20\n      add\n      0x6e6f726d616c0000000000000000000000000000000000000000000000000000\n      dup2\n      mstore\n      pop\n      swap1\n      pop\n      jump(tag_77)\n        /* \".git/calculaator.sol\":1969:2092  if (weather >= 15 && weather <= 25) {... */\n    tag_81:\n        /* \".git/calculaator.sol\":2068:2080  return \"hot\" */\n      mload(0x40)\n      dup1\n      0x40\n      add\n      0x40\n      mstore\n      dup1\n      0x03\n      dup2\n      mstore\n      0x20\n      add\n      0x686f740000000000000000000000000000000000000000000000000000000000\n      dup2\n      mstore\n      pop\n      swap1\n      pop\n        /* \".git/calculaator.sol\":1836:2099  function checkweather()public view returns (string memory){... */\n    tag_77:\n      swap1\n      jump\t// out\n        /* \".git/calculaator.sol\":282:365  function getsecondnum(uint _secnum)public {... */\n    tag_41:\n        /* \".git/calculaator.sol\":350:357  _secnum */\n      dup1\n        /* \".git/calculaator.sol\":335:347  secondnumber */\n      0x01\n        /* \".git/calculaator.sol\":335:357  secondnumber = _secnum */\n      dup2\n      swap1\n      sstore\n      pop\n        /* \".git/calculaator.sol\":282:365  function getsecondnum(uint _secnum)public {... */\n      pop\n      jump\t// out\n        /* \".git/calculaator.sol\":924:986  function getage(uint _age) public{... */\n    tag_44:\n        /* \".git/calculaator.sol\":974:978  _age */\n      dup1\n        /* \".git/calculaator.sol\":968:971  age */\n      0x02\n        /* \".git/calculaator.sol\":968:978  age = _age */\n      dup2\n      swap1\n      sstore\n      pop\n        /* \".git/calculaator.sol\":924:986  function getage(uint _age) public{... */\n      pop\n      jump\t// out\n        /* \".git/calculaator.sol\":810:907  function invalid()public view returns (uint) {... */\n    tag_46:\n        /* \".git/calculaator.sol\":849:853  uint */\n      0x00\n        /* \".git/calculaator.sol\":887:899  secondnumber */\n      sload(0x01)\n        /* \".git/calculaator.sol\":873:884  firstnumber */\n      sload(0x00)\n        /* \".git/calculaator.sol\":873:899  firstnumber + secondnumber */\n      tag_86\n      swap2\n      swap1\n      tag_87\n      jump\t// in\n    tag_86:\n        /* \".git/calculaator.sol\":866:899  return firstnumber + secondnumber */\n      swap1\n      pop\n        /* \".git/calculaator.sol\":810:907  function invalid()public view returns (uint) {... */\n      swap1\n      jump\t// out\n        /* \".git/calculaator.sol\":1317:1388  function tracktime(uint _ctime) public {... */\n    tag_50:\n        /* \".git/calculaator.sol\":1374:1380  _ctime */\n      dup1\n        /* \".git/calculaator.sol\":1367:1371  time */\n      0x03\n        /* \".git/calculaator.sol\":1367:1380  time = _ctime */\n      dup2\n      swap1\n      sstore\n      pop\n        /* \".git/calculaator.sol\":1317:1388  function tracktime(uint _ctime) public {... */\n      pop\n      jump\t// out\n        /* \".git/calculaator.sol\":992:1311  function checkage()public view returns (string memory){ ... */\n    tag_52:\n        /* \".git/calculaator.sol\":1032:1045  string memory */\n      0x60\n        /* \".git/calculaator.sol\":1069:1071  15 */\n      0x0f\n        /* \".git/calculaator.sol\":1062:1065  age */\n      sload(0x02)\n        /* \".git/calculaator.sol\":1062:1071  age <= 15 */\n      gt\n        /* \".git/calculaator.sol\":1058:1304  if (age <= 15){... */\n      tag_90\n      jumpi\n        /* \".git/calculaator.sol\":1087:1120  return \"sorry dear you cant vote\" */\n      mload(0x40)\n      dup1\n      0x40\n      add\n      0x40\n      mstore\n      dup1\n      0x18\n      dup2\n      mstore\n      0x20\n      add\n      0x736f727279206465617220796f752063616e7420766f74650000000000000000\n      dup2\n      mstore\n      pop\n      swap1\n      pop\n      jump(tag_89)\n        /* \".git/calculaator.sol\":1058:1304  if (age <= 15){... */\n    tag_90:\n        /* \".git/calculaator.sol\":1149:1151  16 */\n      0x10\n        /* \".git/calculaator.sol\":1142:1145  age */\n      sload(0x02)\n        /* \".git/calculaator.sol\":1142:1151  age >= 16 */\n      lt\n      iszero\n        /* \".git/calculaator.sol\":1142:1164  age >= 16 && age <= 17 */\n      dup1\n      iszero\n      tag_92\n      jumpi\n      pop\n        /* \".git/calculaator.sol\":1162:1164  17 */\n      0x11\n        /* \".git/calculaator.sol\":1155:1158  age */\n      sload(0x02)\n        /* \".git/calculaator.sol\":1155:1164  age <= 17 */\n      gt\n      iszero\n        /* \".git/calculaator.sol\":1142:1164  age >= 16 && age <= 17 */\n    tag_92:\n        /* \".git/calculaator.sol\":1138:1304  if (age >= 16 && age <= 17) {... */\n      iszero\n      tag_93\n      jumpi\n        /* \".git/calculaator.sol\":1181:1218  return \"very soon you are gonna vote\" */\n      mload(0x40)\n      dup1\n      0x40\n      add\n      0x40\n      mstore\n      dup1\n      0x1c\n      dup2\n      mstore\n      0x20\n      add\n      0x7665727920736f6f6e20796f752061726520676f6e6e6120766f746500000000\n      dup2\n      mstore\n      pop\n      swap1\n      pop\n      jump(tag_89)\n        /* \".git/calculaator.sol\":1138:1304  if (age >= 16 && age <= 17) {... */\n    tag_93:\n        /* \".git/calculaator.sol\":1259:1292  return \"You are eligible to vote\" */\n      mload(0x40)\n      dup1\n      0x40\n      add\n      0x40\n      mstore\n      dup1\n      0x18\n      dup2\n      mstore\n      0x20\n      add\n      0x596f752061726520656c696769626c6520746f20766f74650000000000000000\n      dup2\n      mstore\n      pop\n      swap1\n      pop\n        /* \".git/calculaator.sol\":992:1311  function checkage()public view returns (string memory){ ... */\n    tag_89:\n      swap1\n      jump\t// out\n        /* \".git/calculaator.sol\":480:581  function subtraction()public view returns (uint) {... */\n    tag_55:\n        /* \".git/calculaator.sol\":523:527  uint */\n      0x00\n        /* \".git/calculaator.sol\":561:573  secondnumber */\n      sload(0x01)\n        /* \".git/calculaator.sol\":547:558  firstnumber */\n      sload(0x00)\n        /* \".git/calculaator.sol\":547:573  firstnumber - secondnumber */\n      tag_96\n      swap2\n      swap1\n      tag_97\n      jump\t// in\n    tag_96:\n        /* \".git/calculaator.sol\":540:573  return firstnumber - secondnumber */\n      swap1\n      pop\n        /* \".git/calculaator.sol\":480:581  function subtraction()public view returns (uint) {... */\n      swap1\n      jump\t// out\n        /* \".git/calculaator.sol\":373:471  function addition()public view returns (uint) {... */\n    tag_58:\n        /* \".git/calculaator.sol\":413:417  uint */\n      0x00\n        /* \".git/calculaator.sol\":451:463  secondnumber */\n      sload(0x01)\n        /* \".git/calculaator.sol\":437:448  firstnumber */\n      sload(0x00)\n        /* \".git/calculaator.sol\":437:463  firstnumber + secondnumber */\n      tag_99\n      swap2\n      swap1\n      tag_87\n      jump\t// in\n    tag_99:\n        /* \".git/calculaator.sol\":430:463  return firstnumber + secondnumber */\n      swap1\n      pop\n        /* \".git/calculaator.sol\":373:471  function addition()public view returns (uint) {... */\n      swap1\n      jump\t// out\n        /* \"#utility.yul\":7:84   */\n    tag_100:\n        /* \"#utility.yul\":44:51   */\n      0x00\n        /* \"#utility.yul\":73:78   */\n      dup2\n        /* \"#utility.yul\":62:78   */\n      swap1\n      pop\n        /* \"#utility.yul\":7:84   */\n      swap2\n      swap1\n      pop\n      jump\t// out\n        /* \"#utility.yul\":90:208   */\n    tag_101:\n        /* \"#utility.yul\":177:201   */\n      tag_117\n        /* \"#utility.yul\":195:200   */\n      dup2\n        /* \"#utility.yul\":177:201   */\n      tag_100\n      jump\t// in\n    tag_117:\n        /* \"#utility.yul\":172:175   */\n      dup3\n        /* \"#utility.yul\":165:202   */\n      mstore\n        /* \"#utility.yul\":90:208   */\n      pop\n      pop\n      jump\t// out\n        /* \"#utility.yul\":214:436   */\n    tag_21:\n        /* \"#utility.yul\":307:311   */\n      0x00\n        /* \"#utility.yul\":345:347   */\n      0x20\n        /* \"#utility.yul\":334:343   */\n      dup3\n        /* \"#utility.yul\":330:348   */\n      add\n        /* \"#utility.yul\":322:348   */\n      swap1\n      pop\n        /* \"#utility.yul\":358:429   */\n      tag_119\n        /* \"#utility.yul\":426:427   */\n      0x00\n        /* \"#utility.yul\":415:424   */\n      dup4\n        /* \"#utility.yul\":411:428   */\n      add\n        /* \"#utility.yul\":402:408   */\n      dup5\n        /* \"#utility.yul\":358:429   */\n      tag_101\n      jump\t// in\n    tag_119:\n        /* \"#utility.yul\":214:436   */\n      swap3\n      swap2\n      pop\n      pop\n      jump\t// out\n        /* \"#utility.yul\":523:640   */\n    tag_103:\n        /* \"#utility.yul\":632:633   */\n      0x00\n        /* \"#utility.yul\":629:630   */\n      0x00\n        /* \"#utility.yul\":622:634   */\n      revert\n        /* \"#utility.yul\":769:891   */\n    tag_105:\n        /* \"#utility.yul\":842:866   */\n      tag_124\n        /* \"#utility.yul\":860:865   */\n      dup2\n        /* \"#utility.yul\":842:866   */\n      tag_100\n      jump\t// in\n    tag_124:\n        /* \"#utility.yul\":835:840   */\n      dup2\n        /* \"#utility.yul\":832:867   */\n      eq\n        /* \"#utility.yul\":822:885   */\n      tag_125\n      jumpi\n        /* \"#utility.yul\":881:882   */\n      0x00\n        /* \"#utility.yul\":878:879   */\n      0x00\n        /* \"#utility.yul\":871:883   */\n      revert\n        /* \"#utility.yul\":822:885   */\n    tag_125:\n        /* \"#utility.yul\":769:891   */\n      pop\n      jump\t// out\n        /* \"#utility.yul\":897:1036   */\n    tag_106:\n        /* \"#utility.yul\":943:948   */\n      0x00\n        /* \"#utility.yul\":981:987   */\n      dup2\n        /* \"#utility.yul\":968:988   */\n      calldataload\n        /* \"#utility.yul\":959:988   */\n      swap1\n      pop\n        /* \"#utility.yul\":997:1030   */\n      tag_127\n        /* \"#utility.yul\":1024:1029   */\n      dup2\n        /* \"#utility.yul\":997:1030   */\n      tag_105\n      jump\t// in\n    tag_127:\n        /* \"#utility.yul\":897:1036   */\n      swap3\n      swap2\n      pop\n      pop\n      jump\t// out\n        /* \"#utility.yul\":1042:1371   */\n    tag_24:\n        /* \"#utility.yul\":1101:1107   */\n      0x00\n        /* \"#utility.yul\":1150:1152   */\n      0x20\n        /* \"#utility.yul\":1138:1147   */\n      dup3\n        /* \"#utility.yul\":1129:1136   */\n      dup5\n        /* \"#utility.yul\":1125:1148   */\n      sub\n        /* \"#utility.yul\":1121:1153   */\n      slt\n        /* \"#utility.yul\":1118:1237   */\n      iszero\n      tag_129\n      jumpi\n        /* \"#utility.yul\":1156:1235   */\n      tag_130\n      tag_103\n      jump\t// in\n    tag_130:\n        /* \"#utility.yul\":1118:1237   */\n    tag_129:\n        /* \"#utility.yul\":1276:1277   */\n      0x00\n        /* \"#utility.yul\":1301:1354   */\n      tag_131\n        /* \"#utility.yul\":1346:1353   */\n      dup5\n        /* \"#utility.yul\":1337:1343   */\n      dup3\n        /* \"#utility.yul\":1326:1335   */\n      dup6\n        /* \"#utility.yul\":1322:1344   */\n      add\n        /* \"#utility.yul\":1301:1354   */\n      tag_106\n      jump\t// in\n    tag_131:\n        /* \"#utility.yul\":1291:1354   */\n      swap2\n      pop\n        /* \"#utility.yul\":1247:1364   */\n      pop\n        /* \"#utility.yul\":1042:1371   */\n      swap3\n      swap2\n      pop\n      pop\n      jump\t// out\n        /* \"#utility.yul\":1377:1476   */\n    tag_107:\n        /* \"#utility.yul\":1429:1435   */\n      0x00\n        /* \"#utility.yul\":1463:1468   */\n      dup2\n        /* \"#utility.yul\":1457:1469   */\n      mload\n        /* \"#utility.yul\":1447:1469   */\n      swap1\n      pop\n        /* \"#utility.yul\":1377:1476   */\n      swap2\n      swap1\n      pop\n      jump\t// out\n        /* \"#utility.yul\":1482:1651   */\n    tag_108:\n        /* \"#utility.yul\":1566:1577   */\n      0x00\n        /* \"#utility.yul\":1600:1606   */\n      dup3\n        /* \"#utility.yul\":1595:1598   */\n      dup3\n        /* \"#utility.yul\":1588:1607   */\n      mstore\n        /* \"#utility.yul\":1640:1644   */\n      0x20\n        /* \"#utility.yul\":1635:1638   */\n      dup3\n        /* \"#utility.yul\":1631:1645   */\n      add\n        /* \"#utility.yul\":1616:1645   */\n      swap1\n      pop\n        /* \"#utility.yul\":1482:1651   */\n      swap3\n      swap2\n      pop\n      pop\n      jump\t// out\n        /* \"#utility.yul\":1657:1796   */\n    tag_109:\n        /* \"#utility.yul\":1746:1752   */\n      dup3\n        /* \"#utility.yul\":1741:1744   */\n      dup2\n        /* \"#utility.yul\":1736:1739   */\n      dup4\n        /* \"#utility.yul\":1730:1753   */\n      mcopy\n        /* \"#utility.yul\":1787:1788   */\n      0x00\n        /* \"#utility.yul\":1778:1784   */\n      dup4\n        /* \"#utility.yul\":1773:1776   */\n      dup4\n        /* \"#utility.yul\":1769:1785   */\n      add\n        /* \"#utility.yul\":1762:1789   */\n      mstore\n        /* \"#utility.yul\":1657:1796   */\n      pop\n      pop\n      pop\n      jump\t// out\n        /* \"#utility.yul\":1802:1904   */\n    tag_110:\n        /* \"#utility.yul\":1843:1849   */\n      0x00\n        /* \"#utility.yul\":1894:1896   */\n      0x1f\n        /* \"#utility.yul\":1890:1897   */\n      not\n        /* \"#utility.yul\":1885:1887   */\n      0x1f\n        /* \"#utility.yul\":1878:1883   */\n      dup4\n        /* \"#utility.yul\":1874:1888   */\n      add\n        /* \"#utility.yul\":1870:1898   */\n      and\n        /* \"#utility.yul\":1860:1898   */\n      swap1\n      pop\n        /* \"#utility.yul\":1802:1904   */\n      swap2\n      swap1\n      pop\n      jump\t// out\n        /* \"#utility.yul\":1910:2287   */\n    tag_111:\n        /* \"#utility.yul\":1998:2001   */\n      0x00\n        /* \"#utility.yul\":2026:2065   */\n      tag_137\n        /* \"#utility.yul\":2059:2064   */\n      dup3\n        /* \"#utility.yul\":2026:2065   */\n      tag_107\n      jump\t// in\n    tag_137:\n        /* \"#utility.yul\":2081:2152   */\n      tag_138\n        /* \"#utility.yul\":2145:2151   */\n      dup2\n        /* \"#utility.yul\":2140:2143   */\n      dup6\n        /* \"#utility.yul\":2081:2152   */\n      tag_108\n      jump\t// in\n    tag_138:\n        /* \"#utility.yul\":2074:2152   */\n      swap4\n      pop\n        /* \"#utility.yul\":2161:2226   */\n      tag_139\n        /* \"#utility.yul\":2219:2225   */\n      dup2\n        /* \"#utility.yul\":2214:2217   */\n      dup6\n        /* \"#utility.yul\":2207:2211   */\n      0x20\n        /* \"#utility.yul\":2200:2205   */\n      dup7\n        /* \"#utility.yul\":2196:2212   */\n      add\n        /* \"#utility.yul\":2161:2226   */\n      tag_109\n      jump\t// in\n    tag_139:\n        /* \"#utility.yul\":2251:2280   */\n      tag_140\n        /* \"#utility.yul\":2273:2279   */\n      dup2\n        /* \"#utility.yul\":2251:2280   */\n      tag_110\n      jump\t// in\n    tag_140:\n        /* \"#utility.yul\":2246:2249   */\n      dup5\n        /* \"#utility.yul\":2242:2281   */\n      add\n        /* \"#utility.yul\":2235:2281   */\n      swap2\n      pop\n        /* \"#utility.yul\":2002:2287   */\n      pop\n        /* \"#utility.yul\":1910:2287   */\n      swap3\n      swap2\n      pop\n      pop\n      jump\t// out\n        /* \"#utility.yul\":2293:2606   */\n    tag_29:\n        /* \"#utility.yul\":2406:2410   */\n      0x00\n        /* \"#utility.yul\":2444:2446   */\n      0x20\n        /* \"#utility.yul\":2433:2442   */\n      dup3\n        /* \"#utility.yul\":2429:2447   */\n      add\n        /* \"#utility.yul\":2421:2447   */\n      swap1\n      pop\n        /* \"#utility.yul\":2493:2502   */\n      dup2\n        /* \"#utility.yul\":2487:2491   */\n      dup2\n        /* \"#utility.yul\":2483:2503   */\n      sub\n        /* \"#utility.yul\":2479:2480   */\n      0x00\n        /* \"#utility.yul\":2468:2477   */\n      dup4\n        /* \"#utility.yul\":2464:2481   */\n      add\n        /* \"#utility.yul\":2457:2504   */\n      mstore\n        /* \"#utility.yul\":2521:2599   */\n      tag_142\n        /* \"#utility.yul\":2594:2598   */\n      dup2\n        /* \"#utility.yul\":2585:2591   */\n      dup5\n        /* \"#utility.yul\":2521:2599   */\n      tag_111\n      jump\t// in\n    tag_142:\n        /* \"#utility.yul\":2513:2599   */\n      swap1\n      pop\n        /* \"#utility.yul\":2293:2606   */\n      swap3\n      swap2\n      pop\n      pop\n      jump\t// out\n        /* \"#utility.yul\":2612:2792   */\n    tag_112:\n        /* \"#utility.yul\":2660:2737   */\n      0x4e487b7100000000000000000000000000000000000000000000000000000000\n        /* \"#utility.yul\":2657:2658   */\n      0x00\n        /* \"#utility.yul\":2650:2738   */\n      mstore\n        /* \"#utility.yul\":2757:2761   */\n      0x11\n        /* \"#utility.yul\":2754:2755   */\n      0x04\n        /* \"#utility.yul\":2747:2762   */\n      mstore\n        /* \"#utility.yul\":2781:2785   */\n      0x24\n        /* \"#utility.yul\":2778:2779   */\n      0x00\n        /* \"#utility.yul\":2771:2786   */\n      revert\n        /* \"#utility.yul\":2798:3208   */\n    tag_62:\n        /* \"#utility.yul\":2838:2845   */\n      0x00\n        /* \"#utility.yul\":2861:2881   */\n      tag_145\n        /* \"#utility.yul\":2879:2880   */\n      dup3\n        /* \"#utility.yul\":2861:2881   */\n      tag_100\n      jump\t// in\n    tag_145:\n        /* \"#utility.yul\":2856:2881   */\n      swap2\n      pop\n        /* \"#utility.yul\":2895:2915   */\n      tag_146\n        /* \"#utility.yul\":2913:2914   */\n      dup4\n        /* \"#utility.yul\":2895:2915   */\n      tag_100\n      jump\t// in\n    tag_146:\n        /* \"#utility.yul\":2890:2915   */\n      swap3\n      pop\n        /* \"#utility.yul\":2950:2951   */\n      dup3\n        /* \"#utility.yul\":2947:2948   */\n      dup3\n        /* \"#utility.yul\":2943:2952   */\n      mul\n        /* \"#utility.yul\":2972:3002   */\n      tag_147\n        /* \"#utility.yul\":2990:3001   */\n      dup2\n        /* \"#utility.yul\":2972:3002   */\n      tag_100\n      jump\t// in\n    tag_147:\n        /* \"#utility.yul\":2961:3002   */\n      swap2\n      pop\n        /* \"#utility.yul\":3151:3152   */\n      dup3\n        /* \"#utility.yul\":3142:3149   */\n      dup3\n        /* \"#utility.yul\":3138:3153   */\n      div\n        /* \"#utility.yul\":3135:3136   */\n      dup5\n        /* \"#utility.yul\":3132:3154   */\n      eq\n        /* \"#utility.yul\":3112:3113   */\n      dup4\n        /* \"#utility.yul\":3105:3114   */\n      iszero\n        /* \"#utility.yul\":3085:3168   */\n      or\n        /* \"#utility.yul\":3062:3201   */\n      tag_148\n      jumpi\n        /* \"#utility.yul\":3181:3199   */\n      tag_149\n      tag_112\n      jump\t// in\n    tag_149:\n        /* \"#utility.yul\":3062:3201   */\n    tag_148:\n        /* \"#utility.yul\":2846:3208   */\n      pop\n        /* \"#utility.yul\":2798:3208   */\n      swap3\n      swap2\n      pop\n      pop\n      jump\t// out\n        /* \"#utility.yul\":3214:3394   */\n    tag_113:\n        /* \"#utility.yul\":3262:3339   */\n      0x4e487b7100000000000000000000000000000000000000000000000000000000\n        /* \"#utility.yul\":3259:3260   */\n      0x00\n        /* \"#utility.yul\":3252:3340   */\n      mstore\n        /* \"#utility.yul\":3359:3363   */\n      0x12\n        /* \"#utility.yul\":3356:3357   */\n      0x04\n        /* \"#utility.yul\":3349:3364   */\n      mstore\n        /* \"#utility.yul\":3383:3387   */\n      0x24\n        /* \"#utility.yul\":3380:3381   */\n      0x00\n        /* \"#utility.yul\":3373:3388   */\n      revert\n        /* \"#utility.yul\":3400:3585   */\n    tag_75:\n        /* \"#utility.yul\":3440:3441   */\n      0x00\n        /* \"#utility.yul\":3457:3477   */\n      tag_152\n        /* \"#utility.yul\":3475:3476   */\n      dup3\n        /* \"#utility.yul\":3457:3477   */\n      tag_100\n      jump\t// in\n    tag_152:\n        /* \"#utility.yul\":3452:3477   */\n      swap2\n      pop\n        /* \"#utility.yul\":3491:3511   */\n      tag_153\n        /* \"#utility.yul\":3509:3510   */\n      dup4\n        /* \"#utility.yul\":3491:3511   */\n      tag_100\n      jump\t// in\n    tag_153:\n        /* \"#utility.yul\":3486:3511   */\n      swap3\n      pop\n        /* \"#utility.yul\":3530:3531   */\n      dup3\n        /* \"#utility.yul\":3520:3555   */\n      tag_154\n      jumpi\n        /* \"#utility.yul\":3535:3553   */\n      tag_155\n      tag_113\n      jump\t// in\n    tag_155:\n        /* \"#utility.yul\":3520:3555   */\n    tag_154:\n        /* \"#utility.yul\":3577:3578   */\n      dup3\n        /* \"#utility.yul\":3574:3575   */\n      dup3\n        /* \"#utility.yul\":3570:3579   */\n      div\n        /* \"#utility.yul\":3565:3579   */\n      swap1\n      pop\n        /* \"#utility.yul\":3400:3585   */\n      swap3\n      swap2\n      pop\n      pop\n      jump\t// out\n        /* \"#utility.yul\":3591:3782   */\n    tag_87:\n        /* \"#utility.yul\":3631:3634   */\n      0x00\n        /* \"#utility.yul\":3650:3670   */\n      tag_157\n        /* \"#utility.yul\":3668:3669   */\n      dup3\n        /* \"#utility.yul\":3650:3670   */\n      tag_100\n      jump\t// in\n    tag_157:\n        /* \"#utility.yul\":3645:3670   */\n      swap2\n      pop\n        /* \"#utility.yul\":3684:3704   */\n      tag_158\n        /* \"#utility.yul\":3702:3703   */\n      dup4\n        /* \"#utility.yul\":3684:3704   */\n      tag_100\n      jump\t// in\n    tag_158:\n        /* \"#utility.yul\":3679:3704   */\n      swap3\n      pop\n        /* \"#utility.yul\":3727:3728   */\n      dup3\n        /* \"#utility.yul\":3724:3725   */\n      dup3\n        /* \"#utility.yul\":3720:3729   */\n      add\n        /* \"#utility.yul\":3713:3729   */\n      swap1\n      pop\n        /* \"#utility.yul\":3748:3751   */\n      dup1\n        /* \"#utility.yul\":3745:3746   */\n      dup3\n        /* \"#utility.yul\":3742:3752   */\n      gt\n        /* \"#utility.yul\":3739:3775   */\n      iszero\n      tag_159\n      jumpi\n        /* \"#utility.yul\":3755:3773   */\n      tag_160\n      tag_112\n      jump\t// in\n    tag_160:\n        /* \"#utility.yul\":3739:3775   */\n    tag_159:\n        /* \"#utility.yul\":3591:3782   */\n      swap3\n      swap2\n      pop\n      pop\n      jump\t// out\n        /* \"#utility.yul\":3788:3982   */\n    tag_97:\n        /* \"#utility.yul\":3828:3832   */\n      0x00\n        /* \"#utility.yul\":3848:3868   */\n      tag_162\n        /* \"#utility.yul\":3866:3867   */\n      dup3\n        /* \"#utility.yul\":3848:3868   */\n      tag_100\n      jump\t// in\n    tag_162:\n        /* \"#utility.yul\":3843:3868   */\n      swap2\n      pop\n        /* \"#utility.yul\":3882:3902   */\n      tag_163\n        /* \"#utility.yul\":3900:3901   */\n      dup4\n        /* \"#utility.yul\":3882:3902   */\n      tag_100\n      jump\t// in\n    tag_163:\n        /* \"#utility.yul\":3877:3902   */\n      swap3\n      pop\n        /* \"#utility.yul\":3926:3927   */\n      dup3\n        /* \"#utility.yul\":3923:3924   */\n      dup3\n        /* \"#utility.yul\":3919:3928   */\n      sub\n        /* \"#utility.yul\":3911:3928   */\n      swap1\n      pop\n        /* \"#utility.yul\":3950:3951   */\n      dup2\n        /* \"#utility.yul\":3944:3948   */\n      dup2\n        /* \"#utility.yul\":3941:3952   */\n      gt\n        /* \"#utility.yul\":3938:3975   */\n      iszero\n      tag_164\n      jumpi\n        /* \"#utility.yul\":3955:3973   */\n      tag_165\n      tag_112\n      jump\t// in\n    tag_165:\n        /* \"#utility.yul\":3938:3975   */\n    tag_164:\n        /* \"#utility.yul\":3788:3982   */\n      swap3\n      swap2\n      pop\n      pop\n      jump\t// out\n\n    auxdata: 0xa26469706673582212200d34bb838997a272c254d254b7d2c39aa06a2e478f7bd235b913c0f780efde7264736f6c634300081e0033\n}\n",
				"bytecode": {
					"linkReferences": {},
					"object": "6080604052348015600e575f5ffd5b506108578061001c5f395ff3fe608060405234801561000f575f5ffd5b50600436106100cd575f3560e01c80639f17c8921161008a578063bed948c511610064578063bed948c5146101d7578063d62ff3a4146101f3578063e3ec025114610211578063ec5971281461022f576100cd565b80639f17c89214610181578063a59e0d541461019d578063bde9e40e146101b9576100cd565b8063011285da146100d157806312a09447146100ef578063266de1e01461010b5780633205f5fc1461012957806348a9066d146101475780637f10988614610163575b5f5ffd5b6100d961024d565b6040516100e691906105ee565b60405180910390f35b61010960048036038101906101049190610635565b610262565b005b61011361026c565b60405161012091906106d0565b60405180910390f35b6101316103a1565b60405161013e91906105ee565b60405180910390f35b610161600480360381019061015c9190610635565b6103b6565b005b61016b6103bf565b60405161017891906106d0565b60405180910390f35b61019b60048036038101906101969190610635565b61049c565b005b6101b760048036038101906101b29190610635565b6104a6565b005b6101c16104b0565b6040516101ce91906105ee565b60405180910390f35b6101f160048036038101906101ec9190610635565b6104c5565b005b6101fb6104cf565b60405161020891906106d0565b60405180910390f35b6102196105ac565b60405161022691906105ee565b60405180910390f35b6102376105c1565b60405161024491906105ee565b60405180910390f35b5f6001545f5461025d919061071d565b905090565b8060048190555050565b6060600c600354116102b5576040518060400160405280600c81526020017f476f6f64204d6f726e696e670000000000000000000000000000000000000000815250905061039e565b600c600354101580156102cb5750601060035411155b1561030d576040518060400160405280600e81526020017f476f6f642041667465726e6f6f6e000000000000000000000000000000000000815250905061039e565b6010600354101580156103235750601460035411155b15610365576040518060400160405280600c81526020017f476f6f64204576656e696e670000000000000000000000000000000000000000815250905061039e565b6040518060400160405280600a81526020017f476f6f64204e696768740000000000000000000000000000000000000000000081525090505b90565b5f6001545f546103b1919061078b565b905090565b805f8190555050565b6060600f60045411610408576040518060400160405280600481526020017f636f6c64000000000000000000000000000000000000000000000000000000008152509050610499565b600f6004541015801561041e5750601960045411155b15610460576040518060400160405280600681526020017f6e6f726d616c00000000000000000000000000000000000000000000000000008152509050610499565b6040518060400160405280600381526020017f686f74000000000000000000000000000000000000000000000000000000000081525090505b90565b8060018190555050565b8060028190555050565b5f6001545f546104c091906107bb565b905090565b8060038190555050565b6060600f60025411610518576040518060400160405280601881526020017f736f727279206465617220796f752063616e7420766f7465000000000000000081525090506105a9565b60106002541015801561052e5750601160025411155b15610570576040518060400160405280601c81526020017f7665727920736f6f6e20796f752061726520676f6e6e6120766f74650000000081525090506105a9565b6040518060400160405280601881526020017f596f752061726520656c696769626c6520746f20766f7465000000000000000081525090505b90565b5f6001545f546105bc91906107ee565b905090565b5f6001545f546105d191906107bb565b905090565b5f819050919050565b6105e8816105d6565b82525050565b5f6020820190506106015f8301846105df565b92915050565b5f5ffd5b610614816105d6565b811461061e575f5ffd5b50565b5f8135905061062f8161060b565b92915050565b5f6020828403121561064a57610649610607565b5b5f61065784828501610621565b91505092915050565b5f81519050919050565b5f82825260208201905092915050565b8281835e5f83830152505050565b5f601f19601f8301169050919050565b5f6106a282610660565b6106ac818561066a565b93506106bc81856020860161067a565b6106c581610688565b840191505092915050565b5f6020820190508181035f8301526106e88184610698565b905092915050565b7f4e487b71000000000000000000000000000000000000000000000000000000005f52601160045260245ffd5b5f610727826105d6565b9150610732836105d6565b9250828202610740816105d6565b91508282048414831517610757576107566106f0565b5b5092915050565b7f4e487b71000000000000000000000000000000000000000000000000000000005f52601260045260245ffd5b5f610795826105d6565b91506107a0836105d6565b9250826107b0576107af61075e565b5b828204905092915050565b5f6107c5826105d6565b91506107d0836105d6565b92508282019050808211156107e8576107e76106f0565b5b92915050565b5f6107f8826105d6565b9150610803836105d6565b925082820390508181111561081b5761081a6106f0565b5b9291505056fea26469706673582212200d34bb838997a272c254d254b7d2c39aa06a2e478f7bd235b913c0f780efde7264736f6c634300081e0033",
					"opcodes": "PUSH1 0x80 PUSH1 0x40 MSTORE CALLVALUE DUP1 ISZERO PUSH1 0xE JUMPI PUSH0 PUSH0 REVERT JUMPDEST POP PUSH2 0x857 DUP1 PUSH2 0x1C PUSH0 CODECOPY PUSH0 RETURN INVALID PUSH1 0x80 PUSH1 0x40 MSTORE CALLVALUE DUP1 ISZERO PUSH2 0xF JUMPI PUSH0 PUSH0 REVERT JUMPDEST POP PUSH1 0x4 CALLDATASIZE LT PUSH2 0xCD JUMPI PUSH0 CALLDATALOAD PUSH1 0xE0 SHR DUP1 PUSH4 0x9F17C892 GT PUSH2 0x8A JUMPI DUP1 PUSH4 0xBED948C5 GT PUSH2 0x64 JUMPI DUP1 PUSH4 0xBED948C5 EQ PUSH2 0x1D7 JUMPI DUP1 PUSH4 0xD62FF3A4 EQ PUSH2 0x1F3 JUMPI DUP1 PUSH4 0xE3EC0251 EQ PUSH2 0x211 JUMPI DUP1 PUSH4 0xEC597128 EQ PUSH2 0x22F JUMPI PUSH2 0xCD JUMP JUMPDEST DUP1 PUSH4 0x9F17C892 EQ PUSH2 0x181 JUMPI DUP1 PUSH4 0xA59E0D54 EQ PUSH2 0x19D JUMPI DUP1 PUSH4 0xBDE9E40E EQ PUSH2 0x1B9 JUMPI PUSH2 0xCD JUMP JUMPDEST DUP1 PUSH4 0x11285DA EQ PUSH2 0xD1 JUMPI DUP1 PUSH4 0x12A09447 EQ PUSH2 0xEF JUMPI DUP1 PUSH4 0x266DE1E0 EQ PUSH2 0x10B JUMPI DUP1 PUSH4 0x3205F5FC EQ PUSH2 0x129 JUMPI DUP1 PUSH4 0x48A9066D EQ PUSH2 0x147 JUMPI DUP1 PUSH4 0x7F109886 EQ PUSH2 0x163 JUMPI JUMPDEST PUSH0 PUSH0 REVERT JUMPDEST PUSH2 0xD9 PUSH2 0x24D JUMP JUMPDEST PUSH1 0x40 MLOAD PUSH2 0xE6 SWAP2 SWAP1 PUSH2 0x5EE JUMP JUMPDEST PUSH1 0x40 MLOAD DUP1 SWAP2 SUB SWAP1 RETURN JUMPDEST PUSH2 0x109 PUSH1 0x4 DUP1 CALLDATASIZE SUB DUP2 ADD SWAP1 PUSH2 0x104 SWAP2 SWAP1 PUSH2 0x635 JUMP JUMPDEST PUSH2 0x262 JUMP JUMPDEST STOP JUMPDEST PUSH2 0x113 PUSH2 0x26C JUMP JUMPDEST PUSH1 0x40 MLOAD PUSH2 0x120 SWAP2 SWAP1 PUSH2 0x6D0 JUMP JUMPDEST PUSH1 0x40 MLOAD DUP1 SWAP2 SUB SWAP1 RETURN JUMPDEST PUSH2 0x131 PUSH2 0x3A1 JUMP JUMPDEST PUSH1 0x40 MLOAD PUSH2 0x13E SWAP2 SWAP1 PUSH2 0x5EE JUMP JUMPDEST PUSH1 0x40 MLOAD DUP1 SWAP2 SUB SWAP1 RETURN JUMPDEST PUSH2 0x161 PUSH1 0x4 DUP1 CALLDATASIZE SUB DUP2 ADD SWAP1 PUSH2 0x15C SWAP2 SWAP1 PUSH2 0x635 JUMP JUMPDEST PUSH2 0x3B6 JUMP JUMPDEST STOP JUMPDEST PUSH2 0x16B PUSH2 0x3BF JUMP JUMPDEST PUSH1 0x40 MLOAD PUSH2 0x178 SWAP2 SWAP1 PUSH2 0x6D0 JUMP JUMPDEST PUSH1 0x40 MLOAD DUP1 SWAP2 SUB SWAP1 RETURN JUMPDEST PUSH2 0x19B PUSH1 0x4 DUP1 CALLDATASIZE SUB DUP2 ADD SWAP1 PUSH2 0x196 SWAP2 SWAP1 PUSH2 0x635 JUMP JUMPDEST PUSH2 0x49C JUMP JUMPDEST STOP JUMPDEST PUSH2 0x1B7 PUSH1 0x4 DUP1 CALLDATASIZE SUB DUP2 ADD SWAP1 PUSH2 0x1B2 SWAP2 SWAP1 PUSH2 0x635 JUMP JUMPDEST PUSH2 0x4A6 JUMP JUMPDEST STOP JUMPDEST PUSH2 0x1C1 PUSH2 0x4B0 JUMP JUMPDEST PUSH1 0x40 MLOAD PUSH2 0x1CE SWAP2 SWAP1 PUSH2 0x5EE JUMP JUMPDEST PUSH1 0x40 MLOAD DUP1 SWAP2 SUB SWAP1 RETURN JUMPDEST PUSH2 0x1F1 PUSH1 0x4 DUP1 CALLDATASIZE SUB DUP2 ADD SWAP1 PUSH2 0x1EC SWAP2 SWAP1 PUSH2 0x635 JUMP JUMPDEST PUSH2 0x4C5 JUMP JUMPDEST STOP JUMPDEST PUSH2 0x1FB PUSH2 0x4CF JUMP JUMPDEST PUSH1 0x40 MLOAD PUSH2 0x208 SWAP2 SWAP1 PUSH2 0x6D0 JUMP JUMPDEST PUSH1 0x40 MLOAD DUP1 SWAP2 SUB SWAP1 RETURN JUMPDEST PUSH2 0x219 PUSH2 0x5AC JUMP JUMPDEST PUSH1 0x40 MLOAD PUSH2 0x226 SWAP2 SWAP1 PUSH2 0x5EE JUMP JUMPDEST PUSH1 0x40 MLOAD DUP1 SWAP2 SUB SWAP1 RETURN JUMPDEST PUSH2 0x237 PUSH2 0x5C1 JUMP JUMPDEST PUSH1 0x40 MLOAD PUSH2 0x244 SWAP2 SWAP1 PUSH2 0x5EE JUMP JUMPDEST PUSH1 0x40 MLOAD DUP1 SWAP2 SUB SWAP1 RETURN JUMPDEST PUSH0 PUSH1 0x1 SLOAD PUSH0 SLOAD PUSH2 0x25D SWAP2 SWAP1 PUSH2 0x71D JUMP JUMPDEST SWAP1 POP SWAP1 JUMP JUMPDEST DUP1 PUSH1 0x4 DUP2 SWAP1 SSTORE POP POP JUMP JUMPDEST PUSH1 0x60 PUSH1 0xC PUSH1 0x3 SLOAD GT PUSH2 0x2B5 JUMPI PUSH1 0x40 MLOAD DUP1 PUSH1 0x40 ADD PUSH1 0x40 MSTORE DUP1 PUSH1 0xC DUP2 MSTORE PUSH1 0x20 ADD PUSH32 0x476F6F64204D6F726E696E670000000000000000000000000000000000000000 DUP2 MSTORE POP SWAP1 POP PUSH2 0x39E JUMP JUMPDEST PUSH1 0xC PUSH1 0x3 SLOAD LT ISZERO DUP1 ISZERO PUSH2 0x2CB JUMPI POP PUSH1 0x10 PUSH1 0x3 SLOAD GT ISZERO JUMPDEST ISZERO PUSH2 0x30D JUMPI PUSH1 0x40 MLOAD DUP1 PUSH1 0x40 ADD PUSH1 0x40 MSTORE DUP1 PUSH1 0xE DUP2 MSTORE PUSH1 0x20 ADD PUSH32 0x476F6F642041667465726E6F6F6E000000000000000000000000000000000000 DUP2 MSTORE POP SWAP1 POP PUSH2 0x39E JUMP JUMPDEST PUSH1 0x10 PUSH1 0x3 SLOAD LT ISZERO DUP1 ISZERO PUSH2 0x323 JUMPI POP PUSH1 0x14 PUSH1 0x3 SLOAD GT ISZERO JUMPDEST ISZERO PUSH2 0x365 JUMPI PUSH1 0x40 MLOAD DUP1 PUSH1 0x40 ADD PUSH1 0x40 MSTORE DUP1 PUSH1 0xC DUP2 MSTORE PUSH1 0x20 ADD PUSH32 0x476F6F64204576656E696E670000000000000000000000000000000000000000 DUP2 MSTORE POP SWAP1 POP PUSH2 0x39E JUMP JUMPDEST PUSH1 0x40 MLOAD DUP1 PUSH1 0x40 ADD PUSH1 0x40 MSTORE DUP1 PUSH1 0xA DUP2 MSTORE PUSH1 0x20 ADD PUSH32 0x476F6F64204E6967687400000000000000000000000000000000000000000000 DUP2 MSTORE POP SWAP1 POP JUMPDEST SWAP1 JUMP JUMPDEST PUSH0 PUSH1 0x1 SLOAD PUSH0 SLOAD PUSH2 0x3B1 SWAP2 SWAP1 PUSH2 0x78B JUMP JUMPDEST SWAP1 POP SWAP1 JUMP JUMPDEST DUP1 PUSH0 DUP2 SWAP1 SSTORE POP POP JUMP JUMPDEST PUSH1 0x60 PUSH1 0xF PUSH1 0x4 SLOAD GT PUSH2 0x408 JUMPI PUSH1 0x40 MLOAD DUP1 PUSH1 0x40 ADD PUSH1 0x40 MSTORE DUP1 PUSH1 0x4 DUP2 MSTORE PUSH1 0x20 ADD PUSH32 0x636F6C6400000000000000000000000000000000000000000000000000000000 DUP2 MSTORE POP SWAP1 POP PUSH2 0x499 JUMP JUMPDEST PUSH1 0xF PUSH1 0x4 SLOAD LT ISZERO DUP1 ISZERO PUSH2 0x41E JUMPI POP PUSH1 0x19 PUSH1 0x4 SLOAD GT ISZERO JUMPDEST ISZERO PUSH2 0x460 JUMPI PUSH1 0x40 MLOAD DUP1 PUSH1 0x40 ADD PUSH1 0x40 MSTORE DUP1 PUSH1 0x6 DUP2 MSTORE PUSH1 0x20 ADD PUSH32 0x6E6F726D616C0000000000000000000000000000000000000000000000000000 DUP2 MSTORE POP SWAP1 POP PUSH2 0x499 JUMP JUMPDEST PUSH1 0x40 MLOAD DUP1 PUSH1 0x40 ADD PUSH1 0x40 MSTORE DUP1 PUSH1 0x3 DUP2 MSTORE PUSH1 0x20 ADD PUSH32 0x686F740000000000000000000000000000000000000000000000000000000000 DUP2 MSTORE POP SWAP1 POP JUMPDEST SWAP1 JUMP JUMPDEST DUP1 PUSH1 0x1 DUP2 SWAP1 SSTORE POP POP JUMP JUMPDEST DUP1 PUSH1 0x2 DUP2 SWAP1 SSTORE POP POP JUMP JUMPDEST PUSH0 PUSH1 0x1 SLOAD PUSH0 SLOAD PUSH2 0x4C0 SWAP2 SWAP1 PUSH2 0x7BB JUMP JUMPDEST SWAP1 POP SWAP1 JUMP JUMPDEST DUP1 PUSH1 0x3 DUP2 SWAP1 SSTORE POP POP JUMP JUMPDEST PUSH1 0x60 PUSH1 0xF PUSH1 0x2 SLOAD GT PUSH2 0x518 JUMPI PUSH1 0x40 MLOAD DUP1 PUSH1 0x40 ADD PUSH1 0x40 MSTORE DUP1 PUSH1 0x18 DUP2 MSTORE PUSH1 0x20 ADD PUSH32 0x736F727279206465617220796F752063616E7420766F74650000000000000000 DUP2 MSTORE POP SWAP1 POP PUSH2 0x5A9 JUMP JUMPDEST PUSH1 0x10 PUSH1 0x2 SLOAD LT ISZERO DUP1 ISZERO PUSH2 0x52E JUMPI POP PUSH1 0x11 PUSH1 0x2 SLOAD GT ISZERO JUMPDEST ISZERO PUSH2 0x570 JUMPI PUSH1 0x40 MLOAD DUP1 PUSH1 0x40 ADD PUSH1 0x40 MSTORE DUP1 PUSH1 0x1C DUP2 MSTORE PUSH1 0x20 ADD PUSH32 0x7665727920736F6F6E20796F752061726520676F6E6E6120766F746500000000 DUP2 MSTORE POP SWAP1 POP PUSH2 0x5A9 JUMP JUMPDEST PUSH1 0x40 MLOAD DUP1 PUSH1 0x40 ADD PUSH1 0x40 MSTORE DUP1 PUSH1 0x18 DUP2 MSTORE PUSH1 0x20 ADD PUSH32 0x596F752061726520656C696769626C6520746F20766F74650000000000000000 DUP2 MSTORE POP SWAP1 POP JUMPDEST SWAP1 JUMP JUMPDEST PUSH0 PUSH1 0x1 SLOAD PUSH0 SLOAD PUSH2 0x5BC SWAP2 SWAP1 PUSH2 0x7EE JUMP JUMPDEST SWAP1 POP SWAP1 JUMP JUMPDEST PUSH0 PUSH1 0x1 SLOAD PUSH0 SLOAD PUSH2 0x5D1 SWAP2 SWAP1 PUSH2 0x7BB JUMP JUMPDEST SWAP1 POP SWAP1 JUMP JUMPDEST PUSH0 DUP2 SWAP1 POP SWAP2 SWAP1 POP JUMP JUMPDEST PUSH2 0x5E8 DUP2 PUSH2 0x5D6 JUMP JUMPDEST DUP3 MSTORE POP POP JUMP JUMPDEST PUSH0 PUSH1 0x20 DUP3 ADD SWAP1 POP PUSH2 0x601 PUSH0 DUP4 ADD DUP5 PUSH2 0x5DF JUMP JUMPDEST SWAP3 SWAP2 POP POP JUMP JUMPDEST PUSH0 PUSH0 REVERT JUMPDEST PUSH2 0x614 DUP2 PUSH2 0x5D6 JUMP JUMPDEST DUP2 EQ PUSH2 0x61E JUMPI PUSH0 PUSH0 REVERT JUMPDEST POP JUMP JUMPDEST PUSH0 DUP2 CALLDATALOAD SWAP1 POP PUSH2 0x62F DUP2 PUSH2 0x60B JUMP JUMPDEST SWAP3 SWAP2 POP POP JUMP JUMPDEST PUSH0 PUSH1 0x20 DUP3 DUP5 SUB SLT ISZERO PUSH2 0x64A JUMPI PUSH2 0x649 PUSH2 0x607 JUMP JUMPDEST JUMPDEST PUSH0 PUSH2 0x657 DUP5 DUP3 DUP6 ADD PUSH2 0x621 JUMP JUMPDEST SWAP2 POP POP SWAP3 SWAP2 POP POP JUMP JUMPDEST PUSH0 DUP2 MLOAD SWAP1 POP SWAP2 SWAP1 POP JUMP JUMPDEST PUSH0 DUP3 DUP3 MSTORE PUSH1 0x20 DUP3 ADD SWAP1 POP SWAP3 SWAP2 POP POP JUMP JUMPDEST DUP3 DUP2 DUP4 MCOPY PUSH0 DUP4 DUP4 ADD MSTORE POP POP POP JUMP JUMPDEST PUSH0 PUSH1 0x1F NOT PUSH1 0x1F DUP4 ADD AND SWAP1 POP SWAP2 SWAP1 POP JUMP JUMPDEST PUSH0 PUSH2 0x6A2 DUP3 PUSH2 0x660 JUMP JUMPDEST PUSH2 0x6AC DUP2 DUP6 PUSH2 0x66A JUMP JUMPDEST SWAP4 POP PUSH2 0x6BC DUP2 DUP6 PUSH1 0x20 DUP7 ADD PUSH2 0x67A JUMP JUMPDEST PUSH2 0x6C5 DUP2 PUSH2 0x688 JUMP JUMPDEST DUP5 ADD SWAP2 POP POP SWAP3 SWAP2 POP POP JUMP JUMPDEST PUSH0 PUSH1 0x20 DUP3 ADD SWAP1 POP DUP2 DUP2 SUB PUSH0 DUP4 ADD MSTORE PUSH2 0x6E8 DUP2 DUP5 PUSH2 0x698 JUMP JUMPDEST SWAP1 POP SWAP3 SWAP2 POP POP JUMP JUMPDEST PUSH32 0x4E487B7100000000000000000000000000000000000000000000000000000000 PUSH0 MSTORE PUSH1 0x11 PUSH1 0x4 MSTORE PUSH1 0x24 PUSH0 REVERT JUMPDEST PUSH0 PUSH2 0x727 DUP3 PUSH2 0x5D6 JUMP JUMPDEST SWAP2 POP PUSH2 0x732 DUP4 PUSH2 0x5D6 JUMP JUMPDEST SWAP3 POP DUP3 DUP3 MUL PUSH2 0x740 DUP2 PUSH2 0x5D6 JUMP JUMPDEST SWAP2 POP DUP3 DUP3 DIV DUP5 EQ DUP4 ISZERO OR PUSH2 0x757 JUMPI PUSH2 0x756 PUSH2 0x6F0 JUMP JUMPDEST JUMPDEST POP SWAP3 SWAP2 POP POP JUMP JUMPDEST PUSH32 0x4E487B7100000000000000000000000000000000000000000000000000000000 PUSH0 MSTORE PUSH1 0x12 PUSH1 0x4 MSTORE PUSH1 0x24 PUSH0 REVERT JUMPDEST PUSH0 PUSH2 0x795 DUP3 PUSH2 0x5D6 JUMP JUMPDEST SWAP2 POP PUSH2 0x7A0 DUP4 PUSH2 0x5D6 JUMP JUMPDEST SWAP3 POP DUP3 PUSH2 0x7B0 JUMPI PUSH2 0x7AF PUSH2 0x75E JUMP JUMPDEST JUMPDEST DUP3 DUP3 DIV SWAP1 POP SWAP3 SWAP2 POP POP JUMP JUMPDEST PUSH0 PUSH2 0x7C5 DUP3 PUSH2 0x5D6 JUMP JUMPDEST SWAP2 POP PUSH2 0x7D0 DUP4 PUSH2 0x5D6 JUMP JUMPDEST SWAP3 POP DUP3 DUP3 ADD SWAP1 POP DUP1 DUP3 GT ISZERO PUSH2 0x7E8 JUMPI PUSH2 0x7E7 PUSH2 0x6F0 JUMP JUMPDEST JUMPDEST SWAP3 SWAP2 POP POP JUMP JUMPDEST PUSH0 PUSH2 0x7F8 DUP3 PUSH2 0x5D6 JUMP JUMPDEST SWAP2 POP PUSH2 0x803 DUP4 PUSH2 0x5D6 JUMP JUMPDEST SWAP3 POP DUP3 DUP3 SUB SWAP1 POP DUP2 DUP2 GT ISZERO PUSH2 0x81B JUMPI PUSH2 0x81A PUSH2 0x6F0 JUMP JUMPDEST JUMPDEST SWAP3 SWAP2 POP POP JUMP INVALID LOG2 PUSH5 0x6970667358 0x22 SLT KECCAK256 0xD CALLVALUE 0xBB DUP4 DUP10 SWAP8 LOG2 PUSH19 0xC254D254B7D2C39AA06A2E478F7BD235B913C0 0xF7 DUP1 0xEF 0xDE PUSH19 0x64736F6C634300081E00330000000000000000 "
				},
				"gasEstimates": {
					"creation": {
						"codeDepositCost": "427000",
						"executionCost": "459",
						"totalCost": "427459"
					},
					"external": {
						"addition()": "infinite",
						"checkage()": "infinite",
						"checktime()": "infinite",
						"checkweather()": "infinite",
						"division()": "infinite",
						"getage(uint256)": "22560",
						"getfirstnum(uint256)": "22603",
						"getsecondnum(uint256)": "22538",
						"getweather(uint256)": "22538",
						"invalid()": "infinite",
						"multiplication()": "infinite",
						"subtraction()": "infinite",
						"tracktime(uint256)": "22537"
					}
				},
				"methodIdentifiers": {
					"addition()": "ec597128",
					"checkage()": "d62ff3a4",
					"checktime()": "266de1e0",
					"checkweather()": "7f109886",
					"division()": "3205f5fc",
					"getage(uint256)": "a59e0d54",
					"getfirstnum(uint256)": "48a9066d",
					"getsecondnum(uint256)": "9f17c892",
					"getweather(uint256)": "12a09447",
					"invalid()": "bde9e40e",
					"multiplication()": "011285da",
					"subtraction()": "e3ec0251",
					"tracktime(uint256)": "bed948c5"
				}
			},
			"storageLayout": {
				"storage": [
					{
						"astId": 3,
						"contract": ".git/calculaator.sol:calculatorandall",
						"label": "firstnumber",
						"offset": 0,
						"slot": "0",
						"type": "t_uint256"
					},
					{
						"astId": 5,
						"contract": ".git/calculaator.sol:calculatorandall",
						"label": "secondnumber",
						"offset": 0,
						"slot": "1",
						"type": "t_uint256"
					},
					{
						"astId": 7,
						"contract": ".git/calculaator.sol:calculatorandall",
						"label": "age",
						"offset": 0,
						"slot": "2",
						"type": "t_uint256"
					},
					{
						"astId": 9,
						"contract": ".git/calculaator.sol:calculatorandall",
						"label": "time",
						"offset": 0,
						"slot": "3",
						"type": "t_uint256"
					},
					{
						"astId": 11,
						"contract": ".git/calculaator.sol:calculatorandall",
						"label": "weather",
						"offset": 0,
						"slot": "4",
						"type": "t_uint256"
					}
				],
				"types": {
					"t_uint256": {
						"encoding": "inplace",
						"label": "uint256",
						"numberOfBytes": "32"
					}
				}
			},
			"userdoc": {
				"kind": "user",
				"methods": {},
				"version": 1
			}
		}
	}
}