{
	".git/calculaator.sol": {
		"calculatorandall": {
			"abi": [
				{
					"inputs": [],
					"name": "addition",
					"outputs": [
						{
							"internalType": "uint256",
							"name": "",
							"type": "uint256"
						}
					],
					"stateMutability": "view",
					"type": "function"
				},
				{
					"inputs": [],
					"name": "checkage",
					"outputs": [
						{
							"internalType": "string",
							"name": "",
							"type": "string"
						}
					],
					"stateMutability": "view",
					"type": "function"
				},
				{
					"inputs": [],
					"name": "checktime",
					"outputs": [
						{
							"internalType": "string",
							"name": "",
							"type": "string"
						}
					],
					"stateMutability": "view",
					"type": "function"
				},
				{
					"inputs": [],
					"name": "checktrack",
					"outputs": [
						{
							"internalType": "string",
							"name": "",
							"type": "string"
						}
					],
					"stateMutability": "view",
					"type": "function"
				},
				{
					"inputs": [],
					"name": "checkweather",
					"outputs": [
						{
							"internalType": "string",
							"name": "",
							"type": "string"
						}
					],
					"stateMutability": "view",
					"type": "function"
				},
				{
					"inputs": [],
					"name": "division",
					"outputs": [
						{
							"internalType": "uint256",
							"name": "",
							"type": "uint256"
						}
					],
					"stateMutability": "view",
					"type": "function"
				},
				{
					"inputs": [
						{
							"internalType": "uint256",
							"name": "_age",
							"type": "uint256"
						}
					],
					"name": "getage",
					"outputs": [],
					"stateMutability": "nonpayable",
					"type": "function"
				},
				{
					"inputs": [
						{
							"internalType": "uint256",
							"name": "_firstnum",
							"type": "uint256"
						}
					],
					"name": "getfirstnum",
					"outputs": [],
					"stateMutability": "nonpayable",
					"type": "function"
				},
				{
					"inputs": [
						{
							"internalType": "uint256",
							"name": "_secnum",
							"type": "uint256"
						}
					],
					"name": "getsecondnum",
					"outputs": [],
					"stateMutability": "nonpayable",
					"type": "function"
				},
				{
					"inputs": [
						{
							"internalType": "uint256",
							"name": "_wet",
							"type": "uint256"
						}
					],
					"name": "getweather",
					"outputs": [],
					"stateMutability": "nonpayable",
					"type": "function"
				},
				{
					"inputs": [],
					"name": "invalid",
					"outputs": [
						{
							"internalType": "uint256",
							"name": "",
							"type": "uint256"
						}
					],
					"stateMutability": "view",
					"type": "function"
				},
				{
					"inputs": [],
					"name": "multiplication",
					"outputs": [
						{
							"internalType": "uint256",
							"name": "",
							"type": "uint256"
						}
					],
					"stateMutability": "view",
					"type": "function"
				},
				{
					"inputs": [],
					"name": "subtraction",
					"outputs": [
						{
							"internalType": "uint256",
							"name": "",
							"type": "uint256"
						}
					],
					"stateMutability": "view",
					"type": "function"
				},
				{
					"inputs": [
						{
							"internalType": "uint256",
							"name": "_ctime",
							"type": "uint256"
						}
					],
					"name": "tracktime",
					"outputs": [],
					"stateMutability": "nonpayable",
					"type": "function"
				},
				{
					"inputs": [
						{
							"internalType": "uint256",
							"name": "_track",
							"type": "uint256"
						}
					],
					"name": "trackup",
					"outputs": [],
					"stateMutability": "nonpayable",
					"type": "function"
				}
			],
			"devdoc": {
				"kind": "dev",
				"methods": {},
				"version": 1
			},
			"evm": {
				"assembly": "    /* \".git/calculaator.sol\":60:2745  contract calculatorandall{... */\n  mstore(0x40, 0x80)\n  callvalue\n  dup1\n  iszero\n  tag_1\n  jumpi\n  revert(0x00, 0x00)\ntag_1:\n  pop\n  dataSize(sub_0)\n  dup1\n  dataOffset(sub_0)\n  0x00\n  codecopy\n  0x00\n  return\nstop\n\nsub_0: assembly {\n        /* \".git/calculaator.sol\":60:2745  contract calculatorandall{... */\n      mstore(0x40, 0x80)\n      callvalue\n      dup1\n      iszero\n      tag_1\n      jumpi\n      revert(0x00, 0x00)\n    tag_1:\n      pop\n      jumpi(tag_2, lt(calldatasize, 0x04))\n      shr(0xe0, calldataload(0x00))\n      dup1\n      0x9daaf83a\n      gt\n      tag_18\n      jumpi\n      dup1\n      0xbed948c5\n      gt\n      tag_19\n      jumpi\n      dup1\n      0xbed948c5\n      eq\n      tag_14\n      jumpi\n      dup1\n      0xd62ff3a4\n      eq\n      tag_15\n      jumpi\n      dup1\n      0xe3ec0251\n      eq\n      tag_16\n      jumpi\n      dup1\n      0xec597128\n      eq\n      tag_17\n      jumpi\n      jump(tag_2)\n    tag_19:\n      dup1\n      0x9daaf83a\n      eq\n      tag_10\n      jumpi\n      dup1\n      0x9f17c892\n      eq\n      tag_11\n      jumpi\n      dup1\n      0xa59e0d54\n      eq\n      tag_12\n      jumpi\n      dup1\n      0xbde9e40e\n      eq\n      tag_13\n      jumpi\n      jump(tag_2)\n    tag_18:\n      dup1\n      0x266de1e0\n      gt\n      tag_20\n      jumpi\n      dup1\n      0x266de1e0\n      eq\n      tag_6\n      jumpi\n      dup1\n      0x3205f5fc\n      eq\n      tag_7\n      jumpi\n      dup1\n      0x48a9066d\n      eq\n      tag_8\n      jumpi\n      dup1\n      0x7f109886\n      eq\n      tag_9\n      jumpi\n      jump(tag_2)\n    tag_20:\n      dup1\n      0x011285da\n      eq\n      tag_3\n      jumpi\n      dup1\n      0x12a09447\n      eq\n      tag_4\n      jumpi\n      dup1\n      0x1981bfa0\n      eq\n      tag_5\n      jumpi\n    tag_2:\n      revert(0x00, 0x00)\n        /* \".git/calculaator.sol\":607:711  function multiplication()public view returns (uint) {... */\n    tag_3:\n      tag_21\n      tag_22\n      jump\t// in\n    tag_21:\n      mload(0x40)\n      tag_23\n      swap2\n      swap1\n      tag_24\n      jump\t// in\n    tag_23:\n      mload(0x40)\n      dup1\n      swap2\n      sub\n      swap1\n      return\n        /* \".git/calculaator.sol\":1774:1845  function getweather(uint _wet) public {... */\n    tag_4:\n      tag_25\n      0x04\n      dup1\n      calldatasize\n      sub\n      dup2\n      add\n      swap1\n      tag_26\n      swap2\n      swap1\n      tag_27\n      jump\t// in\n    tag_26:\n      tag_28\n      jump\t// in\n    tag_25:\n      stop\n        /* \".git/calculaator.sol\":2122:2192  function trackup(uint _track) public {... */\n    tag_5:\n      tag_29\n      0x04\n      dup1\n      calldatasize\n      sub\n      dup2\n      add\n      swap1\n      tag_30\n      swap2\n      swap1\n      tag_27\n      jump\t// in\n    tag_30:\n      tag_31\n      jump\t// in\n    tag_29:\n      stop\n        /* \".git/calculaator.sol\":1411:1768  function checktime()public view returns (string memory){... */\n    tag_6:\n      tag_32\n      tag_33\n      jump\t// in\n    tag_32:\n      mload(0x40)\n      tag_34\n      swap2\n      swap1\n      tag_35\n      jump\t// in\n    tag_34:\n      mload(0x40)\n      dup1\n      swap2\n      sub\n      swap1\n      return\n        /* \".git/calculaator.sol\":720:818  function division()public view returns (uint) {... */\n    tag_7:\n      tag_36\n      tag_37\n      jump\t// in\n    tag_36:\n      mload(0x40)\n      tag_38\n      swap2\n      swap1\n      tag_24\n      jump\t// in\n    tag_38:\n      mload(0x40)\n      dup1\n      swap2\n      sub\n      swap1\n      return\n        /* \".git/calculaator.sol\":208:293  function getfirstnum(uint _firstnum)public {... */\n    tag_8:\n      tag_39\n      0x04\n      dup1\n      calldatasize\n      sub\n      dup2\n      add\n      swap1\n      tag_40\n      swap2\n      swap1\n      tag_27\n      jump\t// in\n    tag_40:\n      tag_41\n      jump\t// in\n    tag_39:\n      stop\n        /* \".git/calculaator.sol\":1853:2116  function checkweather()public view returns (string memory){... */\n    tag_9:\n      tag_42\n      tag_43\n      jump\t// in\n    tag_42:\n      mload(0x40)\n      tag_44\n      swap2\n      swap1\n      tag_35\n      jump\t// in\n    tag_44:\n      mload(0x40)\n      dup1\n      swap2\n      sub\n      swap1\n      return\n        /* \".git/calculaator.sol\":2198:2742  function checktrack()public view returns (string memory){... */\n    tag_10:\n      tag_45\n      tag_46\n      jump\t// in\n    tag_45:\n      mload(0x40)\n      tag_47\n      swap2\n      swap1\n      tag_35\n      jump\t// in\n    tag_47:\n      mload(0x40)\n      dup1\n      swap2\n      sub\n      swap1\n      return\n        /* \".git/calculaator.sol\":299:382  function getsecondnum(uint _secnum)public {... */\n    tag_11:\n      tag_48\n      0x04\n      dup1\n      calldatasize\n      sub\n      dup2\n      add\n      swap1\n      tag_49\n      swap2\n      swap1\n      tag_27\n      jump\t// in\n    tag_49:\n      tag_50\n      jump\t// in\n    tag_48:\n      stop\n        /* \".git/calculaator.sol\":941:1003  function getage(uint _age) public{... */\n    tag_12:\n      tag_51\n      0x04\n      dup1\n      calldatasize\n      sub\n      dup2\n      add\n      swap1\n      tag_52\n      swap2\n      swap1\n      tag_27\n      jump\t// in\n    tag_52:\n      tag_53\n      jump\t// in\n    tag_51:\n      stop\n        /* \".git/calculaator.sol\":827:924  function invalid()public view returns (uint) {... */\n    tag_13:\n      tag_54\n      tag_55\n      jump\t// in\n    tag_54:\n      mload(0x40)\n      tag_56\n      swap2\n      swap1\n      tag_24\n      jump\t// in\n    tag_56:\n      mload(0x40)\n      dup1\n      swap2\n      sub\n      swap1\n      return\n        /* \".git/calculaator.sol\":1334:1405  function tracktime(uint _ctime) public {... */\n    tag_14:\n      tag_57\n      0x04\n      dup1\n      calldatasize\n      sub\n      dup2\n      add\n      swap1\n      tag_58\n      swap2\n      swap1\n      tag_27\n      jump\t// in\n    tag_58:\n      tag_59\n      jump\t// in\n    tag_57:\n      stop\n        /* \".git/calculaator.sol\":1009:1328  function checkage()public view returns (string memory){ ... */\n    tag_15:\n      tag_60\n      tag_61\n      jump\t// in\n    tag_60:\n      mload(0x40)\n      tag_62\n      swap2\n      swap1\n      tag_35\n      jump\t// in\n    tag_62:\n      mload(0x40)\n      dup1\n      swap2\n      sub\n      swap1\n      return\n        /* \".git/calculaator.sol\":497:598  function subtraction()public view returns (uint) {... */\n    tag_16:\n      tag_63\n      tag_64\n      jump\t// in\n    tag_63:\n      mload(0x40)\n      tag_65\n      swap2\n      swap1\n      tag_24\n      jump\t// in\n    tag_65:\n      mload(0x40)\n      dup1\n      swap2\n      sub\n      swap1\n      return\n        /* \".git/calculaator.sol\":390:488  function addition()public view returns (uint) {... */\n    tag_17:\n      tag_66\n      tag_67\n      jump\t// in\n    tag_66:\n      mload(0x40)\n      tag_68\n      swap2\n      swap1\n      tag_24\n      jump\t// in\n    tag_68:\n      mload(0x40)\n      dup1\n      swap2\n      sub\n      swap1\n      return\n        /* \".git/calculaator.sol\":607:711  function multiplication()public view returns (uint) {... */\n    tag_22:\n        /* \".git/calculaator.sol\":653:657  uint */\n      0x00\n        /* \".git/calculaator.sol\":691:703  secondnumber */\n      sload(0x01)\n        /* \".git/calculaator.sol\":677:688  firstnumber */\n      sload(0x00)\n        /* \".git/calculaator.sol\":677:703  firstnumber * secondnumber */\n      tag_70\n      swap2\n      swap1\n      tag_71\n      jump\t// in\n    tag_70:\n        /* \".git/calculaator.sol\":670:703  return firstnumber * secondnumber */\n      swap1\n      pop\n        /* \".git/calculaator.sol\":607:711  function multiplication()public view returns (uint) {... */\n      swap1\n      jump\t// out\n        /* \".git/calculaator.sol\":1774:1845  function getweather(uint _wet) public {... */\n    tag_28:\n        /* \".git/calculaator.sol\":1833:1837  _wet */\n      dup1\n        /* \".git/calculaator.sol\":1823:1830  weather */\n      0x04\n        /* \".git/calculaator.sol\":1823:1837  weather = _wet */\n      dup2\n      swap1\n      sstore\n      pop\n        /* \".git/calculaator.sol\":1774:1845  function getweather(uint _wet) public {... */\n      pop\n      jump\t// out\n        /* \".git/calculaator.sol\":2122:2192  function trackup(uint _track) public {... */\n    tag_31:\n        /* \".git/calculaator.sol\":2178:2184  _track */\n      dup1\n        /* \".git/calculaator.sol\":2170:2175  track */\n      0x05\n        /* \".git/calculaator.sol\":2170:2184  track = _track */\n      dup2\n      swap1\n      sstore\n      pop\n        /* \".git/calculaator.sol\":2122:2192  function trackup(uint _track) public {... */\n      pop\n      jump\t// out\n        /* \".git/calculaator.sol\":1411:1768  function checktime()public view returns (string memory){... */\n    tag_33:\n        /* \".git/calculaator.sol\":1452:1465  string memory */\n      0x60\n        /* \".git/calculaator.sol\":1489:1491  12 */\n      0x0c\n        /* \".git/calculaator.sol\":1481:1485  time */\n      sload(0x03)\n        /* \".git/calculaator.sol\":1481:1491  time <= 12 */\n      gt\n        /* \".git/calculaator.sol\":1477:1761  if (time <= 12){... */\n      tag_75\n      jumpi\n        /* \".git/calculaator.sol\":1507:1528  return \"Good Morning\" */\n      mload(0x40)\n      dup1\n      0x40\n      add\n      0x40\n      mstore\n      dup1\n      0x0c\n      dup2\n      mstore\n      0x20\n      add\n      0x476f6f64204d6f726e696e670000000000000000000000000000000000000000\n      dup2\n      mstore\n      pop\n      swap1\n      pop\n      jump(tag_74)\n        /* \".git/calculaator.sol\":1477:1761  if (time <= 12){... */\n    tag_75:\n        /* \".git/calculaator.sol\":1558:1560  12 */\n      0x0c\n        /* \".git/calculaator.sol\":1550:1554  time */\n      sload(0x03)\n        /* \".git/calculaator.sol\":1550:1560  time >= 12 */\n      lt\n      iszero\n        /* \".git/calculaator.sol\":1550:1574  time >= 12 && time <= 16 */\n      dup1\n      iszero\n      tag_77\n      jumpi\n      pop\n        /* \".git/calculaator.sol\":1572:1574  16 */\n      0x10\n        /* \".git/calculaator.sol\":1564:1568  time */\n      sload(0x03)\n        /* \".git/calculaator.sol\":1564:1574  time <= 16 */\n      gt\n      iszero\n        /* \".git/calculaator.sol\":1550:1574  time >= 12 && time <= 16 */\n    tag_77:\n        /* \".git/calculaator.sol\":1546:1761  if (time >= 12 && time <= 16) {... */\n      iszero\n      tag_78\n      jumpi\n        /* \".git/calculaator.sol\":1591:1614  return \"Good Afternoon\" */\n      mload(0x40)\n      dup1\n      0x40\n      add\n      0x40\n      mstore\n      dup1\n      0x0e\n      dup2\n      mstore\n      0x20\n      add\n      0x476f6f642041667465726e6f6f6e000000000000000000000000000000000000\n      dup2\n      mstore\n      pop\n      swap1\n      pop\n      jump(tag_74)\n        /* \".git/calculaator.sol\":1546:1761  if (time >= 12 && time <= 16) {... */\n    tag_78:\n        /* \".git/calculaator.sol\":1644:1646  16 */\n      0x10\n        /* \".git/calculaator.sol\":1636:1640  time */\n      sload(0x03)\n        /* \".git/calculaator.sol\":1636:1646  time >= 16 */\n      lt\n      iszero\n        /* \".git/calculaator.sol\":1636:1660  time >= 16 && time <= 20 */\n      dup1\n      iszero\n      tag_80\n      jumpi\n      pop\n        /* \".git/calculaator.sol\":1658:1660  20 */\n      0x14\n        /* \".git/calculaator.sol\":1650:1654  time */\n      sload(0x03)\n        /* \".git/calculaator.sol\":1650:1660  time <= 20 */\n      gt\n      iszero\n        /* \".git/calculaator.sol\":1636:1660  time >= 16 && time <= 20 */\n    tag_80:\n        /* \".git/calculaator.sol\":1632:1761  if (time >= 16 && time <= 20) {... */\n      iszero\n      tag_81\n      jumpi\n        /* \".git/calculaator.sol\":1677:1698  return \"Good Evening\" */\n      mload(0x40)\n      dup1\n      0x40\n      add\n      0x40\n      mstore\n      dup1\n      0x0c\n      dup2\n      mstore\n      0x20\n      add\n      0x476f6f64204576656e696e670000000000000000000000000000000000000000\n      dup2\n      mstore\n      pop\n      swap1\n      pop\n      jump(tag_74)\n        /* \".git/calculaator.sol\":1632:1761  if (time >= 16 && time <= 20) {... */\n    tag_81:\n        /* \".git/calculaator.sol\":1730:1749  return \"Good Night\" */\n      mload(0x40)\n      dup1\n      0x40\n      add\n      0x40\n      mstore\n      dup1\n      0x0a\n      dup2\n      mstore\n      0x20\n      add\n      0x476f6f64204e6967687400000000000000000000000000000000000000000000\n      dup2\n      mstore\n      pop\n      swap1\n      pop\n        /* \".git/calculaator.sol\":1411:1768  function checktime()public view returns (string memory){... */\n    tag_74:\n      swap1\n      jump\t// out\n        /* \".git/calculaator.sol\":720:818  function division()public view returns (uint) {... */\n    tag_37:\n        /* \".git/calculaator.sol\":760:764  uint */\n      0x00\n        /* \".git/calculaator.sol\":798:810  secondnumber */\n      sload(0x01)\n        /* \".git/calculaator.sol\":784:795  firstnumber */\n      sload(0x00)\n        /* \".git/calculaator.sol\":784:810  firstnumber / secondnumber */\n      tag_84\n      swap2\n      swap1\n      tag_85\n      jump\t// in\n    tag_84:\n        /* \".git/calculaator.sol\":777:810  return firstnumber / secondnumber */\n      swap1\n      pop\n        /* \".git/calculaator.sol\":720:818  function division()public view returns (uint) {... */\n      swap1\n      jump\t// out\n        /* \".git/calculaator.sol\":208:293  function getfirstnum(uint _firstnum)public {... */\n    tag_41:\n        /* \".git/calculaator.sol\":276:285  _firstnum */\n      dup1\n        /* \".git/calculaator.sol\":262:273  firstnumber */\n      0x00\n        /* \".git/calculaator.sol\":262:285  firstnumber = _firstnum */\n      dup2\n      swap1\n      sstore\n      pop\n        /* \".git/calculaator.sol\":208:293  function getfirstnum(uint _firstnum)public {... */\n      pop\n      jump\t// out\n        /* \".git/calculaator.sol\":1853:2116  function checkweather()public view returns (string memory){... */\n    tag_43:\n        /* \".git/calculaator.sol\":1897:1910  string memory */\n      0x60\n        /* \".git/calculaator.sol\":1937:1939  15 */\n      0x0f\n        /* \".git/calculaator.sol\":1926:1933  weather */\n      sload(0x04)\n        /* \".git/calculaator.sol\":1926:1939  weather <= 15 */\n      gt\n        /* \".git/calculaator.sol\":1922:2109  if (weather <= 15){... */\n      tag_88\n      jumpi\n        /* \".git/calculaator.sol\":1955:1968  return \"cold\" */\n      mload(0x40)\n      dup1\n      0x40\n      add\n      0x40\n      mstore\n      dup1\n      0x04\n      dup2\n      mstore\n      0x20\n      add\n      0x636f6c6400000000000000000000000000000000000000000000000000000000\n      dup2\n      mstore\n      pop\n      swap1\n      pop\n      jump(tag_87)\n        /* \".git/calculaator.sol\":1922:2109  if (weather <= 15){... */\n    tag_88:\n        /* \".git/calculaator.sol\":2001:2003  15 */\n      0x0f\n        /* \".git/calculaator.sol\":1990:1997  weather */\n      sload(0x04)\n        /* \".git/calculaator.sol\":1990:2003  weather >= 15 */\n      lt\n      iszero\n        /* \".git/calculaator.sol\":1990:2020  weather >= 15 && weather <= 25 */\n      dup1\n      iszero\n      tag_90\n      jumpi\n      pop\n        /* \".git/calculaator.sol\":2018:2020  25 */\n      0x19\n        /* \".git/calculaator.sol\":2007:2014  weather */\n      sload(0x04)\n        /* \".git/calculaator.sol\":2007:2020  weather <= 25 */\n      gt\n      iszero\n        /* \".git/calculaator.sol\":1990:2020  weather >= 15 && weather <= 25 */\n    tag_90:\n        /* \".git/calculaator.sol\":1986:2109  if (weather >= 15 && weather <= 25) {... */\n      iszero\n      tag_91\n      jumpi\n        /* \".git/calculaator.sol\":2037:2052  return \"normal\" */\n      mload(0x40)\n      dup1\n      0x40\n      add\n      0x40\n      mstore\n      dup1\n      0x06\n      dup2\n      mstore\n      0x20\n      add\n      0x6e6f726d616c0000000000000000000000000000000000000000000000000000\n      dup2\n      mstore\n      pop\n      swap1\n      pop\n      jump(tag_87)\n        /* \".git/calculaator.sol\":1986:2109  if (weather >= 15 && weather <= 25) {... */\n    tag_91:\n        /* \".git/calculaator.sol\":2085:2097  return \"hot\" */\n      mload(0x40)\n      dup1\n      0x40\n      add\n      0x40\n      mstore\n      dup1\n      0x03\n      dup2\n      mstore\n      0x20\n      add\n      0x686f740000000000000000000000000000000000000000000000000000000000\n      dup2\n      mstore\n      pop\n      swap1\n      pop\n        /* \".git/calculaator.sol\":1853:2116  function checkweather()public view returns (string memory){... */\n    tag_87:\n      swap1\n      jump\t// out\n        /* \".git/calculaator.sol\":2198:2742  function checktrack()public view returns (string memory){... */\n    tag_46:\n        /* \".git/calculaator.sol\":2240:2253  string memory */\n      0x60\n        /* \".git/calculaator.sol\":2278:2279  8 */\n      0x08\n        /* \".git/calculaator.sol\":2269:2274  track */\n      sload(0x05)\n        /* \".git/calculaator.sol\":2269:2279  track <= 8 */\n      gt\n        /* \".git/calculaator.sol\":2265:2735  if (track <= 8){... */\n      tag_94\n      jumpi\n        /* \".git/calculaator.sol\":2295:2319  return \"learn till 10am\" */\n      mload(0x40)\n      dup1\n      0x40\n      add\n      0x40\n      mstore\n      dup1\n      0x0f\n      dup2\n      mstore\n      0x20\n      add\n      0x6c6561726e2074696c6c203130616d0000000000000000000000000000000000\n      dup2\n      mstore\n      pop\n      swap1\n      pop\n      jump(tag_93)\n        /* \".git/calculaator.sol\":2265:2735  if (track <= 8){... */\n    tag_94:\n        /* \".git/calculaator.sol\":2350:2352  10 */\n      0x0a\n        /* \".git/calculaator.sol\":2341:2346  track */\n      sload(0x05)\n        /* \".git/calculaator.sol\":2341:2352  track >= 10 */\n      lt\n      iszero\n        /* \".git/calculaator.sol\":2341:2367  track >= 10 && track <= 12 */\n      dup1\n      iszero\n      tag_96\n      jumpi\n      pop\n        /* \".git/calculaator.sol\":2365:2367  12 */\n      0x0c\n        /* \".git/calculaator.sol\":2356:2361  track */\n      sload(0x05)\n        /* \".git/calculaator.sol\":2356:2367  track <= 12 */\n      gt\n      iszero\n        /* \".git/calculaator.sol\":2341:2367  track >= 10 && track <= 12 */\n    tag_96:\n        /* \".git/calculaator.sol\":2337:2735  if (track >= 10 && track <= 12) {... */\n      iszero\n      tag_97\n      jumpi\n        /* \".git/calculaator.sol\":2384:2406  return \"go n get food\" */\n      mload(0x40)\n      dup1\n      0x40\n      add\n      0x40\n      mstore\n      dup1\n      0x0d\n      dup2\n      mstore\n      0x20\n      add\n      0x676f206e2067657420666f6f6400000000000000000000000000000000000000\n      dup2\n      mstore\n      pop\n      swap1\n      pop\n      jump(tag_93)\n        /* \".git/calculaator.sol\":2337:2735  if (track >= 10 && track <= 12) {... */\n    tag_97:\n        /* \".git/calculaator.sol\":2437:2439  12 */\n      0x0c\n        /* \".git/calculaator.sol\":2428:2433  track */\n      sload(0x05)\n        /* \".git/calculaator.sol\":2428:2439  track >= 12 */\n      lt\n      iszero\n        /* \".git/calculaator.sol\":2428:2454  track >= 12 && track <= 14 */\n      dup1\n      iszero\n      tag_99\n      jumpi\n      pop\n        /* \".git/calculaator.sol\":2452:2454  14 */\n      0x0e\n        /* \".git/calculaator.sol\":2443:2448  track */\n      sload(0x05)\n        /* \".git/calculaator.sol\":2443:2454  track <= 14 */\n      gt\n      iszero\n        /* \".git/calculaator.sol\":2428:2454  track >= 12 && track <= 14 */\n    tag_99:\n        /* \".git/calculaator.sol\":2424:2735  if (track >= 12 && track <= 14) {... */\n      iszero\n      tag_100\n      jumpi\n        /* \".git/calculaator.sol\":2471:2493  return \"probably read\" */\n      mload(0x40)\n      dup1\n      0x40\n      add\n      0x40\n      mstore\n      dup1\n      0x0d\n      dup2\n      mstore\n      0x20\n      add\n      0x70726f6261626c79207265616400000000000000000000000000000000000000\n      dup2\n      mstore\n      pop\n      swap1\n      pop\n      jump(tag_93)\n        /* \".git/calculaator.sol\":2424:2735  if (track >= 12 && track <= 14) {... */\n    tag_100:\n        /* \".git/calculaator.sol\":2528:2530  14 */\n      0x0e\n        /* \".git/calculaator.sol\":2519:2524  track */\n      sload(0x05)\n        /* \".git/calculaator.sol\":2519:2530  track >= 14 */\n      lt\n      iszero\n        /* \".git/calculaator.sol\":2519:2545  track >= 14 && track <= 18 */\n      dup1\n      iszero\n      tag_102\n      jumpi\n      pop\n        /* \".git/calculaator.sol\":2543:2545  18 */\n      0x12\n        /* \".git/calculaator.sol\":2534:2539  track */\n      sload(0x05)\n        /* \".git/calculaator.sol\":2534:2545  track <= 18 */\n      gt\n      iszero\n        /* \".git/calculaator.sol\":2519:2545  track >= 14 && track <= 18 */\n    tag_102:\n        /* \".git/calculaator.sol\":2515:2735  if (track >= 14 && track <= 18) {... */\n      iszero\n      tag_103\n      jumpi\n        /* \".git/calculaator.sol\":2562:2576  return \"sleep\" */\n      mload(0x40)\n      dup1\n      0x40\n      add\n      0x40\n      mstore\n      dup1\n      0x05\n      dup2\n      mstore\n      0x20\n      add\n      0x736c656570000000000000000000000000000000000000000000000000000000\n      dup2\n      mstore\n      pop\n      swap1\n      pop\n      jump(tag_93)\n        /* \".git/calculaator.sol\":2515:2735  if (track >= 14 && track <= 18) {... */\n    tag_103:\n        /* \".git/calculaator.sol\":2607:2609  19 */\n      0x13\n        /* \".git/calculaator.sol\":2598:2603  track */\n      sload(0x05)\n        /* \".git/calculaator.sol\":2598:2609  track >= 19 */\n      lt\n      iszero\n        /* \".git/calculaator.sol\":2598:2624  track >= 19 && track <= 20 */\n      dup1\n      iszero\n      tag_105\n      jumpi\n      pop\n        /* \".git/calculaator.sol\":2622:2624  20 */\n      0x14\n        /* \".git/calculaator.sol\":2613:2618  track */\n      sload(0x05)\n        /* \".git/calculaator.sol\":2613:2624  track <= 20 */\n      gt\n      iszero\n        /* \".git/calculaator.sol\":2598:2624  track >= 19 && track <= 20 */\n    tag_105:\n        /* \".git/calculaator.sol\":2594:2735  if (track >= 19 && track <= 20) {... */\n      iszero\n      tag_106\n      jumpi\n        /* \".git/calculaator.sol\":2641:2657  return \"hydrate\" */\n      mload(0x40)\n      dup1\n      0x40\n      add\n      0x40\n      mstore\n      dup1\n      0x07\n      dup2\n      mstore\n      0x20\n      add\n      0x6879647261746500000000000000000000000000000000000000000000000000\n      dup2\n      mstore\n      pop\n      swap1\n      pop\n      jump(tag_93)\n        /* \".git/calculaator.sol\":2594:2735  if (track >= 19 && track <= 20) {... */\n    tag_106:\n        /* \".git/calculaator.sol\":2703:2723  return \"sleep again\" */\n      mload(0x40)\n      dup1\n      0x40\n      add\n      0x40\n      mstore\n      dup1\n      0x0b\n      dup2\n      mstore\n      0x20\n      add\n      0x736c65657020616761696e000000000000000000000000000000000000000000\n      dup2\n      mstore\n      pop\n      swap1\n      pop\n        /* \".git/calculaator.sol\":2198:2742  function checktrack()public view returns (string memory){... */\n    tag_93:\n      swap1\n      jump\t// out\n        /* \".git/calculaator.sol\":299:382  function getsecondnum(uint _secnum)public {... */\n    tag_50:\n        /* \".git/calculaator.sol\":367:374  _secnum */\n      dup1\n        /* \".git/calculaator.sol\":352:364  secondnumber */\n      0x01\n        /* \".git/calculaator.sol\":352:374  secondnumber = _secnum */\n      dup2\n      swap1\n      sstore\n      pop\n        /* \".git/calculaator.sol\":299:382  function getsecondnum(uint _secnum)public {... */\n      pop\n      jump\t// out\n        /* \".git/calculaator.sol\":941:1003  function getage(uint _age) public{... */\n    tag_53:\n        /* \".git/calculaator.sol\":991:995  _age */\n      dup1\n        /* \".git/calculaator.sol\":985:988  age */\n      0x02\n        /* \".git/calculaator.sol\":985:995  age = _age */\n      dup2\n      swap1\n      sstore\n      pop\n        /* \".git/calculaator.sol\":941:1003  function getage(uint _age) public{... */\n      pop\n      jump\t// out\n        /* \".git/calculaator.sol\":827:924  function invalid()public view returns (uint) {... */\n    tag_55:\n        /* \".git/calculaator.sol\":866:870  uint */\n      0x00\n        /* \".git/calculaator.sol\":904:916  secondnumber */\n      sload(0x01)\n        /* \".git/calculaator.sol\":890:901  firstnumber */\n      sload(0x00)\n        /* \".git/calculaator.sol\":890:916  firstnumber + secondnumber */\n      tag_111\n      swap2\n      swap1\n      tag_112\n      jump\t// in\n    tag_111:\n        /* \".git/calculaator.sol\":883:916  return firstnumber + secondnumber */\n      swap1\n      pop\n        /* \".git/calculaator.sol\":827:924  function invalid()public view returns (uint) {... */\n      swap1\n      jump\t// out\n        /* \".git/calculaator.sol\":1334:1405  function tracktime(uint _ctime) public {... */\n    tag_59:\n        /* \".git/calculaator.sol\":1391:1397  _ctime */\n      dup1\n        /* \".git/calculaator.sol\":1384:1388  time */\n      0x03\n        /* \".git/calculaator.sol\":1384:1397  time = _ctime */\n      dup2\n      swap1\n      sstore\n      pop\n        /* \".git/calculaator.sol\":1334:1405  function tracktime(uint _ctime) public {... */\n      pop\n      jump\t// out\n        /* \".git/calculaator.sol\":1009:1328  function checkage()public view returns (string memory){ ... */\n    tag_61:\n        /* \".git/calculaator.sol\":1049:1062  string memory */\n      0x60\n        /* \".git/calculaator.sol\":1086:1088  15 */\n      0x0f\n        /* \".git/calculaator.sol\":1079:1082  age */\n      sload(0x02)\n        /* \".git/calculaator.sol\":1079:1088  age <= 15 */\n      gt\n        /* \".git/calculaator.sol\":1075:1321  if (age <= 15){... */\n      tag_115\n      jumpi\n        /* \".git/calculaator.sol\":1104:1137  return \"sorry dear you cant vote\" */\n      mload(0x40)\n      dup1\n      0x40\n      add\n      0x40\n      mstore\n      dup1\n      0x18\n      dup2\n      mstore\n      0x20\n      add\n      0x736f727279206465617220796f752063616e7420766f74650000000000000000\n      dup2\n      mstore\n      pop\n      swap1\n      pop\n      jump(tag_114)\n        /* \".git/calculaator.sol\":1075:1321  if (age <= 15){... */\n    tag_115:\n        /* \".git/calculaator.sol\":1166:1168  16 */\n      0x10\n        /* \".git/calculaator.sol\":1159:1162  age */\n      sload(0x02)\n        /* \".git/calculaator.sol\":1159:1168  age >= 16 */\n      lt\n      iszero\n        /* \".git/calculaator.sol\":1159:1181  age >= 16 && age <= 17 */\n      dup1\n      iszero\n      tag_117\n      jumpi\n      pop\n        /* \".git/calculaator.sol\":1179:1181  17 */\n      0x11\n        /* \".git/calculaator.sol\":1172:1175  age */\n      sload(0x02)\n        /* \".git/calculaator.sol\":1172:1181  age <= 17 */\n      gt\n      iszero\n        /* \".git/calculaator.sol\":1159:1181  age >= 16 && age <= 17 */\n    tag_117:\n        /* \".git/calculaator.sol\":1155:1321  if (age >= 16 && age <= 17) {... */\n      iszero\n      tag_118\n      jumpi\n        /* \".git/calculaator.sol\":1198:1235  return \"very soon you are gonna vote\" */\n      mload(0x40)\n      dup1\n      0x40\n      add\n      0x40\n      mstore\n      dup1\n      0x1c\n      dup2\n      mstore\n      0x20\n      add\n      0x7665727920736f6f6e20796f752061726520676f6e6e6120766f746500000000\n      dup2\n      mstore\n      pop\n      swap1\n      pop\n      jump(tag_114)\n        /* \".git/calculaator.sol\":1155:1321  if (age >= 16 && age <= 17) {... */\n    tag_118:\n        /* \".git/calculaator.sol\":1276:1309  return \"You are eligible to vote\" */\n      mload(0x40)\n      dup1\n      0x40\n      add\n      0x40\n      mstore\n      dup1\n      0x18\n      dup2\n      mstore\n      0x20\n      add\n      0x596f752061726520656c696769626c6520746f20766f74650000000000000000\n      dup2\n      mstore\n      pop\n      swap1\n      pop\n        /* \".git/calculaator.sol\":1009:1328  function checkage()public view returns (string memory){ ... */\n    tag_114:\n      swap1\n      jump\t// out\n        /* \".git/calculaator.sol\":497:598  function subtraction()public view returns (uint) {... */\n    tag_64:\n        /* \".git/calculaator.sol\":540:544  uint */\n      0x00\n        /* \".git/calculaator.sol\":578:590  secondnumber */\n      sload(0x01)\n        /* \".git/calculaator.sol\":564:575  firstnumber */\n      sload(0x00)\n        /* \".git/calculaator.sol\":564:590  firstnumber - secondnumber */\n      tag_121\n      swap2\n      swap1\n      tag_122\n      jump\t// in\n    tag_121:\n        /* \".git/calculaator.sol\":557:590  return firstnumber - secondnumber */\n      swap1\n      pop\n        /* \".git/calculaator.sol\":497:598  function subtraction()public view returns (uint) {... */\n      swap1\n      jump\t// out\n        /* \".git/calculaator.sol\":390:488  function addition()public view returns (uint) {... */\n    tag_67:\n        /* \".git/calculaator.sol\":430:434  uint */\n      0x00\n        /* \".git/calculaator.sol\":468:480  secondnumber */\n      sload(0x01)\n        /* \".git/calculaator.sol\":454:465  firstnumber */\n      sload(0x00)\n        /* \".git/calculaator.sol\":454:480  firstnumber + secondnumber */\n      tag_124\n      swap2\n      swap1\n      tag_112\n      jump\t// in\n    tag_124:\n        /* \".git/calculaator.sol\":447:480  return firstnumber + secondnumber */\n      swap1\n      pop\n        /* \".git/calculaator.sol\":390:488  function addition()public view returns (uint) {... */\n      swap1\n      jump\t// out\n        /* \"#utility.yul\":7:84   */\n    tag_125:\n        /* \"#utility.yul\":44:51   */\n      0x00\n        /* \"#utility.yul\":73:78   */\n      dup2\n        /* \"#utility.yul\":62:78   */\n      swap1\n      pop\n        /* \"#utility.yul\":7:84   */\n      swap2\n      swap1\n      pop\n      jump\t// out\n        /* \"#utility.yul\":90:208   */\n    tag_126:\n        /* \"#utility.yul\":177:201   */\n      tag_142\n        /* \"#utility.yul\":195:200   */\n      dup2\n        /* \"#utility.yul\":177:201   */\n      tag_125\n      jump\t// in\n    tag_142:\n        /* \"#utility.yul\":172:175   */\n      dup3\n        /* \"#utility.yul\":165:202   */\n      mstore\n        /* \"#utility.yul\":90:208   */\n      pop\n      pop\n      jump\t// out\n        /* \"#utility.yul\":214:436   */\n    tag_24:\n        /* \"#utility.yul\":307:311   */\n      0x00\n        /* \"#utility.yul\":345:347   */\n      0x20\n        /* \"#utility.yul\":334:343   */\n      dup3\n        /* \"#utility.yul\":330:348   */\n      add\n        /* \"#utility.yul\":322:348   */\n      swap1\n      pop\n        /* \"#utility.yul\":358:429   */\n      tag_144\n        /* \"#utility.yul\":426:427   */\n      0x00\n        /* \"#utility.yul\":415:424   */\n      dup4\n        /* \"#utility.yul\":411:428   */\n      add\n        /* \"#utility.yul\":402:408   */\n      dup5\n        /* \"#utility.yul\":358:429   */\n      tag_126\n      jump\t// in\n    tag_144:\n        /* \"#utility.yul\":214:436   */\n      swap3\n      swap2\n      pop\n      pop\n      jump\t// out\n        /* \"#utility.yul\":523:640   */\n    tag_128:\n        /* \"#utility.yul\":632:633   */\n      0x00\n        /* \"#utility.yul\":629:630   */\n      0x00\n        /* \"#utility.yul\":622:634   */\n      revert\n        /* \"#utility.yul\":769:891   */\n    tag_130:\n        /* \"#utility.yul\":842:866   */\n      tag_149\n        /* \"#utility.yul\":860:865   */\n      dup2\n        /* \"#utility.yul\":842:866   */\n      tag_125\n      jump\t// in\n    tag_149:\n        /* \"#utility.yul\":835:840   */\n      dup2\n        /* \"#utility.yul\":832:867   */\n      eq\n        /* \"#utility.yul\":822:885   */\n      tag_150\n      jumpi\n        /* \"#utility.yul\":881:882   */\n      0x00\n        /* \"#utility.yul\":878:879   */\n      0x00\n        /* \"#utility.yul\":871:883   */\n      revert\n        /* \"#utility.yul\":822:885   */\n    tag_150:\n        /* \"#utility.yul\":769:891   */\n      pop\n      jump\t// out\n        /* \"#utility.yul\":897:1036   */\n    tag_131:\n        /* \"#utility.yul\":943:948   */\n      0x00\n        /* \"#utility.yul\":981:987   */\n      dup2\n        /* \"#utility.yul\":968:988   */\n      calldataload\n        /* \"#utility.yul\":959:988   */\n      swap1\n      pop\n        /* \"#utility.yul\":997:1030   */\n      tag_152\n        /* \"#utility.yul\":1024:1029   */\n      dup2\n        /* \"#utility.yul\":997:1030   */\n      tag_130\n      jump\t// in\n    tag_152:\n        /* \"#utility.yul\":897:1036   */\n      swap3\n      swap2\n      pop\n      pop\n      jump\t// out\n        /* \"#utility.yul\":1042:1371   */\n    tag_27:\n        /* \"#utility.yul\":1101:1107   */\n      0x00\n        /* \"#utility.yul\":1150:1152   */\n      0x20\n        /* \"#utility.yul\":1138:1147   */\n      dup3\n        /* \"#utility.yul\":1129:1136   */\n      dup5\n        /* \"#utility.yul\":1125:1148   */\n      sub\n        /* \"#utility.yul\":1121:1153   */\n      slt\n        /* \"#utility.yul\":1118:1237   */\n      iszero\n      tag_154\n      jumpi\n        /* \"#utility.yul\":1156:1235   */\n      tag_155\n      tag_128\n      jump\t// in\n    tag_155:\n        /* \"#utility.yul\":1118:1237   */\n    tag_154:\n        /* \"#utility.yul\":1276:1277   */\n      0x00\n        /* \"#utility.yul\":1301:1354   */\n      tag_156\n        /* \"#utility.yul\":1346:1353   */\n      dup5\n        /* \"#utility.yul\":1337:1343   */\n      dup3\n        /* \"#utility.yul\":1326:1335   */\n      dup6\n        /* \"#utility.yul\":1322:1344   */\n      add\n        /* \"#utility.yul\":1301:1354   */\n      tag_131\n      jump\t// in\n    tag_156:\n        /* \"#utility.yul\":1291:1354   */\n      swap2\n      pop\n        /* \"#utility.yul\":1247:1364   */\n      pop\n        /* \"#utility.yul\":1042:1371   */\n      swap3\n      swap2\n      pop\n      pop\n      jump\t// out\n        /* \"#utility.yul\":1377:1476   */\n    tag_132:\n        /* \"#utility.yul\":1429:1435   */\n      0x00\n        /* \"#utility.yul\":1463:1468   */\n      dup2\n        /* \"#utility.yul\":1457:1469   */\n      mload\n        /* \"#utility.yul\":1447:1469   */\n      swap1\n      pop\n        /* \"#utility.yul\":1377:1476   */\n      swap2\n      swap1\n      pop\n      jump\t// out\n        /* \"#utility.yul\":1482:1651   */\n    tag_133:\n        /* \"#utility.yul\":1566:1577   */\n      0x00\n        /* \"#utility.yul\":1600:1606   */\n      dup3\n        /* \"#utility.yul\":1595:1598   */\n      dup3\n        /* \"#utility.yul\":1588:1607   */\n      mstore\n        /* \"#utility.yul\":1640:1644   */\n      0x20\n        /* \"#utility.yul\":1635:1638   */\n      dup3\n        /* \"#utility.yul\":1631:1645   */\n      add\n        /* \"#utility.yul\":1616:1645   */\n      swap1\n      pop\n        /* \"#utility.yul\":1482:1651   */\n      swap3\n      swap2\n      pop\n      pop\n      jump\t// out\n        /* \"#utility.yul\":1657:1796   */\n    tag_134:\n        /* \"#utility.yul\":1746:1752   */\n      dup3\n        /* \"#utility.yul\":1741:1744   */\n      dup2\n        /* \"#utility.yul\":1736:1739   */\n      dup4\n        /* \"#utility.yul\":1730:1753   */\n      mcopy\n        /* \"#utility.yul\":1787:1788   */\n      0x00\n        /* \"#utility.yul\":1778:1784   */\n      dup4\n        /* \"#utility.yul\":1773:1776   */\n      dup4\n        /* \"#utility.yul\":1769:1785   */\n      add\n        /* \"#utility.yul\":1762:1789   */\n      mstore\n        /* \"#utility.yul\":1657:1796   */\n      pop\n      pop\n      pop\n      jump\t// out\n        /* \"#utility.yul\":1802:1904   */\n    tag_135:\n        /* \"#utility.yul\":1843:1849   */\n      0x00\n        /* \"#utility.yul\":1894:1896   */\n      0x1f\n        /* \"#utility.yul\":1890:1897   */\n      not\n        /* \"#utility.yul\":1885:1887   */\n      0x1f\n        /* \"#utility.yul\":1878:1883   */\n      dup4\n        /* \"#utility.yul\":1874:1888   */\n      add\n        /* \"#utility.yul\":1870:1898   */\n      and\n        /* \"#utility.yul\":1860:1898   */\n      swap1\n      pop\n        /* \"#utility.yul\":1802:1904   */\n      swap2\n      swap1\n      pop\n      jump\t// out\n        /* \"#utility.yul\":1910:2287   */\n    tag_136:\n        /* \"#utility.yul\":1998:2001   */\n      0x00\n        /* \"#utility.yul\":2026:2065   */\n      tag_162\n        /* \"#utility.yul\":2059:2064   */\n      dup3\n        /* \"#utility.yul\":2026:2065   */\n      tag_132\n      jump\t// in\n    tag_162:\n        /* \"#utility.yul\":2081:2152   */\n      tag_163\n        /* \"#utility.yul\":2145:2151   */\n      dup2\n        /* \"#utility.yul\":2140:2143   */\n      dup6\n        /* \"#utility.yul\":2081:2152   */\n      tag_133\n      jump\t// in\n    tag_163:\n        /* \"#utility.yul\":2074:2152   */\n      swap4\n      pop\n        /* \"#utility.yul\":2161:2226   */\n      tag_164\n        /* \"#utility.yul\":2219:2225   */\n      dup2\n        /* \"#utility.yul\":2214:2217   */\n      dup6\n        /* \"#utility.yul\":2207:2211   */\n      0x20\n        /* \"#utility.yul\":2200:2205   */\n      dup7\n        /* \"#utility.yul\":2196:2212   */\n      add\n        /* \"#utility.yul\":2161:2226   */\n      tag_134\n      jump\t// in\n    tag_164:\n        /* \"#utility.yul\":2251:2280   */\n      tag_165\n        /* \"#utility.yul\":2273:2279   */\n      dup2\n        /* \"#utility.yul\":2251:2280   */\n      tag_135\n      jump\t// in\n    tag_165:\n        /* \"#utility.yul\":2246:2249   */\n      dup5\n        /* \"#utility.yul\":2242:2281   */\n      add\n        /* \"#utility.yul\":2235:2281   */\n      swap2\n      pop\n        /* \"#utility.yul\":2002:2287   */\n      pop\n        /* \"#utility.yul\":1910:2287   */\n      swap3\n      swap2\n      pop\n      pop\n      jump\t// out\n        /* \"#utility.yul\":2293:2606   */\n    tag_35:\n        /* \"#utility.yul\":2406:2410   */\n      0x00\n        /* \"#utility.yul\":2444:2446   */\n      0x20\n        /* \"#utility.yul\":2433:2442   */\n      dup3\n        /* \"#utility.yul\":2429:2447   */\n      add\n        /* \"#utility.yul\":2421:2447   */\n      swap1\n      pop\n        /* \"#utility.yul\":2493:2502   */\n      dup2\n        /* \"#utility.yul\":2487:2491   */\n      dup2\n        /* \"#utility.yul\":2483:2503   */\n      sub\n        /* \"#utility.yul\":2479:2480   */\n      0x00\n        /* \"#utility.yul\":2468:2477   */\n      dup4\n        /* \"#utility.yul\":2464:2481   */\n      add\n        /* \"#utility.yul\":2457:2504   */\n      mstore\n        /* \"#utility.yul\":2521:2599   */\n      tag_167\n        /* \"#utility.yul\":2594:2598   */\n      dup2\n        /* \"#utility.yul\":2585:2591   */\n      dup5\n        /* \"#utility.yul\":2521:2599   */\n      tag_136\n      jump\t// in\n    tag_167:\n        /* \"#utility.yul\":2513:2599   */\n      swap1\n      pop\n        /* \"#utility.yul\":2293:2606   */\n      swap3\n      swap2\n      pop\n      pop\n      jump\t// out\n        /* \"#utility.yul\":2612:2792   */\n    tag_137:\n        /* \"#utility.yul\":2660:2737   */\n      0x4e487b7100000000000000000000000000000000000000000000000000000000\n        /* \"#utility.yul\":2657:2658   */\n      0x00\n        /* \"#utility.yul\":2650:2738   */\n      mstore\n        /* \"#utility.yul\":2757:2761   */\n      0x11\n        /* \"#utility.yul\":2754:2755   */\n      0x04\n        /* \"#utility.yul\":2747:2762   */\n      mstore\n        /* \"#utility.yul\":2781:2785   */\n      0x24\n        /* \"#utility.yul\":2778:2779   */\n      0x00\n        /* \"#utility.yul\":2771:2786   */\n      revert\n        /* \"#utility.yul\":2798:3208   */\n    tag_71:\n        /* \"#utility.yul\":2838:2845   */\n      0x00\n        /* \"#utility.yul\":2861:2881   */\n      tag_170\n        /* \"#utility.yul\":2879:2880   */\n      dup3\n        /* \"#utility.yul\":2861:2881   */\n      tag_125\n      jump\t// in\n    tag_170:\n        /* \"#utility.yul\":2856:2881   */\n      swap2\n      pop\n        /* \"#utility.yul\":2895:2915   */\n      tag_171\n        /* \"#utility.yul\":2913:2914   */\n      dup4\n        /* \"#utility.yul\":2895:2915   */\n      tag_125\n      jump\t// in\n    tag_171:\n        /* \"#utility.yul\":2890:2915   */\n      swap3\n      pop\n        /* \"#utility.yul\":2950:2951   */\n      dup3\n        /* \"#utility.yul\":2947:2948   */\n      dup3\n        /* \"#utility.yul\":2943:2952   */\n      mul\n        /* \"#utility.yul\":2972:3002   */\n      tag_172\n        /* \"#utility.yul\":2990:3001   */\n      dup2\n        /* \"#utility.yul\":2972:3002   */\n      tag_125\n      jump\t// in\n    tag_172:\n        /* \"#utility.yul\":2961:3002   */\n      swap2\n      pop\n        /* \"#utility.yul\":3151:3152   */\n      dup3\n        /* \"#utility.yul\":3142:3149   */\n      dup3\n        /* \"#utility.yul\":3138:3153   */\n      div\n        /* \"#utility.yul\":3135:3136   */\n      dup5\n        /* \"#utility.yul\":3132:3154   */\n      eq\n        /* \"#utility.yul\":3112:3113   */\n      dup4\n        /* \"#utility.yul\":3105:3114   */\n      iszero\n        /* \"#utility.yul\":3085:3168   */\n      or\n        /* \"#utility.yul\":3062:3201   */\n      tag_173\n      jumpi\n        /* \"#utility.yul\":3181:3199   */\n      tag_174\n      tag_137\n      jump\t// in\n    tag_174:\n        /* \"#utility.yul\":3062:3201   */\n    tag_173:\n        /* \"#utility.yul\":2846:3208   */\n      pop\n        /* \"#utility.yul\":2798:3208   */\n      swap3\n      swap2\n      pop\n      pop\n      jump\t// out\n        /* \"#utility.yul\":3214:3394   */\n    tag_138:\n        /* \"#utility.yul\":3262:3339   */\n      0x4e487b7100000000000000000000000000000000000000000000000000000000\n        /* \"#utility.yul\":3259:3260   */\n      0x00\n        /* \"#utility.yul\":3252:3340   */\n      mstore\n        /* \"#utility.yul\":3359:3363   */\n      0x12\n        /* \"#utility.yul\":3356:3357   */\n      0x04\n        /* \"#utility.yul\":3349:3364   */\n      mstore\n        /* \"#utility.yul\":3383:3387   */\n      0x24\n        /* \"#utility.yul\":3380:3381   */\n      0x00\n        /* \"#utility.yul\":3373:3388   */\n      revert\n        /* \"#utility.yul\":3400:3585   */\n    tag_85:\n        /* \"#utility.yul\":3440:3441   */\n      0x00\n        /* \"#utility.yul\":3457:3477   */\n      tag_177\n        /* \"#utility.yul\":3475:3476   */\n      dup3\n        /* \"#utility.yul\":3457:3477   */\n      tag_125\n      jump\t// in\n    tag_177:\n        /* \"#utility.yul\":3452:3477   */\n      swap2\n      pop\n        /* \"#utility.yul\":3491:3511   */\n      tag_178\n        /* \"#utility.yul\":3509:3510   */\n      dup4\n        /* \"#utility.yul\":3491:3511   */\n      tag_125\n      jump\t// in\n    tag_178:\n        /* \"#utility.yul\":3486:3511   */\n      swap3\n      pop\n        /* \"#utility.yul\":3530:3531   */\n      dup3\n        /* \"#utility.yul\":3520:3555   */\n      tag_179\n      jumpi\n        /* \"#utility.yul\":3535:3553   */\n      tag_180\n      tag_138\n      jump\t// in\n    tag_180:\n        /* \"#utility.yul\":3520:3555   */\n    tag_179:\n        /* \"#utility.yul\":3577:3578   */\n      dup3\n        /* \"#utility.yul\":3574:3575   */\n      dup3\n        /* \"#utility.yul\":3570:3579   */\n      div\n        /* \"#utility.yul\":3565:3579   */\n      swap1\n      pop\n        /* \"#utility.yul\":3400:3585   */\n      swap3\n      swap2\n      pop\n      pop\n      jump\t// out\n        /* \"#utility.yul\":3591:3782   */\n    tag_112:\n        /* \"#utility.yul\":3631:3634   */\n      0x00\n        /* \"#utility.yul\":3650:3670   */\n      tag_182\n        /* \"#utility.yul\":3668:3669   */\n      dup3\n        /* \"#utility.yul\":3650:3670   */\n      tag_125\n      jump\t// in\n    tag_182:\n        /* \"#utility.yul\":3645:3670   */\n      swap2\n      pop\n        /* \"#utility.yul\":3684:3704   */\n      tag_183\n        /* \"#utility.yul\":3702:3703   */\n      dup4\n        /* \"#utility.yul\":3684:3704   */\n      tag_125\n      jump\t// in\n    tag_183:\n        /* \"#utility.yul\":3679:3704   */\n      swap3\n      pop\n        /* \"#utility.yul\":3727:3728   */\n      dup3\n        /* \"#utility.yul\":3724:3725   */\n      dup3\n        /* \"#utility.yul\":3720:3729   */\n      add\n        /* \"#utility.yul\":3713:3729   */\n      swap1\n      pop\n        /* \"#utility.yul\":3748:3751   */\n      dup1\n        /* \"#utility.yul\":3745:3746   */\n      dup3\n        /* \"#utility.yul\":3742:3752   */\n      gt\n        /* \"#utility.yul\":3739:3775   */\n      iszero\n      tag_184\n      jumpi\n        /* \"#utility.yul\":3755:3773   */\n      tag_185\n      tag_137\n      jump\t// in\n    tag_185:\n        /* \"#utility.yul\":3739:3775   */\n    tag_184:\n        /* \"#utility.yul\":3591:3782   */\n      swap3\n      swap2\n      pop\n      pop\n      jump\t// out\n        /* \"#utility.yul\":3788:3982   */\n    tag_122:\n        /* \"#utility.yul\":3828:3832   */\n      0x00\n        /* \"#utility.yul\":3848:3868   */\n      tag_187\n        /* \"#utility.yul\":3866:3867   */\n      dup3\n        /* \"#utility.yul\":3848:3868   */\n      tag_125\n      jump\t// in\n    tag_187:\n        /* \"#utility.yul\":3843:3868   */\n      swap2\n      pop\n        /* \"#utility.yul\":3882:3902   */\n      tag_188\n        /* \"#utility.yul\":3900:3901   */\n      dup4\n        /* \"#utility.yul\":3882:3902   */\n      tag_125\n      jump\t// in\n    tag_188:\n        /* \"#utility.yul\":3877:3902   */\n      swap3\n      pop\n        /* \"#utility.yul\":3926:3927   */\n      dup3\n        /* \"#utility.yul\":3923:3924   */\n      dup3\n        /* \"#utility.yul\":3919:3928   */\n      sub\n        /* \"#utility.yul\":3911:3928   */\n      swap1\n      pop\n        /* \"#utility.yul\":3950:3951   */\n      dup2\n        /* \"#utility.yul\":3944:3948   */\n      dup2\n        /* \"#utility.yul\":3941:3952   */\n      gt\n        /* \"#utility.yul\":3938:3975   */\n      iszero\n      tag_189\n      jumpi\n        /* \"#utility.yul\":3955:3973   */\n      tag_190\n      tag_137\n      jump\t// in\n    tag_190:\n        /* \"#utility.yul\":3938:3975   */\n    tag_189:\n        /* \"#utility.yul\":3788:3982   */\n      swap3\n      swap2\n      pop\n      pop\n      jump\t// out\n\n    auxdata: 0xa264697066735822122089eb712f1b4802bba80c92ad7c88c5dde1188d1378890bf31864319d3c88019164736f6c634300081e0033\n}\n",
				"bytecode": {
					"linkReferences": {},
					"object": "6080604052348015600e575f5ffd5b50610aa68061001c5f395ff3fe608060405234801561000f575f5ffd5b50600436106100f3575f3560e01c80639daaf83a11610095578063bed948c511610064578063bed948c514610237578063d62ff3a414610253578063e3ec025114610271578063ec5971281461028f576100f3565b80639daaf83a146101c35780639f17c892146101e1578063a59e0d54146101fd578063bde9e40e14610219576100f3565b8063266de1e0116100d1578063266de1e01461014d5780633205f5fc1461016b57806348a9066d146101895780637f109886146101a5576100f3565b8063011285da146100f757806312a09447146101155780631981bfa014610131575b5f5ffd5b6100ff6102ad565b60405161010c919061083d565b60405180910390f35b61012f600480360381019061012a9190610884565b6102c2565b005b61014b60048036038101906101469190610884565b6102cc565b005b6101556102d6565b604051610162919061091f565b60405180910390f35b61017361040b565b604051610180919061083d565b60405180910390f35b6101a3600480360381019061019e9190610884565b610420565b005b6101ad610429565b6040516101ba919061091f565b60405180910390f35b6101cb610506565b6040516101d8919061091f565b60405180910390f35b6101fb60048036038101906101f69190610884565b6106eb565b005b61021760048036038101906102129190610884565b6106f5565b005b6102216106ff565b60405161022e919061083d565b60405180910390f35b610251600480360381019061024c9190610884565b610714565b005b61025b61071e565b604051610268919061091f565b60405180910390f35b6102796107fb565b604051610286919061083d565b60405180910390f35b610297610810565b6040516102a4919061083d565b60405180910390f35b5f6001545f546102bd919061096c565b905090565b8060048190555050565b8060058190555050565b6060600c6003541161031f576040518060400160405280600c81526020017f476f6f64204d6f726e696e6700000000000000000000000000000000000000008152509050610408565b600c600354101580156103355750601060035411155b15610377576040518060400160405280600e81526020017f476f6f642041667465726e6f6f6e0000000000000000000000000000000000008152509050610408565b60106003541015801561038d5750601460035411155b156103cf576040518060400160405280600c81526020017f476f6f64204576656e696e6700000000000000000000000000000000000000008152509050610408565b6040518060400160405280600a81526020017f476f6f64204e696768740000000000000000000000000000000000000000000081525090505b90565b5f6001545f5461041b91906109da565b905090565b805f8190555050565b6060600f60045411610472576040518060400160405280600481526020017f636f6c64000000000000000000000000000000000000000000000000000000008152509050610503565b600f600454101580156104885750601960045411155b156104ca576040518060400160405280600681526020017f6e6f726d616c00000000000000000000000000000000000000000000000000008152509050610503565b6040518060400160405280600381526020017f686f74000000000000000000000000000000000000000000000000000000000081525090505b90565b606060086005541161054f576040518060400160405280600f81526020017f6c6561726e2074696c6c203130616d000000000000000000000000000000000081525090506106e8565b600a600554101580156105655750600c60055411155b156105a7576040518060400160405280600d81526020017f676f206e2067657420666f6f640000000000000000000000000000000000000081525090506106e8565b600c600554101580156105bd5750600e60055411155b156105ff576040518060400160405280600d81526020017f70726f6261626c7920726561640000000000000000000000000000000000000081525090506106e8565b600e600554101580156106155750601260055411155b15610657576040518060400160405280600581526020017f736c65657000000000000000000000000000000000000000000000000000000081525090506106e8565b60136005541015801561066d5750601460055411155b156106af576040518060400160405280600781526020017f687964726174650000000000000000000000000000000000000000000000000081525090506106e8565b6040518060400160405280600b81526020017f736c65657020616761696e00000000000000000000000000000000000000000081525090505b90565b8060018190555050565b8060028190555050565b5f6001545f5461070f9190610a0a565b905090565b8060038190555050565b6060600f60025411610767576040518060400160405280601881526020017f736f727279206465617220796f752063616e7420766f7465000000000000000081525090506107f8565b60106002541015801561077d5750601160025411155b156107bf576040518060400160405280601c81526020017f7665727920736f6f6e20796f752061726520676f6e6e6120766f74650000000081525090506107f8565b6040518060400160405280601881526020017f596f752061726520656c696769626c6520746f20766f7465000000000000000081525090505b90565b5f6001545f5461080b9190610a3d565b905090565b5f6001545f546108209190610a0a565b905090565b5f819050919050565b61083781610825565b82525050565b5f6020820190506108505f83018461082e565b92915050565b5f5ffd5b61086381610825565b811461086d575f5ffd5b50565b5f8135905061087e8161085a565b92915050565b5f6020828403121561089957610898610856565b5b5f6108a684828501610870565b91505092915050565b5f81519050919050565b5f82825260208201905092915050565b8281835e5f83830152505050565b5f601f19601f8301169050919050565b5f6108f1826108af565b6108fb81856108b9565b935061090b8185602086016108c9565b610914816108d7565b840191505092915050565b5f6020820190508181035f83015261093781846108e7565b905092915050565b7f4e487b71000000000000000000000000000000000000000000000000000000005f52601160045260245ffd5b5f61097682610825565b915061098183610825565b925082820261098f81610825565b915082820484148315176109a6576109a561093f565b5b5092915050565b7f4e487b71000000000000000000000000000000000000000000000000000000005f52601260045260245ffd5b5f6109e482610825565b91506109ef83610825565b9250826109ff576109fe6109ad565b5b828204905092915050565b5f610a1482610825565b9150610a1f83610825565b9250828201905080821115610a3757610a3661093f565b5b92915050565b5f610a4782610825565b9150610a5283610825565b9250828203905081811115610a6a57610a6961093f565b5b9291505056fea264697066735822122089eb712f1b4802bba80c92ad7c88c5dde1188d1378890bf31864319d3c88019164736f6c634300081e0033",
					"opcodes": "PUSH1 0x80 PUSH1 0x40 MSTORE CALLVALUE DUP1 ISZERO PUSH1 0xE JUMPI PUSH0 PUSH0 REVERT JUMPDEST POP PUSH2 0xAA6 DUP1 PUSH2 0x1C PUSH0 CODECOPY PUSH0 RETURN INVALID PUSH1 0x80 PUSH1 0x40 MSTORE CALLVALUE DUP1 ISZERO PUSH2 0xF JUMPI PUSH0 PUSH0 REVERT JUMPDEST POP PUSH1 0x4 CALLDATASIZE LT PUSH2 0xF3 JUMPI PUSH0 CALLDATALOAD PUSH1 0xE0 SHR DUP1 PUSH4 0x9DAAF83A GT PUSH2 0x95 JUMPI DUP1 PUSH4 0xBED948C5 GT PUSH2 0x64 JUMPI DUP1 PUSH4 0xBED948C5 EQ PUSH2 0x237 JUMPI DUP1 PUSH4 0xD62FF3A4 EQ PUSH2 0x253 JUMPI DUP1 PUSH4 0xE3EC0251 EQ PUSH2 0x271 JUMPI DUP1 PUSH4 0xEC597128 EQ PUSH2 0x28F JUMPI PUSH2 0xF3 JUMP JUMPDEST DUP1 PUSH4 0x9DAAF83A EQ PUSH2 0x1C3 JUMPI DUP1 PUSH4 0x9F17C892 EQ PUSH2 0x1E1 JUMPI DUP1 PUSH4 0xA59E0D54 EQ PUSH2 0x1FD JUMPI DUP1 PUSH4 0xBDE9E40E EQ PUSH2 0x219 JUMPI PUSH2 0xF3 JUMP JUMPDEST DUP1 PUSH4 0x266DE1E0 GT PUSH2 0xD1 JUMPI DUP1 PUSH4 0x266DE1E0 EQ PUSH2 0x14D JUMPI DUP1 PUSH4 0x3205F5FC EQ PUSH2 0x16B JUMPI DUP1 PUSH4 0x48A9066D EQ PUSH2 0x189 JUMPI DUP1 PUSH4 0x7F109886 EQ PUSH2 0x1A5 JUMPI PUSH2 0xF3 JUMP JUMPDEST DUP1 PUSH4 0x11285DA EQ PUSH2 0xF7 JUMPI DUP1 PUSH4 0x12A09447 EQ PUSH2 0x115 JUMPI DUP1 PUSH4 0x1981BFA0 EQ PUSH2 0x131 JUMPI JUMPDEST PUSH0 PUSH0 REVERT JUMPDEST PUSH2 0xFF PUSH2 0x2AD JUMP JUMPDEST PUSH1 0x40 MLOAD PUSH2 0x10C SWAP2 SWAP1 PUSH2 0x83D JUMP JUMPDEST PUSH1 0x40 MLOAD DUP1 SWAP2 SUB SWAP1 RETURN JUMPDEST PUSH2 0x12F PUSH1 0x4 DUP1 CALLDATASIZE SUB DUP2 ADD SWAP1 PUSH2 0x12A SWAP2 SWAP1 PUSH2 0x884 JUMP JUMPDEST PUSH2 0x2C2 JUMP JUMPDEST STOP JUMPDEST PUSH2 0x14B PUSH1 0x4 DUP1 CALLDATASIZE SUB DUP2 ADD SWAP1 PUSH2 0x146 SWAP2 SWAP1 PUSH2 0x884 JUMP JUMPDEST PUSH2 0x2CC JUMP JUMPDEST STOP JUMPDEST PUSH2 0x155 PUSH2 0x2D6 JUMP JUMPDEST PUSH1 0x40 MLOAD PUSH2 0x162 SWAP2 SWAP1 PUSH2 0x91F JUMP JUMPDEST PUSH1 0x40 MLOAD DUP1 SWAP2 SUB SWAP1 RETURN JUMPDEST PUSH2 0x173 PUSH2 0x40B JUMP JUMPDEST PUSH1 0x40 MLOAD PUSH2 0x180 SWAP2 SWAP1 PUSH2 0x83D JUMP JUMPDEST PUSH1 0x40 MLOAD DUP1 SWAP2 SUB SWAP1 RETURN JUMPDEST PUSH2 0x1A3 PUSH1 0x4 DUP1 CALLDATASIZE SUB DUP2 ADD SWAP1 PUSH2 0x19E SWAP2 SWAP1 PUSH2 0x884 JUMP JUMPDEST PUSH2 0x420 JUMP JUMPDEST STOP JUMPDEST PUSH2 0x1AD PUSH2 0x429 JUMP JUMPDEST PUSH1 0x40 MLOAD PUSH2 0x1BA SWAP2 SWAP1 PUSH2 0x91F JUMP JUMPDEST PUSH1 0x40 MLOAD DUP1 SWAP2 SUB SWAP1 RETURN JUMPDEST PUSH2 0x1CB PUSH2 0x506 JUMP JUMPDEST PUSH1 0x40 MLOAD PUSH2 0x1D8 SWAP2 SWAP1 PUSH2 0x91F JUMP JUMPDEST PUSH1 0x40 MLOAD DUP1 SWAP2 SUB SWAP1 RETURN JUMPDEST PUSH2 0x1FB PUSH1 0x4 DUP1 CALLDATASIZE SUB DUP2 ADD SWAP1 PUSH2 0x1F6 SWAP2 SWAP1 PUSH2 0x884 JUMP JUMPDEST PUSH2 0x6EB JUMP JUMPDEST STOP JUMPDEST PUSH2 0x217 PUSH1 0x4 DUP1 CALLDATASIZE SUB DUP2 ADD SWAP1 PUSH2 0x212 SWAP2 SWAP1 PUSH2 0x884 JUMP JUMPDEST PUSH2 0x6F5 JUMP JUMPDEST STOP JUMPDEST PUSH2 0x221 PUSH2 0x6FF JUMP JUMPDEST PUSH1 0x40 MLOAD PUSH2 0x22E SWAP2 SWAP1 PUSH2 0x83D JUMP JUMPDEST PUSH1 0x40 MLOAD DUP1 SWAP2 SUB SWAP1 RETURN JUMPDEST PUSH2 0x251 PUSH1 0x4 DUP1 CALLDATASIZE SUB DUP2 ADD SWAP1 PUSH2 0x24C SWAP2 SWAP1 PUSH2 0x884 JUMP JUMPDEST PUSH2 0x714 JUMP JUMPDEST STOP JUMPDEST PUSH2 0x25B PUSH2 0x71E JUMP JUMPDEST PUSH1 0x40 MLOAD PUSH2 0x268 SWAP2 SWAP1 PUSH2 0x91F JUMP JUMPDEST PUSH1 0x40 MLOAD DUP1 SWAP2 SUB SWAP1 RETURN JUMPDEST PUSH2 0x279 PUSH2 0x7FB JUMP JUMPDEST PUSH1 0x40 MLOAD PUSH2 0x286 SWAP2 SWAP1 PUSH2 0x83D JUMP JUMPDEST PUSH1 0x40 MLOAD DUP1 SWAP2 SUB SWAP1 RETURN JUMPDEST PUSH2 0x297 PUSH2 0x810 JUMP JUMPDEST PUSH1 0x40 MLOAD PUSH2 0x2A4 SWAP2 SWAP1 PUSH2 0x83D JUMP JUMPDEST PUSH1 0x40 MLOAD DUP1 SWAP2 SUB SWAP1 RETURN JUMPDEST PUSH0 PUSH1 0x1 SLOAD PUSH0 SLOAD PUSH2 0x2BD SWAP2 SWAP1 PUSH2 0x96C JUMP JUMPDEST SWAP1 POP SWAP1 JUMP JUMPDEST DUP1 PUSH1 0x4 DUP2 SWAP1 SSTORE POP POP JUMP JUMPDEST DUP1 PUSH1 0x5 DUP2 SWAP1 SSTORE POP POP JUMP JUMPDEST PUSH1 0x60 PUSH1 0xC PUSH1 0x3 SLOAD GT PUSH2 0x31F JUMPI PUSH1 0x40 MLOAD DUP1 PUSH1 0x40 ADD PUSH1 0x40 MSTORE DUP1 PUSH1 0xC DUP2 MSTORE PUSH1 0x20 ADD PUSH32 0x476F6F64204D6F726E696E670000000000000000000000000000000000000000 DUP2 MSTORE POP SWAP1 POP PUSH2 0x408 JUMP JUMPDEST PUSH1 0xC PUSH1 0x3 SLOAD LT ISZERO DUP1 ISZERO PUSH2 0x335 JUMPI POP PUSH1 0x10 PUSH1 0x3 SLOAD GT ISZERO JUMPDEST ISZERO PUSH2 0x377 JUMPI PUSH1 0x40 MLOAD DUP1 PUSH1 0x40 ADD PUSH1 0x40 MSTORE DUP1 PUSH1 0xE DUP2 MSTORE PUSH1 0x20 ADD PUSH32 0x476F6F642041667465726E6F6F6E000000000000000000000000000000000000 DUP2 MSTORE POP SWAP1 POP PUSH2 0x408 JUMP JUMPDEST PUSH1 0x10 PUSH1 0x3 SLOAD LT ISZERO DUP1 ISZERO PUSH2 0x38D JUMPI POP PUSH1 0x14 PUSH1 0x3 SLOAD GT ISZERO JUMPDEST ISZERO PUSH2 0x3CF JUMPI PUSH1 0x40 MLOAD DUP1 PUSH1 0x40 ADD PUSH1 0x40 MSTORE DUP1 PUSH1 0xC DUP2 MSTORE PUSH1 0x20 ADD PUSH32 0x476F6F64204576656E696E670000000000000000000000000000000000000000 DUP2 MSTORE POP SWAP1 POP PUSH2 0x408 JUMP JUMPDEST PUSH1 0x40 MLOAD DUP1 PUSH1 0x40 ADD PUSH1 0x40 MSTORE DUP1 PUSH1 0xA DUP2 MSTORE PUSH1 0x20 ADD PUSH32 0x476F6F64204E6967687400000000000000000000000000000000000000000000 DUP2 MSTORE POP SWAP1 POP JUMPDEST SWAP1 JUMP JUMPDEST PUSH0 PUSH1 0x1 SLOAD PUSH0 SLOAD PUSH2 0x41B SWAP2 SWAP1 PUSH2 0x9DA JUMP JUMPDEST SWAP1 POP SWAP1 JUMP JUMPDEST DUP1 PUSH0 DUP2 SWAP1 SSTORE POP POP JUMP JUMPDEST PUSH1 0x60 PUSH1 0xF PUSH1 0x4 SLOAD GT PUSH2 0x472 JUMPI PUSH1 0x40 MLOAD DUP1 PUSH1 0x40 ADD PUSH1 0x40 MSTORE DUP1 PUSH1 0x4 DUP2 MSTORE PUSH1 0x20 ADD PUSH32 0x636F6C6400000000000000000000000000000000000000000000000000000000 DUP2 MSTORE POP SWAP1 POP PUSH2 0x503 JUMP JUMPDEST PUSH1 0xF PUSH1 0x4 SLOAD LT ISZERO DUP1 ISZERO PUSH2 0x488 JUMPI POP PUSH1 0x19 PUSH1 0x4 SLOAD GT ISZERO JUMPDEST ISZERO PUSH2 0x4CA JUMPI PUSH1 0x40 MLOAD DUP1 PUSH1 0x40 ADD PUSH1 0x40 MSTORE DUP1 PUSH1 0x6 DUP2 MSTORE PUSH1 0x20 ADD PUSH32 0x6E6F726D616C0000000000000000000000000000000000000000000000000000 DUP2 MSTORE POP SWAP1 POP PUSH2 0x503 JUMP JUMPDEST PUSH1 0x40 MLOAD DUP1 PUSH1 0x40 ADD PUSH1 0x40 MSTORE DUP1 PUSH1 0x3 DUP2 MSTORE PUSH1 0x20 ADD PUSH32 0x686F740000000000000000000000000000000000000000000000000000000000 DUP2 MSTORE POP SWAP1 POP JUMPDEST SWAP1 JUMP JUMPDEST PUSH1 0x60 PUSH1 0x8 PUSH1 0x5 SLOAD GT PUSH2 0x54F JUMPI PUSH1 0x40 MLOAD DUP1 PUSH1 0x40 ADD PUSH1 0x40 MSTORE DUP1 PUSH1 0xF DUP2 MSTORE PUSH1 0x20 ADD PUSH32 0x6C6561726E2074696C6C203130616D0000000000000000000000000000000000 DUP2 MSTORE POP SWAP1 POP PUSH2 0x6E8 JUMP JUMPDEST PUSH1 0xA PUSH1 0x5 SLOAD LT ISZERO DUP1 ISZERO PUSH2 0x565 JUMPI POP PUSH1 0xC PUSH1 0x5 SLOAD GT ISZERO JUMPDEST ISZERO PUSH2 0x5A7 JUMPI PUSH1 0x40 MLOAD DUP1 PUSH1 0x40 ADD PUSH1 0x40 MSTORE DUP1 PUSH1 0xD DUP2 MSTORE PUSH1 0x20 ADD PUSH32 0x676F206E2067657420666F6F6400000000000000000000000000000000000000 DUP2 MSTORE POP SWAP1 POP PUSH2 0x6E8 JUMP JUMPDEST PUSH1 0xC PUSH1 0x5 SLOAD LT ISZERO DUP1 ISZERO PUSH2 0x5BD JUMPI POP PUSH1 0xE PUSH1 0x5 SLOAD GT ISZERO JUMPDEST ISZERO PUSH2 0x5FF JUMPI PUSH1 0x40 MLOAD DUP1 PUSH1 0x40 ADD PUSH1 0x40 MSTORE DUP1 PUSH1 0xD DUP2 MSTORE PUSH1 0x20 ADD PUSH32 0x70726F6261626C79207265616400000000000000000000000000000000000000 DUP2 MSTORE POP SWAP1 POP PUSH2 0x6E8 JUMP JUMPDEST PUSH1 0xE PUSH1 0x5 SLOAD LT ISZERO DUP1 ISZERO PUSH2 0x615 JUMPI POP PUSH1 0x12 PUSH1 0x5 SLOAD GT ISZERO JUMPDEST ISZERO PUSH2 0x657 JUMPI PUSH1 0x40 MLOAD DUP1 PUSH1 0x40 ADD PUSH1 0x40 MSTORE DUP1 PUSH1 0x5 DUP2 MSTORE PUSH1 0x20 ADD PUSH32 0x736C656570000000000000000000000000000000000000000000000000000000 DUP2 MSTORE POP SWAP1 POP PUSH2 0x6E8 JUMP JUMPDEST PUSH1 0x13 PUSH1 0x5 SLOAD LT ISZERO DUP1 ISZERO PUSH2 0x66D JUMPI POP PUSH1 0x14 PUSH1 0x5 SLOAD GT ISZERO JUMPDEST ISZERO PUSH2 0x6AF JUMPI PUSH1 0x40 MLOAD DUP1 PUSH1 0x40 ADD PUSH1 0x40 MSTORE DUP1 PUSH1 0x7 DUP2 MSTORE PUSH1 0x20 ADD PUSH32 0x6879647261746500000000000000000000000000000000000000000000000000 DUP2 MSTORE POP SWAP1 POP PUSH2 0x6E8 JUMP JUMPDEST PUSH1 0x40 MLOAD DUP1 PUSH1 0x40 ADD PUSH1 0x40 MSTORE DUP1 PUSH1 0xB DUP2 MSTORE PUSH1 0x20 ADD PUSH32 0x736C65657020616761696E000000000000000000000000000000000000000000 DUP2 MSTORE POP SWAP1 POP JUMPDEST SWAP1 JUMP JUMPDEST DUP1 PUSH1 0x1 DUP2 SWAP1 SSTORE POP POP JUMP JUMPDEST DUP1 PUSH1 0x2 DUP2 SWAP1 SSTORE POP POP JUMP JUMPDEST PUSH0 PUSH1 0x1 SLOAD PUSH0 SLOAD PUSH2 0x70F SWAP2 SWAP1 PUSH2 0xA0A JUMP JUMPDEST SWAP1 POP SWAP1 JUMP JUMPDEST DUP1 PUSH1 0x3 DUP2 SWAP1 SSTORE POP POP JUMP JUMPDEST PUSH1 0x60 PUSH1 0xF PUSH1 0x2 SLOAD GT PUSH2 0x767 JUMPI PUSH1 0x40 MLOAD DUP1 PUSH1 0x40 ADD PUSH1 0x40 MSTORE DUP1 PUSH1 0x18 DUP2 MSTORE PUSH1 0x20 ADD PUSH32 0x736F727279206465617220796F752063616E7420766F74650000000000000000 DUP2 MSTORE POP SWAP1 POP PUSH2 0x7F8 JUMP JUMPDEST PUSH1 0x10 PUSH1 0x2 SLOAD LT ISZERO DUP1 ISZERO PUSH2 0x77D JUMPI POP PUSH1 0x11 PUSH1 0x2 SLOAD GT ISZERO JUMPDEST ISZERO PUSH2 0x7BF JUMPI PUSH1 0x40 MLOAD DUP1 PUSH1 0x40 ADD PUSH1 0x40 MSTORE DUP1 PUSH1 0x1C DUP2 MSTORE PUSH1 0x20 ADD PUSH32 0x7665727920736F6F6E20796F752061726520676F6E6E6120766F746500000000 DUP2 MSTORE POP SWAP1 POP PUSH2 0x7F8 JUMP JUMPDEST PUSH1 0x40 MLOAD DUP1 PUSH1 0x40 ADD PUSH1 0x40 MSTORE DUP1 PUSH1 0x18 DUP2 MSTORE PUSH1 0x20 ADD PUSH32 0x596F752061726520656C696769626C6520746F20766F74650000000000000000 DUP2 MSTORE POP SWAP1 POP JUMPDEST SWAP1 JUMP JUMPDEST PUSH0 PUSH1 0x1 SLOAD PUSH0 SLOAD PUSH2 0x80B SWAP2 SWAP1 PUSH2 0xA3D JUMP JUMPDEST SWAP1 POP SWAP1 JUMP JUMPDEST PUSH0 PUSH1 0x1 SLOAD PUSH0 SLOAD PUSH2 0x820 SWAP2 SWAP1 PUSH2 0xA0A JUMP JUMPDEST SWAP1 POP SWAP1 JUMP JUMPDEST PUSH0 DUP2 SWAP1 POP SWAP2 SWAP1 POP JUMP JUMPDEST PUSH2 0x837 DUP2 PUSH2 0x825 JUMP JUMPDEST DUP3 MSTORE POP POP JUMP JUMPDEST PUSH0 PUSH1 0x20 DUP3 ADD SWAP1 POP PUSH2 0x850 PUSH0 DUP4 ADD DUP5 PUSH2 0x82E JUMP JUMPDEST SWAP3 SWAP2 POP POP JUMP JUMPDEST PUSH0 PUSH0 REVERT JUMPDEST PUSH2 0x863 DUP2 PUSH2 0x825 JUMP JUMPDEST DUP2 EQ PUSH2 0x86D JUMPI PUSH0 PUSH0 REVERT JUMPDEST POP JUMP JUMPDEST PUSH0 DUP2 CALLDATALOAD SWAP1 POP PUSH2 0x87E DUP2 PUSH2 0x85A JUMP JUMPDEST SWAP3 SWAP2 POP POP JUMP JUMPDEST PUSH0 PUSH1 0x20 DUP3 DUP5 SUB SLT ISZERO PUSH2 0x899 JUMPI PUSH2 0x898 PUSH2 0x856 JUMP JUMPDEST JUMPDEST PUSH0 PUSH2 0x8A6 DUP5 DUP3 DUP6 ADD PUSH2 0x870 JUMP JUMPDEST SWAP2 POP POP SWAP3 SWAP2 POP POP JUMP JUMPDEST PUSH0 DUP2 MLOAD SWAP1 POP SWAP2 SWAP1 POP JUMP JUMPDEST PUSH0 DUP3 DUP3 MSTORE PUSH1 0x20 DUP3 ADD SWAP1 POP SWAP3 SWAP2 POP POP JUMP JUMPDEST DUP3 DUP2 DUP4 MCOPY PUSH0 DUP4 DUP4 ADD MSTORE POP POP POP JUMP JUMPDEST PUSH0 PUSH1 0x1F NOT PUSH1 0x1F DUP4 ADD AND SWAP1 POP SWAP2 SWAP1 POP JUMP JUMPDEST PUSH0 PUSH2 0x8F1 DUP3 PUSH2 0x8AF JUMP JUMPDEST PUSH2 0x8FB DUP2 DUP6 PUSH2 0x8B9 JUMP JUMPDEST SWAP4 POP PUSH2 0x90B DUP2 DUP6 PUSH1 0x20 DUP7 ADD PUSH2 0x8C9 JUMP JUMPDEST PUSH2 0x914 DUP2 PUSH2 0x8D7 JUMP JUMPDEST DUP5 ADD SWAP2 POP POP SWAP3 SWAP2 POP POP JUMP JUMPDEST PUSH0 PUSH1 0x20 DUP3 ADD SWAP1 POP DUP2 DUP2 SUB PUSH0 DUP4 ADD MSTORE PUSH2 0x937 DUP2 DUP5 PUSH2 0x8E7 JUMP JUMPDEST SWAP1 POP SWAP3 SWAP2 POP POP JUMP JUMPDEST PUSH32 0x4E487B7100000000000000000000000000000000000000000000000000000000 PUSH0 MSTORE PUSH1 0x11 PUSH1 0x4 MSTORE PUSH1 0x24 PUSH0 REVERT JUMPDEST PUSH0 PUSH2 0x976 DUP3 PUSH2 0x825 JUMP JUMPDEST SWAP2 POP PUSH2 0x981 DUP4 PUSH2 0x825 JUMP JUMPDEST SWAP3 POP DUP3 DUP3 MUL PUSH2 0x98F DUP2 PUSH2 0x825 JUMP JUMPDEST SWAP2 POP DUP3 DUP3 DIV DUP5 EQ DUP4 ISZERO OR PUSH2 0x9A6 JUMPI PUSH2 0x9A5 PUSH2 0x93F JUMP JUMPDEST JUMPDEST POP SWAP3 SWAP2 POP POP JUMP JUMPDEST PUSH32 0x4E487B7100000000000000000000000000000000000000000000000000000000 PUSH0 MSTORE PUSH1 0x12 PUSH1 0x4 MSTORE PUSH1 0x24 PUSH0 REVERT JUMPDEST PUSH0 PUSH2 0x9E4 DUP3 PUSH2 0x825 JUMP JUMPDEST SWAP2 POP PUSH2 0x9EF DUP4 PUSH2 0x825 JUMP JUMPDEST SWAP3 POP DUP3 PUSH2 0x9FF JUMPI PUSH2 0x9FE PUSH2 0x9AD JUMP JUMPDEST JUMPDEST DUP3 DUP3 DIV SWAP1 POP SWAP3 SWAP2 POP POP JUMP JUMPDEST PUSH0 PUSH2 0xA14 DUP3 PUSH2 0x825 JUMP JUMPDEST SWAP2 POP PUSH2 0xA1F DUP4 PUSH2 0x825 JUMP JUMPDEST SWAP3 POP DUP3 DUP3 ADD SWAP1 POP DUP1 DUP3 GT ISZERO PUSH2 0xA37 JUMPI PUSH2 0xA36 PUSH2 0x93F JUMP JUMPDEST JUMPDEST SWAP3 SWAP2 POP POP JUMP JUMPDEST PUSH0 PUSH2 0xA47 DUP3 PUSH2 0x825 JUMP JUMPDEST SWAP2 POP PUSH2 0xA52 DUP4 PUSH2 0x825 JUMP JUMPDEST SWAP3 POP DUP3 DUP3 SUB SWAP1 POP DUP2 DUP2 GT ISZERO PUSH2 0xA6A JUMPI PUSH2 0xA69 PUSH2 0x93F JUMP JUMPDEST JUMPDEST SWAP3 SWAP2 POP POP JUMP INVALID LOG2 PUSH5 0x6970667358 0x22 SLT KECCAK256 DUP10 0xEB PUSH18 0x2F1B4802BBA80C92AD7C88C5DDE1188D1378 DUP10 SIGNEXTEND RETURN XOR PUSH5 0x319D3C8801 SWAP2 PUSH5 0x736F6C6343 STOP ADDMOD 0x1E STOP CALLER "
				},
				"gasEstimates": {
					"creation": {
						"codeDepositCost": "545200",
						"executionCost": "579",
						"totalCost": "545779"
					},
					"external": {
						"addition()": "infinite",
						"checkage()": "infinite",
						"checktime()": "infinite",
						"checktrack()": "infinite",
						"checkweather()": "infinite",
						"division()": "infinite",
						"getage(uint256)": "22582",
						"getfirstnum(uint256)": "22581",
						"getsecondnum(uint256)": "22560",
						"getweather(uint256)": "22561",
						"invalid()": "infinite",
						"multiplication()": "infinite",
						"subtraction()": "infinite",
						"tracktime(uint256)": "22537",
						"trackup(uint256)": "22583"
					}
				},
				"methodIdentifiers": {
					"addition()": "ec597128",
					"checkage()": "d62ff3a4",
					"checktime()": "266de1e0",
					"checktrack()": "9daaf83a",
					"checkweather()": "7f109886",
					"division()": "3205f5fc",
					"getage(uint256)": "a59e0d54",
					"getfirstnum(uint256)": "48a9066d",
					"getsecondnum(uint256)": "9f17c892",
					"getweather(uint256)": "12a09447",
					"invalid()": "bde9e40e",
					"multiplication()": "011285da",
					"subtraction()": "e3ec0251",
					"tracktime(uint256)": "bed948c5",
					"trackup(uint256)": "1981bfa0"
				}
			},
			"storageLayout": {
				"storage": [
					{
						"astId": 3,
						"contract": ".git/calculaator.sol:calculatorandall",
						"label": "firstnumber",
						"offset": 0,
						"slot": "0",
						"type": "t_uint256"
					},
					{
						"astId": 5,
						"contract": ".git/calculaator.sol:calculatorandall",
						"label": "secondnumber",
						"offset": 0,
						"slot": "1",
						"type": "t_uint256"
					},
					{
						"astId": 7,
						"contract": ".git/calculaator.sol:calculatorandall",
						"label": "age",
						"offset": 0,
						"slot": "2",
						"type": "t_uint256"
					},
					{
						"astId": 9,
						"contract": ".git/calculaator.sol:calculatorandall",
						"label": "time",
						"offset": 0,
						"slot": "3",
						"type": "t_uint256"
					},
					{
						"astId": 11,
						"contract": ".git/calculaator.sol:calculatorandall",
						"label": "weather",
						"offset": 0,
						"slot": "4",
						"type": "t_uint256"
					},
					{
						"astId": 13,
						"contract": ".git/calculaator.sol:calculatorandall",
						"label": "track",
						"offset": 0,
						"slot": "5",
						"type": "t_uint256"
					}
				],
				"types": {
					"t_uint256": {
						"encoding": "inplace",
						"label": "uint256",
						"numberOfBytes": "32"
					}
				}
			},
			"userdoc": {
				"kind": "user",
				"methods": {},
				"version": 1
			}
		}
	}
}