{
	".git/calculaator.sol": {
		"calculatorandall": {
			"abi": [
				{
					"inputs": [
						{
							"internalType": "string",
							"name": "_task",
							"type": "string"
						}
					],
					"name": "addTodo",
					"outputs": [],
					"stateMutability": "nonpayable",
					"type": "function"
				},
				{
					"inputs": [],
					"name": "addition",
					"outputs": [
						{
							"internalType": "uint256",
							"name": "",
							"type": "uint256"
						}
					],
					"stateMutability": "view",
					"type": "function"
				},
				{
					"inputs": [],
					"name": "checkage",
					"outputs": [
						{
							"internalType": "string",
							"name": "",
							"type": "string"
						}
					],
					"stateMutability": "view",
					"type": "function"
				},
				{
					"inputs": [],
					"name": "checktime",
					"outputs": [
						{
							"internalType": "string",
							"name": "",
							"type": "string"
						}
					],
					"stateMutability": "view",
					"type": "function"
				},
				{
					"inputs": [],
					"name": "checktrack",
					"outputs": [
						{
							"internalType": "string",
							"name": "",
							"type": "string"
						}
					],
					"stateMutability": "view",
					"type": "function"
				},
				{
					"inputs": [],
					"name": "checkweather",
					"outputs": [
						{
							"internalType": "string",
							"name": "",
							"type": "string"
						}
					],
					"stateMutability": "view",
					"type": "function"
				},
				{
					"inputs": [
						{
							"internalType": "uint256",
							"name": "_index",
							"type": "uint256"
						}
					],
					"name": "completeTodo",
					"outputs": [],
					"stateMutability": "nonpayable",
					"type": "function"
				},
				{
					"inputs": [],
					"name": "division",
					"outputs": [
						{
							"internalType": "uint256",
							"name": "",
							"type": "uint256"
						}
					],
					"stateMutability": "view",
					"type": "function"
				},
				{
					"inputs": [],
					"name": "getTodos",
					"outputs": [
						{
							"components": [
								{
									"internalType": "string",
									"name": "task",
									"type": "string"
								},
								{
									"internalType": "bool",
									"name": "completed",
									"type": "bool"
								}
							],
							"internalType": "struct calculatorandall.Todo[]",
							"name": "",
							"type": "tuple[]"
						}
					],
					"stateMutability": "view",
					"type": "function"
				},
				{
					"inputs": [
						{
							"internalType": "uint256",
							"name": "_age",
							"type": "uint256"
						}
					],
					"name": "getage",
					"outputs": [],
					"stateMutability": "nonpayable",
					"type": "function"
				},
				{
					"inputs": [
						{
							"internalType": "uint256",
							"name": "_firstnum",
							"type": "uint256"
						}
					],
					"name": "getfirstnum",
					"outputs": [],
					"stateMutability": "nonpayable",
					"type": "function"
				},
				{
					"inputs": [
						{
							"internalType": "uint256",
							"name": "_secnum",
							"type": "uint256"
						}
					],
					"name": "getsecondnum",
					"outputs": [],
					"stateMutability": "nonpayable",
					"type": "function"
				},
				{
					"inputs": [
						{
							"internalType": "uint256",
							"name": "_wet",
							"type": "uint256"
						}
					],
					"name": "getweather",
					"outputs": [],
					"stateMutability": "nonpayable",
					"type": "function"
				},
				{
					"inputs": [],
					"name": "invalid",
					"outputs": [
						{
							"internalType": "uint256",
							"name": "",
							"type": "uint256"
						}
					],
					"stateMutability": "view",
					"type": "function"
				},
				{
					"inputs": [],
					"name": "multiplication",
					"outputs": [
						{
							"internalType": "uint256",
							"name": "",
							"type": "uint256"
						}
					],
					"stateMutability": "view",
					"type": "function"
				},
				{
					"inputs": [],
					"name": "subtraction",
					"outputs": [
						{
							"internalType": "uint256",
							"name": "",
							"type": "uint256"
						}
					],
					"stateMutability": "view",
					"type": "function"
				},
				{
					"inputs": [
						{
							"internalType": "uint256",
							"name": "_ctime",
							"type": "uint256"
						}
					],
					"name": "tracktime",
					"outputs": [],
					"stateMutability": "nonpayable",
					"type": "function"
				},
				{
					"inputs": [
						{
							"internalType": "uint256",
							"name": "_track",
							"type": "uint256"
						}
					],
					"name": "trackup",
					"outputs": [],
					"stateMutability": "nonpayable",
					"type": "function"
				}
			],
			"devdoc": {
				"kind": "dev",
				"methods": {},
				"version": 1
			},
			"evm": {
				"assembly": "    /* \".git/calculaator.sol\":60:3435  contract calculatorandall{... */\n  mstore(0x40, 0x80)\n  callvalue\n  dup1\n  iszero\n  tag_1\n  jumpi\n  revert(0x00, 0x00)\ntag_1:\n  pop\n  dataSize(sub_0)\n  dup1\n  dataOffset(sub_0)\n  0x00\n  codecopy\n  0x00\n  return\nstop\n\nsub_0: assembly {\n        /* \".git/calculaator.sol\":60:3435  contract calculatorandall{... */\n      mstore(0x40, 0x80)\n      callvalue\n      dup1\n      iszero\n      tag_1\n      jumpi\n      revert(0x00, 0x00)\n    tag_1:\n      pop\n      jumpi(tag_2, lt(calldatasize, 0x04))\n      shr(0xe0, calldataload(0x00))\n      dup1\n      0x9daaf83a\n      gt\n      tag_21\n      jumpi\n      dup1\n      0xbed948c5\n      gt\n      tag_22\n      jumpi\n      dup1\n      0xbed948c5\n      eq\n      tag_16\n      jumpi\n      dup1\n      0xc33926cb\n      eq\n      tag_17\n      jumpi\n      dup1\n      0xd62ff3a4\n      eq\n      tag_18\n      jumpi\n      dup1\n      0xe3ec0251\n      eq\n      tag_19\n      jumpi\n      dup1\n      0xec597128\n      eq\n      tag_20\n      jumpi\n      jump(tag_2)\n    tag_22:\n      dup1\n      0x9daaf83a\n      eq\n      tag_12\n      jumpi\n      dup1\n      0x9f17c892\n      eq\n      tag_13\n      jumpi\n      dup1\n      0xa59e0d54\n      eq\n      tag_14\n      jumpi\n      dup1\n      0xbde9e40e\n      eq\n      tag_15\n      jumpi\n      jump(tag_2)\n    tag_21:\n      dup1\n      0x266de1e0\n      gt\n      tag_23\n      jumpi\n      dup1\n      0x266de1e0\n      eq\n      tag_7\n      jumpi\n      dup1\n      0x3205f5fc\n      eq\n      tag_8\n      jumpi\n      dup1\n      0x48a9066d\n      eq\n      tag_9\n      jumpi\n      dup1\n      0x7f109886\n      eq\n      tag_10\n      jumpi\n      dup1\n      0x95ffebf5\n      eq\n      tag_11\n      jumpi\n      jump(tag_2)\n    tag_23:\n      dup1\n      0x011285da\n      eq\n      tag_3\n      jumpi\n      dup1\n      0x12a09447\n      eq\n      tag_4\n      jumpi\n      dup1\n      0x1981bfa0\n      eq\n      tag_5\n      jumpi\n      dup1\n      0x20fe2144\n      eq\n      tag_6\n      jumpi\n    tag_2:\n      revert(0x00, 0x00)\n        /* \".git/calculaator.sol\":680:784  function multiplication()public view returns (uint) {... */\n    tag_3:\n      tag_24\n      tag_25\n      jump\t// in\n    tag_24:\n      mload(0x40)\n      tag_26\n      swap2\n      swap1\n      tag_27\n      jump\t// in\n    tag_26:\n      mload(0x40)\n      dup1\n      swap2\n      sub\n      swap1\n      return\n        /* \".git/calculaator.sol\":1847:1918  function getweather(uint _wet) public {... */\n    tag_4:\n      tag_28\n      0x04\n      dup1\n      calldatasize\n      sub\n      dup2\n      add\n      swap1\n      tag_29\n      swap2\n      swap1\n      tag_30\n      jump\t// in\n    tag_29:\n      tag_31\n      jump\t// in\n    tag_28:\n      stop\n        /* \".git/calculaator.sol\":2195:2265  function trackup(uint _track) public {... */\n    tag_5:\n      tag_32\n      0x04\n      dup1\n      calldatasize\n      sub\n      dup2\n      add\n      swap1\n      tag_33\n      swap2\n      swap1\n      tag_30\n      jump\t// in\n    tag_33:\n      tag_34\n      jump\t// in\n    tag_32:\n      stop\n        /* \".git/calculaator.sol\":3251:3432  function completeTodo(uint _index) public {... */\n    tag_6:\n      tag_35\n      0x04\n      dup1\n      calldatasize\n      sub\n      dup2\n      add\n      swap1\n      tag_36\n      swap2\n      swap1\n      tag_30\n      jump\t// in\n    tag_36:\n      tag_37\n      jump\t// in\n    tag_35:\n      stop\n        /* \".git/calculaator.sol\":1484:1841  function checktime()public view returns (string memory){... */\n    tag_7:\n      tag_38\n      tag_39\n      jump\t// in\n    tag_38:\n      mload(0x40)\n      tag_40\n      swap2\n      swap1\n      tag_41\n      jump\t// in\n    tag_40:\n      mload(0x40)\n      dup1\n      swap2\n      sub\n      swap1\n      return\n        /* \".git/calculaator.sol\":793:891  function division()public view returns (uint) {... */\n    tag_8:\n      tag_42\n      tag_43\n      jump\t// in\n    tag_42:\n      mload(0x40)\n      tag_44\n      swap2\n      swap1\n      tag_27\n      jump\t// in\n    tag_44:\n      mload(0x40)\n      dup1\n      swap2\n      sub\n      swap1\n      return\n        /* \".git/calculaator.sol\":281:366  function getfirstnum(uint _firstnum)public {... */\n    tag_9:\n      tag_45\n      0x04\n      dup1\n      calldatasize\n      sub\n      dup2\n      add\n      swap1\n      tag_46\n      swap2\n      swap1\n      tag_30\n      jump\t// in\n    tag_46:\n      tag_47\n      jump\t// in\n    tag_45:\n      stop\n        /* \".git/calculaator.sol\":1926:2189  function checkweather()public view returns (string memory){... */\n    tag_10:\n      tag_48\n      tag_49\n      jump\t// in\n    tag_48:\n      mload(0x40)\n      tag_50\n      swap2\n      swap1\n      tag_41\n      jump\t// in\n    tag_50:\n      mload(0x40)\n      dup1\n      swap2\n      sub\n      swap1\n      return\n        /* \".git/calculaator.sol\":2898:3064  function addTodo(string memory _task) public {... */\n    tag_11:\n      tag_51\n      0x04\n      dup1\n      calldatasize\n      sub\n      dup2\n      add\n      swap1\n      tag_52\n      swap2\n      swap1\n      tag_53\n      jump\t// in\n    tag_52:\n      tag_54\n      jump\t// in\n    tag_51:\n      stop\n        /* \".git/calculaator.sol\":2271:2815  function checktrack()public view returns (string memory){... */\n    tag_12:\n      tag_55\n      tag_56\n      jump\t// in\n    tag_55:\n      mload(0x40)\n      tag_57\n      swap2\n      swap1\n      tag_41\n      jump\t// in\n    tag_57:\n      mload(0x40)\n      dup1\n      swap2\n      sub\n      swap1\n      return\n        /* \".git/calculaator.sol\":372:455  function getsecondnum(uint _secnum)public {... */\n    tag_13:\n      tag_58\n      0x04\n      dup1\n      calldatasize\n      sub\n      dup2\n      add\n      swap1\n      tag_59\n      swap2\n      swap1\n      tag_30\n      jump\t// in\n    tag_59:\n      tag_60\n      jump\t// in\n    tag_58:\n      stop\n        /* \".git/calculaator.sol\":1014:1076  function getage(uint _age) public{... */\n    tag_14:\n      tag_61\n      0x04\n      dup1\n      calldatasize\n      sub\n      dup2\n      add\n      swap1\n      tag_62\n      swap2\n      swap1\n      tag_30\n      jump\t// in\n    tag_62:\n      tag_63\n      jump\t// in\n    tag_61:\n      stop\n        /* \".git/calculaator.sol\":900:997  function invalid()public view returns (uint) {... */\n    tag_15:\n      tag_64\n      tag_65\n      jump\t// in\n    tag_64:\n      mload(0x40)\n      tag_66\n      swap2\n      swap1\n      tag_27\n      jump\t// in\n    tag_66:\n      mload(0x40)\n      dup1\n      swap2\n      sub\n      swap1\n      return\n        /* \".git/calculaator.sol\":1407:1478  function tracktime(uint _ctime) public {... */\n    tag_16:\n      tag_67\n      0x04\n      dup1\n      calldatasize\n      sub\n      dup2\n      add\n      swap1\n      tag_68\n      swap2\n      swap1\n      tag_30\n      jump\t// in\n    tag_68:\n      tag_69\n      jump\t// in\n    tag_67:\n      stop\n        /* \".git/calculaator.sol\":3107:3210  function getTodos() public view returns (Todo[] memory) {... */\n    tag_17:\n      tag_70\n      tag_71\n      jump\t// in\n    tag_70:\n      mload(0x40)\n      tag_72\n      swap2\n      swap1\n      tag_73\n      jump\t// in\n    tag_72:\n      mload(0x40)\n      dup1\n      swap2\n      sub\n      swap1\n      return\n        /* \".git/calculaator.sol\":1082:1401  function checkage()public view returns (string memory){ ... */\n    tag_18:\n      tag_74\n      tag_75\n      jump\t// in\n    tag_74:\n      mload(0x40)\n      tag_76\n      swap2\n      swap1\n      tag_41\n      jump\t// in\n    tag_76:\n      mload(0x40)\n      dup1\n      swap2\n      sub\n      swap1\n      return\n        /* \".git/calculaator.sol\":570:671  function subtraction()public view returns (uint) {... */\n    tag_19:\n      tag_77\n      tag_78\n      jump\t// in\n    tag_77:\n      mload(0x40)\n      tag_79\n      swap2\n      swap1\n      tag_27\n      jump\t// in\n    tag_79:\n      mload(0x40)\n      dup1\n      swap2\n      sub\n      swap1\n      return\n        /* \".git/calculaator.sol\":463:561  function addition()public view returns (uint) {... */\n    tag_20:\n      tag_80\n      tag_81\n      jump\t// in\n    tag_80:\n      mload(0x40)\n      tag_82\n      swap2\n      swap1\n      tag_27\n      jump\t// in\n    tag_82:\n      mload(0x40)\n      dup1\n      swap2\n      sub\n      swap1\n      return\n        /* \".git/calculaator.sol\":680:784  function multiplication()public view returns (uint) {... */\n    tag_25:\n        /* \".git/calculaator.sol\":726:730  uint */\n      0x00\n        /* \".git/calculaator.sol\":764:776  secondnumber */\n      sload(0x01)\n        /* \".git/calculaator.sol\":750:761  firstnumber */\n      sload(0x00)\n        /* \".git/calculaator.sol\":750:776  firstnumber * secondnumber */\n      tag_84\n      swap2\n      swap1\n      tag_85\n      jump\t// in\n    tag_84:\n        /* \".git/calculaator.sol\":743:776  return firstnumber * secondnumber */\n      swap1\n      pop\n        /* \".git/calculaator.sol\":680:784  function multiplication()public view returns (uint) {... */\n      swap1\n      jump\t// out\n        /* \".git/calculaator.sol\":1847:1918  function getweather(uint _wet) public {... */\n    tag_31:\n        /* \".git/calculaator.sol\":1906:1910  _wet */\n      dup1\n        /* \".git/calculaator.sol\":1896:1903  weather */\n      0x04\n        /* \".git/calculaator.sol\":1896:1910  weather = _wet */\n      dup2\n      swap1\n      sstore\n      pop\n        /* \".git/calculaator.sol\":1847:1918  function getweather(uint _wet) public {... */\n      pop\n      jump\t// out\n        /* \".git/calculaator.sol\":2195:2265  function trackup(uint _track) public {... */\n    tag_34:\n        /* \".git/calculaator.sol\":2251:2257  _track */\n      dup1\n        /* \".git/calculaator.sol\":2243:2248  track */\n      0x05\n        /* \".git/calculaator.sol\":2243:2257  track = _track */\n      dup2\n      swap1\n      sstore\n      pop\n        /* \".git/calculaator.sol\":2195:2265  function trackup(uint _track) public {... */\n      pop\n      jump\t// out\n        /* \".git/calculaator.sol\":3251:3432  function completeTodo(uint _index) public {... */\n    tag_37:\n        /* \".git/calculaator.sol\":3321:3330  userTodos */\n      0x06\n        /* \".git/calculaator.sol\":3321:3342  userTodos[msg.sender] */\n      0x00\n        /* \".git/calculaator.sol\":3331:3341  msg.sender */\n      caller\n        /* \".git/calculaator.sol\":3321:3342  userTodos[msg.sender] */\n      0xffffffffffffffffffffffffffffffffffffffff\n      and\n      0xffffffffffffffffffffffffffffffffffffffff\n      and\n      dup2\n      mstore\n      0x20\n      add\n      swap1\n      dup2\n      mstore\n      0x20\n      add\n      0x00\n      keccak256\n        /* \".git/calculaator.sol\":3321:3349  userTodos[msg.sender].length */\n      dup1\n      sload\n      swap1\n      pop\n        /* \".git/calculaator.sol\":3312:3318  _index */\n      dup2\n        /* \".git/calculaator.sol\":3312:3349  _index < userTodos[msg.sender].length */\n      lt\n        /* \".git/calculaator.sol\":3304:3367  require(_index < userTodos[msg.sender].length, \"Invalid index\") */\n      tag_89\n      jumpi\n      mload(0x40)\n      0x08c379a000000000000000000000000000000000000000000000000000000000\n      dup2\n      mstore\n      0x04\n      add\n      tag_90\n      swap1\n      tag_91\n      jump\t// in\n    tag_90:\n      mload(0x40)\n      dup1\n      swap2\n      sub\n      swap1\n      revert\n    tag_89:\n        /* \".git/calculaator.sol\":3420:3424  true */\n      0x01\n        /* \".git/calculaator.sol\":3378:3387  userTodos */\n      0x06\n        /* \".git/calculaator.sol\":3378:3399  userTodos[msg.sender] */\n      0x00\n        /* \".git/calculaator.sol\":3388:3398  msg.sender */\n      caller\n        /* \".git/calculaator.sol\":3378:3399  userTodos[msg.sender] */\n      0xffffffffffffffffffffffffffffffffffffffff\n      and\n      0xffffffffffffffffffffffffffffffffffffffff\n      and\n      dup2\n      mstore\n      0x20\n      add\n      swap1\n      dup2\n      mstore\n      0x20\n      add\n      0x00\n      keccak256\n        /* \".git/calculaator.sol\":3400:3406  _index */\n      dup3\n        /* \".git/calculaator.sol\":3378:3407  userTodos[msg.sender][_index] */\n      dup2\n      sload\n      dup2\n      lt\n      tag_92\n      jumpi\n      tag_93\n      tag_94\n      jump\t// in\n    tag_93:\n    tag_92:\n      swap1\n      0x00\n      mstore\n      keccak256(0x00, 0x20)\n      swap1\n      0x02\n      mul\n      add\n        /* \".git/calculaator.sol\":3378:3417  userTodos[msg.sender][_index].completed */\n      0x01\n      add\n      0x00\n        /* \".git/calculaator.sol\":3378:3424  userTodos[msg.sender][_index].completed = true */\n      0x0100\n      exp\n      dup2\n      sload\n      dup2\n      0xff\n      mul\n      not\n      and\n      swap1\n      dup4\n      iszero\n      iszero\n      mul\n      or\n      swap1\n      sstore\n      pop\n        /* \".git/calculaator.sol\":3251:3432  function completeTodo(uint _index) public {... */\n      pop\n      jump\t// out\n        /* \".git/calculaator.sol\":1484:1841  function checktime()public view returns (string memory){... */\n    tag_39:\n        /* \".git/calculaator.sol\":1525:1538  string memory */\n      0x60\n        /* \".git/calculaator.sol\":1562:1564  12 */\n      0x0c\n        /* \".git/calculaator.sol\":1554:1558  time */\n      sload(0x03)\n        /* \".git/calculaator.sol\":1554:1564  time <= 12 */\n      gt\n        /* \".git/calculaator.sol\":1550:1834  if (time <= 12){... */\n      tag_97\n      jumpi\n        /* \".git/calculaator.sol\":1580:1601  return \"Good Morning\" */\n      mload(0x40)\n      dup1\n      0x40\n      add\n      0x40\n      mstore\n      dup1\n      0x0c\n      dup2\n      mstore\n      0x20\n      add\n      0x476f6f64204d6f726e696e670000000000000000000000000000000000000000\n      dup2\n      mstore\n      pop\n      swap1\n      pop\n      jump(tag_96)\n        /* \".git/calculaator.sol\":1550:1834  if (time <= 12){... */\n    tag_97:\n        /* \".git/calculaator.sol\":1631:1633  12 */\n      0x0c\n        /* \".git/calculaator.sol\":1623:1627  time */\n      sload(0x03)\n        /* \".git/calculaator.sol\":1623:1633  time >= 12 */\n      lt\n      iszero\n        /* \".git/calculaator.sol\":1623:1647  time >= 12 && time <= 16 */\n      dup1\n      iszero\n      tag_99\n      jumpi\n      pop\n        /* \".git/calculaator.sol\":1645:1647  16 */\n      0x10\n        /* \".git/calculaator.sol\":1637:1641  time */\n      sload(0x03)\n        /* \".git/calculaator.sol\":1637:1647  time <= 16 */\n      gt\n      iszero\n        /* \".git/calculaator.sol\":1623:1647  time >= 12 && time <= 16 */\n    tag_99:\n        /* \".git/calculaator.sol\":1619:1834  if (time >= 12 && time <= 16) {... */\n      iszero\n      tag_100\n      jumpi\n        /* \".git/calculaator.sol\":1664:1687  return \"Good Afternoon\" */\n      mload(0x40)\n      dup1\n      0x40\n      add\n      0x40\n      mstore\n      dup1\n      0x0e\n      dup2\n      mstore\n      0x20\n      add\n      0x476f6f642041667465726e6f6f6e000000000000000000000000000000000000\n      dup2\n      mstore\n      pop\n      swap1\n      pop\n      jump(tag_96)\n        /* \".git/calculaator.sol\":1619:1834  if (time >= 12 && time <= 16) {... */\n    tag_100:\n        /* \".git/calculaator.sol\":1717:1719  16 */\n      0x10\n        /* \".git/calculaator.sol\":1709:1713  time */\n      sload(0x03)\n        /* \".git/calculaator.sol\":1709:1719  time >= 16 */\n      lt\n      iszero\n        /* \".git/calculaator.sol\":1709:1733  time >= 16 && time <= 20 */\n      dup1\n      iszero\n      tag_102\n      jumpi\n      pop\n        /* \".git/calculaator.sol\":1731:1733  20 */\n      0x14\n        /* \".git/calculaator.sol\":1723:1727  time */\n      sload(0x03)\n        /* \".git/calculaator.sol\":1723:1733  time <= 20 */\n      gt\n      iszero\n        /* \".git/calculaator.sol\":1709:1733  time >= 16 && time <= 20 */\n    tag_102:\n        /* \".git/calculaator.sol\":1705:1834  if (time >= 16 && time <= 20) {... */\n      iszero\n      tag_103\n      jumpi\n        /* \".git/calculaator.sol\":1750:1771  return \"Good Evening\" */\n      mload(0x40)\n      dup1\n      0x40\n      add\n      0x40\n      mstore\n      dup1\n      0x0c\n      dup2\n      mstore\n      0x20\n      add\n      0x476f6f64204576656e696e670000000000000000000000000000000000000000\n      dup2\n      mstore\n      pop\n      swap1\n      pop\n      jump(tag_96)\n        /* \".git/calculaator.sol\":1705:1834  if (time >= 16 && time <= 20) {... */\n    tag_103:\n        /* \".git/calculaator.sol\":1803:1822  return \"Good Night\" */\n      mload(0x40)\n      dup1\n      0x40\n      add\n      0x40\n      mstore\n      dup1\n      0x0a\n      dup2\n      mstore\n      0x20\n      add\n      0x476f6f64204e6967687400000000000000000000000000000000000000000000\n      dup2\n      mstore\n      pop\n      swap1\n      pop\n        /* \".git/calculaator.sol\":1484:1841  function checktime()public view returns (string memory){... */\n    tag_96:\n      swap1\n      jump\t// out\n        /* \".git/calculaator.sol\":793:891  function division()public view returns (uint) {... */\n    tag_43:\n        /* \".git/calculaator.sol\":833:837  uint */\n      0x00\n        /* \".git/calculaator.sol\":871:883  secondnumber */\n      sload(0x01)\n        /* \".git/calculaator.sol\":857:868  firstnumber */\n      sload(0x00)\n        /* \".git/calculaator.sol\":857:883  firstnumber / secondnumber */\n      tag_106\n      swap2\n      swap1\n      tag_107\n      jump\t// in\n    tag_106:\n        /* \".git/calculaator.sol\":850:883  return firstnumber / secondnumber */\n      swap1\n      pop\n        /* \".git/calculaator.sol\":793:891  function division()public view returns (uint) {... */\n      swap1\n      jump\t// out\n        /* \".git/calculaator.sol\":281:366  function getfirstnum(uint _firstnum)public {... */\n    tag_47:\n        /* \".git/calculaator.sol\":349:358  _firstnum */\n      dup1\n        /* \".git/calculaator.sol\":335:346  firstnumber */\n      0x00\n        /* \".git/calculaator.sol\":335:358  firstnumber = _firstnum */\n      dup2\n      swap1\n      sstore\n      pop\n        /* \".git/calculaator.sol\":281:366  function getfirstnum(uint _firstnum)public {... */\n      pop\n      jump\t// out\n        /* \".git/calculaator.sol\":1926:2189  function checkweather()public view returns (string memory){... */\n    tag_49:\n        /* \".git/calculaator.sol\":1970:1983  string memory */\n      0x60\n        /* \".git/calculaator.sol\":2010:2012  15 */\n      0x0f\n        /* \".git/calculaator.sol\":1999:2006  weather */\n      sload(0x04)\n        /* \".git/calculaator.sol\":1999:2012  weather <= 15 */\n      gt\n        /* \".git/calculaator.sol\":1995:2182  if (weather <= 15){... */\n      tag_110\n      jumpi\n        /* \".git/calculaator.sol\":2028:2041  return \"cold\" */\n      mload(0x40)\n      dup1\n      0x40\n      add\n      0x40\n      mstore\n      dup1\n      0x04\n      dup2\n      mstore\n      0x20\n      add\n      0x636f6c6400000000000000000000000000000000000000000000000000000000\n      dup2\n      mstore\n      pop\n      swap1\n      pop\n      jump(tag_109)\n        /* \".git/calculaator.sol\":1995:2182  if (weather <= 15){... */\n    tag_110:\n        /* \".git/calculaator.sol\":2074:2076  15 */\n      0x0f\n        /* \".git/calculaator.sol\":2063:2070  weather */\n      sload(0x04)\n        /* \".git/calculaator.sol\":2063:2076  weather >= 15 */\n      lt\n      iszero\n        /* \".git/calculaator.sol\":2063:2093  weather >= 15 && weather <= 25 */\n      dup1\n      iszero\n      tag_112\n      jumpi\n      pop\n        /* \".git/calculaator.sol\":2091:2093  25 */\n      0x19\n        /* \".git/calculaator.sol\":2080:2087  weather */\n      sload(0x04)\n        /* \".git/calculaator.sol\":2080:2093  weather <= 25 */\n      gt\n      iszero\n        /* \".git/calculaator.sol\":2063:2093  weather >= 15 && weather <= 25 */\n    tag_112:\n        /* \".git/calculaator.sol\":2059:2182  if (weather >= 15 && weather <= 25) {... */\n      iszero\n      tag_113\n      jumpi\n        /* \".git/calculaator.sol\":2110:2125  return \"normal\" */\n      mload(0x40)\n      dup1\n      0x40\n      add\n      0x40\n      mstore\n      dup1\n      0x06\n      dup2\n      mstore\n      0x20\n      add\n      0x6e6f726d616c0000000000000000000000000000000000000000000000000000\n      dup2\n      mstore\n      pop\n      swap1\n      pop\n      jump(tag_109)\n        /* \".git/calculaator.sol\":2059:2182  if (weather >= 15 && weather <= 25) {... */\n    tag_113:\n        /* \".git/calculaator.sol\":2158:2170  return \"hot\" */\n      mload(0x40)\n      dup1\n      0x40\n      add\n      0x40\n      mstore\n      dup1\n      0x03\n      dup2\n      mstore\n      0x20\n      add\n      0x686f740000000000000000000000000000000000000000000000000000000000\n      dup2\n      mstore\n      pop\n      swap1\n      pop\n        /* \".git/calculaator.sol\":1926:2189  function checkweather()public view returns (string memory){... */\n    tag_109:\n      swap1\n      jump\t// out\n        /* \".git/calculaator.sol\":2898:3064  function addTodo(string memory _task) public {... */\n    tag_54:\n        /* \".git/calculaator.sol\":2954:2963  userTodos */\n      0x06\n        /* \".git/calculaator.sol\":2954:2975  userTodos[msg.sender] */\n      0x00\n        /* \".git/calculaator.sol\":2964:2974  msg.sender */\n      caller\n        /* \".git/calculaator.sol\":2954:2975  userTodos[msg.sender] */\n      0xffffffffffffffffffffffffffffffffffffffff\n      and\n      0xffffffffffffffffffffffffffffffffffffffff\n      and\n      dup2\n      mstore\n      0x20\n      add\n      swap1\n      dup2\n      mstore\n      0x20\n      add\n      0x00\n      keccak256\n        /* \".git/calculaator.sol\":2981:3055  Todo({... */\n      mload(0x40)\n      dup1\n      0x40\n      add\n      0x40\n      mstore\n      dup1\n        /* \".git/calculaator.sol\":3007:3012  _task */\n      dup4\n        /* \".git/calculaator.sol\":2981:3055  Todo({... */\n      dup2\n      mstore\n      0x20\n      add\n        /* \".git/calculaator.sol\":3038:3043  false */\n      0x00\n        /* \".git/calculaator.sol\":2981:3055  Todo({... */\n      iszero\n      iszero\n      dup2\n      mstore\n      pop\n        /* \".git/calculaator.sol\":2954:3056  userTodos[msg.sender].push(Todo({... */\n      swap1\n      dup1\n      0x01\n      dup2\n      sload\n      add\n      dup1\n      dup3\n      sstore\n      dup1\n      swap2\n      pop\n      pop\n      0x01\n      swap1\n      sub\n      swap1\n      0x00\n      mstore\n      keccak256(0x00, 0x20)\n      swap1\n      0x02\n      mul\n      add\n      0x00\n      swap1\n      swap2\n      swap1\n      swap2\n      swap1\n      swap2\n      pop\n      0x00\n      dup3\n      add\n      mload\n      dup2\n      0x00\n      add\n      swap1\n      dup2\n      tag_117\n      swap2\n      swap1\n      tag_118\n      jump\t// in\n    tag_117:\n      pop\n      0x20\n      dup3\n      add\n      mload\n      dup2\n      0x01\n      add\n      exp(0x0100, 0x00)\n      dup2\n      sload\n      dup2\n      0xff\n      mul\n      not\n      and\n      swap1\n      dup4\n      iszero\n      iszero\n      mul\n      or\n      swap1\n      sstore\n      pop\n      pop\n      pop\n        /* \".git/calculaator.sol\":2898:3064  function addTodo(string memory _task) public {... */\n      pop\n      jump\t// out\n        /* \".git/calculaator.sol\":2271:2815  function checktrack()public view returns (string memory){... */\n    tag_56:\n        /* \".git/calculaator.sol\":2313:2326  string memory */\n      0x60\n        /* \".git/calculaator.sol\":2351:2352  8 */\n      0x08\n        /* \".git/calculaator.sol\":2342:2347  track */\n      sload(0x05)\n        /* \".git/calculaator.sol\":2342:2352  track <= 8 */\n      gt\n        /* \".git/calculaator.sol\":2338:2808  if (track <= 8){... */\n      tag_120\n      jumpi\n        /* \".git/calculaator.sol\":2368:2392  return \"learn till 10am\" */\n      mload(0x40)\n      dup1\n      0x40\n      add\n      0x40\n      mstore\n      dup1\n      0x0f\n      dup2\n      mstore\n      0x20\n      add\n      0x6c6561726e2074696c6c203130616d0000000000000000000000000000000000\n      dup2\n      mstore\n      pop\n      swap1\n      pop\n      jump(tag_119)\n        /* \".git/calculaator.sol\":2338:2808  if (track <= 8){... */\n    tag_120:\n        /* \".git/calculaator.sol\":2423:2425  10 */\n      0x0a\n        /* \".git/calculaator.sol\":2414:2419  track */\n      sload(0x05)\n        /* \".git/calculaator.sol\":2414:2425  track >= 10 */\n      lt\n      iszero\n        /* \".git/calculaator.sol\":2414:2440  track >= 10 && track <= 12 */\n      dup1\n      iszero\n      tag_122\n      jumpi\n      pop\n        /* \".git/calculaator.sol\":2438:2440  12 */\n      0x0c\n        /* \".git/calculaator.sol\":2429:2434  track */\n      sload(0x05)\n        /* \".git/calculaator.sol\":2429:2440  track <= 12 */\n      gt\n      iszero\n        /* \".git/calculaator.sol\":2414:2440  track >= 10 && track <= 12 */\n    tag_122:\n        /* \".git/calculaator.sol\":2410:2808  if (track >= 10 && track <= 12) {... */\n      iszero\n      tag_123\n      jumpi\n        /* \".git/calculaator.sol\":2457:2479  return \"go n get food\" */\n      mload(0x40)\n      dup1\n      0x40\n      add\n      0x40\n      mstore\n      dup1\n      0x0d\n      dup2\n      mstore\n      0x20\n      add\n      0x676f206e2067657420666f6f6400000000000000000000000000000000000000\n      dup2\n      mstore\n      pop\n      swap1\n      pop\n      jump(tag_119)\n        /* \".git/calculaator.sol\":2410:2808  if (track >= 10 && track <= 12) {... */\n    tag_123:\n        /* \".git/calculaator.sol\":2510:2512  12 */\n      0x0c\n        /* \".git/calculaator.sol\":2501:2506  track */\n      sload(0x05)\n        /* \".git/calculaator.sol\":2501:2512  track >= 12 */\n      lt\n      iszero\n        /* \".git/calculaator.sol\":2501:2527  track >= 12 && track <= 14 */\n      dup1\n      iszero\n      tag_125\n      jumpi\n      pop\n        /* \".git/calculaator.sol\":2525:2527  14 */\n      0x0e\n        /* \".git/calculaator.sol\":2516:2521  track */\n      sload(0x05)\n        /* \".git/calculaator.sol\":2516:2527  track <= 14 */\n      gt\n      iszero\n        /* \".git/calculaator.sol\":2501:2527  track >= 12 && track <= 14 */\n    tag_125:\n        /* \".git/calculaator.sol\":2497:2808  if (track >= 12 && track <= 14) {... */\n      iszero\n      tag_126\n      jumpi\n        /* \".git/calculaator.sol\":2544:2566  return \"probably read\" */\n      mload(0x40)\n      dup1\n      0x40\n      add\n      0x40\n      mstore\n      dup1\n      0x0d\n      dup2\n      mstore\n      0x20\n      add\n      0x70726f6261626c79207265616400000000000000000000000000000000000000\n      dup2\n      mstore\n      pop\n      swap1\n      pop\n      jump(tag_119)\n        /* \".git/calculaator.sol\":2497:2808  if (track >= 12 && track <= 14) {... */\n    tag_126:\n        /* \".git/calculaator.sol\":2601:2603  14 */\n      0x0e\n        /* \".git/calculaator.sol\":2592:2597  track */\n      sload(0x05)\n        /* \".git/calculaator.sol\":2592:2603  track >= 14 */\n      lt\n      iszero\n        /* \".git/calculaator.sol\":2592:2618  track >= 14 && track <= 18 */\n      dup1\n      iszero\n      tag_128\n      jumpi\n      pop\n        /* \".git/calculaator.sol\":2616:2618  18 */\n      0x12\n        /* \".git/calculaator.sol\":2607:2612  track */\n      sload(0x05)\n        /* \".git/calculaator.sol\":2607:2618  track <= 18 */\n      gt\n      iszero\n        /* \".git/calculaator.sol\":2592:2618  track >= 14 && track <= 18 */\n    tag_128:\n        /* \".git/calculaator.sol\":2588:2808  if (track >= 14 && track <= 18) {... */\n      iszero\n      tag_129\n      jumpi\n        /* \".git/calculaator.sol\":2635:2649  return \"sleep\" */\n      mload(0x40)\n      dup1\n      0x40\n      add\n      0x40\n      mstore\n      dup1\n      0x05\n      dup2\n      mstore\n      0x20\n      add\n      0x736c656570000000000000000000000000000000000000000000000000000000\n      dup2\n      mstore\n      pop\n      swap1\n      pop\n      jump(tag_119)\n        /* \".git/calculaator.sol\":2588:2808  if (track >= 14 && track <= 18) {... */\n    tag_129:\n        /* \".git/calculaator.sol\":2680:2682  19 */\n      0x13\n        /* \".git/calculaator.sol\":2671:2676  track */\n      sload(0x05)\n        /* \".git/calculaator.sol\":2671:2682  track >= 19 */\n      lt\n      iszero\n        /* \".git/calculaator.sol\":2671:2697  track >= 19 && track <= 20 */\n      dup1\n      iszero\n      tag_131\n      jumpi\n      pop\n        /* \".git/calculaator.sol\":2695:2697  20 */\n      0x14\n        /* \".git/calculaator.sol\":2686:2691  track */\n      sload(0x05)\n        /* \".git/calculaator.sol\":2686:2697  track <= 20 */\n      gt\n      iszero\n        /* \".git/calculaator.sol\":2671:2697  track >= 19 && track <= 20 */\n    tag_131:\n        /* \".git/calculaator.sol\":2667:2808  if (track >= 19 && track <= 20) {... */\n      iszero\n      tag_132\n      jumpi\n        /* \".git/calculaator.sol\":2714:2730  return \"hydrate\" */\n      mload(0x40)\n      dup1\n      0x40\n      add\n      0x40\n      mstore\n      dup1\n      0x07\n      dup2\n      mstore\n      0x20\n      add\n      0x6879647261746500000000000000000000000000000000000000000000000000\n      dup2\n      mstore\n      pop\n      swap1\n      pop\n      jump(tag_119)\n        /* \".git/calculaator.sol\":2667:2808  if (track >= 19 && track <= 20) {... */\n    tag_132:\n        /* \".git/calculaator.sol\":2776:2796  return \"sleep again\" */\n      mload(0x40)\n      dup1\n      0x40\n      add\n      0x40\n      mstore\n      dup1\n      0x0b\n      dup2\n      mstore\n      0x20\n      add\n      0x736c65657020616761696e000000000000000000000000000000000000000000\n      dup2\n      mstore\n      pop\n      swap1\n      pop\n        /* \".git/calculaator.sol\":2271:2815  function checktrack()public view returns (string memory){... */\n    tag_119:\n      swap1\n      jump\t// out\n        /* \".git/calculaator.sol\":372:455  function getsecondnum(uint _secnum)public {... */\n    tag_60:\n        /* \".git/calculaator.sol\":440:447  _secnum */\n      dup1\n        /* \".git/calculaator.sol\":425:437  secondnumber */\n      0x01\n        /* \".git/calculaator.sol\":425:447  secondnumber = _secnum */\n      dup2\n      swap1\n      sstore\n      pop\n        /* \".git/calculaator.sol\":372:455  function getsecondnum(uint _secnum)public {... */\n      pop\n      jump\t// out\n        /* \".git/calculaator.sol\":1014:1076  function getage(uint _age) public{... */\n    tag_63:\n        /* \".git/calculaator.sol\":1064:1068  _age */\n      dup1\n        /* \".git/calculaator.sol\":1058:1061  age */\n      0x02\n        /* \".git/calculaator.sol\":1058:1068  age = _age */\n      dup2\n      swap1\n      sstore\n      pop\n        /* \".git/calculaator.sol\":1014:1076  function getage(uint _age) public{... */\n      pop\n      jump\t// out\n        /* \".git/calculaator.sol\":900:997  function invalid()public view returns (uint) {... */\n    tag_65:\n        /* \".git/calculaator.sol\":939:943  uint */\n      0x00\n        /* \".git/calculaator.sol\":977:989  secondnumber */\n      sload(0x01)\n        /* \".git/calculaator.sol\":963:974  firstnumber */\n      sload(0x00)\n        /* \".git/calculaator.sol\":963:989  firstnumber + secondnumber */\n      tag_137\n      swap2\n      swap1\n      tag_138\n      jump\t// in\n    tag_137:\n        /* \".git/calculaator.sol\":956:989  return firstnumber + secondnumber */\n      swap1\n      pop\n        /* \".git/calculaator.sol\":900:997  function invalid()public view returns (uint) {... */\n      swap1\n      jump\t// out\n        /* \".git/calculaator.sol\":1407:1478  function tracktime(uint _ctime) public {... */\n    tag_69:\n        /* \".git/calculaator.sol\":1464:1470  _ctime */\n      dup1\n        /* \".git/calculaator.sol\":1457:1461  time */\n      0x03\n        /* \".git/calculaator.sol\":1457:1470  time = _ctime */\n      dup2\n      swap1\n      sstore\n      pop\n        /* \".git/calculaator.sol\":1407:1478  function tracktime(uint _ctime) public {... */\n      pop\n      jump\t// out\n        /* \".git/calculaator.sol\":3107:3210  function getTodos() public view returns (Todo[] memory) {... */\n    tag_71:\n        /* \".git/calculaator.sol\":3148:3161  Todo[] memory */\n      0x60\n        /* \".git/calculaator.sol\":3181:3190  userTodos */\n      0x06\n        /* \".git/calculaator.sol\":3181:3202  userTodos[msg.sender] */\n      0x00\n        /* \".git/calculaator.sol\":3191:3201  msg.sender */\n      caller\n        /* \".git/calculaator.sol\":3181:3202  userTodos[msg.sender] */\n      0xffffffffffffffffffffffffffffffffffffffff\n      and\n      0xffffffffffffffffffffffffffffffffffffffff\n      and\n      dup2\n      mstore\n      0x20\n      add\n      swap1\n      dup2\n      mstore\n      0x20\n      add\n      0x00\n      keccak256\n        /* \".git/calculaator.sol\":3174:3202  return userTodos[msg.sender] */\n      dup1\n      sload\n      dup1\n      0x20\n      mul\n      0x20\n      add\n      mload(0x40)\n      swap1\n      dup2\n      add\n      0x40\n      mstore\n      dup1\n      swap3\n      swap2\n      swap1\n      dup2\n      dup2\n      mstore\n      0x20\n      add\n      0x00\n      swap1\n    tag_141:\n      dup3\n      dup3\n      lt\n      iszero\n      tag_142\n      jumpi\n      dup4\n      dup3\n      swap1\n      0x00\n      mstore\n      keccak256(0x00, 0x20)\n      swap1\n      0x02\n      mul\n      add\n      mload(0x40)\n      dup1\n      0x40\n      add\n      0x40\n      mstore\n      swap1\n      dup2\n      0x00\n      dup3\n      add\n      dup1\n      sload\n      tag_144\n      swap1\n      tag_145\n      jump\t// in\n    tag_144:\n      dup1\n      0x1f\n      add\n      0x20\n      dup1\n      swap2\n      div\n      mul\n      0x20\n      add\n      mload(0x40)\n      swap1\n      dup2\n      add\n      0x40\n      mstore\n      dup1\n      swap3\n      swap2\n      swap1\n      dup2\n      dup2\n      mstore\n      0x20\n      add\n      dup3\n      dup1\n      sload\n      tag_146\n      swap1\n      tag_145\n      jump\t// in\n    tag_146:\n      dup1\n      iszero\n      tag_147\n      jumpi\n      dup1\n      0x1f\n      lt\n      tag_148\n      jumpi\n      0x0100\n      dup1\n      dup4\n      sload\n      div\n      mul\n      dup4\n      mstore\n      swap2\n      0x20\n      add\n      swap2\n      jump(tag_147)\n    tag_148:\n      dup3\n      add\n      swap2\n      swap1\n      0x00\n      mstore\n      keccak256(0x00, 0x20)\n      swap1\n    tag_149:\n      dup2\n      sload\n      dup2\n      mstore\n      swap1\n      0x01\n      add\n      swap1\n      0x20\n      add\n      dup1\n      dup4\n      gt\n      tag_149\n      jumpi\n      dup3\n      swap1\n      sub\n      0x1f\n      and\n      dup3\n      add\n      swap2\n    tag_147:\n      pop\n      pop\n      pop\n      pop\n      pop\n      dup2\n      mstore\n      0x20\n      add\n      0x01\n      dup3\n      add\n      0x00\n      swap1\n      sload\n      swap1\n      0x0100\n      exp\n      swap1\n      div\n      0xff\n      and\n      iszero\n      iszero\n      iszero\n      iszero\n      dup2\n      mstore\n      pop\n      pop\n      dup2\n      mstore\n      0x20\n      add\n      swap1\n      0x01\n      add\n      swap1\n      jump(tag_141)\n    tag_142:\n      pop\n      pop\n      pop\n      pop\n      swap1\n      pop\n        /* \".git/calculaator.sol\":3107:3210  function getTodos() public view returns (Todo[] memory) {... */\n      swap1\n      jump\t// out\n        /* \".git/calculaator.sol\":1082:1401  function checkage()public view returns (string memory){ ... */\n    tag_75:\n        /* \".git/calculaator.sol\":1122:1135  string memory */\n      0x60\n        /* \".git/calculaator.sol\":1159:1161  15 */\n      0x0f\n        /* \".git/calculaator.sol\":1152:1155  age */\n      sload(0x02)\n        /* \".git/calculaator.sol\":1152:1161  age <= 15 */\n      gt\n        /* \".git/calculaator.sol\":1148:1394  if (age <= 15){... */\n      tag_151\n      jumpi\n        /* \".git/calculaator.sol\":1177:1210  return \"sorry dear you cant vote\" */\n      mload(0x40)\n      dup1\n      0x40\n      add\n      0x40\n      mstore\n      dup1\n      0x18\n      dup2\n      mstore\n      0x20\n      add\n      0x736f727279206465617220796f752063616e7420766f74650000000000000000\n      dup2\n      mstore\n      pop\n      swap1\n      pop\n      jump(tag_150)\n        /* \".git/calculaator.sol\":1148:1394  if (age <= 15){... */\n    tag_151:\n        /* \".git/calculaator.sol\":1239:1241  16 */\n      0x10\n        /* \".git/calculaator.sol\":1232:1235  age */\n      sload(0x02)\n        /* \".git/calculaator.sol\":1232:1241  age >= 16 */\n      lt\n      iszero\n        /* \".git/calculaator.sol\":1232:1254  age >= 16 && age <= 17 */\n      dup1\n      iszero\n      tag_153\n      jumpi\n      pop\n        /* \".git/calculaator.sol\":1252:1254  17 */\n      0x11\n        /* \".git/calculaator.sol\":1245:1248  age */\n      sload(0x02)\n        /* \".git/calculaator.sol\":1245:1254  age <= 17 */\n      gt\n      iszero\n        /* \".git/calculaator.sol\":1232:1254  age >= 16 && age <= 17 */\n    tag_153:\n        /* \".git/calculaator.sol\":1228:1394  if (age >= 16 && age <= 17) {... */\n      iszero\n      tag_154\n      jumpi\n        /* \".git/calculaator.sol\":1271:1308  return \"very soon you are gonna vote\" */\n      mload(0x40)\n      dup1\n      0x40\n      add\n      0x40\n      mstore\n      dup1\n      0x1c\n      dup2\n      mstore\n      0x20\n      add\n      0x7665727920736f6f6e20796f752061726520676f6e6e6120766f746500000000\n      dup2\n      mstore\n      pop\n      swap1\n      pop\n      jump(tag_150)\n        /* \".git/calculaator.sol\":1228:1394  if (age >= 16 && age <= 17) {... */\n    tag_154:\n        /* \".git/calculaator.sol\":1349:1382  return \"You are eligible to vote\" */\n      mload(0x40)\n      dup1\n      0x40\n      add\n      0x40\n      mstore\n      dup1\n      0x18\n      dup2\n      mstore\n      0x20\n      add\n      0x596f752061726520656c696769626c6520746f20766f74650000000000000000\n      dup2\n      mstore\n      pop\n      swap1\n      pop\n        /* \".git/calculaator.sol\":1082:1401  function checkage()public view returns (string memory){ ... */\n    tag_150:\n      swap1\n      jump\t// out\n        /* \".git/calculaator.sol\":570:671  function subtraction()public view returns (uint) {... */\n    tag_78:\n        /* \".git/calculaator.sol\":613:617  uint */\n      0x00\n        /* \".git/calculaator.sol\":651:663  secondnumber */\n      sload(0x01)\n        /* \".git/calculaator.sol\":637:648  firstnumber */\n      sload(0x00)\n        /* \".git/calculaator.sol\":637:663  firstnumber - secondnumber */\n      tag_157\n      swap2\n      swap1\n      tag_158\n      jump\t// in\n    tag_157:\n        /* \".git/calculaator.sol\":630:663  return firstnumber - secondnumber */\n      swap1\n      pop\n        /* \".git/calculaator.sol\":570:671  function subtraction()public view returns (uint) {... */\n      swap1\n      jump\t// out\n        /* \".git/calculaator.sol\":463:561  function addition()public view returns (uint) {... */\n    tag_81:\n        /* \".git/calculaator.sol\":503:507  uint */\n      0x00\n        /* \".git/calculaator.sol\":541:553  secondnumber */\n      sload(0x01)\n        /* \".git/calculaator.sol\":527:538  firstnumber */\n      sload(0x00)\n        /* \".git/calculaator.sol\":527:553  firstnumber + secondnumber */\n      tag_160\n      swap2\n      swap1\n      tag_138\n      jump\t// in\n    tag_160:\n        /* \".git/calculaator.sol\":520:553  return firstnumber + secondnumber */\n      swap1\n      pop\n        /* \".git/calculaator.sol\":463:561  function addition()public view returns (uint) {... */\n      swap1\n      jump\t// out\n        /* \"#utility.yul\":7:84   */\n    tag_161:\n        /* \"#utility.yul\":44:51   */\n      0x00\n        /* \"#utility.yul\":73:78   */\n      dup2\n        /* \"#utility.yul\":62:78   */\n      swap1\n      pop\n        /* \"#utility.yul\":7:84   */\n      swap2\n      swap1\n      pop\n      jump\t// out\n        /* \"#utility.yul\":90:208   */\n    tag_162:\n        /* \"#utility.yul\":177:201   */\n      tag_216\n        /* \"#utility.yul\":195:200   */\n      dup2\n        /* \"#utility.yul\":177:201   */\n      tag_161\n      jump\t// in\n    tag_216:\n        /* \"#utility.yul\":172:175   */\n      dup3\n        /* \"#utility.yul\":165:202   */\n      mstore\n        /* \"#utility.yul\":90:208   */\n      pop\n      pop\n      jump\t// out\n        /* \"#utility.yul\":214:436   */\n    tag_27:\n        /* \"#utility.yul\":307:311   */\n      0x00\n        /* \"#utility.yul\":345:347   */\n      0x20\n        /* \"#utility.yul\":334:343   */\n      dup3\n        /* \"#utility.yul\":330:348   */\n      add\n        /* \"#utility.yul\":322:348   */\n      swap1\n      pop\n        /* \"#utility.yul\":358:429   */\n      tag_218\n        /* \"#utility.yul\":426:427   */\n      0x00\n        /* \"#utility.yul\":415:424   */\n      dup4\n        /* \"#utility.yul\":411:428   */\n      add\n        /* \"#utility.yul\":402:408   */\n      dup5\n        /* \"#utility.yul\":358:429   */\n      tag_162\n      jump\t// in\n    tag_218:\n        /* \"#utility.yul\":214:436   */\n      swap3\n      swap2\n      pop\n      pop\n      jump\t// out\n        /* \"#utility.yul\":442:517   */\n    tag_163:\n        /* \"#utility.yul\":475:481   */\n      0x00\n        /* \"#utility.yul\":508:510   */\n      0x40\n        /* \"#utility.yul\":502:511   */\n      mload\n        /* \"#utility.yul\":492:511   */\n      swap1\n      pop\n        /* \"#utility.yul\":442:517   */\n      swap1\n      jump\t// out\n        /* \"#utility.yul\":523:640   */\n    tag_164:\n        /* \"#utility.yul\":632:633   */\n      0x00\n        /* \"#utility.yul\":629:630   */\n      0x00\n        /* \"#utility.yul\":622:634   */\n      revert\n        /* \"#utility.yul\":646:763   */\n    tag_165:\n        /* \"#utility.yul\":755:756   */\n      0x00\n        /* \"#utility.yul\":752:753   */\n      0x00\n        /* \"#utility.yul\":745:757   */\n      revert\n        /* \"#utility.yul\":769:891   */\n    tag_166:\n        /* \"#utility.yul\":842:866   */\n      tag_223\n        /* \"#utility.yul\":860:865   */\n      dup2\n        /* \"#utility.yul\":842:866   */\n      tag_161\n      jump\t// in\n    tag_223:\n        /* \"#utility.yul\":835:840   */\n      dup2\n        /* \"#utility.yul\":832:867   */\n      eq\n        /* \"#utility.yul\":822:885   */\n      tag_224\n      jumpi\n        /* \"#utility.yul\":881:882   */\n      0x00\n        /* \"#utility.yul\":878:879   */\n      0x00\n        /* \"#utility.yul\":871:883   */\n      revert\n        /* \"#utility.yul\":822:885   */\n    tag_224:\n        /* \"#utility.yul\":769:891   */\n      pop\n      jump\t// out\n        /* \"#utility.yul\":897:1036   */\n    tag_167:\n        /* \"#utility.yul\":943:948   */\n      0x00\n        /* \"#utility.yul\":981:987   */\n      dup2\n        /* \"#utility.yul\":968:988   */\n      calldataload\n        /* \"#utility.yul\":959:988   */\n      swap1\n      pop\n        /* \"#utility.yul\":997:1030   */\n      tag_226\n        /* \"#utility.yul\":1024:1029   */\n      dup2\n        /* \"#utility.yul\":997:1030   */\n      tag_166\n      jump\t// in\n    tag_226:\n        /* \"#utility.yul\":897:1036   */\n      swap3\n      swap2\n      pop\n      pop\n      jump\t// out\n        /* \"#utility.yul\":1042:1371   */\n    tag_30:\n        /* \"#utility.yul\":1101:1107   */\n      0x00\n        /* \"#utility.yul\":1150:1152   */\n      0x20\n        /* \"#utility.yul\":1138:1147   */\n      dup3\n        /* \"#utility.yul\":1129:1136   */\n      dup5\n        /* \"#utility.yul\":1125:1148   */\n      sub\n        /* \"#utility.yul\":1121:1153   */\n      slt\n        /* \"#utility.yul\":1118:1237   */\n      iszero\n      tag_228\n      jumpi\n        /* \"#utility.yul\":1156:1235   */\n      tag_229\n      tag_164\n      jump\t// in\n    tag_229:\n        /* \"#utility.yul\":1118:1237   */\n    tag_228:\n        /* \"#utility.yul\":1276:1277   */\n      0x00\n        /* \"#utility.yul\":1301:1354   */\n      tag_230\n        /* \"#utility.yul\":1346:1353   */\n      dup5\n        /* \"#utility.yul\":1337:1343   */\n      dup3\n        /* \"#utility.yul\":1326:1335   */\n      dup6\n        /* \"#utility.yul\":1322:1344   */\n      add\n        /* \"#utility.yul\":1301:1354   */\n      tag_167\n      jump\t// in\n    tag_230:\n        /* \"#utility.yul\":1291:1354   */\n      swap2\n      pop\n        /* \"#utility.yul\":1247:1364   */\n      pop\n        /* \"#utility.yul\":1042:1371   */\n      swap3\n      swap2\n      pop\n      pop\n      jump\t// out\n        /* \"#utility.yul\":1377:1476   */\n    tag_168:\n        /* \"#utility.yul\":1429:1435   */\n      0x00\n        /* \"#utility.yul\":1463:1468   */\n      dup2\n        /* \"#utility.yul\":1457:1469   */\n      mload\n        /* \"#utility.yul\":1447:1469   */\n      swap1\n      pop\n        /* \"#utility.yul\":1377:1476   */\n      swap2\n      swap1\n      pop\n      jump\t// out\n        /* \"#utility.yul\":1482:1651   */\n    tag_169:\n        /* \"#utility.yul\":1566:1577   */\n      0x00\n        /* \"#utility.yul\":1600:1606   */\n      dup3\n        /* \"#utility.yul\":1595:1598   */\n      dup3\n        /* \"#utility.yul\":1588:1607   */\n      mstore\n        /* \"#utility.yul\":1640:1644   */\n      0x20\n        /* \"#utility.yul\":1635:1638   */\n      dup3\n        /* \"#utility.yul\":1631:1645   */\n      add\n        /* \"#utility.yul\":1616:1645   */\n      swap1\n      pop\n        /* \"#utility.yul\":1482:1651   */\n      swap3\n      swap2\n      pop\n      pop\n      jump\t// out\n        /* \"#utility.yul\":1657:1796   */\n    tag_170:\n        /* \"#utility.yul\":1746:1752   */\n      dup3\n        /* \"#utility.yul\":1741:1744   */\n      dup2\n        /* \"#utility.yul\":1736:1739   */\n      dup4\n        /* \"#utility.yul\":1730:1753   */\n      mcopy\n        /* \"#utility.yul\":1787:1788   */\n      0x00\n        /* \"#utility.yul\":1778:1784   */\n      dup4\n        /* \"#utility.yul\":1773:1776   */\n      dup4\n        /* \"#utility.yul\":1769:1785   */\n      add\n        /* \"#utility.yul\":1762:1789   */\n      mstore\n        /* \"#utility.yul\":1657:1796   */\n      pop\n      pop\n      pop\n      jump\t// out\n        /* \"#utility.yul\":1802:1904   */\n    tag_171:\n        /* \"#utility.yul\":1843:1849   */\n      0x00\n        /* \"#utility.yul\":1894:1896   */\n      0x1f\n        /* \"#utility.yul\":1890:1897   */\n      not\n        /* \"#utility.yul\":1885:1887   */\n      0x1f\n        /* \"#utility.yul\":1878:1883   */\n      dup4\n        /* \"#utility.yul\":1874:1888   */\n      add\n        /* \"#utility.yul\":1870:1898   */\n      and\n        /* \"#utility.yul\":1860:1898   */\n      swap1\n      pop\n        /* \"#utility.yul\":1802:1904   */\n      swap2\n      swap1\n      pop\n      jump\t// out\n        /* \"#utility.yul\":1910:2287   */\n    tag_172:\n        /* \"#utility.yul\":1998:2001   */\n      0x00\n        /* \"#utility.yul\":2026:2065   */\n      tag_236\n        /* \"#utility.yul\":2059:2064   */\n      dup3\n        /* \"#utility.yul\":2026:2065   */\n      tag_168\n      jump\t// in\n    tag_236:\n        /* \"#utility.yul\":2081:2152   */\n      tag_237\n        /* \"#utility.yul\":2145:2151   */\n      dup2\n        /* \"#utility.yul\":2140:2143   */\n      dup6\n        /* \"#utility.yul\":2081:2152   */\n      tag_169\n      jump\t// in\n    tag_237:\n        /* \"#utility.yul\":2074:2152   */\n      swap4\n      pop\n        /* \"#utility.yul\":2161:2226   */\n      tag_238\n        /* \"#utility.yul\":2219:2225   */\n      dup2\n        /* \"#utility.yul\":2214:2217   */\n      dup6\n        /* \"#utility.yul\":2207:2211   */\n      0x20\n        /* \"#utility.yul\":2200:2205   */\n      dup7\n        /* \"#utility.yul\":2196:2212   */\n      add\n        /* \"#utility.yul\":2161:2226   */\n      tag_170\n      jump\t// in\n    tag_238:\n        /* \"#utility.yul\":2251:2280   */\n      tag_239\n        /* \"#utility.yul\":2273:2279   */\n      dup2\n        /* \"#utility.yul\":2251:2280   */\n      tag_171\n      jump\t// in\n    tag_239:\n        /* \"#utility.yul\":2246:2249   */\n      dup5\n        /* \"#utility.yul\":2242:2281   */\n      add\n        /* \"#utility.yul\":2235:2281   */\n      swap2\n      pop\n        /* \"#utility.yul\":2002:2287   */\n      pop\n        /* \"#utility.yul\":1910:2287   */\n      swap3\n      swap2\n      pop\n      pop\n      jump\t// out\n        /* \"#utility.yul\":2293:2606   */\n    tag_41:\n        /* \"#utility.yul\":2406:2410   */\n      0x00\n        /* \"#utility.yul\":2444:2446   */\n      0x20\n        /* \"#utility.yul\":2433:2442   */\n      dup3\n        /* \"#utility.yul\":2429:2447   */\n      add\n        /* \"#utility.yul\":2421:2447   */\n      swap1\n      pop\n        /* \"#utility.yul\":2493:2502   */\n      dup2\n        /* \"#utility.yul\":2487:2491   */\n      dup2\n        /* \"#utility.yul\":2483:2503   */\n      sub\n        /* \"#utility.yul\":2479:2480   */\n      0x00\n        /* \"#utility.yul\":2468:2477   */\n      dup4\n        /* \"#utility.yul\":2464:2481   */\n      add\n        /* \"#utility.yul\":2457:2504   */\n      mstore\n        /* \"#utility.yul\":2521:2599   */\n      tag_241\n        /* \"#utility.yul\":2594:2598   */\n      dup2\n        /* \"#utility.yul\":2585:2591   */\n      dup5\n        /* \"#utility.yul\":2521:2599   */\n      tag_172\n      jump\t// in\n    tag_241:\n        /* \"#utility.yul\":2513:2599   */\n      swap1\n      pop\n        /* \"#utility.yul\":2293:2606   */\n      swap3\n      swap2\n      pop\n      pop\n      jump\t// out\n        /* \"#utility.yul\":2612:2729   */\n    tag_173:\n        /* \"#utility.yul\":2721:2722   */\n      0x00\n        /* \"#utility.yul\":2718:2719   */\n      0x00\n        /* \"#utility.yul\":2711:2723   */\n      revert\n        /* \"#utility.yul\":2735:2852   */\n    tag_174:\n        /* \"#utility.yul\":2844:2845   */\n      0x00\n        /* \"#utility.yul\":2841:2842   */\n      0x00\n        /* \"#utility.yul\":2834:2846   */\n      revert\n        /* \"#utility.yul\":2858:3038   */\n    tag_175:\n        /* \"#utility.yul\":2906:2983   */\n      0x4e487b7100000000000000000000000000000000000000000000000000000000\n        /* \"#utility.yul\":2903:2904   */\n      0x00\n        /* \"#utility.yul\":2896:2984   */\n      mstore\n        /* \"#utility.yul\":3003:3007   */\n      0x41\n        /* \"#utility.yul\":3000:3001   */\n      0x04\n        /* \"#utility.yul\":2993:3008   */\n      mstore\n        /* \"#utility.yul\":3027:3031   */\n      0x24\n        /* \"#utility.yul\":3024:3025   */\n      0x00\n        /* \"#utility.yul\":3017:3032   */\n      revert\n        /* \"#utility.yul\":3044:3325   */\n    tag_176:\n        /* \"#utility.yul\":3127:3154   */\n      tag_246\n        /* \"#utility.yul\":3149:3153   */\n      dup3\n        /* \"#utility.yul\":3127:3154   */\n      tag_171\n      jump\t// in\n    tag_246:\n        /* \"#utility.yul\":3119:3125   */\n      dup2\n        /* \"#utility.yul\":3115:3155   */\n      add\n        /* \"#utility.yul\":3257:3263   */\n      dup2\n        /* \"#utility.yul\":3245:3255   */\n      dup2\n        /* \"#utility.yul\":3242:3264   */\n      lt\n        /* \"#utility.yul\":3221:3239   */\n      0xffffffffffffffff\n        /* \"#utility.yul\":3209:3219   */\n      dup3\n        /* \"#utility.yul\":3206:3240   */\n      gt\n        /* \"#utility.yul\":3203:3265   */\n      or\n        /* \"#utility.yul\":3200:3288   */\n      iszero\n      tag_247\n      jumpi\n        /* \"#utility.yul\":3268:3286   */\n      tag_248\n      tag_175\n      jump\t// in\n    tag_248:\n        /* \"#utility.yul\":3200:3288   */\n    tag_247:\n        /* \"#utility.yul\":3308:3318   */\n      dup1\n        /* \"#utility.yul\":3304:3306   */\n      0x40\n        /* \"#utility.yul\":3297:3319   */\n      mstore\n        /* \"#utility.yul\":3087:3325   */\n      pop\n        /* \"#utility.yul\":3044:3325   */\n      pop\n      pop\n      jump\t// out\n        /* \"#utility.yul\":3331:3460   */\n    tag_177:\n        /* \"#utility.yul\":3365:3371   */\n      0x00\n        /* \"#utility.yul\":3392:3412   */\n      tag_250\n      tag_163\n      jump\t// in\n    tag_250:\n        /* \"#utility.yul\":3382:3412   */\n      swap1\n      pop\n        /* \"#utility.yul\":3421:3454   */\n      tag_251\n        /* \"#utility.yul\":3449:3453   */\n      dup3\n        /* \"#utility.yul\":3441:3447   */\n      dup3\n        /* \"#utility.yul\":3421:3454   */\n      tag_176\n      jump\t// in\n    tag_251:\n        /* \"#utility.yul\":3331:3460   */\n      swap2\n      swap1\n      pop\n      jump\t// out\n        /* \"#utility.yul\":3466:3774   */\n    tag_178:\n        /* \"#utility.yul\":3528:3532   */\n      0x00\n        /* \"#utility.yul\":3618:3636   */\n      0xffffffffffffffff\n        /* \"#utility.yul\":3610:3616   */\n      dup3\n        /* \"#utility.yul\":3607:3637   */\n      gt\n        /* \"#utility.yul\":3604:3660   */\n      iszero\n      tag_253\n      jumpi\n        /* \"#utility.yul\":3640:3658   */\n      tag_254\n      tag_175\n      jump\t// in\n    tag_254:\n        /* \"#utility.yul\":3604:3660   */\n    tag_253:\n        /* \"#utility.yul\":3678:3707   */\n      tag_255\n        /* \"#utility.yul\":3700:3706   */\n      dup3\n        /* \"#utility.yul\":3678:3707   */\n      tag_171\n      jump\t// in\n    tag_255:\n        /* \"#utility.yul\":3670:3707   */\n      swap1\n      pop\n        /* \"#utility.yul\":3762:3766   */\n      0x20\n        /* \"#utility.yul\":3756:3760   */\n      dup2\n        /* \"#utility.yul\":3752:3767   */\n      add\n        /* \"#utility.yul\":3744:3767   */\n      swap1\n      pop\n        /* \"#utility.yul\":3466:3774   */\n      swap2\n      swap1\n      pop\n      jump\t// out\n        /* \"#utility.yul\":3780:3928   */\n    tag_179:\n        /* \"#utility.yul\":3878:3884   */\n      dup3\n        /* \"#utility.yul\":3873:3876   */\n      dup2\n        /* \"#utility.yul\":3868:3871   */\n      dup4\n        /* \"#utility.yul\":3855:3885   */\n      calldatacopy\n        /* \"#utility.yul\":3919:3920   */\n      0x00\n        /* \"#utility.yul\":3910:3916   */\n      dup4\n        /* \"#utility.yul\":3905:3908   */\n      dup4\n        /* \"#utility.yul\":3901:3917   */\n      add\n        /* \"#utility.yul\":3894:3921   */\n      mstore\n        /* \"#utility.yul\":3780:3928   */\n      pop\n      pop\n      pop\n      jump\t// out\n        /* \"#utility.yul\":3934:4359   */\n    tag_180:\n        /* \"#utility.yul\":4012:4017   */\n      0x00\n        /* \"#utility.yul\":4037:4103   */\n      tag_258\n        /* \"#utility.yul\":4053:4102   */\n      tag_259\n        /* \"#utility.yul\":4095:4101   */\n      dup5\n        /* \"#utility.yul\":4053:4102   */\n      tag_178\n      jump\t// in\n    tag_259:\n        /* \"#utility.yul\":4037:4103   */\n      tag_177\n      jump\t// in\n    tag_258:\n        /* \"#utility.yul\":4028:4103   */\n      swap1\n      pop\n        /* \"#utility.yul\":4126:4132   */\n      dup3\n        /* \"#utility.yul\":4119:4124   */\n      dup2\n        /* \"#utility.yul\":4112:4133   */\n      mstore\n        /* \"#utility.yul\":4164:4168   */\n      0x20\n        /* \"#utility.yul\":4157:4162   */\n      dup2\n        /* \"#utility.yul\":4153:4169   */\n      add\n        /* \"#utility.yul\":4202:4205   */\n      dup5\n        /* \"#utility.yul\":4193:4199   */\n      dup5\n        /* \"#utility.yul\":4188:4191   */\n      dup5\n        /* \"#utility.yul\":4184:4200   */\n      add\n        /* \"#utility.yul\":4181:4206   */\n      gt\n        /* \"#utility.yul\":4178:4290   */\n      iszero\n      tag_260\n      jumpi\n        /* \"#utility.yul\":4209:4288   */\n      tag_261\n      tag_174\n      jump\t// in\n    tag_261:\n        /* \"#utility.yul\":4178:4290   */\n    tag_260:\n        /* \"#utility.yul\":4299:4353   */\n      tag_262\n        /* \"#utility.yul\":4346:4352   */\n      dup5\n        /* \"#utility.yul\":4341:4344   */\n      dup3\n        /* \"#utility.yul\":4336:4339   */\n      dup6\n        /* \"#utility.yul\":4299:4353   */\n      tag_179\n      jump\t// in\n    tag_262:\n        /* \"#utility.yul\":4018:4359   */\n      pop\n        /* \"#utility.yul\":3934:4359   */\n      swap4\n      swap3\n      pop\n      pop\n      pop\n      jump\t// out\n        /* \"#utility.yul\":4379:4719   */\n    tag_181:\n        /* \"#utility.yul\":4435:4440   */\n      0x00\n        /* \"#utility.yul\":4484:4487   */\n      dup3\n        /* \"#utility.yul\":4477:4481   */\n      0x1f\n        /* \"#utility.yul\":4469:4475   */\n      dup4\n        /* \"#utility.yul\":4465:4482   */\n      add\n        /* \"#utility.yul\":4461:4488   */\n      slt\n        /* \"#utility.yul\":4451:4573   */\n      tag_264\n      jumpi\n        /* \"#utility.yul\":4492:4571   */\n      tag_265\n      tag_173\n      jump\t// in\n    tag_265:\n        /* \"#utility.yul\":4451:4573   */\n    tag_264:\n        /* \"#utility.yul\":4609:4615   */\n      dup2\n        /* \"#utility.yul\":4596:4616   */\n      calldataload\n        /* \"#utility.yul\":4634:4713   */\n      tag_266\n        /* \"#utility.yul\":4709:4712   */\n      dup5\n        /* \"#utility.yul\":4701:4707   */\n      dup3\n        /* \"#utility.yul\":4694:4698   */\n      0x20\n        /* \"#utility.yul\":4686:4692   */\n      dup7\n        /* \"#utility.yul\":4682:4699   */\n      add\n        /* \"#utility.yul\":4634:4713   */\n      tag_180\n      jump\t// in\n    tag_266:\n        /* \"#utility.yul\":4625:4713   */\n      swap2\n      pop\n        /* \"#utility.yul\":4441:4719   */\n      pop\n        /* \"#utility.yul\":4379:4719   */\n      swap3\n      swap2\n      pop\n      pop\n      jump\t// out\n        /* \"#utility.yul\":4725:5234   */\n    tag_53:\n        /* \"#utility.yul\":4794:4800   */\n      0x00\n        /* \"#utility.yul\":4843:4845   */\n      0x20\n        /* \"#utility.yul\":4831:4840   */\n      dup3\n        /* \"#utility.yul\":4822:4829   */\n      dup5\n        /* \"#utility.yul\":4818:4841   */\n      sub\n        /* \"#utility.yul\":4814:4846   */\n      slt\n        /* \"#utility.yul\":4811:4930   */\n      iszero\n      tag_268\n      jumpi\n        /* \"#utility.yul\":4849:4928   */\n      tag_269\n      tag_164\n      jump\t// in\n    tag_269:\n        /* \"#utility.yul\":4811:4930   */\n    tag_268:\n        /* \"#utility.yul\":4997:4998   */\n      0x00\n        /* \"#utility.yul\":4986:4995   */\n      dup3\n        /* \"#utility.yul\":4982:4999   */\n      add\n        /* \"#utility.yul\":4969:5000   */\n      calldataload\n        /* \"#utility.yul\":5027:5045   */\n      0xffffffffffffffff\n        /* \"#utility.yul\":5019:5025   */\n      dup2\n        /* \"#utility.yul\":5016:5046   */\n      gt\n        /* \"#utility.yul\":5013:5130   */\n      iszero\n      tag_270\n      jumpi\n        /* \"#utility.yul\":5049:5128   */\n      tag_271\n      tag_165\n      jump\t// in\n    tag_271:\n        /* \"#utility.yul\":5013:5130   */\n    tag_270:\n        /* \"#utility.yul\":5154:5217   */\n      tag_272\n        /* \"#utility.yul\":5209:5216   */\n      dup5\n        /* \"#utility.yul\":5200:5206   */\n      dup3\n        /* \"#utility.yul\":5189:5198   */\n      dup6\n        /* \"#utility.yul\":5185:5207   */\n      add\n        /* \"#utility.yul\":5154:5217   */\n      tag_181\n      jump\t// in\n    tag_272:\n        /* \"#utility.yul\":5144:5217   */\n      swap2\n      pop\n        /* \"#utility.yul\":4940:5227   */\n      pop\n        /* \"#utility.yul\":4725:5234   */\n      swap3\n      swap2\n      pop\n      pop\n      jump\t// out\n        /* \"#utility.yul\":5240:5374   */\n    tag_182:\n        /* \"#utility.yul\":5327:5333   */\n      0x00\n        /* \"#utility.yul\":5361:5366   */\n      dup2\n        /* \"#utility.yul\":5355:5367   */\n      mload\n        /* \"#utility.yul\":5345:5367   */\n      swap1\n      pop\n        /* \"#utility.yul\":5240:5374   */\n      swap2\n      swap1\n      pop\n      jump\t// out\n        /* \"#utility.yul\":5380:5584   */\n    tag_183:\n        /* \"#utility.yul\":5499:5510   */\n      0x00\n        /* \"#utility.yul\":5533:5539   */\n      dup3\n        /* \"#utility.yul\":5528:5531   */\n      dup3\n        /* \"#utility.yul\":5521:5540   */\n      mstore\n        /* \"#utility.yul\":5573:5577   */\n      0x20\n        /* \"#utility.yul\":5568:5571   */\n      dup3\n        /* \"#utility.yul\":5564:5578   */\n      add\n        /* \"#utility.yul\":5549:5578   */\n      swap1\n      pop\n        /* \"#utility.yul\":5380:5584   */\n      swap3\n      swap2\n      pop\n      pop\n      jump\t// out\n        /* \"#utility.yul\":5590:5742   */\n    tag_184:\n        /* \"#utility.yul\":5677:5681   */\n      0x00\n        /* \"#utility.yul\":5700:5703   */\n      dup2\n        /* \"#utility.yul\":5692:5703   */\n      swap1\n      pop\n        /* \"#utility.yul\":5730:5734   */\n      0x20\n        /* \"#utility.yul\":5725:5728   */\n      dup3\n        /* \"#utility.yul\":5721:5735   */\n      add\n        /* \"#utility.yul\":5713:5735   */\n      swap1\n      pop\n        /* \"#utility.yul\":5590:5742   */\n      swap2\n      swap1\n      pop\n      jump\t// out\n        /* \"#utility.yul\":5748:5907   */\n    tag_185:\n        /* \"#utility.yul\":5822:5833   */\n      0x00\n        /* \"#utility.yul\":5856:5862   */\n      dup3\n        /* \"#utility.yul\":5851:5854   */\n      dup3\n        /* \"#utility.yul\":5844:5863   */\n      mstore\n        /* \"#utility.yul\":5896:5900   */\n      0x20\n        /* \"#utility.yul\":5891:5894   */\n      dup3\n        /* \"#utility.yul\":5887:5901   */\n      add\n        /* \"#utility.yul\":5872:5901   */\n      swap1\n      pop\n        /* \"#utility.yul\":5748:5907   */\n      swap3\n      swap2\n      pop\n      pop\n      jump\t// out\n        /* \"#utility.yul\":5913:6270   */\n    tag_186:\n        /* \"#utility.yul\":5991:5994   */\n      0x00\n        /* \"#utility.yul\":6019:6058   */\n      tag_278\n        /* \"#utility.yul\":6052:6057   */\n      dup3\n        /* \"#utility.yul\":6019:6058   */\n      tag_168\n      jump\t// in\n    tag_278:\n        /* \"#utility.yul\":6074:6135   */\n      tag_279\n        /* \"#utility.yul\":6128:6134   */\n      dup2\n        /* \"#utility.yul\":6123:6126   */\n      dup6\n        /* \"#utility.yul\":6074:6135   */\n      tag_185\n      jump\t// in\n    tag_279:\n        /* \"#utility.yul\":6067:6135   */\n      swap4\n      pop\n        /* \"#utility.yul\":6144:6209   */\n      tag_280\n        /* \"#utility.yul\":6202:6208   */\n      dup2\n        /* \"#utility.yul\":6197:6200   */\n      dup6\n        /* \"#utility.yul\":6190:6194   */\n      0x20\n        /* \"#utility.yul\":6183:6188   */\n      dup7\n        /* \"#utility.yul\":6179:6195   */\n      add\n        /* \"#utility.yul\":6144:6209   */\n      tag_170\n      jump\t// in\n    tag_280:\n        /* \"#utility.yul\":6234:6263   */\n      tag_281\n        /* \"#utility.yul\":6256:6262   */\n      dup2\n        /* \"#utility.yul\":6234:6263   */\n      tag_171\n      jump\t// in\n    tag_281:\n        /* \"#utility.yul\":6229:6232   */\n      dup5\n        /* \"#utility.yul\":6225:6264   */\n      add\n        /* \"#utility.yul\":6218:6264   */\n      swap2\n      pop\n        /* \"#utility.yul\":5995:6270   */\n      pop\n        /* \"#utility.yul\":5913:6270   */\n      swap3\n      swap2\n      pop\n      pop\n      jump\t// out\n        /* \"#utility.yul\":6276:6366   */\n    tag_187:\n        /* \"#utility.yul\":6310:6317   */\n      0x00\n        /* \"#utility.yul\":6353:6358   */\n      dup2\n        /* \"#utility.yul\":6346:6359   */\n      iszero\n        /* \"#utility.yul\":6339:6360   */\n      iszero\n        /* \"#utility.yul\":6328:6360   */\n      swap1\n      pop\n        /* \"#utility.yul\":6276:6366   */\n      swap2\n      swap1\n      pop\n      jump\t// out\n        /* \"#utility.yul\":6372:6471   */\n    tag_188:\n        /* \"#utility.yul\":6443:6464   */\n      tag_284\n        /* \"#utility.yul\":6458:6463   */\n      dup2\n        /* \"#utility.yul\":6443:6464   */\n      tag_187\n      jump\t// in\n    tag_284:\n        /* \"#utility.yul\":6438:6441   */\n      dup3\n        /* \"#utility.yul\":6431:6465   */\n      mstore\n        /* \"#utility.yul\":6372:6471   */\n      pop\n      pop\n      jump\t// out\n        /* \"#utility.yul\":6545:7130   */\n    tag_189:\n        /* \"#utility.yul\":6644:6647   */\n      0x00\n        /* \"#utility.yul\":6680:6684   */\n      0x40\n        /* \"#utility.yul\":6675:6678   */\n      dup4\n        /* \"#utility.yul\":6671:6685   */\n      add\n        /* \"#utility.yul\":6767:6771   */\n      0x00\n        /* \"#utility.yul\":6760:6765   */\n      dup4\n        /* \"#utility.yul\":6756:6772   */\n      add\n        /* \"#utility.yul\":6750:6773   */\n      mload\n        /* \"#utility.yul\":6820:6823   */\n      dup5\n        /* \"#utility.yul\":6814:6818   */\n      dup3\n        /* \"#utility.yul\":6810:6824   */\n      sub\n        /* \"#utility.yul\":6803:6807   */\n      0x00\n        /* \"#utility.yul\":6798:6801   */\n      dup7\n        /* \"#utility.yul\":6794:6808   */\n      add\n        /* \"#utility.yul\":6787:6825   */\n      mstore\n        /* \"#utility.yul\":6846:6919   */\n      tag_286\n        /* \"#utility.yul\":6914:6918   */\n      dup3\n        /* \"#utility.yul\":6900:6912   */\n      dup3\n        /* \"#utility.yul\":6846:6919   */\n      tag_186\n      jump\t// in\n    tag_286:\n        /* \"#utility.yul\":6838:6919   */\n      swap2\n      pop\n        /* \"#utility.yul\":6695:6930   */\n      pop\n        /* \"#utility.yul\":7017:7021   */\n      0x20\n        /* \"#utility.yul\":7010:7015   */\n      dup4\n        /* \"#utility.yul\":7006:7022   */\n      add\n        /* \"#utility.yul\":7000:7023   */\n      mload\n        /* \"#utility.yul\":7036:7093   */\n      tag_287\n        /* \"#utility.yul\":7087:7091   */\n      0x20\n        /* \"#utility.yul\":7082:7085   */\n      dup7\n        /* \"#utility.yul\":7078:7092   */\n      add\n        /* \"#utility.yul\":7064:7076   */\n      dup3\n        /* \"#utility.yul\":7036:7093   */\n      tag_188\n      jump\t// in\n    tag_287:\n        /* \"#utility.yul\":6940:7103   */\n      pop\n        /* \"#utility.yul\":7120:7124   */\n      dup1\n        /* \"#utility.yul\":7113:7124   */\n      swap2\n      pop\n        /* \"#utility.yul\":6649:7130   */\n      pop\n        /* \"#utility.yul\":6545:7130   */\n      swap3\n      swap2\n      pop\n      pop\n      jump\t// out\n        /* \"#utility.yul\":7136:7372   */\n    tag_190:\n        /* \"#utility.yul\":7245:7255   */\n      0x00\n        /* \"#utility.yul\":7280:7366   */\n      tag_289\n        /* \"#utility.yul\":7362:7365   */\n      dup4\n        /* \"#utility.yul\":7354:7360   */\n      dup4\n        /* \"#utility.yul\":7280:7366   */\n      tag_189\n      jump\t// in\n    tag_289:\n        /* \"#utility.yul\":7266:7366   */\n      swap1\n      pop\n        /* \"#utility.yul\":7136:7372   */\n      swap3\n      swap2\n      pop\n      pop\n      jump\t// out\n        /* \"#utility.yul\":7378:7511   */\n    tag_191:\n        /* \"#utility.yul\":7468:7472   */\n      0x00\n        /* \"#utility.yul\":7500:7504   */\n      0x20\n        /* \"#utility.yul\":7495:7498   */\n      dup3\n        /* \"#utility.yul\":7491:7505   */\n      add\n        /* \"#utility.yul\":7483:7505   */\n      swap1\n      pop\n        /* \"#utility.yul\":7378:7511   */\n      swap2\n      swap1\n      pop\n      jump\t// out\n        /* \"#utility.yul\":7589:8660   */\n    tag_192:\n        /* \"#utility.yul\":7748:7751   */\n      0x00\n        /* \"#utility.yul\":7777:7851   */\n      tag_292\n        /* \"#utility.yul\":7845:7850   */\n      dup3\n        /* \"#utility.yul\":7777:7851   */\n      tag_182\n      jump\t// in\n    tag_292:\n        /* \"#utility.yul\":7867:7973   */\n      tag_293\n        /* \"#utility.yul\":7966:7972   */\n      dup2\n        /* \"#utility.yul\":7961:7964   */\n      dup6\n        /* \"#utility.yul\":7867:7973   */\n      tag_183\n      jump\t// in\n    tag_293:\n        /* \"#utility.yul\":7860:7973   */\n      swap4\n      pop\n        /* \"#utility.yul\":7999:8002   */\n      dup4\n        /* \"#utility.yul\":8044:8048   */\n      0x20\n        /* \"#utility.yul\":8036:8042   */\n      dup3\n        /* \"#utility.yul\":8032:8049   */\n      mul\n        /* \"#utility.yul\":8027:8030   */\n      dup6\n        /* \"#utility.yul\":8023:8050   */\n      add\n        /* \"#utility.yul\":8074:8150   */\n      tag_294\n        /* \"#utility.yul\":8144:8149   */\n      dup6\n        /* \"#utility.yul\":8074:8150   */\n      tag_184\n      jump\t// in\n    tag_294:\n        /* \"#utility.yul\":8173:8180   */\n      dup1\n        /* \"#utility.yul\":8204:8205   */\n      0x00\n        /* \"#utility.yul\":8189:8615   */\n    tag_295:\n        /* \"#utility.yul\":8214:8220   */\n      dup6\n        /* \"#utility.yul\":8211:8212   */\n      dup2\n        /* \"#utility.yul\":8208:8221   */\n      lt\n        /* \"#utility.yul\":8189:8615   */\n      iszero\n      tag_297\n      jumpi\n        /* \"#utility.yul\":8285:8294   */\n      dup5\n        /* \"#utility.yul\":8279:8283   */\n      dup5\n        /* \"#utility.yul\":8275:8295   */\n      sub\n        /* \"#utility.yul\":8270:8273   */\n      dup10\n        /* \"#utility.yul\":8263:8296   */\n      mstore\n        /* \"#utility.yul\":8336:8342   */\n      dup2\n        /* \"#utility.yul\":8330:8343   */\n      mload\n        /* \"#utility.yul\":8364:8468   */\n      tag_298\n        /* \"#utility.yul\":8463:8467   */\n      dup6\n        /* \"#utility.yul\":8448:8461   */\n      dup3\n        /* \"#utility.yul\":8364:8468   */\n      tag_190\n      jump\t// in\n    tag_298:\n        /* \"#utility.yul\":8356:8468   */\n      swap5\n      pop\n        /* \"#utility.yul\":8491:8571   */\n      tag_299\n        /* \"#utility.yul\":8564:8570   */\n      dup4\n        /* \"#utility.yul\":8491:8571   */\n      tag_191\n      jump\t// in\n    tag_299:\n        /* \"#utility.yul\":8481:8571   */\n      swap3\n      pop\n        /* \"#utility.yul\":8600:8604   */\n      0x20\n        /* \"#utility.yul\":8595:8598   */\n      dup11\n        /* \"#utility.yul\":8591:8605   */\n      add\n        /* \"#utility.yul\":8584:8605   */\n      swap10\n      pop\n        /* \"#utility.yul\":8249:8615   */\n      pop\n        /* \"#utility.yul\":8236:8237   */\n      0x01\n        /* \"#utility.yul\":8233:8234   */\n      dup2\n        /* \"#utility.yul\":8229:8238   */\n      add\n        /* \"#utility.yul\":8224:8238   */\n      swap1\n      pop\n        /* \"#utility.yul\":8189:8615   */\n      jump(tag_295)\n    tag_297:\n        /* \"#utility.yul\":8193:8207   */\n      pop\n        /* \"#utility.yul\":8631:8635   */\n      dup3\n        /* \"#utility.yul\":8624:8635   */\n      swap8\n      pop\n        /* \"#utility.yul\":8651:8654   */\n      dup8\n        /* \"#utility.yul\":8644:8654   */\n      swap6\n      pop\n        /* \"#utility.yul\":7753:8660   */\n      pop\n      pop\n      pop\n      pop\n      pop\n        /* \"#utility.yul\":7589:8660   */\n      swap3\n      swap2\n      pop\n      pop\n      jump\t// out\n        /* \"#utility.yul\":8666:9119   */\n    tag_73:\n        /* \"#utility.yul\":8849:8853   */\n      0x00\n        /* \"#utility.yul\":8887:8889   */\n      0x20\n        /* \"#utility.yul\":8876:8885   */\n      dup3\n        /* \"#utility.yul\":8872:8890   */\n      add\n        /* \"#utility.yul\":8864:8890   */\n      swap1\n      pop\n        /* \"#utility.yul\":8936:8945   */\n      dup2\n        /* \"#utility.yul\":8930:8934   */\n      dup2\n        /* \"#utility.yul\":8926:8946   */\n      sub\n        /* \"#utility.yul\":8922:8923   */\n      0x00\n        /* \"#utility.yul\":8911:8920   */\n      dup4\n        /* \"#utility.yul\":8907:8924   */\n      add\n        /* \"#utility.yul\":8900:8947   */\n      mstore\n        /* \"#utility.yul\":8964:9112   */\n      tag_301\n        /* \"#utility.yul\":9107:9111   */\n      dup2\n        /* \"#utility.yul\":9098:9104   */\n      dup5\n        /* \"#utility.yul\":8964:9112   */\n      tag_192\n      jump\t// in\n    tag_301:\n        /* \"#utility.yul\":8956:9112   */\n      swap1\n      pop\n        /* \"#utility.yul\":8666:9119   */\n      swap3\n      swap2\n      pop\n      pop\n      jump\t// out\n        /* \"#utility.yul\":9125:9305   */\n    tag_193:\n        /* \"#utility.yul\":9173:9250   */\n      0x4e487b7100000000000000000000000000000000000000000000000000000000\n        /* \"#utility.yul\":9170:9171   */\n      0x00\n        /* \"#utility.yul\":9163:9251   */\n      mstore\n        /* \"#utility.yul\":9270:9274   */\n      0x11\n        /* \"#utility.yul\":9267:9268   */\n      0x04\n        /* \"#utility.yul\":9260:9275   */\n      mstore\n        /* \"#utility.yul\":9294:9298   */\n      0x24\n        /* \"#utility.yul\":9291:9292   */\n      0x00\n        /* \"#utility.yul\":9284:9299   */\n      revert\n        /* \"#utility.yul\":9311:9721   */\n    tag_85:\n        /* \"#utility.yul\":9351:9358   */\n      0x00\n        /* \"#utility.yul\":9374:9394   */\n      tag_304\n        /* \"#utility.yul\":9392:9393   */\n      dup3\n        /* \"#utility.yul\":9374:9394   */\n      tag_161\n      jump\t// in\n    tag_304:\n        /* \"#utility.yul\":9369:9394   */\n      swap2\n      pop\n        /* \"#utility.yul\":9408:9428   */\n      tag_305\n        /* \"#utility.yul\":9426:9427   */\n      dup4\n        /* \"#utility.yul\":9408:9428   */\n      tag_161\n      jump\t// in\n    tag_305:\n        /* \"#utility.yul\":9403:9428   */\n      swap3\n      pop\n        /* \"#utility.yul\":9463:9464   */\n      dup3\n        /* \"#utility.yul\":9460:9461   */\n      dup3\n        /* \"#utility.yul\":9456:9465   */\n      mul\n        /* \"#utility.yul\":9485:9515   */\n      tag_306\n        /* \"#utility.yul\":9503:9514   */\n      dup2\n        /* \"#utility.yul\":9485:9515   */\n      tag_161\n      jump\t// in\n    tag_306:\n        /* \"#utility.yul\":9474:9515   */\n      swap2\n      pop\n        /* \"#utility.yul\":9664:9665   */\n      dup3\n        /* \"#utility.yul\":9655:9662   */\n      dup3\n        /* \"#utility.yul\":9651:9666   */\n      div\n        /* \"#utility.yul\":9648:9649   */\n      dup5\n        /* \"#utility.yul\":9645:9667   */\n      eq\n        /* \"#utility.yul\":9625:9626   */\n      dup4\n        /* \"#utility.yul\":9618:9627   */\n      iszero\n        /* \"#utility.yul\":9598:9681   */\n      or\n        /* \"#utility.yul\":9575:9714   */\n      tag_307\n      jumpi\n        /* \"#utility.yul\":9694:9712   */\n      tag_308\n      tag_193\n      jump\t// in\n    tag_308:\n        /* \"#utility.yul\":9575:9714   */\n    tag_307:\n        /* \"#utility.yul\":9359:9721   */\n      pop\n        /* \"#utility.yul\":9311:9721   */\n      swap3\n      swap2\n      pop\n      pop\n      jump\t// out\n        /* \"#utility.yul\":9727:9890   */\n    tag_194:\n        /* \"#utility.yul\":9867:9882   */\n      0x496e76616c696420696e64657800000000000000000000000000000000000000\n        /* \"#utility.yul\":9863:9864   */\n      0x00\n        /* \"#utility.yul\":9855:9861   */\n      dup3\n        /* \"#utility.yul\":9851:9865   */\n      add\n        /* \"#utility.yul\":9844:9883   */\n      mstore\n        /* \"#utility.yul\":9727:9890   */\n      pop\n      jump\t// out\n        /* \"#utility.yul\":9896:10262   */\n    tag_195:\n        /* \"#utility.yul\":10038:10041   */\n      0x00\n        /* \"#utility.yul\":10059:10126   */\n      tag_311\n        /* \"#utility.yul\":10123:10125   */\n      0x0d\n        /* \"#utility.yul\":10118:10121   */\n      dup4\n        /* \"#utility.yul\":10059:10126   */\n      tag_169\n      jump\t// in\n    tag_311:\n        /* \"#utility.yul\":10052:10126   */\n      swap2\n      pop\n        /* \"#utility.yul\":10135:10228   */\n      tag_312\n        /* \"#utility.yul\":10224:10227   */\n      dup3\n        /* \"#utility.yul\":10135:10228   */\n      tag_194\n      jump\t// in\n    tag_312:\n        /* \"#utility.yul\":10253:10255   */\n      0x20\n        /* \"#utility.yul\":10248:10251   */\n      dup3\n        /* \"#utility.yul\":10244:10256   */\n      add\n        /* \"#utility.yul\":10237:10256   */\n      swap1\n      pop\n        /* \"#utility.yul\":9896:10262   */\n      swap2\n      swap1\n      pop\n      jump\t// out\n        /* \"#utility.yul\":10268:10687   */\n    tag_91:\n        /* \"#utility.yul\":10434:10438   */\n      0x00\n        /* \"#utility.yul\":10472:10474   */\n      0x20\n        /* \"#utility.yul\":10461:10470   */\n      dup3\n        /* \"#utility.yul\":10457:10475   */\n      add\n        /* \"#utility.yul\":10449:10475   */\n      swap1\n      pop\n        /* \"#utility.yul\":10521:10530   */\n      dup2\n        /* \"#utility.yul\":10515:10519   */\n      dup2\n        /* \"#utility.yul\":10511:10531   */\n      sub\n        /* \"#utility.yul\":10507:10508   */\n      0x00\n        /* \"#utility.yul\":10496:10505   */\n      dup4\n        /* \"#utility.yul\":10492:10509   */\n      add\n        /* \"#utility.yul\":10485:10532   */\n      mstore\n        /* \"#utility.yul\":10549:10680   */\n      tag_314\n        /* \"#utility.yul\":10675:10679   */\n      dup2\n        /* \"#utility.yul\":10549:10680   */\n      tag_195\n      jump\t// in\n    tag_314:\n        /* \"#utility.yul\":10541:10680   */\n      swap1\n      pop\n        /* \"#utility.yul\":10268:10687   */\n      swap2\n      swap1\n      pop\n      jump\t// out\n        /* \"#utility.yul\":10693:10873   */\n    tag_94:\n        /* \"#utility.yul\":10741:10818   */\n      0x4e487b7100000000000000000000000000000000000000000000000000000000\n        /* \"#utility.yul\":10738:10739   */\n      0x00\n        /* \"#utility.yul\":10731:10819   */\n      mstore\n        /* \"#utility.yul\":10838:10842   */\n      0x32\n        /* \"#utility.yul\":10835:10836   */\n      0x04\n        /* \"#utility.yul\":10828:10843   */\n      mstore\n        /* \"#utility.yul\":10862:10866   */\n      0x24\n        /* \"#utility.yul\":10859:10860   */\n      0x00\n        /* \"#utility.yul\":10852:10867   */\n      revert\n        /* \"#utility.yul\":10879:11059   */\n    tag_196:\n        /* \"#utility.yul\":10927:11004   */\n      0x4e487b7100000000000000000000000000000000000000000000000000000000\n        /* \"#utility.yul\":10924:10925   */\n      0x00\n        /* \"#utility.yul\":10917:11005   */\n      mstore\n        /* \"#utility.yul\":11024:11028   */\n      0x12\n        /* \"#utility.yul\":11021:11022   */\n      0x04\n        /* \"#utility.yul\":11014:11029   */\n      mstore\n        /* \"#utility.yul\":11048:11052   */\n      0x24\n        /* \"#utility.yul\":11045:11046   */\n      0x00\n        /* \"#utility.yul\":11038:11053   */\n      revert\n        /* \"#utility.yul\":11065:11250   */\n    tag_107:\n        /* \"#utility.yul\":11105:11106   */\n      0x00\n        /* \"#utility.yul\":11122:11142   */\n      tag_318\n        /* \"#utility.yul\":11140:11141   */\n      dup3\n        /* \"#utility.yul\":11122:11142   */\n      tag_161\n      jump\t// in\n    tag_318:\n        /* \"#utility.yul\":11117:11142   */\n      swap2\n      pop\n        /* \"#utility.yul\":11156:11176   */\n      tag_319\n        /* \"#utility.yul\":11174:11175   */\n      dup4\n        /* \"#utility.yul\":11156:11176   */\n      tag_161\n      jump\t// in\n    tag_319:\n        /* \"#utility.yul\":11151:11176   */\n      swap3\n      pop\n        /* \"#utility.yul\":11195:11196   */\n      dup3\n        /* \"#utility.yul\":11185:11220   */\n      tag_320\n      jumpi\n        /* \"#utility.yul\":11200:11218   */\n      tag_321\n      tag_196\n      jump\t// in\n    tag_321:\n        /* \"#utility.yul\":11185:11220   */\n    tag_320:\n        /* \"#utility.yul\":11242:11243   */\n      dup3\n        /* \"#utility.yul\":11239:11240   */\n      dup3\n        /* \"#utility.yul\":11235:11244   */\n      div\n        /* \"#utility.yul\":11230:11244   */\n      swap1\n      pop\n        /* \"#utility.yul\":11065:11250   */\n      swap3\n      swap2\n      pop\n      pop\n      jump\t// out\n        /* \"#utility.yul\":11256:11436   */\n    tag_197:\n        /* \"#utility.yul\":11304:11381   */\n      0x4e487b7100000000000000000000000000000000000000000000000000000000\n        /* \"#utility.yul\":11301:11302   */\n      0x00\n        /* \"#utility.yul\":11294:11382   */\n      mstore\n        /* \"#utility.yul\":11401:11405   */\n      0x22\n        /* \"#utility.yul\":11398:11399   */\n      0x04\n        /* \"#utility.yul\":11391:11406   */\n      mstore\n        /* \"#utility.yul\":11425:11429   */\n      0x24\n        /* \"#utility.yul\":11422:11423   */\n      0x00\n        /* \"#utility.yul\":11415:11430   */\n      revert\n        /* \"#utility.yul\":11442:11762   */\n    tag_145:\n        /* \"#utility.yul\":11486:11492   */\n      0x00\n        /* \"#utility.yul\":11523:11524   */\n      0x02\n        /* \"#utility.yul\":11517:11521   */\n      dup3\n        /* \"#utility.yul\":11513:11525   */\n      div\n        /* \"#utility.yul\":11503:11525   */\n      swap1\n      pop\n        /* \"#utility.yul\":11570:11571   */\n      0x01\n        /* \"#utility.yul\":11564:11568   */\n      dup3\n        /* \"#utility.yul\":11560:11572   */\n      and\n        /* \"#utility.yul\":11591:11609   */\n      dup1\n        /* \"#utility.yul\":11581:11662   */\n      tag_324\n      jumpi\n        /* \"#utility.yul\":11647:11651   */\n      0x7f\n        /* \"#utility.yul\":11639:11645   */\n      dup3\n        /* \"#utility.yul\":11635:11652   */\n      and\n        /* \"#utility.yul\":11625:11652   */\n      swap2\n      pop\n        /* \"#utility.yul\":11581:11662   */\n    tag_324:\n        /* \"#utility.yul\":11709:11711   */\n      0x20\n        /* \"#utility.yul\":11701:11707   */\n      dup3\n        /* \"#utility.yul\":11698:11712   */\n      lt\n        /* \"#utility.yul\":11678:11696   */\n      dup2\n        /* \"#utility.yul\":11675:11713   */\n      sub\n        /* \"#utility.yul\":11672:11756   */\n      tag_325\n      jumpi\n        /* \"#utility.yul\":11728:11746   */\n      tag_326\n      tag_197\n      jump\t// in\n    tag_326:\n        /* \"#utility.yul\":11672:11756   */\n    tag_325:\n        /* \"#utility.yul\":11493:11762   */\n      pop\n        /* \"#utility.yul\":11442:11762   */\n      swap2\n      swap1\n      pop\n      jump\t// out\n        /* \"#utility.yul\":11768:11909   */\n    tag_198:\n        /* \"#utility.yul\":11817:11821   */\n      0x00\n        /* \"#utility.yul\":11840:11843   */\n      dup2\n        /* \"#utility.yul\":11832:11843   */\n      swap1\n      pop\n        /* \"#utility.yul\":11863:11866   */\n      dup2\n        /* \"#utility.yul\":11860:11861   */\n      0x00\n        /* \"#utility.yul\":11853:11867   */\n      mstore\n        /* \"#utility.yul\":11897:11901   */\n      0x20\n        /* \"#utility.yul\":11894:11895   */\n      0x00\n        /* \"#utility.yul\":11884:11902   */\n      keccak256\n        /* \"#utility.yul\":11876:11902   */\n      swap1\n      pop\n        /* \"#utility.yul\":11768:11909   */\n      swap2\n      swap1\n      pop\n      jump\t// out\n        /* \"#utility.yul\":11915:12008   */\n    tag_199:\n        /* \"#utility.yul\":11952:11958   */\n      0x00\n        /* \"#utility.yul\":11999:12001   */\n      0x20\n        /* \"#utility.yul\":11994:11996   */\n      0x1f\n        /* \"#utility.yul\":11987:11992   */\n      dup4\n        /* \"#utility.yul\":11983:11997   */\n      add\n        /* \"#utility.yul\":11979:12002   */\n      div\n        /* \"#utility.yul\":11969:12002   */\n      swap1\n      pop\n        /* \"#utility.yul\":11915:12008   */\n      swap2\n      swap1\n      pop\n      jump\t// out\n        /* \"#utility.yul\":12014:12121   */\n    tag_200:\n        /* \"#utility.yul\":12058:12066   */\n      0x00\n        /* \"#utility.yul\":12108:12113   */\n      dup3\n        /* \"#utility.yul\":12102:12106   */\n      dup3\n        /* \"#utility.yul\":12098:12114   */\n      shl\n        /* \"#utility.yul\":12077:12114   */\n      swap1\n      pop\n        /* \"#utility.yul\":12014:12121   */\n      swap3\n      swap2\n      pop\n      pop\n      jump\t// out\n        /* \"#utility.yul\":12127:12520   */\n    tag_201:\n        /* \"#utility.yul\":12196:12202   */\n      0x00\n        /* \"#utility.yul\":12246:12247   */\n      0x08\n        /* \"#utility.yul\":12234:12244   */\n      dup4\n        /* \"#utility.yul\":12230:12248   */\n      mul\n        /* \"#utility.yul\":12269:12366   */\n      tag_331\n        /* \"#utility.yul\":12299:12365   */\n      0xffffffffffffffffffffffffffffffffffffffffffffffffffffffffffffffff\n        /* \"#utility.yul\":12288:12297   */\n      dup3\n        /* \"#utility.yul\":12269:12366   */\n      tag_200\n      jump\t// in\n    tag_331:\n        /* \"#utility.yul\":12387:12426   */\n      tag_332\n        /* \"#utility.yul\":12417:12425   */\n      dup7\n        /* \"#utility.yul\":12406:12415   */\n      dup4\n        /* \"#utility.yul\":12387:12426   */\n      tag_200\n      jump\t// in\n    tag_332:\n        /* \"#utility.yul\":12375:12426   */\n      swap6\n      pop\n        /* \"#utility.yul\":12459:12463   */\n      dup1\n        /* \"#utility.yul\":12455:12464   */\n      not\n        /* \"#utility.yul\":12448:12453   */\n      dup5\n        /* \"#utility.yul\":12444:12465   */\n      and\n        /* \"#utility.yul\":12435:12465   */\n      swap4\n      pop\n        /* \"#utility.yul\":12508:12512   */\n      dup1\n        /* \"#utility.yul\":12498:12506   */\n      dup7\n        /* \"#utility.yul\":12494:12513   */\n      and\n        /* \"#utility.yul\":12487:12492   */\n      dup5\n        /* \"#utility.yul\":12484:12514   */\n      or\n        /* \"#utility.yul\":12474:12514   */\n      swap3\n      pop\n        /* \"#utility.yul\":12203:12520   */\n      pop\n      pop\n        /* \"#utility.yul\":12127:12520   */\n      swap4\n      swap3\n      pop\n      pop\n      pop\n      jump\t// out\n        /* \"#utility.yul\":12526:12586   */\n    tag_202:\n        /* \"#utility.yul\":12554:12557   */\n      0x00\n        /* \"#utility.yul\":12575:12580   */\n      dup2\n        /* \"#utility.yul\":12568:12580   */\n      swap1\n      pop\n        /* \"#utility.yul\":12526:12586   */\n      swap2\n      swap1\n      pop\n      jump\t// out\n        /* \"#utility.yul\":12592:12734   */\n    tag_203:\n        /* \"#utility.yul\":12642:12651   */\n      0x00\n        /* \"#utility.yul\":12675:12728   */\n      tag_335\n        /* \"#utility.yul\":12693:12727   */\n      tag_336\n        /* \"#utility.yul\":12702:12726   */\n      tag_337\n        /* \"#utility.yul\":12720:12725   */\n      dup5\n        /* \"#utility.yul\":12702:12726   */\n      tag_161\n      jump\t// in\n    tag_337:\n        /* \"#utility.yul\":12693:12727   */\n      tag_202\n      jump\t// in\n    tag_336:\n        /* \"#utility.yul\":12675:12728   */\n      tag_161\n      jump\t// in\n    tag_335:\n        /* \"#utility.yul\":12662:12728   */\n      swap1\n      pop\n        /* \"#utility.yul\":12592:12734   */\n      swap2\n      swap1\n      pop\n      jump\t// out\n        /* \"#utility.yul\":12740:12815   */\n    tag_204:\n        /* \"#utility.yul\":12783:12786   */\n      0x00\n        /* \"#utility.yul\":12804:12809   */\n      dup2\n        /* \"#utility.yul\":12797:12809   */\n      swap1\n      pop\n        /* \"#utility.yul\":12740:12815   */\n      swap2\n      swap1\n      pop\n      jump\t// out\n        /* \"#utility.yul\":12821:13090   */\n    tag_205:\n        /* \"#utility.yul\":12931:12970   */\n      tag_340\n        /* \"#utility.yul\":12962:12969   */\n      dup4\n        /* \"#utility.yul\":12931:12970   */\n      tag_203\n      jump\t// in\n    tag_340:\n        /* \"#utility.yul\":12992:13083   */\n      tag_341\n        /* \"#utility.yul\":13041:13082   */\n      tag_342\n        /* \"#utility.yul\":13065:13081   */\n      dup3\n        /* \"#utility.yul\":13041:13082   */\n      tag_204\n      jump\t// in\n    tag_342:\n        /* \"#utility.yul\":13033:13039   */\n      dup5\n        /* \"#utility.yul\":13026:13030   */\n      dup5\n        /* \"#utility.yul\":13020:13031   */\n      sload\n        /* \"#utility.yul\":12992:13083   */\n      tag_201\n      jump\t// in\n    tag_341:\n        /* \"#utility.yul\":12986:12990   */\n      dup3\n        /* \"#utility.yul\":12979:13084   */\n      sstore\n        /* \"#utility.yul\":12897:13090   */\n      pop\n        /* \"#utility.yul\":12821:13090   */\n      pop\n      pop\n      pop\n      jump\t// out\n        /* \"#utility.yul\":13096:13169   */\n    tag_206:\n        /* \"#utility.yul\":13141:13144   */\n      0x00\n        /* \"#utility.yul\":13162:13163   */\n      0x00\n        /* \"#utility.yul\":13155:13163   */\n      swap1\n      pop\n        /* \"#utility.yul\":13096:13169   */\n      swap1\n      jump\t// out\n        /* \"#utility.yul\":13175:13364   */\n    tag_207:\n        /* \"#utility.yul\":13252:13284   */\n      tag_345\n      tag_206\n      jump\t// in\n    tag_345:\n        /* \"#utility.yul\":13293:13358   */\n      tag_346\n        /* \"#utility.yul\":13351:13357   */\n      dup2\n        /* \"#utility.yul\":13343:13349   */\n      dup5\n        /* \"#utility.yul\":13337:13341   */\n      dup5\n        /* \"#utility.yul\":13293:13358   */\n      tag_205\n      jump\t// in\n    tag_346:\n        /* \"#utility.yul\":13228:13364   */\n      pop\n        /* \"#utility.yul\":13175:13364   */\n      pop\n      pop\n      jump\t// out\n        /* \"#utility.yul\":13370:13556   */\n    tag_208:\n        /* \"#utility.yul\":13430:13550   */\n    tag_348:\n        /* \"#utility.yul\":13447:13450   */\n      dup2\n        /* \"#utility.yul\":13440:13445   */\n      dup2\n        /* \"#utility.yul\":13437:13451   */\n      lt\n        /* \"#utility.yul\":13430:13550   */\n      iszero\n      tag_350\n      jumpi\n        /* \"#utility.yul\":13501:13540   */\n      tag_351\n        /* \"#utility.yul\":13538:13539   */\n      0x00\n        /* \"#utility.yul\":13531:13536   */\n      dup3\n        /* \"#utility.yul\":13501:13540   */\n      tag_207\n      jump\t// in\n    tag_351:\n        /* \"#utility.yul\":13474:13475   */\n      0x01\n        /* \"#utility.yul\":13467:13472   */\n      dup2\n        /* \"#utility.yul\":13463:13476   */\n      add\n        /* \"#utility.yul\":13454:13476   */\n      swap1\n      pop\n        /* \"#utility.yul\":13430:13550   */\n      jump(tag_348)\n    tag_350:\n        /* \"#utility.yul\":13370:13556   */\n      pop\n      pop\n      jump\t// out\n        /* \"#utility.yul\":13562:14105   */\n    tag_209:\n        /* \"#utility.yul\":13663:13665   */\n      0x1f\n        /* \"#utility.yul\":13658:13661   */\n      dup3\n        /* \"#utility.yul\":13655:13666   */\n      gt\n        /* \"#utility.yul\":13652:14098   */\n      iszero\n      tag_353\n      jumpi\n        /* \"#utility.yul\":13697:13735   */\n      tag_354\n        /* \"#utility.yul\":13729:13734   */\n      dup2\n        /* \"#utility.yul\":13697:13735   */\n      tag_198\n      jump\t// in\n    tag_354:\n        /* \"#utility.yul\":13781:13810   */\n      tag_355\n        /* \"#utility.yul\":13799:13809   */\n      dup5\n        /* \"#utility.yul\":13781:13810   */\n      tag_199\n      jump\t// in\n    tag_355:\n        /* \"#utility.yul\":13771:13779   */\n      dup2\n        /* \"#utility.yul\":13767:13811   */\n      add\n        /* \"#utility.yul\":13964:13966   */\n      0x20\n        /* \"#utility.yul\":13952:13962   */\n      dup6\n        /* \"#utility.yul\":13949:13967   */\n      lt\n        /* \"#utility.yul\":13946:13995   */\n      iszero\n      tag_356\n      jumpi\n        /* \"#utility.yul\":13985:13993   */\n      dup2\n        /* \"#utility.yul\":13970:13993   */\n      swap1\n      pop\n        /* \"#utility.yul\":13946:13995   */\n    tag_356:\n        /* \"#utility.yul\":14008:14088   */\n      tag_357\n        /* \"#utility.yul\":14064:14086   */\n      tag_358\n        /* \"#utility.yul\":14082:14085   */\n      dup6\n        /* \"#utility.yul\":14064:14086   */\n      tag_199\n      jump\t// in\n    tag_358:\n        /* \"#utility.yul\":14054:14062   */\n      dup4\n        /* \"#utility.yul\":14050:14087   */\n      add\n        /* \"#utility.yul\":14037:14048   */\n      dup3\n        /* \"#utility.yul\":14008:14088   */\n      tag_208\n      jump\t// in\n    tag_357:\n        /* \"#utility.yul\":13667:14098   */\n      pop\n      pop\n        /* \"#utility.yul\":13652:14098   */\n    tag_353:\n        /* \"#utility.yul\":13562:14105   */\n      pop\n      pop\n      pop\n      jump\t// out\n        /* \"#utility.yul\":14111:14228   */\n    tag_210:\n        /* \"#utility.yul\":14165:14173   */\n      0x00\n        /* \"#utility.yul\":14215:14220   */\n      dup3\n        /* \"#utility.yul\":14209:14213   */\n      dup3\n        /* \"#utility.yul\":14205:14221   */\n      shr\n        /* \"#utility.yul\":14184:14221   */\n      swap1\n      pop\n        /* \"#utility.yul\":14111:14228   */\n      swap3\n      swap2\n      pop\n      pop\n      jump\t// out\n        /* \"#utility.yul\":14234:14403   */\n    tag_211:\n        /* \"#utility.yul\":14278:14284   */\n      0x00\n        /* \"#utility.yul\":14311:14362   */\n      tag_361\n        /* \"#utility.yul\":14359:14360   */\n      0x00\n        /* \"#utility.yul\":14355:14361   */\n      not\n        /* \"#utility.yul\":14347:14352   */\n      dup5\n        /* \"#utility.yul\":14344:14345   */\n      0x08\n        /* \"#utility.yul\":14340:14353   */\n      mul\n        /* \"#utility.yul\":14311:14362   */\n      tag_210\n      jump\t// in\n    tag_361:\n        /* \"#utility.yul\":14307:14363   */\n      not\n        /* \"#utility.yul\":14392:14396   */\n      dup1\n        /* \"#utility.yul\":14386:14390   */\n      dup4\n        /* \"#utility.yul\":14382:14397   */\n      and\n        /* \"#utility.yul\":14372:14397   */\n      swap2\n      pop\n        /* \"#utility.yul\":14285:14403   */\n      pop\n        /* \"#utility.yul\":14234:14403   */\n      swap3\n      swap2\n      pop\n      pop\n      jump\t// out\n        /* \"#utility.yul\":14408:14703   */\n    tag_212:\n        /* \"#utility.yul\":14484:14488   */\n      0x00\n        /* \"#utility.yul\":14630:14659   */\n      tag_363\n        /* \"#utility.yul\":14655:14658   */\n      dup4\n        /* \"#utility.yul\":14649:14653   */\n      dup4\n        /* \"#utility.yul\":14630:14659   */\n      tag_211\n      jump\t// in\n    tag_363:\n        /* \"#utility.yul\":14622:14659   */\n      swap2\n      pop\n        /* \"#utility.yul\":14692:14695   */\n      dup3\n        /* \"#utility.yul\":14689:14690   */\n      0x02\n        /* \"#utility.yul\":14685:14696   */\n      mul\n        /* \"#utility.yul\":14679:14683   */\n      dup3\n        /* \"#utility.yul\":14676:14697   */\n      or\n        /* \"#utility.yul\":14668:14697   */\n      swap1\n      pop\n        /* \"#utility.yul\":14408:14703   */\n      swap3\n      swap2\n      pop\n      pop\n      jump\t// out\n        /* \"#utility.yul\":14708:16103   */\n    tag_118:\n        /* \"#utility.yul\":14825:14862   */\n      tag_365\n        /* \"#utility.yul\":14858:14861   */\n      dup3\n        /* \"#utility.yul\":14825:14862   */\n      tag_168\n      jump\t// in\n    tag_365:\n        /* \"#utility.yul\":14927:14945   */\n      0xffffffffffffffff\n        /* \"#utility.yul\":14919:14925   */\n      dup2\n        /* \"#utility.yul\":14916:14946   */\n      gt\n        /* \"#utility.yul\":14913:14969   */\n      iszero\n      tag_366\n      jumpi\n        /* \"#utility.yul\":14949:14967   */\n      tag_367\n      tag_175\n      jump\t// in\n    tag_367:\n        /* \"#utility.yul\":14913:14969   */\n    tag_366:\n        /* \"#utility.yul\":14993:15031   */\n      tag_368\n        /* \"#utility.yul\":15025:15029   */\n      dup3\n        /* \"#utility.yul\":15019:15030   */\n      sload\n        /* \"#utility.yul\":14993:15031   */\n      tag_145\n      jump\t// in\n    tag_368:\n        /* \"#utility.yul\":15078:15145   */\n      tag_369\n        /* \"#utility.yul\":15138:15144   */\n      dup3\n        /* \"#utility.yul\":15130:15136   */\n      dup3\n        /* \"#utility.yul\":15124:15128   */\n      dup6\n        /* \"#utility.yul\":15078:15145   */\n      tag_209\n      jump\t// in\n    tag_369:\n        /* \"#utility.yul\":15172:15173   */\n      0x00\n        /* \"#utility.yul\":15196:15200   */\n      0x20\n        /* \"#utility.yul\":15183:15200   */\n      swap1\n      pop\n        /* \"#utility.yul\":15228:15230   */\n      0x1f\n        /* \"#utility.yul\":15220:15226   */\n      dup4\n        /* \"#utility.yul\":15217:15231   */\n      gt\n        /* \"#utility.yul\":15245:15246   */\n      0x01\n        /* \"#utility.yul\":15240:15858   */\n      dup2\n      eq\n      tag_371\n      jumpi\n        /* \"#utility.yul\":15902:15903   */\n      0x00\n        /* \"#utility.yul\":15919:15925   */\n      dup5\n        /* \"#utility.yul\":15916:15993   */\n      iszero\n      tag_372\n      jumpi\n        /* \"#utility.yul\":15968:15977   */\n      dup3\n        /* \"#utility.yul\":15963:15966   */\n      dup8\n        /* \"#utility.yul\":15959:15978   */\n      add\n        /* \"#utility.yul\":15953:15979   */\n      mload\n        /* \"#utility.yul\":15944:15979   */\n      swap1\n      pop\n        /* \"#utility.yul\":15916:15993   */\n    tag_372:\n        /* \"#utility.yul\":16019:16086   */\n      tag_373\n        /* \"#utility.yul\":16079:16085   */\n      dup6\n        /* \"#utility.yul\":16072:16077   */\n      dup3\n        /* \"#utility.yul\":16019:16086   */\n      tag_212\n      jump\t// in\n    tag_373:\n        /* \"#utility.yul\":16013:16017   */\n      dup7\n        /* \"#utility.yul\":16006:16087   */\n      sstore\n        /* \"#utility.yul\":15875:16097   */\n      pop\n        /* \"#utility.yul\":15210:16097   */\n      jump(tag_370)\n        /* \"#utility.yul\":15240:15858   */\n    tag_371:\n        /* \"#utility.yul\":15292:15296   */\n      0x1f\n        /* \"#utility.yul\":15288:15297   */\n      not\n        /* \"#utility.yul\":15280:15286   */\n      dup5\n        /* \"#utility.yul\":15276:15298   */\n      and\n        /* \"#utility.yul\":15326:15363   */\n      tag_374\n        /* \"#utility.yul\":15358:15362   */\n      dup7\n        /* \"#utility.yul\":15326:15363   */\n      tag_198\n      jump\t// in\n    tag_374:\n        /* \"#utility.yul\":15385:15386   */\n      0x00\n        /* \"#utility.yul\":15399:15607   */\n    tag_375:\n        /* \"#utility.yul\":15413:15420   */\n      dup3\n        /* \"#utility.yul\":15410:15411   */\n      dup2\n        /* \"#utility.yul\":15407:15421   */\n      lt\n        /* \"#utility.yul\":15399:15607   */\n      iszero\n      tag_377\n      jumpi\n        /* \"#utility.yul\":15492:15501   */\n      dup5\n        /* \"#utility.yul\":15487:15490   */\n      dup10\n        /* \"#utility.yul\":15483:15502   */\n      add\n        /* \"#utility.yul\":15477:15503   */\n      mload\n        /* \"#utility.yul\":15469:15475   */\n      dup3\n        /* \"#utility.yul\":15462:15504   */\n      sstore\n        /* \"#utility.yul\":15543:15544   */\n      0x01\n        /* \"#utility.yul\":15535:15541   */\n      dup3\n        /* \"#utility.yul\":15531:15545   */\n      add\n        /* \"#utility.yul\":15521:15545   */\n      swap2\n      pop\n        /* \"#utility.yul\":15590:15592   */\n      0x20\n        /* \"#utility.yul\":15579:15588   */\n      dup6\n        /* \"#utility.yul\":15575:15593   */\n      add\n        /* \"#utility.yul\":15562:15593   */\n      swap5\n      pop\n        /* \"#utility.yul\":15436:15440   */\n      0x20\n        /* \"#utility.yul\":15433:15434   */\n      dup2\n        /* \"#utility.yul\":15429:15441   */\n      add\n        /* \"#utility.yul\":15424:15441   */\n      swap1\n      pop\n        /* \"#utility.yul\":15399:15607   */\n      jump(tag_375)\n    tag_377:\n        /* \"#utility.yul\":15635:15641   */\n      dup7\n        /* \"#utility.yul\":15626:15633   */\n      dup4\n        /* \"#utility.yul\":15623:15642   */\n      lt\n        /* \"#utility.yul\":15620:15799   */\n      iszero\n      tag_378\n      jumpi\n        /* \"#utility.yul\":15693:15702   */\n      dup5\n        /* \"#utility.yul\":15688:15691   */\n      dup10\n        /* \"#utility.yul\":15684:15703   */\n      add\n        /* \"#utility.yul\":15678:15704   */\n      mload\n        /* \"#utility.yul\":15736:15784   */\n      tag_379\n        /* \"#utility.yul\":15778:15782   */\n      0x1f\n        /* \"#utility.yul\":15770:15776   */\n      dup10\n        /* \"#utility.yul\":15766:15783   */\n      and\n        /* \"#utility.yul\":15755:15764   */\n      dup3\n        /* \"#utility.yul\":15736:15784   */\n      tag_211\n      jump\t// in\n    tag_379:\n        /* \"#utility.yul\":15728:15734   */\n      dup4\n        /* \"#utility.yul\":15721:15785   */\n      sstore\n        /* \"#utility.yul\":15643:15799   */\n      pop\n        /* \"#utility.yul\":15620:15799   */\n    tag_378:\n        /* \"#utility.yul\":15845:15846   */\n      0x01\n        /* \"#utility.yul\":15841:15842   */\n      0x02\n        /* \"#utility.yul\":15833:15839   */\n      dup9\n        /* \"#utility.yul\":15829:15843   */\n      mul\n        /* \"#utility.yul\":15825:15847   */\n      add\n        /* \"#utility.yul\":15819:15823   */\n      dup9\n        /* \"#utility.yul\":15812:15848   */\n      sstore\n        /* \"#utility.yul\":15247:15858   */\n      pop\n      pop\n      pop\n        /* \"#utility.yul\":15210:16097   */\n    tag_370:\n      pop\n        /* \"#utility.yul\":14800:16103   */\n      pop\n      pop\n      pop\n        /* \"#utility.yul\":14708:16103   */\n      pop\n      pop\n      jump\t// out\n        /* \"#utility.yul\":16109:16300   */\n    tag_138:\n        /* \"#utility.yul\":16149:16152   */\n      0x00\n        /* \"#utility.yul\":16168:16188   */\n      tag_381\n        /* \"#utility.yul\":16186:16187   */\n      dup3\n        /* \"#utility.yul\":16168:16188   */\n      tag_161\n      jump\t// in\n    tag_381:\n        /* \"#utility.yul\":16163:16188   */\n      swap2\n      pop\n        /* \"#utility.yul\":16202:16222   */\n      tag_382\n        /* \"#utility.yul\":16220:16221   */\n      dup4\n        /* \"#utility.yul\":16202:16222   */\n      tag_161\n      jump\t// in\n    tag_382:\n        /* \"#utility.yul\":16197:16222   */\n      swap3\n      pop\n        /* \"#utility.yul\":16245:16246   */\n      dup3\n        /* \"#utility.yul\":16242:16243   */\n      dup3\n        /* \"#utility.yul\":16238:16247   */\n      add\n        /* \"#utility.yul\":16231:16247   */\n      swap1\n      pop\n        /* \"#utility.yul\":16266:16269   */\n      dup1\n        /* \"#utility.yul\":16263:16264   */\n      dup3\n        /* \"#utility.yul\":16260:16270   */\n      gt\n        /* \"#utility.yul\":16257:16293   */\n      iszero\n      tag_383\n      jumpi\n        /* \"#utility.yul\":16273:16291   */\n      tag_384\n      tag_193\n      jump\t// in\n    tag_384:\n        /* \"#utility.yul\":16257:16293   */\n    tag_383:\n        /* \"#utility.yul\":16109:16300   */\n      swap3\n      swap2\n      pop\n      pop\n      jump\t// out\n        /* \"#utility.yul\":16306:16500   */\n    tag_158:\n        /* \"#utility.yul\":16346:16350   */\n      0x00\n        /* \"#utility.yul\":16366:16386   */\n      tag_386\n        /* \"#utility.yul\":16384:16385   */\n      dup3\n        /* \"#utility.yul\":16366:16386   */\n      tag_161\n      jump\t// in\n    tag_386:\n        /* \"#utility.yul\":16361:16386   */\n      swap2\n      pop\n        /* \"#utility.yul\":16400:16420   */\n      tag_387\n        /* \"#utility.yul\":16418:16419   */\n      dup4\n        /* \"#utility.yul\":16400:16420   */\n      tag_161\n      jump\t// in\n    tag_387:\n        /* \"#utility.yul\":16395:16420   */\n      swap3\n      pop\n        /* \"#utility.yul\":16444:16445   */\n      dup3\n        /* \"#utility.yul\":16441:16442   */\n      dup3\n        /* \"#utility.yul\":16437:16446   */\n      sub\n        /* \"#utility.yul\":16429:16446   */\n      swap1\n      pop\n        /* \"#utility.yul\":16468:16469   */\n      dup2\n        /* \"#utility.yul\":16462:16466   */\n      dup2\n        /* \"#utility.yul\":16459:16470   */\n      gt\n        /* \"#utility.yul\":16456:16493   */\n      iszero\n      tag_388\n      jumpi\n        /* \"#utility.yul\":16473:16491   */\n      tag_389\n      tag_193\n      jump\t// in\n    tag_389:\n        /* \"#utility.yul\":16456:16493   */\n    tag_388:\n        /* \"#utility.yul\":16306:16500   */\n      swap3\n      swap2\n      pop\n      pop\n      jump\t// out\n\n    auxdata: 0xa2646970667358221220e4e6405653e0a2c305828f4c77dfdb87da3c3e44b7e339985af507de96c0cc4064736f6c634300081e0033\n}\n",
				"bytecode": {
					"linkReferences": {},
					"object": "6080604052348015600e575f5ffd5b506114628061001c5f395ff3fe608060405234801561000f575f5ffd5b5060043610610114575f3560e01c80639daaf83a116100a0578063bed948c51161006f578063bed948c514610290578063c33926cb146102ac578063d62ff3a4146102ca578063e3ec0251146102e8578063ec5971281461030657610114565b80639daaf83a1461021c5780639f17c8921461023a578063a59e0d5414610256578063bde9e40e1461027257610114565b8063266de1e0116100e7578063266de1e01461018a5780633205f5fc146101a857806348a9066d146101c65780637f109886146101e257806395ffebf51461020057610114565b8063011285da1461011857806312a09447146101365780631981bfa01461015257806320fe21441461016e575b5f5ffd5b610120610324565b60405161012d9190610ba1565b60405180910390f35b610150600480360381019061014b9190610bf5565b610339565b005b61016c60048036038101906101679190610bf5565b610343565b005b61018860048036038101906101839190610bf5565b61034d565b005b610192610448565b60405161019f9190610c90565b60405180910390f35b6101b061057d565b6040516101bd9190610ba1565b60405180910390f35b6101e060048036038101906101db9190610bf5565b610592565b005b6101ea61059b565b6040516101f79190610c90565b60405180910390f35b61021a60048036038101906102159190610ddc565b610678565b005b61022461072a565b6040516102319190610c90565b60405180910390f35b610254600480360381019061024f9190610bf5565b61090f565b005b610270600480360381019061026b9190610bf5565b610919565b005b61027a610923565b6040516102879190610ba1565b60405180910390f35b6102aa60048036038101906102a59190610bf5565b610938565b005b6102b4610942565b6040516102c19190610f7a565b60405180910390f35b6102d2610a82565b6040516102df9190610c90565b60405180910390f35b6102f0610b5f565b6040516102fd9190610ba1565b60405180910390f35b61030e610b74565b60405161031b9190610ba1565b60405180910390f35b5f6001545f546103349190610fc7565b905090565b8060048190555050565b8060058190555050565b60065f3373ffffffffffffffffffffffffffffffffffffffff1673ffffffffffffffffffffffffffffffffffffffff1681526020019081526020015f208054905081106103cf576040517f08c379a00000000000000000000000000000000000000000000000000000000081526004016103c690611052565b60405180910390fd5b600160065f3373ffffffffffffffffffffffffffffffffffffffff1673ffffffffffffffffffffffffffffffffffffffff1681526020019081526020015f2082815481106104205761041f611070565b5b905f5260205f2090600202016001015f6101000a81548160ff02191690831515021790555050565b6060600c60035411610491576040518060400160405280600c81526020017f476f6f64204d6f726e696e670000000000000000000000000000000000000000815250905061057a565b600c600354101580156104a75750601060035411155b156104e9576040518060400160405280600e81526020017f476f6f642041667465726e6f6f6e000000000000000000000000000000000000815250905061057a565b6010600354101580156104ff5750601460035411155b15610541576040518060400160405280600c81526020017f476f6f64204576656e696e670000000000000000000000000000000000000000815250905061057a565b6040518060400160405280600a81526020017f476f6f64204e696768740000000000000000000000000000000000000000000081525090505b90565b5f6001545f5461058d91906110ca565b905090565b805f8190555050565b6060600f600454116105e4576040518060400160405280600481526020017f636f6c64000000000000000000000000000000000000000000000000000000008152509050610675565b600f600454101580156105fa5750601960045411155b1561063c576040518060400160405280600681526020017f6e6f726d616c00000000000000000000000000000000000000000000000000008152509050610675565b6040518060400160405280600381526020017f686f74000000000000000000000000000000000000000000000000000000000081525090505b90565b60065f3373ffffffffffffffffffffffffffffffffffffffff1673ffffffffffffffffffffffffffffffffffffffff1681526020019081526020015f2060405180604001604052808381526020015f1515815250908060018154018082558091505060019003905f5260205f2090600202015f909190919091505f820151815f01908161070591906112f7565b506020820151816001015f6101000a81548160ff021916908315150217905550505050565b6060600860055411610773576040518060400160405280600f81526020017f6c6561726e2074696c6c203130616d0000000000000000000000000000000000815250905061090c565b600a600554101580156107895750600c60055411155b156107cb576040518060400160405280600d81526020017f676f206e2067657420666f6f6400000000000000000000000000000000000000815250905061090c565b600c600554101580156107e15750600e60055411155b15610823576040518060400160405280600d81526020017f70726f6261626c79207265616400000000000000000000000000000000000000815250905061090c565b600e600554101580156108395750601260055411155b1561087b576040518060400160405280600581526020017f736c656570000000000000000000000000000000000000000000000000000000815250905061090c565b6013600554101580156108915750601460055411155b156108d3576040518060400160405280600781526020017f6879647261746500000000000000000000000000000000000000000000000000815250905061090c565b6040518060400160405280600b81526020017f736c65657020616761696e00000000000000000000000000000000000000000081525090505b90565b8060018190555050565b8060028190555050565b5f6001545f5461093391906113c6565b905090565b8060038190555050565b606060065f3373ffffffffffffffffffffffffffffffffffffffff1673ffffffffffffffffffffffffffffffffffffffff1681526020019081526020015f20805480602002602001604051908101604052809291908181526020015f905b82821015610a79578382905f5260205f2090600202016040518060400160405290815f820180546109d090611127565b80601f01602080910402602001604051908101604052809291908181526020018280546109fc90611127565b8015610a475780601f10610a1e57610100808354040283529160200191610a47565b820191905f5260205f20905b815481529060010190602001808311610a2a57829003601f168201915b50505050508152602001600182015f9054906101000a900460ff161515151581525050815260200190600101906109a0565b50505050905090565b6060600f60025411610acb576040518060400160405280601881526020017f736f727279206465617220796f752063616e7420766f746500000000000000008152509050610b5c565b601060025410158015610ae15750601160025411155b15610b23576040518060400160405280601c81526020017f7665727920736f6f6e20796f752061726520676f6e6e6120766f7465000000008152509050610b5c565b6040518060400160405280601881526020017f596f752061726520656c696769626c6520746f20766f7465000000000000000081525090505b90565b5f6001545f54610b6f91906113f9565b905090565b5f6001545f54610b8491906113c6565b905090565b5f819050919050565b610b9b81610b89565b82525050565b5f602082019050610bb45f830184610b92565b92915050565b5f604051905090565b5f5ffd5b5f5ffd5b610bd481610b89565b8114610bde575f5ffd5b50565b5f81359050610bef81610bcb565b92915050565b5f60208284031215610c0a57610c09610bc3565b5b5f610c1784828501610be1565b91505092915050565b5f81519050919050565b5f82825260208201905092915050565b8281835e5f83830152505050565b5f601f19601f8301169050919050565b5f610c6282610c20565b610c6c8185610c2a565b9350610c7c818560208601610c3a565b610c8581610c48565b840191505092915050565b5f6020820190508181035f830152610ca88184610c58565b905092915050565b5f5ffd5b5f5ffd5b7f4e487b71000000000000000000000000000000000000000000000000000000005f52604160045260245ffd5b610cee82610c48565b810181811067ffffffffffffffff82111715610d0d57610d0c610cb8565b5b80604052505050565b5f610d1f610bba565b9050610d2b8282610ce5565b919050565b5f67ffffffffffffffff821115610d4a57610d49610cb8565b5b610d5382610c48565b9050602081019050919050565b828183375f83830152505050565b5f610d80610d7b84610d30565b610d16565b905082815260208101848484011115610d9c57610d9b610cb4565b5b610da7848285610d60565b509392505050565b5f82601f830112610dc357610dc2610cb0565b5b8135610dd3848260208601610d6e565b91505092915050565b5f60208284031215610df157610df0610bc3565b5b5f82013567ffffffffffffffff811115610e0e57610e0d610bc7565b5b610e1a84828501610daf565b91505092915050565b5f81519050919050565b5f82825260208201905092915050565b5f819050602082019050919050565b5f82825260208201905092915050565b5f610e6682610c20565b610e708185610e4c565b9350610e80818560208601610c3a565b610e8981610c48565b840191505092915050565b5f8115159050919050565b610ea881610e94565b82525050565b5f604083015f8301518482035f860152610ec88282610e5c565b9150506020830151610edd6020860182610e9f565b508091505092915050565b5f610ef38383610eae565b905092915050565b5f602082019050919050565b5f610f1182610e23565b610f1b8185610e2d565b935083602082028501610f2d85610e3d565b805f5b85811015610f685784840389528151610f498582610ee8565b9450610f5483610efb565b925060208a01995050600181019050610f30565b50829750879550505050505092915050565b5f6020820190508181035f830152610f928184610f07565b905092915050565b7f4e487b71000000000000000000000000000000000000000000000000000000005f52601160045260245ffd5b5f610fd182610b89565b9150610fdc83610b89565b9250828202610fea81610b89565b9150828204841483151761100157611000610f9a565b5b5092915050565b7f496e76616c696420696e646578000000000000000000000000000000000000005f82015250565b5f61103c600d83610c2a565b915061104782611008565b602082019050919050565b5f6020820190508181035f83015261106981611030565b9050919050565b7f4e487b71000000000000000000000000000000000000000000000000000000005f52603260045260245ffd5b7f4e487b71000000000000000000000000000000000000000000000000000000005f52601260045260245ffd5b5f6110d482610b89565b91506110df83610b89565b9250826110ef576110ee61109d565b5b828204905092915050565b7f4e487b71000000000000000000000000000000000000000000000000000000005f52602260045260245ffd5b5f600282049050600182168061113e57607f821691505b602082108103611151576111506110fa565b5b50919050565b5f819050815f5260205f209050919050565b5f6020601f8301049050919050565b5f82821b905092915050565b5f600883026111b37fffffffffffffffffffffffffffffffffffffffffffffffffffffffffffffffff82611178565b6111bd8683611178565b95508019841693508086168417925050509392505050565b5f819050919050565b5f6111f86111f36111ee84610b89565b6111d5565b610b89565b9050919050565b5f819050919050565b611211836111de565b61122561121d826111ff565b848454611184565b825550505050565b5f5f905090565b61123c61122d565b611247818484611208565b505050565b5b8181101561126a5761125f5f82611234565b60018101905061124d565b5050565b601f8211156112af5761128081611157565b61128984611169565b81016020851015611298578190505b6112ac6112a485611169565b83018261124c565b50505b505050565b5f82821c905092915050565b5f6112cf5f19846008026112b4565b1980831691505092915050565b5f6112e783836112c0565b9150826002028217905092915050565b61130082610c20565b67ffffffffffffffff81111561131957611318610cb8565b5b6113238254611127565b61132e82828561126e565b5f60209050601f83116001811461135f575f841561134d578287015190505b61135785826112dc565b8655506113be565b601f19841661136d86611157565b5f5b828110156113945784890151825560018201915060208501945060208101905061136f565b868310156113b157848901516113ad601f8916826112c0565b8355505b6001600288020188555050505b505050505050565b5f6113d082610b89565b91506113db83610b89565b92508282019050808211156113f3576113f2610f9a565b5b92915050565b5f61140382610b89565b915061140e83610b89565b925082820390508181111561142657611425610f9a565b5b9291505056fea2646970667358221220e4e6405653e0a2c305828f4c77dfdb87da3c3e44b7e339985af507de96c0cc4064736f6c634300081e0033",
					"opcodes": "PUSH1 0x80 PUSH1 0x40 MSTORE CALLVALUE DUP1 ISZERO PUSH1 0xE JUMPI PUSH0 PUSH0 REVERT JUMPDEST POP PUSH2 0x1462 DUP1 PUSH2 0x1C PUSH0 CODECOPY PUSH0 RETURN INVALID PUSH1 0x80 PUSH1 0x40 MSTORE CALLVALUE DUP1 ISZERO PUSH2 0xF JUMPI PUSH0 PUSH0 REVERT JUMPDEST POP PUSH1 0x4 CALLDATASIZE LT PUSH2 0x114 JUMPI PUSH0 CALLDATALOAD PUSH1 0xE0 SHR DUP1 PUSH4 0x9DAAF83A GT PUSH2 0xA0 JUMPI DUP1 PUSH4 0xBED948C5 GT PUSH2 0x6F JUMPI DUP1 PUSH4 0xBED948C5 EQ PUSH2 0x290 JUMPI DUP1 PUSH4 0xC33926CB EQ PUSH2 0x2AC JUMPI DUP1 PUSH4 0xD62FF3A4 EQ PUSH2 0x2CA JUMPI DUP1 PUSH4 0xE3EC0251 EQ PUSH2 0x2E8 JUMPI DUP1 PUSH4 0xEC597128 EQ PUSH2 0x306 JUMPI PUSH2 0x114 JUMP JUMPDEST DUP1 PUSH4 0x9DAAF83A EQ PUSH2 0x21C JUMPI DUP1 PUSH4 0x9F17C892 EQ PUSH2 0x23A JUMPI DUP1 PUSH4 0xA59E0D54 EQ PUSH2 0x256 JUMPI DUP1 PUSH4 0xBDE9E40E EQ PUSH2 0x272 JUMPI PUSH2 0x114 JUMP JUMPDEST DUP1 PUSH4 0x266DE1E0 GT PUSH2 0xE7 JUMPI DUP1 PUSH4 0x266DE1E0 EQ PUSH2 0x18A JUMPI DUP1 PUSH4 0x3205F5FC EQ PUSH2 0x1A8 JUMPI DUP1 PUSH4 0x48A9066D EQ PUSH2 0x1C6 JUMPI DUP1 PUSH4 0x7F109886 EQ PUSH2 0x1E2 JUMPI DUP1 PUSH4 0x95FFEBF5 EQ PUSH2 0x200 JUMPI PUSH2 0x114 JUMP JUMPDEST DUP1 PUSH4 0x11285DA EQ PUSH2 0x118 JUMPI DUP1 PUSH4 0x12A09447 EQ PUSH2 0x136 JUMPI DUP1 PUSH4 0x1981BFA0 EQ PUSH2 0x152 JUMPI DUP1 PUSH4 0x20FE2144 EQ PUSH2 0x16E JUMPI JUMPDEST PUSH0 PUSH0 REVERT JUMPDEST PUSH2 0x120 PUSH2 0x324 JUMP JUMPDEST PUSH1 0x40 MLOAD PUSH2 0x12D SWAP2 SWAP1 PUSH2 0xBA1 JUMP JUMPDEST PUSH1 0x40 MLOAD DUP1 SWAP2 SUB SWAP1 RETURN JUMPDEST PUSH2 0x150 PUSH1 0x4 DUP1 CALLDATASIZE SUB DUP2 ADD SWAP1 PUSH2 0x14B SWAP2 SWAP1 PUSH2 0xBF5 JUMP JUMPDEST PUSH2 0x339 JUMP JUMPDEST STOP JUMPDEST PUSH2 0x16C PUSH1 0x4 DUP1 CALLDATASIZE SUB DUP2 ADD SWAP1 PUSH2 0x167 SWAP2 SWAP1 PUSH2 0xBF5 JUMP JUMPDEST PUSH2 0x343 JUMP JUMPDEST STOP JUMPDEST PUSH2 0x188 PUSH1 0x4 DUP1 CALLDATASIZE SUB DUP2 ADD SWAP1 PUSH2 0x183 SWAP2 SWAP1 PUSH2 0xBF5 JUMP JUMPDEST PUSH2 0x34D JUMP JUMPDEST STOP JUMPDEST PUSH2 0x192 PUSH2 0x448 JUMP JUMPDEST PUSH1 0x40 MLOAD PUSH2 0x19F SWAP2 SWAP1 PUSH2 0xC90 JUMP JUMPDEST PUSH1 0x40 MLOAD DUP1 SWAP2 SUB SWAP1 RETURN JUMPDEST PUSH2 0x1B0 PUSH2 0x57D JUMP JUMPDEST PUSH1 0x40 MLOAD PUSH2 0x1BD SWAP2 SWAP1 PUSH2 0xBA1 JUMP JUMPDEST PUSH1 0x40 MLOAD DUP1 SWAP2 SUB SWAP1 RETURN JUMPDEST PUSH2 0x1E0 PUSH1 0x4 DUP1 CALLDATASIZE SUB DUP2 ADD SWAP1 PUSH2 0x1DB SWAP2 SWAP1 PUSH2 0xBF5 JUMP JUMPDEST PUSH2 0x592 JUMP JUMPDEST STOP JUMPDEST PUSH2 0x1EA PUSH2 0x59B JUMP JUMPDEST PUSH1 0x40 MLOAD PUSH2 0x1F7 SWAP2 SWAP1 PUSH2 0xC90 JUMP JUMPDEST PUSH1 0x40 MLOAD DUP1 SWAP2 SUB SWAP1 RETURN JUMPDEST PUSH2 0x21A PUSH1 0x4 DUP1 CALLDATASIZE SUB DUP2 ADD SWAP1 PUSH2 0x215 SWAP2 SWAP1 PUSH2 0xDDC JUMP JUMPDEST PUSH2 0x678 JUMP JUMPDEST STOP JUMPDEST PUSH2 0x224 PUSH2 0x72A JUMP JUMPDEST PUSH1 0x40 MLOAD PUSH2 0x231 SWAP2 SWAP1 PUSH2 0xC90 JUMP JUMPDEST PUSH1 0x40 MLOAD DUP1 SWAP2 SUB SWAP1 RETURN JUMPDEST PUSH2 0x254 PUSH1 0x4 DUP1 CALLDATASIZE SUB DUP2 ADD SWAP1 PUSH2 0x24F SWAP2 SWAP1 PUSH2 0xBF5 JUMP JUMPDEST PUSH2 0x90F JUMP JUMPDEST STOP JUMPDEST PUSH2 0x270 PUSH1 0x4 DUP1 CALLDATASIZE SUB DUP2 ADD SWAP1 PUSH2 0x26B SWAP2 SWAP1 PUSH2 0xBF5 JUMP JUMPDEST PUSH2 0x919 JUMP JUMPDEST STOP JUMPDEST PUSH2 0x27A PUSH2 0x923 JUMP JUMPDEST PUSH1 0x40 MLOAD PUSH2 0x287 SWAP2 SWAP1 PUSH2 0xBA1 JUMP JUMPDEST PUSH1 0x40 MLOAD DUP1 SWAP2 SUB SWAP1 RETURN JUMPDEST PUSH2 0x2AA PUSH1 0x4 DUP1 CALLDATASIZE SUB DUP2 ADD SWAP1 PUSH2 0x2A5 SWAP2 SWAP1 PUSH2 0xBF5 JUMP JUMPDEST PUSH2 0x938 JUMP JUMPDEST STOP JUMPDEST PUSH2 0x2B4 PUSH2 0x942 JUMP JUMPDEST PUSH1 0x40 MLOAD PUSH2 0x2C1 SWAP2 SWAP1 PUSH2 0xF7A JUMP JUMPDEST PUSH1 0x40 MLOAD DUP1 SWAP2 SUB SWAP1 RETURN JUMPDEST PUSH2 0x2D2 PUSH2 0xA82 JUMP JUMPDEST PUSH1 0x40 MLOAD PUSH2 0x2DF SWAP2 SWAP1 PUSH2 0xC90 JUMP JUMPDEST PUSH1 0x40 MLOAD DUP1 SWAP2 SUB SWAP1 RETURN JUMPDEST PUSH2 0x2F0 PUSH2 0xB5F JUMP JUMPDEST PUSH1 0x40 MLOAD PUSH2 0x2FD SWAP2 SWAP1 PUSH2 0xBA1 JUMP JUMPDEST PUSH1 0x40 MLOAD DUP1 SWAP2 SUB SWAP1 RETURN JUMPDEST PUSH2 0x30E PUSH2 0xB74 JUMP JUMPDEST PUSH1 0x40 MLOAD PUSH2 0x31B SWAP2 SWAP1 PUSH2 0xBA1 JUMP JUMPDEST PUSH1 0x40 MLOAD DUP1 SWAP2 SUB SWAP1 RETURN JUMPDEST PUSH0 PUSH1 0x1 SLOAD PUSH0 SLOAD PUSH2 0x334 SWAP2 SWAP1 PUSH2 0xFC7 JUMP JUMPDEST SWAP1 POP SWAP1 JUMP JUMPDEST DUP1 PUSH1 0x4 DUP2 SWAP1 SSTORE POP POP JUMP JUMPDEST DUP1 PUSH1 0x5 DUP2 SWAP1 SSTORE POP POP JUMP JUMPDEST PUSH1 0x6 PUSH0 CALLER PUSH20 0xFFFFFFFFFFFFFFFFFFFFFFFFFFFFFFFFFFFFFFFF AND PUSH20 0xFFFFFFFFFFFFFFFFFFFFFFFFFFFFFFFFFFFFFFFF AND DUP2 MSTORE PUSH1 0x20 ADD SWAP1 DUP2 MSTORE PUSH1 0x20 ADD PUSH0 KECCAK256 DUP1 SLOAD SWAP1 POP DUP2 LT PUSH2 0x3CF JUMPI PUSH1 0x40 MLOAD PUSH32 0x8C379A000000000000000000000000000000000000000000000000000000000 DUP2 MSTORE PUSH1 0x4 ADD PUSH2 0x3C6 SWAP1 PUSH2 0x1052 JUMP JUMPDEST PUSH1 0x40 MLOAD DUP1 SWAP2 SUB SWAP1 REVERT JUMPDEST PUSH1 0x1 PUSH1 0x6 PUSH0 CALLER PUSH20 0xFFFFFFFFFFFFFFFFFFFFFFFFFFFFFFFFFFFFFFFF AND PUSH20 0xFFFFFFFFFFFFFFFFFFFFFFFFFFFFFFFFFFFFFFFF AND DUP2 MSTORE PUSH1 0x20 ADD SWAP1 DUP2 MSTORE PUSH1 0x20 ADD PUSH0 KECCAK256 DUP3 DUP2 SLOAD DUP2 LT PUSH2 0x420 JUMPI PUSH2 0x41F PUSH2 0x1070 JUMP JUMPDEST JUMPDEST SWAP1 PUSH0 MSTORE PUSH1 0x20 PUSH0 KECCAK256 SWAP1 PUSH1 0x2 MUL ADD PUSH1 0x1 ADD PUSH0 PUSH2 0x100 EXP DUP2 SLOAD DUP2 PUSH1 0xFF MUL NOT AND SWAP1 DUP4 ISZERO ISZERO MUL OR SWAP1 SSTORE POP POP JUMP JUMPDEST PUSH1 0x60 PUSH1 0xC PUSH1 0x3 SLOAD GT PUSH2 0x491 JUMPI PUSH1 0x40 MLOAD DUP1 PUSH1 0x40 ADD PUSH1 0x40 MSTORE DUP1 PUSH1 0xC DUP2 MSTORE PUSH1 0x20 ADD PUSH32 0x476F6F64204D6F726E696E670000000000000000000000000000000000000000 DUP2 MSTORE POP SWAP1 POP PUSH2 0x57A JUMP JUMPDEST PUSH1 0xC PUSH1 0x3 SLOAD LT ISZERO DUP1 ISZERO PUSH2 0x4A7 JUMPI POP PUSH1 0x10 PUSH1 0x3 SLOAD GT ISZERO JUMPDEST ISZERO PUSH2 0x4E9 JUMPI PUSH1 0x40 MLOAD DUP1 PUSH1 0x40 ADD PUSH1 0x40 MSTORE DUP1 PUSH1 0xE DUP2 MSTORE PUSH1 0x20 ADD PUSH32 0x476F6F642041667465726E6F6F6E000000000000000000000000000000000000 DUP2 MSTORE POP SWAP1 POP PUSH2 0x57A JUMP JUMPDEST PUSH1 0x10 PUSH1 0x3 SLOAD LT ISZERO DUP1 ISZERO PUSH2 0x4FF JUMPI POP PUSH1 0x14 PUSH1 0x3 SLOAD GT ISZERO JUMPDEST ISZERO PUSH2 0x541 JUMPI PUSH1 0x40 MLOAD DUP1 PUSH1 0x40 ADD PUSH1 0x40 MSTORE DUP1 PUSH1 0xC DUP2 MSTORE PUSH1 0x20 ADD PUSH32 0x476F6F64204576656E696E670000000000000000000000000000000000000000 DUP2 MSTORE POP SWAP1 POP PUSH2 0x57A JUMP JUMPDEST PUSH1 0x40 MLOAD DUP1 PUSH1 0x40 ADD PUSH1 0x40 MSTORE DUP1 PUSH1 0xA DUP2 MSTORE PUSH1 0x20 ADD PUSH32 0x476F6F64204E6967687400000000000000000000000000000000000000000000 DUP2 MSTORE POP SWAP1 POP JUMPDEST SWAP1 JUMP JUMPDEST PUSH0 PUSH1 0x1 SLOAD PUSH0 SLOAD PUSH2 0x58D SWAP2 SWAP1 PUSH2 0x10CA JUMP JUMPDEST SWAP1 POP SWAP1 JUMP JUMPDEST DUP1 PUSH0 DUP2 SWAP1 SSTORE POP POP JUMP JUMPDEST PUSH1 0x60 PUSH1 0xF PUSH1 0x4 SLOAD GT PUSH2 0x5E4 JUMPI PUSH1 0x40 MLOAD DUP1 PUSH1 0x40 ADD PUSH1 0x40 MSTORE DUP1 PUSH1 0x4 DUP2 MSTORE PUSH1 0x20 ADD PUSH32 0x636F6C6400000000000000000000000000000000000000000000000000000000 DUP2 MSTORE POP SWAP1 POP PUSH2 0x675 JUMP JUMPDEST PUSH1 0xF PUSH1 0x4 SLOAD LT ISZERO DUP1 ISZERO PUSH2 0x5FA JUMPI POP PUSH1 0x19 PUSH1 0x4 SLOAD GT ISZERO JUMPDEST ISZERO PUSH2 0x63C JUMPI PUSH1 0x40 MLOAD DUP1 PUSH1 0x40 ADD PUSH1 0x40 MSTORE DUP1 PUSH1 0x6 DUP2 MSTORE PUSH1 0x20 ADD PUSH32 0x6E6F726D616C0000000000000000000000000000000000000000000000000000 DUP2 MSTORE POP SWAP1 POP PUSH2 0x675 JUMP JUMPDEST PUSH1 0x40 MLOAD DUP1 PUSH1 0x40 ADD PUSH1 0x40 MSTORE DUP1 PUSH1 0x3 DUP2 MSTORE PUSH1 0x20 ADD PUSH32 0x686F740000000000000000000000000000000000000000000000000000000000 DUP2 MSTORE POP SWAP1 POP JUMPDEST SWAP1 JUMP JUMPDEST PUSH1 0x6 PUSH0 CALLER PUSH20 0xFFFFFFFFFFFFFFFFFFFFFFFFFFFFFFFFFFFFFFFF AND PUSH20 0xFFFFFFFFFFFFFFFFFFFFFFFFFFFFFFFFFFFFFFFF AND DUP2 MSTORE PUSH1 0x20 ADD SWAP1 DUP2 MSTORE PUSH1 0x20 ADD PUSH0 KECCAK256 PUSH1 0x40 MLOAD DUP1 PUSH1 0x40 ADD PUSH1 0x40 MSTORE DUP1 DUP4 DUP2 MSTORE PUSH1 0x20 ADD PUSH0 ISZERO ISZERO DUP2 MSTORE POP SWAP1 DUP1 PUSH1 0x1 DUP2 SLOAD ADD DUP1 DUP3 SSTORE DUP1 SWAP2 POP POP PUSH1 0x1 SWAP1 SUB SWAP1 PUSH0 MSTORE PUSH1 0x20 PUSH0 KECCAK256 SWAP1 PUSH1 0x2 MUL ADD PUSH0 SWAP1 SWAP2 SWAP1 SWAP2 SWAP1 SWAP2 POP PUSH0 DUP3 ADD MLOAD DUP2 PUSH0 ADD SWAP1 DUP2 PUSH2 0x705 SWAP2 SWAP1 PUSH2 0x12F7 JUMP JUMPDEST POP PUSH1 0x20 DUP3 ADD MLOAD DUP2 PUSH1 0x1 ADD PUSH0 PUSH2 0x100 EXP DUP2 SLOAD DUP2 PUSH1 0xFF MUL NOT AND SWAP1 DUP4 ISZERO ISZERO MUL OR SWAP1 SSTORE POP POP POP POP JUMP JUMPDEST PUSH1 0x60 PUSH1 0x8 PUSH1 0x5 SLOAD GT PUSH2 0x773 JUMPI PUSH1 0x40 MLOAD DUP1 PUSH1 0x40 ADD PUSH1 0x40 MSTORE DUP1 PUSH1 0xF DUP2 MSTORE PUSH1 0x20 ADD PUSH32 0x6C6561726E2074696C6C203130616D0000000000000000000000000000000000 DUP2 MSTORE POP SWAP1 POP PUSH2 0x90C JUMP JUMPDEST PUSH1 0xA PUSH1 0x5 SLOAD LT ISZERO DUP1 ISZERO PUSH2 0x789 JUMPI POP PUSH1 0xC PUSH1 0x5 SLOAD GT ISZERO JUMPDEST ISZERO PUSH2 0x7CB JUMPI PUSH1 0x40 MLOAD DUP1 PUSH1 0x40 ADD PUSH1 0x40 MSTORE DUP1 PUSH1 0xD DUP2 MSTORE PUSH1 0x20 ADD PUSH32 0x676F206E2067657420666F6F6400000000000000000000000000000000000000 DUP2 MSTORE POP SWAP1 POP PUSH2 0x90C JUMP JUMPDEST PUSH1 0xC PUSH1 0x5 SLOAD LT ISZERO DUP1 ISZERO PUSH2 0x7E1 JUMPI POP PUSH1 0xE PUSH1 0x5 SLOAD GT ISZERO JUMPDEST ISZERO PUSH2 0x823 JUMPI PUSH1 0x40 MLOAD DUP1 PUSH1 0x40 ADD PUSH1 0x40 MSTORE DUP1 PUSH1 0xD DUP2 MSTORE PUSH1 0x20 ADD PUSH32 0x70726F6261626C79207265616400000000000000000000000000000000000000 DUP2 MSTORE POP SWAP1 POP PUSH2 0x90C JUMP JUMPDEST PUSH1 0xE PUSH1 0x5 SLOAD LT ISZERO DUP1 ISZERO PUSH2 0x839 JUMPI POP PUSH1 0x12 PUSH1 0x5 SLOAD GT ISZERO JUMPDEST ISZERO PUSH2 0x87B JUMPI PUSH1 0x40 MLOAD DUP1 PUSH1 0x40 ADD PUSH1 0x40 MSTORE DUP1 PUSH1 0x5 DUP2 MSTORE PUSH1 0x20 ADD PUSH32 0x736C656570000000000000000000000000000000000000000000000000000000 DUP2 MSTORE POP SWAP1 POP PUSH2 0x90C JUMP JUMPDEST PUSH1 0x13 PUSH1 0x5 SLOAD LT ISZERO DUP1 ISZERO PUSH2 0x891 JUMPI POP PUSH1 0x14 PUSH1 0x5 SLOAD GT ISZERO JUMPDEST ISZERO PUSH2 0x8D3 JUMPI PUSH1 0x40 MLOAD DUP1 PUSH1 0x40 ADD PUSH1 0x40 MSTORE DUP1 PUSH1 0x7 DUP2 MSTORE PUSH1 0x20 ADD PUSH32 0x6879647261746500000000000000000000000000000000000000000000000000 DUP2 MSTORE POP SWAP1 POP PUSH2 0x90C JUMP JUMPDEST PUSH1 0x40 MLOAD DUP1 PUSH1 0x40 ADD PUSH1 0x40 MSTORE DUP1 PUSH1 0xB DUP2 MSTORE PUSH1 0x20 ADD PUSH32 0x736C65657020616761696E000000000000000000000000000000000000000000 DUP2 MSTORE POP SWAP1 POP JUMPDEST SWAP1 JUMP JUMPDEST DUP1 PUSH1 0x1 DUP2 SWAP1 SSTORE POP POP JUMP JUMPDEST DUP1 PUSH1 0x2 DUP2 SWAP1 SSTORE POP POP JUMP JUMPDEST PUSH0 PUSH1 0x1 SLOAD PUSH0 SLOAD PUSH2 0x933 SWAP2 SWAP1 PUSH2 0x13C6 JUMP JUMPDEST SWAP1 POP SWAP1 JUMP JUMPDEST DUP1 PUSH1 0x3 DUP2 SWAP1 SSTORE POP POP JUMP JUMPDEST PUSH1 0x60 PUSH1 0x6 PUSH0 CALLER PUSH20 0xFFFFFFFFFFFFFFFFFFFFFFFFFFFFFFFFFFFFFFFF AND PUSH20 0xFFFFFFFFFFFFFFFFFFFFFFFFFFFFFFFFFFFFFFFF AND DUP2 MSTORE PUSH1 0x20 ADD SWAP1 DUP2 MSTORE PUSH1 0x20 ADD PUSH0 KECCAK256 DUP1 SLOAD DUP1 PUSH1 0x20 MUL PUSH1 0x20 ADD PUSH1 0x40 MLOAD SWAP1 DUP2 ADD PUSH1 0x40 MSTORE DUP1 SWAP3 SWAP2 SWAP1 DUP2 DUP2 MSTORE PUSH1 0x20 ADD PUSH0 SWAP1 JUMPDEST DUP3 DUP3 LT ISZERO PUSH2 0xA79 JUMPI DUP4 DUP3 SWAP1 PUSH0 MSTORE PUSH1 0x20 PUSH0 KECCAK256 SWAP1 PUSH1 0x2 MUL ADD PUSH1 0x40 MLOAD DUP1 PUSH1 0x40 ADD PUSH1 0x40 MSTORE SWAP1 DUP2 PUSH0 DUP3 ADD DUP1 SLOAD PUSH2 0x9D0 SWAP1 PUSH2 0x1127 JUMP JUMPDEST DUP1 PUSH1 0x1F ADD PUSH1 0x20 DUP1 SWAP2 DIV MUL PUSH1 0x20 ADD PUSH1 0x40 MLOAD SWAP1 DUP2 ADD PUSH1 0x40 MSTORE DUP1 SWAP3 SWAP2 SWAP1 DUP2 DUP2 MSTORE PUSH1 0x20 ADD DUP3 DUP1 SLOAD PUSH2 0x9FC SWAP1 PUSH2 0x1127 JUMP JUMPDEST DUP1 ISZERO PUSH2 0xA47 JUMPI DUP1 PUSH1 0x1F LT PUSH2 0xA1E JUMPI PUSH2 0x100 DUP1 DUP4 SLOAD DIV MUL DUP4 MSTORE SWAP2 PUSH1 0x20 ADD SWAP2 PUSH2 0xA47 JUMP JUMPDEST DUP3 ADD SWAP2 SWAP1 PUSH0 MSTORE PUSH1 0x20 PUSH0 KECCAK256 SWAP1 JUMPDEST DUP2 SLOAD DUP2 MSTORE SWAP1 PUSH1 0x1 ADD SWAP1 PUSH1 0x20 ADD DUP1 DUP4 GT PUSH2 0xA2A JUMPI DUP3 SWAP1 SUB PUSH1 0x1F AND DUP3 ADD SWAP2 JUMPDEST POP POP POP POP POP DUP2 MSTORE PUSH1 0x20 ADD PUSH1 0x1 DUP3 ADD PUSH0 SWAP1 SLOAD SWAP1 PUSH2 0x100 EXP SWAP1 DIV PUSH1 0xFF AND ISZERO ISZERO ISZERO ISZERO DUP2 MSTORE POP POP DUP2 MSTORE PUSH1 0x20 ADD SWAP1 PUSH1 0x1 ADD SWAP1 PUSH2 0x9A0 JUMP JUMPDEST POP POP POP POP SWAP1 POP SWAP1 JUMP JUMPDEST PUSH1 0x60 PUSH1 0xF PUSH1 0x2 SLOAD GT PUSH2 0xACB JUMPI PUSH1 0x40 MLOAD DUP1 PUSH1 0x40 ADD PUSH1 0x40 MSTORE DUP1 PUSH1 0x18 DUP2 MSTORE PUSH1 0x20 ADD PUSH32 0x736F727279206465617220796F752063616E7420766F74650000000000000000 DUP2 MSTORE POP SWAP1 POP PUSH2 0xB5C JUMP JUMPDEST PUSH1 0x10 PUSH1 0x2 SLOAD LT ISZERO DUP1 ISZERO PUSH2 0xAE1 JUMPI POP PUSH1 0x11 PUSH1 0x2 SLOAD GT ISZERO JUMPDEST ISZERO PUSH2 0xB23 JUMPI PUSH1 0x40 MLOAD DUP1 PUSH1 0x40 ADD PUSH1 0x40 MSTORE DUP1 PUSH1 0x1C DUP2 MSTORE PUSH1 0x20 ADD PUSH32 0x7665727920736F6F6E20796F752061726520676F6E6E6120766F746500000000 DUP2 MSTORE POP SWAP1 POP PUSH2 0xB5C JUMP JUMPDEST PUSH1 0x40 MLOAD DUP1 PUSH1 0x40 ADD PUSH1 0x40 MSTORE DUP1 PUSH1 0x18 DUP2 MSTORE PUSH1 0x20 ADD PUSH32 0x596F752061726520656C696769626C6520746F20766F74650000000000000000 DUP2 MSTORE POP SWAP1 POP JUMPDEST SWAP1 JUMP JUMPDEST PUSH0 PUSH1 0x1 SLOAD PUSH0 SLOAD PUSH2 0xB6F SWAP2 SWAP1 PUSH2 0x13F9 JUMP JUMPDEST SWAP1 POP SWAP1 JUMP JUMPDEST PUSH0 PUSH1 0x1 SLOAD PUSH0 SLOAD PUSH2 0xB84 SWAP2 SWAP1 PUSH2 0x13C6 JUMP JUMPDEST SWAP1 POP SWAP1 JUMP JUMPDEST PUSH0 DUP2 SWAP1 POP SWAP2 SWAP1 POP JUMP JUMPDEST PUSH2 0xB9B DUP2 PUSH2 0xB89 JUMP JUMPDEST DUP3 MSTORE POP POP JUMP JUMPDEST PUSH0 PUSH1 0x20 DUP3 ADD SWAP1 POP PUSH2 0xBB4 PUSH0 DUP4 ADD DUP5 PUSH2 0xB92 JUMP JUMPDEST SWAP3 SWAP2 POP POP JUMP JUMPDEST PUSH0 PUSH1 0x40 MLOAD SWAP1 POP SWAP1 JUMP JUMPDEST PUSH0 PUSH0 REVERT JUMPDEST PUSH0 PUSH0 REVERT JUMPDEST PUSH2 0xBD4 DUP2 PUSH2 0xB89 JUMP JUMPDEST DUP2 EQ PUSH2 0xBDE JUMPI PUSH0 PUSH0 REVERT JUMPDEST POP JUMP JUMPDEST PUSH0 DUP2 CALLDATALOAD SWAP1 POP PUSH2 0xBEF DUP2 PUSH2 0xBCB JUMP JUMPDEST SWAP3 SWAP2 POP POP JUMP JUMPDEST PUSH0 PUSH1 0x20 DUP3 DUP5 SUB SLT ISZERO PUSH2 0xC0A JUMPI PUSH2 0xC09 PUSH2 0xBC3 JUMP JUMPDEST JUMPDEST PUSH0 PUSH2 0xC17 DUP5 DUP3 DUP6 ADD PUSH2 0xBE1 JUMP JUMPDEST SWAP2 POP POP SWAP3 SWAP2 POP POP JUMP JUMPDEST PUSH0 DUP2 MLOAD SWAP1 POP SWAP2 SWAP1 POP JUMP JUMPDEST PUSH0 DUP3 DUP3 MSTORE PUSH1 0x20 DUP3 ADD SWAP1 POP SWAP3 SWAP2 POP POP JUMP JUMPDEST DUP3 DUP2 DUP4 MCOPY PUSH0 DUP4 DUP4 ADD MSTORE POP POP POP JUMP JUMPDEST PUSH0 PUSH1 0x1F NOT PUSH1 0x1F DUP4 ADD AND SWAP1 POP SWAP2 SWAP1 POP JUMP JUMPDEST PUSH0 PUSH2 0xC62 DUP3 PUSH2 0xC20 JUMP JUMPDEST PUSH2 0xC6C DUP2 DUP6 PUSH2 0xC2A JUMP JUMPDEST SWAP4 POP PUSH2 0xC7C DUP2 DUP6 PUSH1 0x20 DUP7 ADD PUSH2 0xC3A JUMP JUMPDEST PUSH2 0xC85 DUP2 PUSH2 0xC48 JUMP JUMPDEST DUP5 ADD SWAP2 POP POP SWAP3 SWAP2 POP POP JUMP JUMPDEST PUSH0 PUSH1 0x20 DUP3 ADD SWAP1 POP DUP2 DUP2 SUB PUSH0 DUP4 ADD MSTORE PUSH2 0xCA8 DUP2 DUP5 PUSH2 0xC58 JUMP JUMPDEST SWAP1 POP SWAP3 SWAP2 POP POP JUMP JUMPDEST PUSH0 PUSH0 REVERT JUMPDEST PUSH0 PUSH0 REVERT JUMPDEST PUSH32 0x4E487B7100000000000000000000000000000000000000000000000000000000 PUSH0 MSTORE PUSH1 0x41 PUSH1 0x4 MSTORE PUSH1 0x24 PUSH0 REVERT JUMPDEST PUSH2 0xCEE DUP3 PUSH2 0xC48 JUMP JUMPDEST DUP2 ADD DUP2 DUP2 LT PUSH8 0xFFFFFFFFFFFFFFFF DUP3 GT OR ISZERO PUSH2 0xD0D JUMPI PUSH2 0xD0C PUSH2 0xCB8 JUMP JUMPDEST JUMPDEST DUP1 PUSH1 0x40 MSTORE POP POP POP JUMP JUMPDEST PUSH0 PUSH2 0xD1F PUSH2 0xBBA JUMP JUMPDEST SWAP1 POP PUSH2 0xD2B DUP3 DUP3 PUSH2 0xCE5 JUMP JUMPDEST SWAP2 SWAP1 POP JUMP JUMPDEST PUSH0 PUSH8 0xFFFFFFFFFFFFFFFF DUP3 GT ISZERO PUSH2 0xD4A JUMPI PUSH2 0xD49 PUSH2 0xCB8 JUMP JUMPDEST JUMPDEST PUSH2 0xD53 DUP3 PUSH2 0xC48 JUMP JUMPDEST SWAP1 POP PUSH1 0x20 DUP2 ADD SWAP1 POP SWAP2 SWAP1 POP JUMP JUMPDEST DUP3 DUP2 DUP4 CALLDATACOPY PUSH0 DUP4 DUP4 ADD MSTORE POP POP POP JUMP JUMPDEST PUSH0 PUSH2 0xD80 PUSH2 0xD7B DUP5 PUSH2 0xD30 JUMP JUMPDEST PUSH2 0xD16 JUMP JUMPDEST SWAP1 POP DUP3 DUP2 MSTORE PUSH1 0x20 DUP2 ADD DUP5 DUP5 DUP5 ADD GT ISZERO PUSH2 0xD9C JUMPI PUSH2 0xD9B PUSH2 0xCB4 JUMP JUMPDEST JUMPDEST PUSH2 0xDA7 DUP5 DUP3 DUP6 PUSH2 0xD60 JUMP JUMPDEST POP SWAP4 SWAP3 POP POP POP JUMP JUMPDEST PUSH0 DUP3 PUSH1 0x1F DUP4 ADD SLT PUSH2 0xDC3 JUMPI PUSH2 0xDC2 PUSH2 0xCB0 JUMP JUMPDEST JUMPDEST DUP2 CALLDATALOAD PUSH2 0xDD3 DUP5 DUP3 PUSH1 0x20 DUP7 ADD PUSH2 0xD6E JUMP JUMPDEST SWAP2 POP POP SWAP3 SWAP2 POP POP JUMP JUMPDEST PUSH0 PUSH1 0x20 DUP3 DUP5 SUB SLT ISZERO PUSH2 0xDF1 JUMPI PUSH2 0xDF0 PUSH2 0xBC3 JUMP JUMPDEST JUMPDEST PUSH0 DUP3 ADD CALLDATALOAD PUSH8 0xFFFFFFFFFFFFFFFF DUP2 GT ISZERO PUSH2 0xE0E JUMPI PUSH2 0xE0D PUSH2 0xBC7 JUMP JUMPDEST JUMPDEST PUSH2 0xE1A DUP5 DUP3 DUP6 ADD PUSH2 0xDAF JUMP JUMPDEST SWAP2 POP POP SWAP3 SWAP2 POP POP JUMP JUMPDEST PUSH0 DUP2 MLOAD SWAP1 POP SWAP2 SWAP1 POP JUMP JUMPDEST PUSH0 DUP3 DUP3 MSTORE PUSH1 0x20 DUP3 ADD SWAP1 POP SWAP3 SWAP2 POP POP JUMP JUMPDEST PUSH0 DUP2 SWAP1 POP PUSH1 0x20 DUP3 ADD SWAP1 POP SWAP2 SWAP1 POP JUMP JUMPDEST PUSH0 DUP3 DUP3 MSTORE PUSH1 0x20 DUP3 ADD SWAP1 POP SWAP3 SWAP2 POP POP JUMP JUMPDEST PUSH0 PUSH2 0xE66 DUP3 PUSH2 0xC20 JUMP JUMPDEST PUSH2 0xE70 DUP2 DUP6 PUSH2 0xE4C JUMP JUMPDEST SWAP4 POP PUSH2 0xE80 DUP2 DUP6 PUSH1 0x20 DUP7 ADD PUSH2 0xC3A JUMP JUMPDEST PUSH2 0xE89 DUP2 PUSH2 0xC48 JUMP JUMPDEST DUP5 ADD SWAP2 POP POP SWAP3 SWAP2 POP POP JUMP JUMPDEST PUSH0 DUP2 ISZERO ISZERO SWAP1 POP SWAP2 SWAP1 POP JUMP JUMPDEST PUSH2 0xEA8 DUP2 PUSH2 0xE94 JUMP JUMPDEST DUP3 MSTORE POP POP JUMP JUMPDEST PUSH0 PUSH1 0x40 DUP4 ADD PUSH0 DUP4 ADD MLOAD DUP5 DUP3 SUB PUSH0 DUP7 ADD MSTORE PUSH2 0xEC8 DUP3 DUP3 PUSH2 0xE5C JUMP JUMPDEST SWAP2 POP POP PUSH1 0x20 DUP4 ADD MLOAD PUSH2 0xEDD PUSH1 0x20 DUP7 ADD DUP3 PUSH2 0xE9F JUMP JUMPDEST POP DUP1 SWAP2 POP POP SWAP3 SWAP2 POP POP JUMP JUMPDEST PUSH0 PUSH2 0xEF3 DUP4 DUP4 PUSH2 0xEAE JUMP JUMPDEST SWAP1 POP SWAP3 SWAP2 POP POP JUMP JUMPDEST PUSH0 PUSH1 0x20 DUP3 ADD SWAP1 POP SWAP2 SWAP1 POP JUMP JUMPDEST PUSH0 PUSH2 0xF11 DUP3 PUSH2 0xE23 JUMP JUMPDEST PUSH2 0xF1B DUP2 DUP6 PUSH2 0xE2D JUMP JUMPDEST SWAP4 POP DUP4 PUSH1 0x20 DUP3 MUL DUP6 ADD PUSH2 0xF2D DUP6 PUSH2 0xE3D JUMP JUMPDEST DUP1 PUSH0 JUMPDEST DUP6 DUP2 LT ISZERO PUSH2 0xF68 JUMPI DUP5 DUP5 SUB DUP10 MSTORE DUP2 MLOAD PUSH2 0xF49 DUP6 DUP3 PUSH2 0xEE8 JUMP JUMPDEST SWAP5 POP PUSH2 0xF54 DUP4 PUSH2 0xEFB JUMP JUMPDEST SWAP3 POP PUSH1 0x20 DUP11 ADD SWAP10 POP POP PUSH1 0x1 DUP2 ADD SWAP1 POP PUSH2 0xF30 JUMP JUMPDEST POP DUP3 SWAP8 POP DUP8 SWAP6 POP POP POP POP POP POP SWAP3 SWAP2 POP POP JUMP JUMPDEST PUSH0 PUSH1 0x20 DUP3 ADD SWAP1 POP DUP2 DUP2 SUB PUSH0 DUP4 ADD MSTORE PUSH2 0xF92 DUP2 DUP5 PUSH2 0xF07 JUMP JUMPDEST SWAP1 POP SWAP3 SWAP2 POP POP JUMP JUMPDEST PUSH32 0x4E487B7100000000000000000000000000000000000000000000000000000000 PUSH0 MSTORE PUSH1 0x11 PUSH1 0x4 MSTORE PUSH1 0x24 PUSH0 REVERT JUMPDEST PUSH0 PUSH2 0xFD1 DUP3 PUSH2 0xB89 JUMP JUMPDEST SWAP2 POP PUSH2 0xFDC DUP4 PUSH2 0xB89 JUMP JUMPDEST SWAP3 POP DUP3 DUP3 MUL PUSH2 0xFEA DUP2 PUSH2 0xB89 JUMP JUMPDEST SWAP2 POP DUP3 DUP3 DIV DUP5 EQ DUP4 ISZERO OR PUSH2 0x1001 JUMPI PUSH2 0x1000 PUSH2 0xF9A JUMP JUMPDEST JUMPDEST POP SWAP3 SWAP2 POP POP JUMP JUMPDEST PUSH32 0x496E76616C696420696E64657800000000000000000000000000000000000000 PUSH0 DUP3 ADD MSTORE POP JUMP JUMPDEST PUSH0 PUSH2 0x103C PUSH1 0xD DUP4 PUSH2 0xC2A JUMP JUMPDEST SWAP2 POP PUSH2 0x1047 DUP3 PUSH2 0x1008 JUMP JUMPDEST PUSH1 0x20 DUP3 ADD SWAP1 POP SWAP2 SWAP1 POP JUMP JUMPDEST PUSH0 PUSH1 0x20 DUP3 ADD SWAP1 POP DUP2 DUP2 SUB PUSH0 DUP4 ADD MSTORE PUSH2 0x1069 DUP2 PUSH2 0x1030 JUMP JUMPDEST SWAP1 POP SWAP2 SWAP1 POP JUMP JUMPDEST PUSH32 0x4E487B7100000000000000000000000000000000000000000000000000000000 PUSH0 MSTORE PUSH1 0x32 PUSH1 0x4 MSTORE PUSH1 0x24 PUSH0 REVERT JUMPDEST PUSH32 0x4E487B7100000000000000000000000000000000000000000000000000000000 PUSH0 MSTORE PUSH1 0x12 PUSH1 0x4 MSTORE PUSH1 0x24 PUSH0 REVERT JUMPDEST PUSH0 PUSH2 0x10D4 DUP3 PUSH2 0xB89 JUMP JUMPDEST SWAP2 POP PUSH2 0x10DF DUP4 PUSH2 0xB89 JUMP JUMPDEST SWAP3 POP DUP3 PUSH2 0x10EF JUMPI PUSH2 0x10EE PUSH2 0x109D JUMP JUMPDEST JUMPDEST DUP3 DUP3 DIV SWAP1 POP SWAP3 SWAP2 POP POP JUMP JUMPDEST PUSH32 0x4E487B7100000000000000000000000000000000000000000000000000000000 PUSH0 MSTORE PUSH1 0x22 PUSH1 0x4 MSTORE PUSH1 0x24 PUSH0 REVERT JUMPDEST PUSH0 PUSH1 0x2 DUP3 DIV SWAP1 POP PUSH1 0x1 DUP3 AND DUP1 PUSH2 0x113E JUMPI PUSH1 0x7F DUP3 AND SWAP2 POP JUMPDEST PUSH1 0x20 DUP3 LT DUP2 SUB PUSH2 0x1151 JUMPI PUSH2 0x1150 PUSH2 0x10FA JUMP JUMPDEST JUMPDEST POP SWAP2 SWAP1 POP JUMP JUMPDEST PUSH0 DUP2 SWAP1 POP DUP2 PUSH0 MSTORE PUSH1 0x20 PUSH0 KECCAK256 SWAP1 POP SWAP2 SWAP1 POP JUMP JUMPDEST PUSH0 PUSH1 0x20 PUSH1 0x1F DUP4 ADD DIV SWAP1 POP SWAP2 SWAP1 POP JUMP JUMPDEST PUSH0 DUP3 DUP3 SHL SWAP1 POP SWAP3 SWAP2 POP POP JUMP JUMPDEST PUSH0 PUSH1 0x8 DUP4 MUL PUSH2 0x11B3 PUSH32 0xFFFFFFFFFFFFFFFFFFFFFFFFFFFFFFFFFFFFFFFFFFFFFFFFFFFFFFFFFFFFFFFF DUP3 PUSH2 0x1178 JUMP JUMPDEST PUSH2 0x11BD DUP7 DUP4 PUSH2 0x1178 JUMP JUMPDEST SWAP6 POP DUP1 NOT DUP5 AND SWAP4 POP DUP1 DUP7 AND DUP5 OR SWAP3 POP POP POP SWAP4 SWAP3 POP POP POP JUMP JUMPDEST PUSH0 DUP2 SWAP1 POP SWAP2 SWAP1 POP JUMP JUMPDEST PUSH0 PUSH2 0x11F8 PUSH2 0x11F3 PUSH2 0x11EE DUP5 PUSH2 0xB89 JUMP JUMPDEST PUSH2 0x11D5 JUMP JUMPDEST PUSH2 0xB89 JUMP JUMPDEST SWAP1 POP SWAP2 SWAP1 POP JUMP JUMPDEST PUSH0 DUP2 SWAP1 POP SWAP2 SWAP1 POP JUMP JUMPDEST PUSH2 0x1211 DUP4 PUSH2 0x11DE JUMP JUMPDEST PUSH2 0x1225 PUSH2 0x121D DUP3 PUSH2 0x11FF JUMP JUMPDEST DUP5 DUP5 SLOAD PUSH2 0x1184 JUMP JUMPDEST DUP3 SSTORE POP POP POP POP JUMP JUMPDEST PUSH0 PUSH0 SWAP1 POP SWAP1 JUMP JUMPDEST PUSH2 0x123C PUSH2 0x122D JUMP JUMPDEST PUSH2 0x1247 DUP2 DUP5 DUP5 PUSH2 0x1208 JUMP JUMPDEST POP POP POP JUMP JUMPDEST JUMPDEST DUP2 DUP2 LT ISZERO PUSH2 0x126A JUMPI PUSH2 0x125F PUSH0 DUP3 PUSH2 0x1234 JUMP JUMPDEST PUSH1 0x1 DUP2 ADD SWAP1 POP PUSH2 0x124D JUMP JUMPDEST POP POP JUMP JUMPDEST PUSH1 0x1F DUP3 GT ISZERO PUSH2 0x12AF JUMPI PUSH2 0x1280 DUP2 PUSH2 0x1157 JUMP JUMPDEST PUSH2 0x1289 DUP5 PUSH2 0x1169 JUMP JUMPDEST DUP2 ADD PUSH1 0x20 DUP6 LT ISZERO PUSH2 0x1298 JUMPI DUP2 SWAP1 POP JUMPDEST PUSH2 0x12AC PUSH2 0x12A4 DUP6 PUSH2 0x1169 JUMP JUMPDEST DUP4 ADD DUP3 PUSH2 0x124C JUMP JUMPDEST POP POP JUMPDEST POP POP POP JUMP JUMPDEST PUSH0 DUP3 DUP3 SHR SWAP1 POP SWAP3 SWAP2 POP POP JUMP JUMPDEST PUSH0 PUSH2 0x12CF PUSH0 NOT DUP5 PUSH1 0x8 MUL PUSH2 0x12B4 JUMP JUMPDEST NOT DUP1 DUP4 AND SWAP2 POP POP SWAP3 SWAP2 POP POP JUMP JUMPDEST PUSH0 PUSH2 0x12E7 DUP4 DUP4 PUSH2 0x12C0 JUMP JUMPDEST SWAP2 POP DUP3 PUSH1 0x2 MUL DUP3 OR SWAP1 POP SWAP3 SWAP2 POP POP JUMP JUMPDEST PUSH2 0x1300 DUP3 PUSH2 0xC20 JUMP JUMPDEST PUSH8 0xFFFFFFFFFFFFFFFF DUP2 GT ISZERO PUSH2 0x1319 JUMPI PUSH2 0x1318 PUSH2 0xCB8 JUMP JUMPDEST JUMPDEST PUSH2 0x1323 DUP3 SLOAD PUSH2 0x1127 JUMP JUMPDEST PUSH2 0x132E DUP3 DUP3 DUP6 PUSH2 0x126E JUMP JUMPDEST PUSH0 PUSH1 0x20 SWAP1 POP PUSH1 0x1F DUP4 GT PUSH1 0x1 DUP2 EQ PUSH2 0x135F JUMPI PUSH0 DUP5 ISZERO PUSH2 0x134D JUMPI DUP3 DUP8 ADD MLOAD SWAP1 POP JUMPDEST PUSH2 0x1357 DUP6 DUP3 PUSH2 0x12DC JUMP JUMPDEST DUP7 SSTORE POP PUSH2 0x13BE JUMP JUMPDEST PUSH1 0x1F NOT DUP5 AND PUSH2 0x136D DUP7 PUSH2 0x1157 JUMP JUMPDEST PUSH0 JUMPDEST DUP3 DUP2 LT ISZERO PUSH2 0x1394 JUMPI DUP5 DUP10 ADD MLOAD DUP3 SSTORE PUSH1 0x1 DUP3 ADD SWAP2 POP PUSH1 0x20 DUP6 ADD SWAP5 POP PUSH1 0x20 DUP2 ADD SWAP1 POP PUSH2 0x136F JUMP JUMPDEST DUP7 DUP4 LT ISZERO PUSH2 0x13B1 JUMPI DUP5 DUP10 ADD MLOAD PUSH2 0x13AD PUSH1 0x1F DUP10 AND DUP3 PUSH2 0x12C0 JUMP JUMPDEST DUP4 SSTORE POP JUMPDEST PUSH1 0x1 PUSH1 0x2 DUP9 MUL ADD DUP9 SSTORE POP POP POP JUMPDEST POP POP POP POP POP POP JUMP JUMPDEST PUSH0 PUSH2 0x13D0 DUP3 PUSH2 0xB89 JUMP JUMPDEST SWAP2 POP PUSH2 0x13DB DUP4 PUSH2 0xB89 JUMP JUMPDEST SWAP3 POP DUP3 DUP3 ADD SWAP1 POP DUP1 DUP3 GT ISZERO PUSH2 0x13F3 JUMPI PUSH2 0x13F2 PUSH2 0xF9A JUMP JUMPDEST JUMPDEST SWAP3 SWAP2 POP POP JUMP JUMPDEST PUSH0 PUSH2 0x1403 DUP3 PUSH2 0xB89 JUMP JUMPDEST SWAP2 POP PUSH2 0x140E DUP4 PUSH2 0xB89 JUMP JUMPDEST SWAP3 POP DUP3 DUP3 SUB SWAP1 POP DUP2 DUP2 GT ISZERO PUSH2 0x1426 JUMPI PUSH2 0x1425 PUSH2 0xF9A JUMP JUMPDEST JUMPDEST SWAP3 SWAP2 POP POP JUMP INVALID LOG2 PUSH5 0x6970667358 0x22 SLT KECCAK256 RETF DUPN 0x40 JUMP MSTORE8 RJUMP 0xA2C3 SDIV DUP3 DUP16 0x4C PUSH24 0xDFDB87DA3C3E44B7E339985AF507DE96C0CC4064736F6C63 NUMBER STOP ADDMOD 0x1E STOP CALLER "
				},
				"gasEstimates": {
					"creation": {
						"codeDepositCost": "1043600",
						"executionCost": "1085",
						"totalCost": "1044685"
					},
					"external": {
						"addTodo(string)": "infinite",
						"addition()": "infinite",
						"checkage()": "infinite",
						"checktime()": "infinite",
						"checktrack()": "infinite",
						"checkweather()": "infinite",
						"completeTodo(uint256)": "29257",
						"division()": "infinite",
						"getTodos()": "infinite",
						"getage(uint256)": "22582",
						"getfirstnum(uint256)": "22581",
						"getsecondnum(uint256)": "22560",
						"getweather(uint256)": "22561",
						"invalid()": "infinite",
						"multiplication()": "infinite",
						"subtraction()": "infinite",
						"tracktime(uint256)": "22537",
						"trackup(uint256)": "22583"
					}
				},
				"methodIdentifiers": {
					"addTodo(string)": "95ffebf5",
					"addition()": "ec597128",
					"checkage()": "d62ff3a4",
					"checktime()": "266de1e0",
					"checktrack()": "9daaf83a",
					"checkweather()": "7f109886",
					"completeTodo(uint256)": "20fe2144",
					"division()": "3205f5fc",
					"getTodos()": "c33926cb",
					"getage(uint256)": "a59e0d54",
					"getfirstnum(uint256)": "48a9066d",
					"getsecondnum(uint256)": "9f17c892",
					"getweather(uint256)": "12a09447",
					"invalid()": "bde9e40e",
					"multiplication()": "011285da",
					"subtraction()": "e3ec0251",
					"tracktime(uint256)": "bed948c5",
					"trackup(uint256)": "1981bfa0"
				}
			},
			"storageLayout": {
				"storage": [
					{
						"astId": 3,
						"contract": ".git/calculaator.sol:calculatorandall",
						"label": "firstnumber",
						"offset": 0,
						"slot": "0",
						"type": "t_uint256"
					},
					{
						"astId": 5,
						"contract": ".git/calculaator.sol:calculatorandall",
						"label": "secondnumber",
						"offset": 0,
						"slot": "1",
						"type": "t_uint256"
					},
					{
						"astId": 7,
						"contract": ".git/calculaator.sol:calculatorandall",
						"label": "age",
						"offset": 0,
						"slot": "2",
						"type": "t_uint256"
					},
					{
						"astId": 9,
						"contract": ".git/calculaator.sol:calculatorandall",
						"label": "time",
						"offset": 0,
						"slot": "3",
						"type": "t_uint256"
					},
					{
						"astId": 11,
						"contract": ".git/calculaator.sol:calculatorandall",
						"label": "weather",
						"offset": 0,
						"slot": "4",
						"type": "t_uint256"
					},
					{
						"astId": 13,
						"contract": ".git/calculaator.sol:calculatorandall",
						"label": "track",
						"offset": 0,
						"slot": "5",
						"type": "t_uint256"
					},
					{
						"astId": 286,
						"contract": ".git/calculaator.sol:calculatorandall",
						"label": "userTodos",
						"offset": 0,
						"slot": "6",
						"type": "t_mapping(t_address,t_array(t_struct(Todo)18_storage)dyn_storage)"
					}
				],
				"types": {
					"t_address": {
						"encoding": "inplace",
						"label": "address",
						"numberOfBytes": "20"
					},
					"t_array(t_struct(Todo)18_storage)dyn_storage": {
						"base": "t_struct(Todo)18_storage",
						"encoding": "dynamic_array",
						"label": "struct calculatorandall.Todo[]",
						"numberOfBytes": "32"
					},
					"t_bool": {
						"encoding": "inplace",
						"label": "bool",
						"numberOfBytes": "1"
					},
					"t_mapping(t_address,t_array(t_struct(Todo)18_storage)dyn_storage)": {
						"encoding": "mapping",
						"key": "t_address",
						"label": "mapping(address => struct calculatorandall.Todo[])",
						"numberOfBytes": "32",
						"value": "t_array(t_struct(Todo)18_storage)dyn_storage"
					},
					"t_string_storage": {
						"encoding": "bytes",
						"label": "string",
						"numberOfBytes": "32"
					},
					"t_struct(Todo)18_storage": {
						"encoding": "inplace",
						"label": "struct calculatorandall.Todo",
						"members": [
							{
								"astId": 15,
								"contract": ".git/calculaator.sol:calculatorandall",
								"label": "task",
								"offset": 0,
								"slot": "0",
								"type": "t_string_storage"
							},
							{
								"astId": 17,
								"contract": ".git/calculaator.sol:calculatorandall",
								"label": "completed",
								"offset": 0,
								"slot": "1",
								"type": "t_bool"
							}
						],
						"numberOfBytes": "64"
					},
					"t_uint256": {
						"encoding": "inplace",
						"label": "uint256",
						"numberOfBytes": "32"
					}
				}
			},
			"userdoc": {
				"kind": "user",
				"methods": {},
				"version": 1
			}
		}
	}
}