{
	".git/calculaator.sol": {
		"calculatorandall": {
			"abi": [
				{
					"inputs": [],
					"name": "addition",
					"outputs": [
						{
							"internalType": "uint256",
							"name": "",
							"type": "uint256"
						}
					],
					"stateMutability": "view",
					"type": "function"
				},
				{
					"inputs": [],
					"name": "checkage",
					"outputs": [
						{
							"internalType": "string",
							"name": "",
							"type": "string"
						}
					],
					"stateMutability": "view",
					"type": "function"
				},
				{
					"inputs": [],
					"name": "division",
					"outputs": [
						{
							"internalType": "uint256",
							"name": "",
							"type": "uint256"
						}
					],
					"stateMutability": "view",
					"type": "function"
				},
				{
					"inputs": [
						{
							"internalType": "uint256",
							"name": "_age",
							"type": "uint256"
						}
					],
					"name": "getage",
					"outputs": [],
					"stateMutability": "nonpayable",
					"type": "function"
				},
				{
					"inputs": [
						{
							"internalType": "uint256",
							"name": "_firstnum",
							"type": "uint256"
						}
					],
					"name": "getfirstnum",
					"outputs": [],
					"stateMutability": "nonpayable",
					"type": "function"
				},
				{
					"inputs": [
						{
							"internalType": "uint256",
							"name": "_secnum",
							"type": "uint256"
						}
					],
					"name": "getsecondnum",
					"outputs": [],
					"stateMutability": "nonpayable",
					"type": "function"
				},
				{
					"inputs": [],
					"name": "invalid",
					"outputs": [
						{
							"internalType": "uint256",
							"name": "",
							"type": "uint256"
						}
					],
					"stateMutability": "view",
					"type": "function"
				},
				{
					"inputs": [],
					"name": "multiplication",
					"outputs": [
						{
							"internalType": "uint256",
							"name": "",
							"type": "uint256"
						}
					],
					"stateMutability": "view",
					"type": "function"
				},
				{
					"inputs": [],
					"name": "subtraction",
					"outputs": [
						{
							"internalType": "uint256",
							"name": "",
							"type": "uint256"
						}
					],
					"stateMutability": "view",
					"type": "function"
				}
			],
			"devdoc": {
				"kind": "dev",
				"methods": {},
				"version": 1
			},
			"evm": {
				"assembly": "    /* \".git/calculaator.sol\":60:1279  contract calculatorandall{... */\n  mstore(0x40, 0x80)\n  callvalue\n  dup1\n  iszero\n  tag_1\n  jumpi\n  revert(0x00, 0x00)\ntag_1:\n  pop\n  dataSize(sub_0)\n  dup1\n  dataOffset(sub_0)\n  0x00\n  codecopy\n  0x00\n  return\nstop\n\nsub_0: assembly {\n        /* \".git/calculaator.sol\":60:1279  contract calculatorandall{... */\n      mstore(0x40, 0x80)\n      callvalue\n      dup1\n      iszero\n      tag_1\n      jumpi\n      revert(0x00, 0x00)\n    tag_1:\n      pop\n      jumpi(tag_2, lt(calldatasize, 0x04))\n      shr(0xe0, calldataload(0x00))\n      dup1\n      0xa59e0d54\n      gt\n      tag_12\n      jumpi\n      dup1\n      0xa59e0d54\n      eq\n      tag_7\n      jumpi\n      dup1\n      0xbde9e40e\n      eq\n      tag_8\n      jumpi\n      dup1\n      0xd62ff3a4\n      eq\n      tag_9\n      jumpi\n      dup1\n      0xe3ec0251\n      eq\n      tag_10\n      jumpi\n      dup1\n      0xec597128\n      eq\n      tag_11\n      jumpi\n      jump(tag_2)\n    tag_12:\n      dup1\n      0x011285da\n      eq\n      tag_3\n      jumpi\n      dup1\n      0x3205f5fc\n      eq\n      tag_4\n      jumpi\n      dup1\n      0x48a9066d\n      eq\n      tag_5\n      jumpi\n      dup1\n      0x9f17c892\n      eq\n      tag_6\n      jumpi\n    tag_2:\n      revert(0x00, 0x00)\n        /* \".git/calculaator.sol\":555:659  function multiplication()public view returns (uint) {... */\n    tag_3:\n      tag_13\n      tag_14\n      jump\t// in\n    tag_13:\n      mload(0x40)\n      tag_15\n      swap2\n      swap1\n      tag_16\n      jump\t// in\n    tag_15:\n      mload(0x40)\n      dup1\n      swap2\n      sub\n      swap1\n      return\n        /* \".git/calculaator.sol\":668:766  function division()public view returns (uint) {... */\n    tag_4:\n      tag_17\n      tag_18\n      jump\t// in\n    tag_17:\n      mload(0x40)\n      tag_19\n      swap2\n      swap1\n      tag_16\n      jump\t// in\n    tag_19:\n      mload(0x40)\n      dup1\n      swap2\n      sub\n      swap1\n      return\n        /* \".git/calculaator.sol\":156:241  function getfirstnum(uint _firstnum)public {... */\n    tag_5:\n      tag_20\n      0x04\n      dup1\n      calldatasize\n      sub\n      dup2\n      add\n      swap1\n      tag_21\n      swap2\n      swap1\n      tag_22\n      jump\t// in\n    tag_21:\n      tag_23\n      jump\t// in\n    tag_20:\n      stop\n        /* \".git/calculaator.sol\":247:330  function getsecondnum(uint _secnum)public {... */\n    tag_6:\n      tag_24\n      0x04\n      dup1\n      calldatasize\n      sub\n      dup2\n      add\n      swap1\n      tag_25\n      swap2\n      swap1\n      tag_22\n      jump\t// in\n    tag_25:\n      tag_26\n      jump\t// in\n    tag_24:\n      stop\n        /* \".git/calculaator.sol\":889:951  function getage(uint _age) public{... */\n    tag_7:\n      tag_27\n      0x04\n      dup1\n      calldatasize\n      sub\n      dup2\n      add\n      swap1\n      tag_28\n      swap2\n      swap1\n      tag_22\n      jump\t// in\n    tag_28:\n      tag_29\n      jump\t// in\n    tag_27:\n      stop\n        /* \".git/calculaator.sol\":775:872  function invalid()public view returns (uint) {... */\n    tag_8:\n      tag_30\n      tag_31\n      jump\t// in\n    tag_30:\n      mload(0x40)\n      tag_32\n      swap2\n      swap1\n      tag_16\n      jump\t// in\n    tag_32:\n      mload(0x40)\n      dup1\n      swap2\n      sub\n      swap1\n      return\n        /* \".git/calculaator.sol\":957:1276  function checkage()public view returns (string memory){ ... */\n    tag_9:\n      tag_33\n      tag_34\n      jump\t// in\n    tag_33:\n      mload(0x40)\n      tag_35\n      swap2\n      swap1\n      tag_36\n      jump\t// in\n    tag_35:\n      mload(0x40)\n      dup1\n      swap2\n      sub\n      swap1\n      return\n        /* \".git/calculaator.sol\":445:546  function subtraction()public view returns (uint) {... */\n    tag_10:\n      tag_37\n      tag_38\n      jump\t// in\n    tag_37:\n      mload(0x40)\n      tag_39\n      swap2\n      swap1\n      tag_16\n      jump\t// in\n    tag_39:\n      mload(0x40)\n      dup1\n      swap2\n      sub\n      swap1\n      return\n        /* \".git/calculaator.sol\":338:436  function addition()public view returns (uint) {... */\n    tag_11:\n      tag_40\n      tag_41\n      jump\t// in\n    tag_40:\n      mload(0x40)\n      tag_42\n      swap2\n      swap1\n      tag_16\n      jump\t// in\n    tag_42:\n      mload(0x40)\n      dup1\n      swap2\n      sub\n      swap1\n      return\n        /* \".git/calculaator.sol\":555:659  function multiplication()public view returns (uint) {... */\n    tag_14:\n        /* \".git/calculaator.sol\":601:605  uint */\n      0x00\n        /* \".git/calculaator.sol\":639:651  secondnumber */\n      sload(0x01)\n        /* \".git/calculaator.sol\":625:636  firstnumber */\n      sload(0x00)\n        /* \".git/calculaator.sol\":625:651  firstnumber * secondnumber */\n      tag_44\n      swap2\n      swap1\n      tag_45\n      jump\t// in\n    tag_44:\n        /* \".git/calculaator.sol\":618:651  return firstnumber * secondnumber */\n      swap1\n      pop\n        /* \".git/calculaator.sol\":555:659  function multiplication()public view returns (uint) {... */\n      swap1\n      jump\t// out\n        /* \".git/calculaator.sol\":668:766  function division()public view returns (uint) {... */\n    tag_18:\n        /* \".git/calculaator.sol\":708:712  uint */\n      0x00\n        /* \".git/calculaator.sol\":746:758  secondnumber */\n      sload(0x01)\n        /* \".git/calculaator.sol\":732:743  firstnumber */\n      sload(0x00)\n        /* \".git/calculaator.sol\":732:758  firstnumber / secondnumber */\n      tag_47\n      swap2\n      swap1\n      tag_48\n      jump\t// in\n    tag_47:\n        /* \".git/calculaator.sol\":725:758  return firstnumber / secondnumber */\n      swap1\n      pop\n        /* \".git/calculaator.sol\":668:766  function division()public view returns (uint) {... */\n      swap1\n      jump\t// out\n        /* \".git/calculaator.sol\":156:241  function getfirstnum(uint _firstnum)public {... */\n    tag_23:\n        /* \".git/calculaator.sol\":224:233  _firstnum */\n      dup1\n        /* \".git/calculaator.sol\":210:221  firstnumber */\n      0x00\n        /* \".git/calculaator.sol\":210:233  firstnumber = _firstnum */\n      dup2\n      swap1\n      sstore\n      pop\n        /* \".git/calculaator.sol\":156:241  function getfirstnum(uint _firstnum)public {... */\n      pop\n      jump\t// out\n        /* \".git/calculaator.sol\":247:330  function getsecondnum(uint _secnum)public {... */\n    tag_26:\n        /* \".git/calculaator.sol\":315:322  _secnum */\n      dup1\n        /* \".git/calculaator.sol\":300:312  secondnumber */\n      0x01\n        /* \".git/calculaator.sol\":300:322  secondnumber = _secnum */\n      dup2\n      swap1\n      sstore\n      pop\n        /* \".git/calculaator.sol\":247:330  function getsecondnum(uint _secnum)public {... */\n      pop\n      jump\t// out\n        /* \".git/calculaator.sol\":889:951  function getage(uint _age) public{... */\n    tag_29:\n        /* \".git/calculaator.sol\":939:943  _age */\n      dup1\n        /* \".git/calculaator.sol\":933:936  age */\n      0x02\n        /* \".git/calculaator.sol\":933:943  age = _age */\n      dup2\n      swap1\n      sstore\n      pop\n        /* \".git/calculaator.sol\":889:951  function getage(uint _age) public{... */\n      pop\n      jump\t// out\n        /* \".git/calculaator.sol\":775:872  function invalid()public view returns (uint) {... */\n    tag_31:\n        /* \".git/calculaator.sol\":814:818  uint */\n      0x00\n        /* \".git/calculaator.sol\":852:864  secondnumber */\n      sload(0x01)\n        /* \".git/calculaator.sol\":838:849  firstnumber */\n      sload(0x00)\n        /* \".git/calculaator.sol\":838:864  firstnumber + secondnumber */\n      tag_53\n      swap2\n      swap1\n      tag_54\n      jump\t// in\n    tag_53:\n        /* \".git/calculaator.sol\":831:864  return firstnumber + secondnumber */\n      swap1\n      pop\n        /* \".git/calculaator.sol\":775:872  function invalid()public view returns (uint) {... */\n      swap1\n      jump\t// out\n        /* \".git/calculaator.sol\":957:1276  function checkage()public view returns (string memory){ ... */\n    tag_34:\n        /* \".git/calculaator.sol\":997:1010  string memory */\n      0x60\n        /* \".git/calculaator.sol\":1034:1036  15 */\n      0x0f\n        /* \".git/calculaator.sol\":1027:1030  age */\n      sload(0x02)\n        /* \".git/calculaator.sol\":1027:1036  age <= 15 */\n      gt\n        /* \".git/calculaator.sol\":1023:1269  if (age <= 15){... */\n      tag_56\n      jumpi\n        /* \".git/calculaator.sol\":1052:1085  return \"sorry dear you cant vote\" */\n      mload(0x40)\n      dup1\n      0x40\n      add\n      0x40\n      mstore\n      dup1\n      0x18\n      dup2\n      mstore\n      0x20\n      add\n      0x736f727279206465617220796f752063616e7420766f74650000000000000000\n      dup2\n      mstore\n      pop\n      swap1\n      pop\n      jump(tag_55)\n        /* \".git/calculaator.sol\":1023:1269  if (age <= 15){... */\n    tag_56:\n        /* \".git/calculaator.sol\":1114:1116  16 */\n      0x10\n        /* \".git/calculaator.sol\":1107:1110  age */\n      sload(0x02)\n        /* \".git/calculaator.sol\":1107:1116  age >= 16 */\n      lt\n      iszero\n        /* \".git/calculaator.sol\":1107:1129  age >= 16 && age <= 17 */\n      dup1\n      iszero\n      tag_58\n      jumpi\n      pop\n        /* \".git/calculaator.sol\":1127:1129  17 */\n      0x11\n        /* \".git/calculaator.sol\":1120:1123  age */\n      sload(0x02)\n        /* \".git/calculaator.sol\":1120:1129  age <= 17 */\n      gt\n      iszero\n        /* \".git/calculaator.sol\":1107:1129  age >= 16 && age <= 17 */\n    tag_58:\n        /* \".git/calculaator.sol\":1103:1269  if (age >= 16 && age <= 17) {... */\n      iszero\n      tag_59\n      jumpi\n        /* \".git/calculaator.sol\":1146:1183  return \"very soon you are gonna vote\" */\n      mload(0x40)\n      dup1\n      0x40\n      add\n      0x40\n      mstore\n      dup1\n      0x1c\n      dup2\n      mstore\n      0x20\n      add\n      0x7665727920736f6f6e20796f752061726520676f6e6e6120766f746500000000\n      dup2\n      mstore\n      pop\n      swap1\n      pop\n      jump(tag_55)\n        /* \".git/calculaator.sol\":1103:1269  if (age >= 16 && age <= 17) {... */\n    tag_59:\n        /* \".git/calculaator.sol\":1224:1257  return \"You are eligible to vote\" */\n      mload(0x40)\n      dup1\n      0x40\n      add\n      0x40\n      mstore\n      dup1\n      0x18\n      dup2\n      mstore\n      0x20\n      add\n      0x596f752061726520656c696769626c6520746f20766f74650000000000000000\n      dup2\n      mstore\n      pop\n      swap1\n      pop\n        /* \".git/calculaator.sol\":957:1276  function checkage()public view returns (string memory){ ... */\n    tag_55:\n      swap1\n      jump\t// out\n        /* \".git/calculaator.sol\":445:546  function subtraction()public view returns (uint) {... */\n    tag_38:\n        /* \".git/calculaator.sol\":488:492  uint */\n      0x00\n        /* \".git/calculaator.sol\":526:538  secondnumber */\n      sload(0x01)\n        /* \".git/calculaator.sol\":512:523  firstnumber */\n      sload(0x00)\n        /* \".git/calculaator.sol\":512:538  firstnumber - secondnumber */\n      tag_62\n      swap2\n      swap1\n      tag_63\n      jump\t// in\n    tag_62:\n        /* \".git/calculaator.sol\":505:538  return firstnumber - secondnumber */\n      swap1\n      pop\n        /* \".git/calculaator.sol\":445:546  function subtraction()public view returns (uint) {... */\n      swap1\n      jump\t// out\n        /* \".git/calculaator.sol\":338:436  function addition()public view returns (uint) {... */\n    tag_41:\n        /* \".git/calculaator.sol\":378:382  uint */\n      0x00\n        /* \".git/calculaator.sol\":416:428  secondnumber */\n      sload(0x01)\n        /* \".git/calculaator.sol\":402:413  firstnumber */\n      sload(0x00)\n        /* \".git/calculaator.sol\":402:428  firstnumber + secondnumber */\n      tag_65\n      swap2\n      swap1\n      tag_54\n      jump\t// in\n    tag_65:\n        /* \".git/calculaator.sol\":395:428  return firstnumber + secondnumber */\n      swap1\n      pop\n        /* \".git/calculaator.sol\":338:436  function addition()public view returns (uint) {... */\n      swap1\n      jump\t// out\n        /* \"#utility.yul\":7:84   */\n    tag_66:\n        /* \"#utility.yul\":44:51   */\n      0x00\n        /* \"#utility.yul\":73:78   */\n      dup2\n        /* \"#utility.yul\":62:78   */\n      swap1\n      pop\n        /* \"#utility.yul\":7:84   */\n      swap2\n      swap1\n      pop\n      jump\t// out\n        /* \"#utility.yul\":90:208   */\n    tag_67:\n        /* \"#utility.yul\":177:201   */\n      tag_83\n        /* \"#utility.yul\":195:200   */\n      dup2\n        /* \"#utility.yul\":177:201   */\n      tag_66\n      jump\t// in\n    tag_83:\n        /* \"#utility.yul\":172:175   */\n      dup3\n        /* \"#utility.yul\":165:202   */\n      mstore\n        /* \"#utility.yul\":90:208   */\n      pop\n      pop\n      jump\t// out\n        /* \"#utility.yul\":214:436   */\n    tag_16:\n        /* \"#utility.yul\":307:311   */\n      0x00\n        /* \"#utility.yul\":345:347   */\n      0x20\n        /* \"#utility.yul\":334:343   */\n      dup3\n        /* \"#utility.yul\":330:348   */\n      add\n        /* \"#utility.yul\":322:348   */\n      swap1\n      pop\n        /* \"#utility.yul\":358:429   */\n      tag_85\n        /* \"#utility.yul\":426:427   */\n      0x00\n        /* \"#utility.yul\":415:424   */\n      dup4\n        /* \"#utility.yul\":411:428   */\n      add\n        /* \"#utility.yul\":402:408   */\n      dup5\n        /* \"#utility.yul\":358:429   */\n      tag_67\n      jump\t// in\n    tag_85:\n        /* \"#utility.yul\":214:436   */\n      swap3\n      swap2\n      pop\n      pop\n      jump\t// out\n        /* \"#utility.yul\":523:640   */\n    tag_69:\n        /* \"#utility.yul\":632:633   */\n      0x00\n        /* \"#utility.yul\":629:630   */\n      0x00\n        /* \"#utility.yul\":622:634   */\n      revert\n        /* \"#utility.yul\":769:891   */\n    tag_71:\n        /* \"#utility.yul\":842:866   */\n      tag_90\n        /* \"#utility.yul\":860:865   */\n      dup2\n        /* \"#utility.yul\":842:866   */\n      tag_66\n      jump\t// in\n    tag_90:\n        /* \"#utility.yul\":835:840   */\n      dup2\n        /* \"#utility.yul\":832:867   */\n      eq\n        /* \"#utility.yul\":822:885   */\n      tag_91\n      jumpi\n        /* \"#utility.yul\":881:882   */\n      0x00\n        /* \"#utility.yul\":878:879   */\n      0x00\n        /* \"#utility.yul\":871:883   */\n      revert\n        /* \"#utility.yul\":822:885   */\n    tag_91:\n        /* \"#utility.yul\":769:891   */\n      pop\n      jump\t// out\n        /* \"#utility.yul\":897:1036   */\n    tag_72:\n        /* \"#utility.yul\":943:948   */\n      0x00\n        /* \"#utility.yul\":981:987   */\n      dup2\n        /* \"#utility.yul\":968:988   */\n      calldataload\n        /* \"#utility.yul\":959:988   */\n      swap1\n      pop\n        /* \"#utility.yul\":997:1030   */\n      tag_93\n        /* \"#utility.yul\":1024:1029   */\n      dup2\n        /* \"#utility.yul\":997:1030   */\n      tag_71\n      jump\t// in\n    tag_93:\n        /* \"#utility.yul\":897:1036   */\n      swap3\n      swap2\n      pop\n      pop\n      jump\t// out\n        /* \"#utility.yul\":1042:1371   */\n    tag_22:\n        /* \"#utility.yul\":1101:1107   */\n      0x00\n        /* \"#utility.yul\":1150:1152   */\n      0x20\n        /* \"#utility.yul\":1138:1147   */\n      dup3\n        /* \"#utility.yul\":1129:1136   */\n      dup5\n        /* \"#utility.yul\":1125:1148   */\n      sub\n        /* \"#utility.yul\":1121:1153   */\n      slt\n        /* \"#utility.yul\":1118:1237   */\n      iszero\n      tag_95\n      jumpi\n        /* \"#utility.yul\":1156:1235   */\n      tag_96\n      tag_69\n      jump\t// in\n    tag_96:\n        /* \"#utility.yul\":1118:1237   */\n    tag_95:\n        /* \"#utility.yul\":1276:1277   */\n      0x00\n        /* \"#utility.yul\":1301:1354   */\n      tag_97\n        /* \"#utility.yul\":1346:1353   */\n      dup5\n        /* \"#utility.yul\":1337:1343   */\n      dup3\n        /* \"#utility.yul\":1326:1335   */\n      dup6\n        /* \"#utility.yul\":1322:1344   */\n      add\n        /* \"#utility.yul\":1301:1354   */\n      tag_72\n      jump\t// in\n    tag_97:\n        /* \"#utility.yul\":1291:1354   */\n      swap2\n      pop\n        /* \"#utility.yul\":1247:1364   */\n      pop\n        /* \"#utility.yul\":1042:1371   */\n      swap3\n      swap2\n      pop\n      pop\n      jump\t// out\n        /* \"#utility.yul\":1377:1476   */\n    tag_73:\n        /* \"#utility.yul\":1429:1435   */\n      0x00\n        /* \"#utility.yul\":1463:1468   */\n      dup2\n        /* \"#utility.yul\":1457:1469   */\n      mload\n        /* \"#utility.yul\":1447:1469   */\n      swap1\n      pop\n        /* \"#utility.yul\":1377:1476   */\n      swap2\n      swap1\n      pop\n      jump\t// out\n        /* \"#utility.yul\":1482:1651   */\n    tag_74:\n        /* \"#utility.yul\":1566:1577   */\n      0x00\n        /* \"#utility.yul\":1600:1606   */\n      dup3\n        /* \"#utility.yul\":1595:1598   */\n      dup3\n        /* \"#utility.yul\":1588:1607   */\n      mstore\n        /* \"#utility.yul\":1640:1644   */\n      0x20\n        /* \"#utility.yul\":1635:1638   */\n      dup3\n        /* \"#utility.yul\":1631:1645   */\n      add\n        /* \"#utility.yul\":1616:1645   */\n      swap1\n      pop\n        /* \"#utility.yul\":1482:1651   */\n      swap3\n      swap2\n      pop\n      pop\n      jump\t// out\n        /* \"#utility.yul\":1657:1796   */\n    tag_75:\n        /* \"#utility.yul\":1746:1752   */\n      dup3\n        /* \"#utility.yul\":1741:1744   */\n      dup2\n        /* \"#utility.yul\":1736:1739   */\n      dup4\n        /* \"#utility.yul\":1730:1753   */\n      mcopy\n        /* \"#utility.yul\":1787:1788   */\n      0x00\n        /* \"#utility.yul\":1778:1784   */\n      dup4\n        /* \"#utility.yul\":1773:1776   */\n      dup4\n        /* \"#utility.yul\":1769:1785   */\n      add\n        /* \"#utility.yul\":1762:1789   */\n      mstore\n        /* \"#utility.yul\":1657:1796   */\n      pop\n      pop\n      pop\n      jump\t// out\n        /* \"#utility.yul\":1802:1904   */\n    tag_76:\n        /* \"#utility.yul\":1843:1849   */\n      0x00\n        /* \"#utility.yul\":1894:1896   */\n      0x1f\n        /* \"#utility.yul\":1890:1897   */\n      not\n        /* \"#utility.yul\":1885:1887   */\n      0x1f\n        /* \"#utility.yul\":1878:1883   */\n      dup4\n        /* \"#utility.yul\":1874:1888   */\n      add\n        /* \"#utility.yul\":1870:1898   */\n      and\n        /* \"#utility.yul\":1860:1898   */\n      swap1\n      pop\n        /* \"#utility.yul\":1802:1904   */\n      swap2\n      swap1\n      pop\n      jump\t// out\n        /* \"#utility.yul\":1910:2287   */\n    tag_77:\n        /* \"#utility.yul\":1998:2001   */\n      0x00\n        /* \"#utility.yul\":2026:2065   */\n      tag_103\n        /* \"#utility.yul\":2059:2064   */\n      dup3\n        /* \"#utility.yul\":2026:2065   */\n      tag_73\n      jump\t// in\n    tag_103:\n        /* \"#utility.yul\":2081:2152   */\n      tag_104\n        /* \"#utility.yul\":2145:2151   */\n      dup2\n        /* \"#utility.yul\":2140:2143   */\n      dup6\n        /* \"#utility.yul\":2081:2152   */\n      tag_74\n      jump\t// in\n    tag_104:\n        /* \"#utility.yul\":2074:2152   */\n      swap4\n      pop\n        /* \"#utility.yul\":2161:2226   */\n      tag_105\n        /* \"#utility.yul\":2219:2225   */\n      dup2\n        /* \"#utility.yul\":2214:2217   */\n      dup6\n        /* \"#utility.yul\":2207:2211   */\n      0x20\n        /* \"#utility.yul\":2200:2205   */\n      dup7\n        /* \"#utility.yul\":2196:2212   */\n      add\n        /* \"#utility.yul\":2161:2226   */\n      tag_75\n      jump\t// in\n    tag_105:\n        /* \"#utility.yul\":2251:2280   */\n      tag_106\n        /* \"#utility.yul\":2273:2279   */\n      dup2\n        /* \"#utility.yul\":2251:2280   */\n      tag_76\n      jump\t// in\n    tag_106:\n        /* \"#utility.yul\":2246:2249   */\n      dup5\n        /* \"#utility.yul\":2242:2281   */\n      add\n        /* \"#utility.yul\":2235:2281   */\n      swap2\n      pop\n        /* \"#utility.yul\":2002:2287   */\n      pop\n        /* \"#utility.yul\":1910:2287   */\n      swap3\n      swap2\n      pop\n      pop\n      jump\t// out\n        /* \"#utility.yul\":2293:2606   */\n    tag_36:\n        /* \"#utility.yul\":2406:2410   */\n      0x00\n        /* \"#utility.yul\":2444:2446   */\n      0x20\n        /* \"#utility.yul\":2433:2442   */\n      dup3\n        /* \"#utility.yul\":2429:2447   */\n      add\n        /* \"#utility.yul\":2421:2447   */\n      swap1\n      pop\n        /* \"#utility.yul\":2493:2502   */\n      dup2\n        /* \"#utility.yul\":2487:2491   */\n      dup2\n        /* \"#utility.yul\":2483:2503   */\n      sub\n        /* \"#utility.yul\":2479:2480   */\n      0x00\n        /* \"#utility.yul\":2468:2477   */\n      dup4\n        /* \"#utility.yul\":2464:2481   */\n      add\n        /* \"#utility.yul\":2457:2504   */\n      mstore\n        /* \"#utility.yul\":2521:2599   */\n      tag_108\n        /* \"#utility.yul\":2594:2598   */\n      dup2\n        /* \"#utility.yul\":2585:2591   */\n      dup5\n        /* \"#utility.yul\":2521:2599   */\n      tag_77\n      jump\t// in\n    tag_108:\n        /* \"#utility.yul\":2513:2599   */\n      swap1\n      pop\n        /* \"#utility.yul\":2293:2606   */\n      swap3\n      swap2\n      pop\n      pop\n      jump\t// out\n        /* \"#utility.yul\":2612:2792   */\n    tag_78:\n        /* \"#utility.yul\":2660:2737   */\n      0x4e487b7100000000000000000000000000000000000000000000000000000000\n        /* \"#utility.yul\":2657:2658   */\n      0x00\n        /* \"#utility.yul\":2650:2738   */\n      mstore\n        /* \"#utility.yul\":2757:2761   */\n      0x11\n        /* \"#utility.yul\":2754:2755   */\n      0x04\n        /* \"#utility.yul\":2747:2762   */\n      mstore\n        /* \"#utility.yul\":2781:2785   */\n      0x24\n        /* \"#utility.yul\":2778:2779   */\n      0x00\n        /* \"#utility.yul\":2771:2786   */\n      revert\n        /* \"#utility.yul\":2798:3208   */\n    tag_45:\n        /* \"#utility.yul\":2838:2845   */\n      0x00\n        /* \"#utility.yul\":2861:2881   */\n      tag_111\n        /* \"#utility.yul\":2879:2880   */\n      dup3\n        /* \"#utility.yul\":2861:2881   */\n      tag_66\n      jump\t// in\n    tag_111:\n        /* \"#utility.yul\":2856:2881   */\n      swap2\n      pop\n        /* \"#utility.yul\":2895:2915   */\n      tag_112\n        /* \"#utility.yul\":2913:2914   */\n      dup4\n        /* \"#utility.yul\":2895:2915   */\n      tag_66\n      jump\t// in\n    tag_112:\n        /* \"#utility.yul\":2890:2915   */\n      swap3\n      pop\n        /* \"#utility.yul\":2950:2951   */\n      dup3\n        /* \"#utility.yul\":2947:2948   */\n      dup3\n        /* \"#utility.yul\":2943:2952   */\n      mul\n        /* \"#utility.yul\":2972:3002   */\n      tag_113\n        /* \"#utility.yul\":2990:3001   */\n      dup2\n        /* \"#utility.yul\":2972:3002   */\n      tag_66\n      jump\t// in\n    tag_113:\n        /* \"#utility.yul\":2961:3002   */\n      swap2\n      pop\n        /* \"#utility.yul\":3151:3152   */\n      dup3\n        /* \"#utility.yul\":3142:3149   */\n      dup3\n        /* \"#utility.yul\":3138:3153   */\n      div\n        /* \"#utility.yul\":3135:3136   */\n      dup5\n        /* \"#utility.yul\":3132:3154   */\n      eq\n        /* \"#utility.yul\":3112:3113   */\n      dup4\n        /* \"#utility.yul\":3105:3114   */\n      iszero\n        /* \"#utility.yul\":3085:3168   */\n      or\n        /* \"#utility.yul\":3062:3201   */\n      tag_114\n      jumpi\n        /* \"#utility.yul\":3181:3199   */\n      tag_115\n      tag_78\n      jump\t// in\n    tag_115:\n        /* \"#utility.yul\":3062:3201   */\n    tag_114:\n        /* \"#utility.yul\":2846:3208   */\n      pop\n        /* \"#utility.yul\":2798:3208   */\n      swap3\n      swap2\n      pop\n      pop\n      jump\t// out\n        /* \"#utility.yul\":3214:3394   */\n    tag_79:\n        /* \"#utility.yul\":3262:3339   */\n      0x4e487b7100000000000000000000000000000000000000000000000000000000\n        /* \"#utility.yul\":3259:3260   */\n      0x00\n        /* \"#utility.yul\":3252:3340   */\n      mstore\n        /* \"#utility.yul\":3359:3363   */\n      0x12\n        /* \"#utility.yul\":3356:3357   */\n      0x04\n        /* \"#utility.yul\":3349:3364   */\n      mstore\n        /* \"#utility.yul\":3383:3387   */\n      0x24\n        /* \"#utility.yul\":3380:3381   */\n      0x00\n        /* \"#utility.yul\":3373:3388   */\n      revert\n        /* \"#utility.yul\":3400:3585   */\n    tag_48:\n        /* \"#utility.yul\":3440:3441   */\n      0x00\n        /* \"#utility.yul\":3457:3477   */\n      tag_118\n        /* \"#utility.yul\":3475:3476   */\n      dup3\n        /* \"#utility.yul\":3457:3477   */\n      tag_66\n      jump\t// in\n    tag_118:\n        /* \"#utility.yul\":3452:3477   */\n      swap2\n      pop\n        /* \"#utility.yul\":3491:3511   */\n      tag_119\n        /* \"#utility.yul\":3509:3510   */\n      dup4\n        /* \"#utility.yul\":3491:3511   */\n      tag_66\n      jump\t// in\n    tag_119:\n        /* \"#utility.yul\":3486:3511   */\n      swap3\n      pop\n        /* \"#utility.yul\":3530:3531   */\n      dup3\n        /* \"#utility.yul\":3520:3555   */\n      tag_120\n      jumpi\n        /* \"#utility.yul\":3535:3553   */\n      tag_121\n      tag_79\n      jump\t// in\n    tag_121:\n        /* \"#utility.yul\":3520:3555   */\n    tag_120:\n        /* \"#utility.yul\":3577:3578   */\n      dup3\n        /* \"#utility.yul\":3574:3575   */\n      dup3\n        /* \"#utility.yul\":3570:3579   */\n      div\n        /* \"#utility.yul\":3565:3579   */\n      swap1\n      pop\n        /* \"#utility.yul\":3400:3585   */\n      swap3\n      swap2\n      pop\n      pop\n      jump\t// out\n        /* \"#utility.yul\":3591:3782   */\n    tag_54:\n        /* \"#utility.yul\":3631:3634   */\n      0x00\n        /* \"#utility.yul\":3650:3670   */\n      tag_123\n        /* \"#utility.yul\":3668:3669   */\n      dup3\n        /* \"#utility.yul\":3650:3670   */\n      tag_66\n      jump\t// in\n    tag_123:\n        /* \"#utility.yul\":3645:3670   */\n      swap2\n      pop\n        /* \"#utility.yul\":3684:3704   */\n      tag_124\n        /* \"#utility.yul\":3702:3703   */\n      dup4\n        /* \"#utility.yul\":3684:3704   */\n      tag_66\n      jump\t// in\n    tag_124:\n        /* \"#utility.yul\":3679:3704   */\n      swap3\n      pop\n        /* \"#utility.yul\":3727:3728   */\n      dup3\n        /* \"#utility.yul\":3724:3725   */\n      dup3\n        /* \"#utility.yul\":3720:3729   */\n      add\n        /* \"#utility.yul\":3713:3729   */\n      swap1\n      pop\n        /* \"#utility.yul\":3748:3751   */\n      dup1\n        /* \"#utility.yul\":3745:3746   */\n      dup3\n        /* \"#utility.yul\":3742:3752   */\n      gt\n        /* \"#utility.yul\":3739:3775   */\n      iszero\n      tag_125\n      jumpi\n        /* \"#utility.yul\":3755:3773   */\n      tag_126\n      tag_78\n      jump\t// in\n    tag_126:\n        /* \"#utility.yul\":3739:3775   */\n    tag_125:\n        /* \"#utility.yul\":3591:3782   */\n      swap3\n      swap2\n      pop\n      pop\n      jump\t// out\n        /* \"#utility.yul\":3788:3982   */\n    tag_63:\n        /* \"#utility.yul\":3828:3832   */\n      0x00\n        /* \"#utility.yul\":3848:3868   */\n      tag_128\n        /* \"#utility.yul\":3866:3867   */\n      dup3\n        /* \"#utility.yul\":3848:3868   */\n      tag_66\n      jump\t// in\n    tag_128:\n        /* \"#utility.yul\":3843:3868   */\n      swap2\n      pop\n        /* \"#utility.yul\":3882:3902   */\n      tag_129\n        /* \"#utility.yul\":3900:3901   */\n      dup4\n        /* \"#utility.yul\":3882:3902   */\n      tag_66\n      jump\t// in\n    tag_129:\n        /* \"#utility.yul\":3877:3902   */\n      swap3\n      pop\n        /* \"#utility.yul\":3926:3927   */\n      dup3\n        /* \"#utility.yul\":3923:3924   */\n      dup3\n        /* \"#utility.yul\":3919:3928   */\n      sub\n        /* \"#utility.yul\":3911:3928   */\n      swap1\n      pop\n        /* \"#utility.yul\":3950:3951   */\n      dup2\n        /* \"#utility.yul\":3944:3948   */\n      dup2\n        /* \"#utility.yul\":3941:3952   */\n      gt\n        /* \"#utility.yul\":3938:3975   */\n      iszero\n      tag_130\n      jumpi\n        /* \"#utility.yul\":3955:3973   */\n      tag_131\n      tag_78\n      jump\t// in\n    tag_131:\n        /* \"#utility.yul\":3938:3975   */\n    tag_130:\n        /* \"#utility.yul\":3788:3982   */\n      swap3\n      swap2\n      pop\n      pop\n      jump\t// out\n\n    auxdata: 0xa264697066735822122075ebc308186d44ac0d5c26c1210f756417f81c8f0e2d934a1ec21c82073541a964736f6c634300081e0033\n}\n",
				"bytecode": {
					"linkReferences": {},
					"object": "6080604052348015600e575f5ffd5b506105818061001c5f395ff3fe608060405234801561000f575f5ffd5b5060043610610091575f3560e01c8063a59e0d5411610064578063a59e0d5414610109578063bde9e40e14610125578063d62ff3a414610143578063e3ec025114610161578063ec5971281461017f57610091565b8063011285da146100955780633205f5fc146100b357806348a9066d146100d15780639f17c892146100ed575b5f5ffd5b61009d61019d565b6040516100aa9190610318565b60405180910390f35b6100bb6101b2565b6040516100c89190610318565b60405180910390f35b6100eb60048036038101906100e6919061035f565b6101c7565b005b6101076004803603810190610102919061035f565b6101d0565b005b610123600480360381019061011e919061035f565b6101da565b005b61012d6101e4565b60405161013a9190610318565b60405180910390f35b61014b6101f9565b60405161015891906103fa565b60405180910390f35b6101696102d6565b6040516101769190610318565b60405180910390f35b6101876102eb565b6040516101949190610318565b60405180910390f35b5f6001545f546101ad9190610447565b905090565b5f6001545f546101c291906104b5565b905090565b805f8190555050565b8060018190555050565b8060028190555050565b5f6001545f546101f491906104e5565b905090565b6060600f60025411610242576040518060400160405280601881526020017f736f727279206465617220796f752063616e7420766f7465000000000000000081525090506102d3565b6010600254101580156102585750601160025411155b1561029a576040518060400160405280601c81526020017f7665727920736f6f6e20796f752061726520676f6e6e6120766f74650000000081525090506102d3565b6040518060400160405280601881526020017f596f752061726520656c696769626c6520746f20766f7465000000000000000081525090505b90565b5f6001545f546102e69190610518565b905090565b5f6001545f546102fb91906104e5565b905090565b5f819050919050565b61031281610300565b82525050565b5f60208201905061032b5f830184610309565b92915050565b5f5ffd5b61033e81610300565b8114610348575f5ffd5b50565b5f8135905061035981610335565b92915050565b5f6020828403121561037457610373610331565b5b5f6103818482850161034b565b91505092915050565b5f81519050919050565b5f82825260208201905092915050565b8281835e5f83830152505050565b5f601f19601f8301169050919050565b5f6103cc8261038a565b6103d68185610394565b93506103e68185602086016103a4565b6103ef816103b2565b840191505092915050565b5f6020820190508181035f83015261041281846103c2565b905092915050565b7f4e487b71000000000000000000000000000000000000000000000000000000005f52601160045260245ffd5b5f61045182610300565b915061045c83610300565b925082820261046a81610300565b915082820484148315176104815761048061041a565b5b5092915050565b7f4e487b71000000000000000000000000000000000000000000000000000000005f52601260045260245ffd5b5f6104bf82610300565b91506104ca83610300565b9250826104da576104d9610488565b5b828204905092915050565b5f6104ef82610300565b91506104fa83610300565b92508282019050808211156105125761051161041a565b5b92915050565b5f61052282610300565b915061052d83610300565b92508282039050818111156105455761054461041a565b5b9291505056fea264697066735822122075ebc308186d44ac0d5c26c1210f756417f81c8f0e2d934a1ec21c82073541a964736f6c634300081e0033",
					"opcodes": "PUSH1 0x80 PUSH1 0x40 MSTORE CALLVALUE DUP1 ISZERO PUSH1 0xE JUMPI PUSH0 PUSH0 REVERT JUMPDEST POP PUSH2 0x581 DUP1 PUSH2 0x1C PUSH0 CODECOPY PUSH0 RETURN INVALID PUSH1 0x80 PUSH1 0x40 MSTORE CALLVALUE DUP1 ISZERO PUSH2 0xF JUMPI PUSH0 PUSH0 REVERT JUMPDEST POP PUSH1 0x4 CALLDATASIZE LT PUSH2 0x91 JUMPI PUSH0 CALLDATALOAD PUSH1 0xE0 SHR DUP1 PUSH4 0xA59E0D54 GT PUSH2 0x64 JUMPI DUP1 PUSH4 0xA59E0D54 EQ PUSH2 0x109 JUMPI DUP1 PUSH4 0xBDE9E40E EQ PUSH2 0x125 JUMPI DUP1 PUSH4 0xD62FF3A4 EQ PUSH2 0x143 JUMPI DUP1 PUSH4 0xE3EC0251 EQ PUSH2 0x161 JUMPI DUP1 PUSH4 0xEC597128 EQ PUSH2 0x17F JUMPI PUSH2 0x91 JUMP JUMPDEST DUP1 PUSH4 0x11285DA EQ PUSH2 0x95 JUMPI DUP1 PUSH4 0x3205F5FC EQ PUSH2 0xB3 JUMPI DUP1 PUSH4 0x48A9066D EQ PUSH2 0xD1 JUMPI DUP1 PUSH4 0x9F17C892 EQ PUSH2 0xED JUMPI JUMPDEST PUSH0 PUSH0 REVERT JUMPDEST PUSH2 0x9D PUSH2 0x19D JUMP JUMPDEST PUSH1 0x40 MLOAD PUSH2 0xAA SWAP2 SWAP1 PUSH2 0x318 JUMP JUMPDEST PUSH1 0x40 MLOAD DUP1 SWAP2 SUB SWAP1 RETURN JUMPDEST PUSH2 0xBB PUSH2 0x1B2 JUMP JUMPDEST PUSH1 0x40 MLOAD PUSH2 0xC8 SWAP2 SWAP1 PUSH2 0x318 JUMP JUMPDEST PUSH1 0x40 MLOAD DUP1 SWAP2 SUB SWAP1 RETURN JUMPDEST PUSH2 0xEB PUSH1 0x4 DUP1 CALLDATASIZE SUB DUP2 ADD SWAP1 PUSH2 0xE6 SWAP2 SWAP1 PUSH2 0x35F JUMP JUMPDEST PUSH2 0x1C7 JUMP JUMPDEST STOP JUMPDEST PUSH2 0x107 PUSH1 0x4 DUP1 CALLDATASIZE SUB DUP2 ADD SWAP1 PUSH2 0x102 SWAP2 SWAP1 PUSH2 0x35F JUMP JUMPDEST PUSH2 0x1D0 JUMP JUMPDEST STOP JUMPDEST PUSH2 0x123 PUSH1 0x4 DUP1 CALLDATASIZE SUB DUP2 ADD SWAP1 PUSH2 0x11E SWAP2 SWAP1 PUSH2 0x35F JUMP JUMPDEST PUSH2 0x1DA JUMP JUMPDEST STOP JUMPDEST PUSH2 0x12D PUSH2 0x1E4 JUMP JUMPDEST PUSH1 0x40 MLOAD PUSH2 0x13A SWAP2 SWAP1 PUSH2 0x318 JUMP JUMPDEST PUSH1 0x40 MLOAD DUP1 SWAP2 SUB SWAP1 RETURN JUMPDEST PUSH2 0x14B PUSH2 0x1F9 JUMP JUMPDEST PUSH1 0x40 MLOAD PUSH2 0x158 SWAP2 SWAP1 PUSH2 0x3FA JUMP JUMPDEST PUSH1 0x40 MLOAD DUP1 SWAP2 SUB SWAP1 RETURN JUMPDEST PUSH2 0x169 PUSH2 0x2D6 JUMP JUMPDEST PUSH1 0x40 MLOAD PUSH2 0x176 SWAP2 SWAP1 PUSH2 0x318 JUMP JUMPDEST PUSH1 0x40 MLOAD DUP1 SWAP2 SUB SWAP1 RETURN JUMPDEST PUSH2 0x187 PUSH2 0x2EB JUMP JUMPDEST PUSH1 0x40 MLOAD PUSH2 0x194 SWAP2 SWAP1 PUSH2 0x318 JUMP JUMPDEST PUSH1 0x40 MLOAD DUP1 SWAP2 SUB SWAP1 RETURN JUMPDEST PUSH0 PUSH1 0x1 SLOAD PUSH0 SLOAD PUSH2 0x1AD SWAP2 SWAP1 PUSH2 0x447 JUMP JUMPDEST SWAP1 POP SWAP1 JUMP JUMPDEST PUSH0 PUSH1 0x1 SLOAD PUSH0 SLOAD PUSH2 0x1C2 SWAP2 SWAP1 PUSH2 0x4B5 JUMP JUMPDEST SWAP1 POP SWAP1 JUMP JUMPDEST DUP1 PUSH0 DUP2 SWAP1 SSTORE POP POP JUMP JUMPDEST DUP1 PUSH1 0x1 DUP2 SWAP1 SSTORE POP POP JUMP JUMPDEST DUP1 PUSH1 0x2 DUP2 SWAP1 SSTORE POP POP JUMP JUMPDEST PUSH0 PUSH1 0x1 SLOAD PUSH0 SLOAD PUSH2 0x1F4 SWAP2 SWAP1 PUSH2 0x4E5 JUMP JUMPDEST SWAP1 POP SWAP1 JUMP JUMPDEST PUSH1 0x60 PUSH1 0xF PUSH1 0x2 SLOAD GT PUSH2 0x242 JUMPI PUSH1 0x40 MLOAD DUP1 PUSH1 0x40 ADD PUSH1 0x40 MSTORE DUP1 PUSH1 0x18 DUP2 MSTORE PUSH1 0x20 ADD PUSH32 0x736F727279206465617220796F752063616E7420766F74650000000000000000 DUP2 MSTORE POP SWAP1 POP PUSH2 0x2D3 JUMP JUMPDEST PUSH1 0x10 PUSH1 0x2 SLOAD LT ISZERO DUP1 ISZERO PUSH2 0x258 JUMPI POP PUSH1 0x11 PUSH1 0x2 SLOAD GT ISZERO JUMPDEST ISZERO PUSH2 0x29A JUMPI PUSH1 0x40 MLOAD DUP1 PUSH1 0x40 ADD PUSH1 0x40 MSTORE DUP1 PUSH1 0x1C DUP2 MSTORE PUSH1 0x20 ADD PUSH32 0x7665727920736F6F6E20796F752061726520676F6E6E6120766F746500000000 DUP2 MSTORE POP SWAP1 POP PUSH2 0x2D3 JUMP JUMPDEST PUSH1 0x40 MLOAD DUP1 PUSH1 0x40 ADD PUSH1 0x40 MSTORE DUP1 PUSH1 0x18 DUP2 MSTORE PUSH1 0x20 ADD PUSH32 0x596F752061726520656C696769626C6520746F20766F74650000000000000000 DUP2 MSTORE POP SWAP1 POP JUMPDEST SWAP1 JUMP JUMPDEST PUSH0 PUSH1 0x1 SLOAD PUSH0 SLOAD PUSH2 0x2E6 SWAP2 SWAP1 PUSH2 0x518 JUMP JUMPDEST SWAP1 POP SWAP1 JUMP JUMPDEST PUSH0 PUSH1 0x1 SLOAD PUSH0 SLOAD PUSH2 0x2FB SWAP2 SWAP1 PUSH2 0x4E5 JUMP JUMPDEST SWAP1 POP SWAP1 JUMP JUMPDEST PUSH0 DUP2 SWAP1 POP SWAP2 SWAP1 POP JUMP JUMPDEST PUSH2 0x312 DUP2 PUSH2 0x300 JUMP JUMPDEST DUP3 MSTORE POP POP JUMP JUMPDEST PUSH0 PUSH1 0x20 DUP3 ADD SWAP1 POP PUSH2 0x32B PUSH0 DUP4 ADD DUP5 PUSH2 0x309 JUMP JUMPDEST SWAP3 SWAP2 POP POP JUMP JUMPDEST PUSH0 PUSH0 REVERT JUMPDEST PUSH2 0x33E DUP2 PUSH2 0x300 JUMP JUMPDEST DUP2 EQ PUSH2 0x348 JUMPI PUSH0 PUSH0 REVERT JUMPDEST POP JUMP JUMPDEST PUSH0 DUP2 CALLDATALOAD SWAP1 POP PUSH2 0x359 DUP2 PUSH2 0x335 JUMP JUMPDEST SWAP3 SWAP2 POP POP JUMP JUMPDEST PUSH0 PUSH1 0x20 DUP3 DUP5 SUB SLT ISZERO PUSH2 0x374 JUMPI PUSH2 0x373 PUSH2 0x331 JUMP JUMPDEST JUMPDEST PUSH0 PUSH2 0x381 DUP5 DUP3 DUP6 ADD PUSH2 0x34B JUMP JUMPDEST SWAP2 POP POP SWAP3 SWAP2 POP POP JUMP JUMPDEST PUSH0 DUP2 MLOAD SWAP1 POP SWAP2 SWAP1 POP JUMP JUMPDEST PUSH0 DUP3 DUP3 MSTORE PUSH1 0x20 DUP3 ADD SWAP1 POP SWAP3 SWAP2 POP POP JUMP JUMPDEST DUP3 DUP2 DUP4 MCOPY PUSH0 DUP4 DUP4 ADD MSTORE POP POP POP JUMP JUMPDEST PUSH0 PUSH1 0x1F NOT PUSH1 0x1F DUP4 ADD AND SWAP1 POP SWAP2 SWAP1 POP JUMP JUMPDEST PUSH0 PUSH2 0x3CC DUP3 PUSH2 0x38A JUMP JUMPDEST PUSH2 0x3D6 DUP2 DUP6 PUSH2 0x394 JUMP JUMPDEST SWAP4 POP PUSH2 0x3E6 DUP2 DUP6 PUSH1 0x20 DUP7 ADD PUSH2 0x3A4 JUMP JUMPDEST PUSH2 0x3EF DUP2 PUSH2 0x3B2 JUMP JUMPDEST DUP5 ADD SWAP2 POP POP SWAP3 SWAP2 POP POP JUMP JUMPDEST PUSH0 PUSH1 0x20 DUP3 ADD SWAP1 POP DUP2 DUP2 SUB PUSH0 DUP4 ADD MSTORE PUSH2 0x412 DUP2 DUP5 PUSH2 0x3C2 JUMP JUMPDEST SWAP1 POP SWAP3 SWAP2 POP POP JUMP JUMPDEST PUSH32 0x4E487B7100000000000000000000000000000000000000000000000000000000 PUSH0 MSTORE PUSH1 0x11 PUSH1 0x4 MSTORE PUSH1 0x24 PUSH0 REVERT JUMPDEST PUSH0 PUSH2 0x451 DUP3 PUSH2 0x300 JUMP JUMPDEST SWAP2 POP PUSH2 0x45C DUP4 PUSH2 0x300 JUMP JUMPDEST SWAP3 POP DUP3 DUP3 MUL PUSH2 0x46A DUP2 PUSH2 0x300 JUMP JUMPDEST SWAP2 POP DUP3 DUP3 DIV DUP5 EQ DUP4 ISZERO OR PUSH2 0x481 JUMPI PUSH2 0x480 PUSH2 0x41A JUMP JUMPDEST JUMPDEST POP SWAP3 SWAP2 POP POP JUMP JUMPDEST PUSH32 0x4E487B7100000000000000000000000000000000000000000000000000000000 PUSH0 MSTORE PUSH1 0x12 PUSH1 0x4 MSTORE PUSH1 0x24 PUSH0 REVERT JUMPDEST PUSH0 PUSH2 0x4BF DUP3 PUSH2 0x300 JUMP JUMPDEST SWAP2 POP PUSH2 0x4CA DUP4 PUSH2 0x300 JUMP JUMPDEST SWAP3 POP DUP3 PUSH2 0x4DA JUMPI PUSH2 0x4D9 PUSH2 0x488 JUMP JUMPDEST JUMPDEST DUP3 DUP3 DIV SWAP1 POP SWAP3 SWAP2 POP POP JUMP JUMPDEST PUSH0 PUSH2 0x4EF DUP3 PUSH2 0x300 JUMP JUMPDEST SWAP2 POP PUSH2 0x4FA DUP4 PUSH2 0x300 JUMP JUMPDEST SWAP3 POP DUP3 DUP3 ADD SWAP1 POP DUP1 DUP3 GT ISZERO PUSH2 0x512 JUMPI PUSH2 0x511 PUSH2 0x41A JUMP JUMPDEST JUMPDEST SWAP3 SWAP2 POP POP JUMP JUMPDEST PUSH0 PUSH2 0x522 DUP3 PUSH2 0x300 JUMP JUMPDEST SWAP2 POP PUSH2 0x52D DUP4 PUSH2 0x300 JUMP JUMPDEST SWAP3 POP DUP3 DUP3 SUB SWAP1 POP DUP2 DUP2 GT ISZERO PUSH2 0x545 JUMPI PUSH2 0x544 PUSH2 0x41A JUMP JUMPDEST JUMPDEST SWAP3 SWAP2 POP POP JUMP INVALID LOG2 PUSH5 0x6970667358 0x22 SLT KECCAK256 PUSH22 0xEBC308186D44AC0D5C26C1210F756417F81C8F0E2D93 BLOBBASEFEE 0x1E 0xC2 SHR DUP3 SMOD CALLDATALOAD COINBASE 0xA9 PUSH5 0x736F6C6343 STOP ADDMOD 0x1E STOP CALLER "
				},
				"gasEstimates": {
					"creation": {
						"codeDepositCost": "281800",
						"executionCost": "322",
						"totalCost": "282122"
					},
					"external": {
						"addition()": "infinite",
						"checkage()": "infinite",
						"division()": "infinite",
						"getage(uint256)": "22515",
						"getfirstnum(uint256)": "22559",
						"getsecondnum(uint256)": "22582",
						"invalid()": "infinite",
						"multiplication()": "infinite",
						"subtraction()": "infinite"
					}
				},
				"methodIdentifiers": {
					"addition()": "ec597128",
					"checkage()": "d62ff3a4",
					"division()": "3205f5fc",
					"getage(uint256)": "a59e0d54",
					"getfirstnum(uint256)": "48a9066d",
					"getsecondnum(uint256)": "9f17c892",
					"invalid()": "bde9e40e",
					"multiplication()": "011285da",
					"subtraction()": "e3ec0251"
				}
			},
			"storageLayout": {
				"storage": [
					{
						"astId": 3,
						"contract": ".git/calculaator.sol:calculatorandall",
						"label": "firstnumber",
						"offset": 0,
						"slot": "0",
						"type": "t_uint256"
					},
					{
						"astId": 5,
						"contract": ".git/calculaator.sol:calculatorandall",
						"label": "secondnumber",
						"offset": 0,
						"slot": "1",
						"type": "t_uint256"
					},
					{
						"astId": 7,
						"contract": ".git/calculaator.sol:calculatorandall",
						"label": "age",
						"offset": 0,
						"slot": "2",
						"type": "t_uint256"
					}
				],
				"types": {
					"t_uint256": {
						"encoding": "inplace",
						"label": "uint256",
						"numberOfBytes": "32"
					}
				}
			},
			"userdoc": {
				"kind": "user",
				"methods": {},
				"version": 1
			}
		}
	}
}