{
	"data": {
		"bytecode": {
			"linkReferences": {},
			"object": "6080604052348015600e575f5ffd5b50610aa68061001c5f395ff3fe608060405234801561000f575f5ffd5b50600436106100f3575f3560e01c80639daaf83a11610095578063bed948c511610064578063bed948c514610237578063d62ff3a414610253578063e3ec025114610271578063ec5971281461028f576100f3565b80639daaf83a146101c35780639f17c892146101e1578063a59e0d54146101fd578063bde9e40e14610219576100f3565b8063266de1e0116100d1578063266de1e01461014d5780633205f5fc1461016b57806348a9066d146101895780637f109886146101a5576100f3565b8063011285da146100f757806312a09447146101155780631981bfa014610131575b5f5ffd5b6100ff6102ad565b60405161010c919061083d565b60405180910390f35b61012f600480360381019061012a9190610884565b6102c2565b005b61014b60048036038101906101469190610884565b6102cc565b005b6101556102d6565b604051610162919061091f565b60405180910390f35b61017361040b565b604051610180919061083d565b60405180910390f35b6101a3600480360381019061019e9190610884565b610420565b005b6101ad610429565b6040516101ba919061091f565b60405180910390f35b6101cb610506565b6040516101d8919061091f565b60405180910390f35b6101fb60048036038101906101f69190610884565b6106eb565b005b61021760048036038101906102129190610884565b6106f5565b005b6102216106ff565b60405161022e919061083d565b60405180910390f35b610251600480360381019061024c9190610884565b610714565b005b61025b61071e565b604051610268919061091f565b60405180910390f35b6102796107fb565b604051610286919061083d565b60405180910390f35b610297610810565b6040516102a4919061083d565b60405180910390f35b5f6001545f546102bd919061096c565b905090565b8060048190555050565b8060058190555050565b6060600c6003541161031f576040518060400160405280600c81526020017f476f6f64204d6f726e696e6700000000000000000000000000000000000000008152509050610408565b600c600354101580156103355750601060035411155b15610377576040518060400160405280600e81526020017f476f6f642041667465726e6f6f6e0000000000000000000000000000000000008152509050610408565b60106003541015801561038d5750601460035411155b156103cf576040518060400160405280600c81526020017f476f6f64204576656e696e6700000000000000000000000000000000000000008152509050610408565b6040518060400160405280600a81526020017f476f6f64204e696768740000000000000000000000000000000000000000000081525090505b90565b5f6001545f5461041b91906109da565b905090565b805f8190555050565b6060600f60045411610472576040518060400160405280600481526020017f636f6c64000000000000000000000000000000000000000000000000000000008152509050610503565b600f600454101580156104885750601960045411155b156104ca576040518060400160405280600681526020017f6e6f726d616c00000000000000000000000000000000000000000000000000008152509050610503565b6040518060400160405280600381526020017f686f74000000000000000000000000000000000000000000000000000000000081525090505b90565b606060086005541161054f576040518060400160405280600f81526020017f6c6561726e2074696c6c203130616d000000000000000000000000000000000081525090506106e8565b600a600554101580156105655750600c60055411155b156105a7576040518060400160405280600d81526020017f676f206e2067657420666f6f640000000000000000000000000000000000000081525090506106e8565b600c600554101580156105bd5750600e60055411155b156105ff576040518060400160405280600d81526020017f70726f6261626c7920726561640000000000000000000000000000000000000081525090506106e8565b600e600554101580156106155750601260055411155b15610657576040518060400160405280600581526020017f736c65657000000000000000000000000000000000000000000000000000000081525090506106e8565b60136005541015801561066d5750601460055411155b156106af576040518060400160405280600781526020017f687964726174650000000000000000000000000000000000000000000000000081525090506106e8565b6040518060400160405280600b81526020017f736c65657020616761696e00000000000000000000000000000000000000000081525090505b90565b8060018190555050565b8060028190555050565b5f6001545f5461070f9190610a0a565b905090565b8060038190555050565b6060600f60025411610767576040518060400160405280601881526020017f736f727279206465617220796f752063616e7420766f7465000000000000000081525090506107f8565b60106002541015801561077d5750601160025411155b156107bf576040518060400160405280601c81526020017f7665727920736f6f6e20796f752061726520676f6e6e6120766f74650000000081525090506107f8565b6040518060400160405280601881526020017f596f752061726520656c696769626c6520746f20766f7465000000000000000081525090505b90565b5f6001545f5461080b9190610a3d565b905090565b5f6001545f546108209190610a0a565b905090565b5f819050919050565b61083781610825565b82525050565b5f6020820190506108505f83018461082e565b92915050565b5f5ffd5b61086381610825565b811461086d575f5ffd5b50565b5f8135905061087e8161085a565b92915050565b5f6020828403121561089957610898610856565b5b5f6108a684828501610870565b91505092915050565b5f81519050919050565b5f82825260208201905092915050565b8281835e5f83830152505050565b5f601f19601f8301169050919050565b5f6108f1826108af565b6108fb81856108b9565b935061090b8185602086016108c9565b610914816108d7565b840191505092915050565b5f6020820190508181035f83015261093781846108e7565b905092915050565b7f4e487b71000000000000000000000000000000000000000000000000000000005f52601160045260245ffd5b5f61097682610825565b915061098183610825565b925082820261098f81610825565b915082820484148315176109a6576109a561093f565b5b5092915050565b7f4e487b71000000000000000000000000000000000000000000000000000000005f52601260045260245ffd5b5f6109e482610825565b91506109ef83610825565b9250826109ff576109fe6109ad565b5b828204905092915050565b5f610a1482610825565b9150610a1f83610825565b9250828201905080821115610a3757610a3661093f565b5b92915050565b5f610a4782610825565b9150610a5283610825565b9250828203905081811115610a6a57610a6961093f565b5b9291505056fea264697066735822122089eb712f1b4802bba80c92ad7c88c5dde1188d1378890bf31864319d3c88019164736f6c634300081e0033",
			"opcodes": "PUSH1 0x80 PUSH1 0x40 MSTORE CALLVALUE DUP1 ISZERO PUSH1 0xE JUMPI PUSH0 PUSH0 REVERT JUMPDEST POP PUSH2 0xAA6 DUP1 PUSH2 0x1C PUSH0 CODECOPY PUSH0 RETURN INVALID PUSH1 0x80 PUSH1 0x40 MSTORE CALLVALUE DUP1 ISZERO PUSH2 0xF JUMPI PUSH0 PUSH0 REVERT JUMPDEST POP PUSH1 0x4 CALLDATASIZE LT PUSH2 0xF3 JUMPI PUSH0 CALLDATALOAD PUSH1 0xE0 SHR DUP1 PUSH4 0x9DAAF83A GT PUSH2 0x95 JUMPI DUP1 PUSH4 0xBED948C5 GT PUSH2 0x64 JUMPI DUP1 PUSH4 0xBED948C5 EQ PUSH2 0x237 JUMPI DUP1 PUSH4 0xD62FF3A4 EQ PUSH2 0x253 JUMPI DUP1 PUSH4 0xE3EC0251 EQ PUSH2 0x271 JUMPI DUP1 PUSH4 0xEC597128 EQ PUSH2 0x28F JUMPI PUSH2 0xF3 JUMP JUMPDEST DUP1 PUSH4 0x9DAAF83A EQ PUSH2 0x1C3 JUMPI DUP1 PUSH4 0x9F17C892 EQ PUSH2 0x1E1 JUMPI DUP1 PUSH4 0xA59E0D54 EQ PUSH2 0x1FD JUMPI DUP1 PUSH4 0xBDE9E40E EQ PUSH2 0x219 JUMPI PUSH2 0xF3 JUMP JUMPDEST DUP1 PUSH4 0x266DE1E0 GT PUSH2 0xD1 JUMPI DUP1 PUSH4 0x266DE1E0 EQ PUSH2 0x14D JUMPI DUP1 PUSH4 0x3205F5FC EQ PUSH2 0x16B JUMPI DUP1 PUSH4 0x48A9066D EQ PUSH2 0x189 JUMPI DUP1 PUSH4 0x7F109886 EQ PUSH2 0x1A5 JUMPI PUSH2 0xF3 JUMP JUMPDEST DUP1 PUSH4 0x11285DA EQ PUSH2 0xF7 JUMPI DUP1 PUSH4 0x12A09447 EQ PUSH2 0x115 JUMPI DUP1 PUSH4 0x1981BFA0 EQ PUSH2 0x131 JUMPI JUMPDEST PUSH0 PUSH0 REVERT JUMPDEST PUSH2 0xFF PUSH2 0x2AD JUMP JUMPDEST PUSH1 0x40 MLOAD PUSH2 0x10C SWAP2 SWAP1 PUSH2 0x83D JUMP JUMPDEST PUSH1 0x40 MLOAD DUP1 SWAP2 SUB SWAP1 RETURN JUMPDEST PUSH2 0x12F PUSH1 0x4 DUP1 CALLDATASIZE SUB DUP2 ADD SWAP1 PUSH2 0x12A SWAP2 SWAP1 PUSH2 0x884 JUMP JUMPDEST PUSH2 0x2C2 JUMP JUMPDEST STOP JUMPDEST PUSH2 0x14B PUSH1 0x4 DUP1 CALLDATASIZE SUB DUP2 ADD SWAP1 PUSH2 0x146 SWAP2 SWAP1 PUSH2 0x884 JUMP JUMPDEST PUSH2 0x2CC JUMP JUMPDEST STOP JUMPDEST PUSH2 0x155 PUSH2 0x2D6 JUMP JUMPDEST PUSH1 0x40 MLOAD PUSH2 0x162 SWAP2 SWAP1 PUSH2 0x91F JUMP JUMPDEST PUSH1 0x40 MLOAD DUP1 SWAP2 SUB SWAP1 RETURN JUMPDEST PUSH2 0x173 PUSH2 0x40B JUMP JUMPDEST PUSH1 0x40 MLOAD PUSH2 0x180 SWAP2 SWAP1 PUSH2 0x83D JUMP JUMPDEST PUSH1 0x40 MLOAD DUP1 SWAP2 SUB SWAP1 RETURN JUMPDEST PUSH2 0x1A3 PUSH1 0x4 DUP1 CALLDATASIZE SUB DUP2 ADD SWAP1 PUSH2 0x19E SWAP2 SWAP1 PUSH2 0x884 JUMP JUMPDEST PUSH2 0x420 JUMP JUMPDEST STOP JUMPDEST PUSH2 0x1AD PUSH2 0x429 JUMP JUMPDEST PUSH1 0x40 MLOAD PUSH2 0x1BA SWAP2 SWAP1 PUSH2 0x91F JUMP JUMPDEST PUSH1 0x40 MLOAD DUP1 SWAP2 SUB SWAP1 RETURN JUMPDEST PUSH2 0x1CB PUSH2 0x506 JUMP JUMPDEST PUSH1 0x40 MLOAD PUSH2 0x1D8 SWAP2 SWAP1 PUSH2 0x91F JUMP JUMPDEST PUSH1 0x40 MLOAD DUP1 SWAP2 SUB SWAP1 RETURN JUMPDEST PUSH2 0x1FB PUSH1 0x4 DUP1 CALLDATASIZE SUB DUP2 ADD SWAP1 PUSH2 0x1F6 SWAP2 SWAP1 PUSH2 0x884 JUMP JUMPDEST PUSH2 0x6EB JUMP JUMPDEST STOP JUMPDEST PUSH2 0x217 PUSH1 0x4 DUP1 CALLDATASIZE SUB DUP2 ADD SWAP1 PUSH2 0x212 SWAP2 SWAP1 PUSH2 0x884 JUMP JUMPDEST PUSH2 0x6F5 JUMP JUMPDEST STOP JUMPDEST PUSH2 0x221 PUSH2 0x6FF JUMP JUMPDEST PUSH1 0x40 MLOAD PUSH2 0x22E SWAP2 SWAP1 PUSH2 0x83D JUMP JUMPDEST PUSH1 0x40 MLOAD DUP1 SWAP2 SUB SWAP1 RETURN JUMPDEST PUSH2 0x251 PUSH1 0x4 DUP1 CALLDATASIZE SUB DUP2 ADD SWAP1 PUSH2 0x24C SWAP2 SWAP1 PUSH2 0x884 JUMP JUMPDEST PUSH2 0x714 JUMP JUMPDEST STOP JUMPDEST PUSH2 0x25B PUSH2 0x71E JUMP JUMPDEST PUSH1 0x40 MLOAD PUSH2 0x268 SWAP2 SWAP1 PUSH2 0x91F JUMP JUMPDEST PUSH1 0x40 MLOAD DUP1 SWAP2 SUB SWAP1 RETURN JUMPDEST PUSH2 0x279 PUSH2 0x7FB JUMP JUMPDEST PUSH1 0x40 MLOAD PUSH2 0x286 SWAP2 SWAP1 PUSH2 0x83D JUMP JUMPDEST PUSH1 0x40 MLOAD DUP1 SWAP2 SUB SWAP1 RETURN JUMPDEST PUSH2 0x297 PUSH2 0x810 JUMP JUMPDEST PUSH1 0x40 MLOAD PUSH2 0x2A4 SWAP2 SWAP1 PUSH2 0x83D JUMP JUMPDEST PUSH1 0x40 MLOAD DUP1 SWAP2 SUB SWAP1 RETURN JUMPDEST PUSH0 PUSH1 0x1 SLOAD PUSH0 SLOAD PUSH2 0x2BD SWAP2 SWAP1 PUSH2 0x96C JUMP JUMPDEST SWAP1 POP SWAP1 JUMP JUMPDEST DUP1 PUSH1 0x4 DUP2 SWAP1 SSTORE POP POP JUMP JUMPDEST DUP1 PUSH1 0x5 DUP2 SWAP1 SSTORE POP POP JUMP JUMPDEST PUSH1 0x60 PUSH1 0xC PUSH1 0x3 SLOAD GT PUSH2 0x31F JUMPI PUSH1 0x40 MLOAD DUP1 PUSH1 0x40 ADD PUSH1 0x40 MSTORE DUP1 PUSH1 0xC DUP2 MSTORE PUSH1 0x20 ADD PUSH32 0x476F6F64204D6F726E696E670000000000000000000000000000000000000000 DUP2 MSTORE POP SWAP1 POP PUSH2 0x408 JUMP JUMPDEST PUSH1 0xC PUSH1 0x3 SLOAD LT ISZERO DUP1 ISZERO PUSH2 0x335 JUMPI POP PUSH1 0x10 PUSH1 0x3 SLOAD GT ISZERO JUMPDEST ISZERO PUSH2 0x377 JUMPI PUSH1 0x40 MLOAD DUP1 PUSH1 0x40 ADD PUSH1 0x40 MSTORE DUP1 PUSH1 0xE DUP2 MSTORE PUSH1 0x20 ADD PUSH32 0x476F6F642041667465726E6F6F6E000000000000000000000000000000000000 DUP2 MSTORE POP SWAP1 POP PUSH2 0x408 JUMP JUMPDEST PUSH1 0x10 PUSH1 0x3 SLOAD LT ISZERO DUP1 ISZERO PUSH2 0x38D JUMPI POP PUSH1 0x14 PUSH1 0x3 SLOAD GT ISZERO JUMPDEST ISZERO PUSH2 0x3CF JUMPI PUSH1 0x40 MLOAD DUP1 PUSH1 0x40 ADD PUSH1 0x40 MSTORE DUP1 PUSH1 0xC DUP2 MSTORE PUSH1 0x20 ADD PUSH32 0x476F6F64204576656E696E670000000000000000000000000000000000000000 DUP2 MSTORE POP SWAP1 POP PUSH2 0x408 JUMP JUMPDEST PUSH1 0x40 MLOAD DUP1 PUSH1 0x40 ADD PUSH1 0x40 MSTORE DUP1 PUSH1 0xA DUP2 MSTORE PUSH1 0x20 ADD PUSH32 0x476F6F64204E6967687400000000000000000000000000000000000000000000 DUP2 MSTORE POP SWAP1 POP JUMPDEST SWAP1 JUMP JUMPDEST PUSH0 PUSH1 0x1 SLOAD PUSH0 SLOAD PUSH2 0x41B SWAP2 SWAP1 PUSH2 0x9DA JUMP JUMPDEST SWAP1 POP SWAP1 JUMP JUMPDEST DUP1 PUSH0 DUP2 SWAP1 SSTORE POP POP JUMP JUMPDEST PUSH1 0x60 PUSH1 0xF PUSH1 0x4 SLOAD GT PUSH2 0x472 JUMPI PUSH1 0x40 MLOAD DUP1 PUSH1 0x40 ADD PUSH1 0x40 MSTORE DUP1 PUSH1 0x4 DUP2 MSTORE PUSH1 0x20 ADD PUSH32 0x636F6C6400000000000000000000000000000000000000000000000000000000 DUP2 MSTORE POP SWAP1 POP PUSH2 0x503 JUMP JUMPDEST PUSH1 0xF PUSH1 0x4 SLOAD LT ISZERO DUP1 ISZERO PUSH2 0x488 JUMPI POP PUSH1 0x19 PUSH1 0x4 SLOAD GT ISZERO JUMPDEST ISZERO PUSH2 0x4CA JUMPI PUSH1 0x40 MLOAD DUP1 PUSH1 0x40 ADD PUSH1 0x40 MSTORE DUP1 PUSH1 0x6 DUP2 MSTORE PUSH1 0x20 ADD PUSH32 0x6E6F726D616C0000000000000000000000000000000000000000000000000000 DUP2 MSTORE POP SWAP1 POP PUSH2 0x503 JUMP JUMPDEST PUSH1 0x40 MLOAD DUP1 PUSH1 0x40 ADD PUSH1 0x40 MSTORE DUP1 PUSH1 0x3 DUP2 MSTORE PUSH1 0x20 ADD PUSH32 0x686F740000000000000000000000000000000000000000000000000000000000 DUP2 MSTORE POP SWAP1 POP JUMPDEST SWAP1 JUMP JUMPDEST PUSH1 0x60 PUSH1 0x8 PUSH1 0x5 SLOAD GT PUSH2 0x54F JUMPI PUSH1 0x40 MLOAD DUP1 PUSH1 0x40 ADD PUSH1 0x40 MSTORE DUP1 PUSH1 0xF DUP2 MSTORE PUSH1 0x20 ADD PUSH32 0x6C6561726E2074696C6C203130616D0000000000000000000000000000000000 DUP2 MSTORE POP SWAP1 POP PUSH2 0x6E8 JUMP JUMPDEST PUSH1 0xA PUSH1 0x5 SLOAD LT ISZERO DUP1 ISZERO PUSH2 0x565 JUMPI POP PUSH1 0xC PUSH1 0x5 SLOAD GT ISZERO JUMPDEST ISZERO PUSH2 0x5A7 JUMPI PUSH1 0x40 MLOAD DUP1 PUSH1 0x40 ADD PUSH1 0x40 MSTORE DUP1 PUSH1 0xD DUP2 MSTORE PUSH1 0x20 ADD PUSH32 0x676F206E2067657420666F6F6400000000000000000000000000000000000000 DUP2 MSTORE POP SWAP1 POP PUSH2 0x6E8 JUMP JUMPDEST PUSH1 0xC PUSH1 0x5 SLOAD LT ISZERO DUP1 ISZERO PUSH2 0x5BD JUMPI POP PUSH1 0xE PUSH1 0x5 SLOAD GT ISZERO JUMPDEST ISZERO PUSH2 0x5FF JUMPI PUSH1 0x40 MLOAD DUP1 PUSH1 0x40 ADD PUSH1 0x40 MSTORE DUP1 PUSH1 0xD DUP2 MSTORE PUSH1 0x20 ADD PUSH32 0x70726F6261626C79207265616400000000000000000000000000000000000000 DUP2 MSTORE POP SWAP1 POP PUSH2 0x6E8 JUMP JUMPDEST PUSH1 0xE PUSH1 0x5 SLOAD LT ISZERO DUP1 ISZERO PUSH2 0x615 JUMPI POP PUSH1 0x12 PUSH1 0x5 SLOAD GT ISZERO JUMPDEST ISZERO PUSH2 0x657 JUMPI PUSH1 0x40 MLOAD DUP1 PUSH1 0x40 ADD PUSH1 0x40 MSTORE DUP1 PUSH1 0x5 DUP2 MSTORE PUSH1 0x20 ADD PUSH32 0x736C656570000000000000000000000000000000000000000000000000000000 DUP2 MSTORE POP SWAP1 POP PUSH2 0x6E8 JUMP JUMPDEST PUSH1 0x13 PUSH1 0x5 SLOAD LT ISZERO DUP1 ISZERO PUSH2 0x66D JUMPI POP PUSH1 0x14 PUSH1 0x5 SLOAD GT ISZERO JUMPDEST ISZERO PUSH2 0x6AF JUMPI PUSH1 0x40 MLOAD DUP1 PUSH1 0x40 ADD PUSH1 0x40 MSTORE DUP1 PUSH1 0x7 DUP2 MSTORE PUSH1 0x20 ADD PUSH32 0x6879647261746500000000000000000000000000000000000000000000000000 DUP2 MSTORE POP SWAP1 POP PUSH2 0x6E8 JUMP JUMPDEST PUSH1 0x40 MLOAD DUP1 PUSH1 0x40 ADD PUSH1 0x40 MSTORE DUP1 PUSH1 0xB DUP2 MSTORE PUSH1 0x20 ADD PUSH32 0x736C65657020616761696E000000000000000000000000000000000000000000 DUP2 MSTORE POP SWAP1 POP JUMPDEST SWAP1 JUMP JUMPDEST DUP1 PUSH1 0x1 DUP2 SWAP1 SSTORE POP POP JUMP JUMPDEST DUP1 PUSH1 0x2 DUP2 SWAP1 SSTORE POP POP JUMP JUMPDEST PUSH0 PUSH1 0x1 SLOAD PUSH0 SLOAD PUSH2 0x70F SWAP2 SWAP1 PUSH2 0xA0A JUMP JUMPDEST SWAP1 POP SWAP1 JUMP JUMPDEST DUP1 PUSH1 0x3 DUP2 SWAP1 SSTORE POP POP JUMP JUMPDEST PUSH1 0x60 PUSH1 0xF PUSH1 0x2 SLOAD GT PUSH2 0x767 JUMPI PUSH1 0x40 MLOAD DUP1 PUSH1 0x40 ADD PUSH1 0x40 MSTORE DUP1 PUSH1 0x18 DUP2 MSTORE PUSH1 0x20 ADD PUSH32 0x736F727279206465617220796F752063616E7420766F74650000000000000000 DUP2 MSTORE POP SWAP1 POP PUSH2 0x7F8 JUMP JUMPDEST PUSH1 0x10 PUSH1 0x2 SLOAD LT ISZERO DUP1 ISZERO PUSH2 0x77D JUMPI POP PUSH1 0x11 PUSH1 0x2 SLOAD GT ISZERO JUMPDEST ISZERO PUSH2 0x7BF JUMPI PUSH1 0x40 MLOAD DUP1 PUSH1 0x40 ADD PUSH1 0x40 MSTORE DUP1 PUSH1 0x1C DUP2 MSTORE PUSH1 0x20 ADD PUSH32 0x7665727920736F6F6E20796F752061726520676F6E6E6120766F746500000000 DUP2 MSTORE POP SWAP1 POP PUSH2 0x7F8 JUMP JUMPDEST PUSH1 0x40 MLOAD DUP1 PUSH1 0x40 ADD PUSH1 0x40 MSTORE DUP1 PUSH1 0x18 DUP2 MSTORE PUSH1 0x20 ADD PUSH32 0x596F752061726520656C696769626C6520746F20766F74650000000000000000 DUP2 MSTORE POP SWAP1 POP JUMPDEST SWAP1 JUMP JUMPDEST PUSH0 PUSH1 0x1 SLOAD PUSH0 SLOAD PUSH2 0x80B SWAP2 SWAP1 PUSH2 0xA3D JUMP JUMPDEST SWAP1 POP SWAP1 JUMP JUMPDEST PUSH0 PUSH1 0x1 SLOAD PUSH0 SLOAD PUSH2 0x820 SWAP2 SWAP1 PUSH2 0xA0A JUMP JUMPDEST SWAP1 POP SWAP1 JUMP JUMPDEST PUSH0 DUP2 SWAP1 POP SWAP2 SWAP1 POP JUMP JUMPDEST PUSH2 0x837 DUP2 PUSH2 0x825 JUMP JUMPDEST DUP3 MSTORE POP POP JUMP JUMPDEST PUSH0 PUSH1 0x20 DUP3 ADD SWAP1 POP PUSH2 0x850 PUSH0 DUP4 ADD DUP5 PUSH2 0x82E JUMP JUMPDEST SWAP3 SWAP2 POP POP JUMP JUMPDEST PUSH0 PUSH0 REVERT JUMPDEST PUSH2 0x863 DUP2 PUSH2 0x825 JUMP JUMPDEST DUP2 EQ PUSH2 0x86D JUMPI PUSH0 PUSH0 REVERT JUMPDEST POP JUMP JUMPDEST PUSH0 DUP2 CALLDATALOAD SWAP1 POP PUSH2 0x87E DUP2 PUSH2 0x85A JUMP JUMPDEST SWAP3 SWAP2 POP POP JUMP JUMPDEST PUSH0 PUSH1 0x20 DUP3 DUP5 SUB SLT ISZERO PUSH2 0x899 JUMPI PUSH2 0x898 PUSH2 0x856 JUMP JUMPDEST JUMPDEST PUSH0 PUSH2 0x8A6 DUP5 DUP3 DUP6 ADD PUSH2 0x870 JUMP JUMPDEST SWAP2 POP POP SWAP3 SWAP2 POP POP JUMP JUMPDEST PUSH0 DUP2 MLOAD SWAP1 POP SWAP2 SWAP1 POP JUMP JUMPDEST PUSH0 DUP3 DUP3 MSTORE PUSH1 0x20 DUP3 ADD SWAP1 POP SWAP3 SWAP2 POP POP JUMP JUMPDEST DUP3 DUP2 DUP4 MCOPY PUSH0 DUP4 DUP4 ADD MSTORE POP POP POP JUMP JUMPDEST PUSH0 PUSH1 0x1F NOT PUSH1 0x1F DUP4 ADD AND SWAP1 POP SWAP2 SWAP1 POP JUMP JUMPDEST PUSH0 PUSH2 0x8F1 DUP3 PUSH2 0x8AF JUMP JUMPDEST PUSH2 0x8FB DUP2 DUP6 PUSH2 0x8B9 JUMP JUMPDEST SWAP4 POP PUSH2 0x90B DUP2 DUP6 PUSH1 0x20 DUP7 ADD PUSH2 0x8C9 JUMP JUMPDEST PUSH2 0x914 DUP2 PUSH2 0x8D7 JUMP JUMPDEST DUP5 ADD SWAP2 POP POP SWAP3 SWAP2 POP POP JUMP JUMPDEST PUSH0 PUSH1 0x20 DUP3 ADD SWAP1 POP DUP2 DUP2 SUB PUSH0 DUP4 ADD MSTORE PUSH2 0x937 DUP2 DUP5 PUSH2 0x8E7 JUMP JUMPDEST SWAP1 POP SWAP3 SWAP2 POP POP JUMP JUMPDEST PUSH32 0x4E487B7100000000000000000000000000000000000000000000000000000000 PUSH0 MSTORE PUSH1 0x11 PUSH1 0x4 MSTORE PUSH1 0x24 PUSH0 REVERT JUMPDEST PUSH0 PUSH2 0x976 DUP3 PUSH2 0x825 JUMP JUMPDEST SWAP2 POP PUSH2 0x981 DUP4 PUSH2 0x825 JUMP JUMPDEST SWAP3 POP DUP3 DUP3 MUL PUSH2 0x98F DUP2 PUSH2 0x825 JUMP JUMPDEST SWAP2 POP DUP3 DUP3 DIV DUP5 EQ DUP4 ISZERO OR PUSH2 0x9A6 JUMPI PUSH2 0x9A5 PUSH2 0x93F JUMP JUMPDEST JUMPDEST POP SWAP3 SWAP2 POP POP JUMP JUMPDEST PUSH32 0x4E487B7100000000000000000000000000000000000000000000000000000000 PUSH0 MSTORE PUSH1 0x12 PUSH1 0x4 MSTORE PUSH1 0x24 PUSH0 REVERT JUMPDEST PUSH0 PUSH2 0x9E4 DUP3 PUSH2 0x825 JUMP JUMPDEST SWAP2 POP PUSH2 0x9EF DUP4 PUSH2 0x825 JUMP JUMPDEST SWAP3 POP DUP3 PUSH2 0x9FF JUMPI PUSH2 0x9FE PUSH2 0x9AD JUMP JUMPDEST JUMPDEST DUP3 DUP3 DIV SWAP1 POP SWAP3 SWAP2 POP POP JUMP JUMPDEST PUSH0 PUSH2 0xA14 DUP3 PUSH2 0x825 JUMP JUMPDEST SWAP2 POP PUSH2 0xA1F DUP4 PUSH2 0x825 JUMP JUMPDEST SWAP3 POP DUP3 DUP3 ADD SWAP1 POP DUP1 DUP3 GT ISZERO PUSH2 0xA37 JUMPI PUSH2 0xA36 PUSH2 0x93F JUMP JUMPDEST JUMPDEST SWAP3 SWAP2 POP POP JUMP JUMPDEST PUSH0 PUSH2 0xA47 DUP3 PUSH2 0x825 JUMP JUMPDEST SWAP2 POP PUSH2 0xA52 DUP4 PUSH2 0x825 JUMP JUMPDEST SWAP3 POP DUP3 DUP3 SUB SWAP1 POP DUP2 DUP2 GT ISZERO PUSH2 0xA6A JUMPI PUSH2 0xA69 PUSH2 0x93F JUMP JUMPDEST JUMPDEST SWAP3 SWAP2 POP POP JUMP INVALID LOG2 PUSH5 0x6970667358 0x22 SLT KECCAK256 DUP10 0xEB PUSH18 0x2F1B4802BBA80C92AD7C88C5DDE1188D1378 DUP10 SIGNEXTEND RETURN XOR PUSH5 0x319D3C8801 SWAP2 PUSH5 0x736F6C6343 STOP ADDMOD 0x1E STOP CALLER "
		},
		"gasEstimates": {
			"creation": {
				"codeDepositCost": "545200",
				"executionCost": "579",
				"totalCost": "545779"
			},
			"external": {
				"addition()": "infinite",
				"checkage()": "infinite",
				"checktime()": "infinite",
				"checktrack()": "infinite",
				"checkweather()": "infinite",
				"division()": "infinite",
				"getage(uint256)": "22582",
				"getfirstnum(uint256)": "22581",
				"getsecondnum(uint256)": "22560",
				"getweather(uint256)": "22561",
				"invalid()": "infinite",
				"multiplication()": "infinite",
				"subtraction()": "infinite",
				"tracktime(uint256)": "22537",
				"trackup(uint256)": "22583"
			}
		},
		"methodIdentifiers": {
			"addition()": "ec597128",
			"checkage()": "d62ff3a4",
			"checktime()": "266de1e0",
			"checktrack()": "9daaf83a",
			"checkweather()": "7f109886",
			"division()": "3205f5fc",
			"getage(uint256)": "a59e0d54",
			"getfirstnum(uint256)": "48a9066d",
			"getsecondnum(uint256)": "9f17c892",
			"getweather(uint256)": "12a09447",
			"invalid()": "bde9e40e",
			"multiplication()": "011285da",
			"subtraction()": "e3ec0251",
			"tracktime(uint256)": "bed948c5",
			"trackup(uint256)": "1981bfa0"
		}
	},
	"abi": [
		{
			"inputs": [],
			"name": "addition",
			"outputs": [
				{
					"internalType": "uint256",
					"name": "",
					"type": "uint256"
				}
			],
			"stateMutability": "view",
			"type": "function"
		},
		{
			"inputs": [],
			"name": "checkage",
			"outputs": [
				{
					"internalType": "string",
					"name": "",
					"type": "string"
				}
			],
			"stateMutability": "view",
			"type": "function"
		},
		{
			"inputs": [],
			"name": "checktime",
			"outputs": [
				{
					"internalType": "string",
					"name": "",
					"type": "string"
				}
			],
			"stateMutability": "view",
			"type": "function"
		},
		{
			"inputs": [],
			"name": "checktrack",
			"outputs": [
				{
					"internalType": "string",
					"name": "",
					"type": "string"
				}
			],
			"stateMutability": "view",
			"type": "function"
		},
		{
			"inputs": [],
			"name": "checkweather",
			"outputs": [
				{
					"internalType": "string",
					"name": "",
					"type": "string"
				}
			],
			"stateMutability": "view",
			"type": "function"
		},
		{
			"inputs": [],
			"name": "division",
			"outputs": [
				{
					"internalType": "uint256",
					"name": "",
					"type": "uint256"
				}
			],
			"stateMutability": "view",
			"type": "function"
		},
		{
			"inputs": [
				{
					"internalType": "uint256",
					"name": "_age",
					"type": "uint256"
				}
			],
			"name": "getage",
			"outputs": [],
			"stateMutability": "nonpayable",
			"type": "function"
		},
		{
			"inputs": [
				{
					"internalType": "uint256",
					"name": "_firstnum",
					"type": "uint256"
				}
			],
			"name": "getfirstnum",
			"outputs": [],
			"stateMutability": "nonpayable",
			"type": "function"
		},
		{
			"inputs": [
				{
					"internalType": "uint256",
					"name": "_secnum",
					"type": "uint256"
				}
			],
			"name": "getsecondnum",
			"outputs": [],
			"stateMutability": "nonpayable",
			"type": "function"
		},
		{
			"inputs": [
				{
					"internalType": "uint256",
					"name": "_wet",
					"type": "uint256"
				}
			],
			"name": "getweather",
			"outputs": [],
			"stateMutability": "nonpayable",
			"type": "function"
		},
		{
			"inputs": [],
			"name": "invalid",
			"outputs": [
				{
					"internalType": "uint256",
					"name": "",
					"type": "uint256"
				}
			],
			"stateMutability": "view",
			"type": "function"
		},
		{
			"inputs": [],
			"name": "multiplication",
			"outputs": [
				{
					"internalType": "uint256",
					"name": "",
					"type": "uint256"
				}
			],
			"stateMutability": "view",
			"type": "function"
		},
		{
			"inputs": [],
			"name": "subtraction",
			"outputs": [
				{
					"internalType": "uint256",
					"name": "",
					"type": "uint256"
				}
			],
			"stateMutability": "view",
			"type": "function"
		},
		{
			"inputs": [
				{
					"internalType": "uint256",
					"name": "_ctime",
					"type": "uint256"
				}
			],
			"name": "tracktime",
			"outputs": [],
			"stateMutability": "nonpayable",
			"type": "function"
		},
		{
			"inputs": [
				{
					"internalType": "uint256",
					"name": "_track",
					"type": "uint256"
				}
			],
			"name": "trackup",
			"outputs": [],
			"stateMutability": "nonpayable",
			"type": "function"
		}
	]
}