{
	"data": {
		"bytecode": {
			"linkReferences": {},
			"object": "6080604052348015600e575f5ffd5b506105bf8061001c5f395ff3fe608060405234801561000f575f5ffd5b506004361061009c575f3560e01c8063a59e0d5411610064578063a59e0d5414610132578063bde9e40e1461014e578063d62ff3a41461016c578063e3ec02511461018a578063ec597128146101a85761009c565b8063011285da146100a05780630abfb6ef146100be5780633205f5fc146100dc57806348a9066d146100fa5780639f17c89214610116575b5f5ffd5b6100a86101c6565b6040516100b59190610356565b60405180910390f35b6100c66101db565b6040516100d39190610356565b60405180910390f35b6100e46101f0565b6040516100f19190610356565b60405180910390f35b610114600480360381019061010f919061039d565b610205565b005b610130600480360381019061012b919061039d565b61020e565b005b61014c6004803603810190610147919061039d565b610218565b005b610156610222565b6040516101639190610356565b60405180910390f35b610174610237565b6040516101819190610438565b60405180910390f35b610192610314565b60405161019f9190610356565b60405180910390f35b6101b0610329565b6040516101bd9190610356565b60405180910390f35b5f6001545f546101d69190610485565b905090565b5f6001545f546101eb91906104c6565b905090565b5f6001545f546102009190610526565b905090565b805f8190555050565b8060018190555050565b8060028190555050565b5f6001545f5461023291906104c6565b905090565b6060601060025411610280576040518060400160405280601881526020017f736f727279206465617220796f752063616e7420766f746500000000000000008152509050610311565b6011600254101580156102965750601260025411155b156102d8576040518060400160405280601c81526020017f7665727920736f6f6e20796f752061726520676f6e6e6120766f7465000000008152509050610311565b6040518060400160405280601881526020017f596f752061726520656c696769626c6520746f20766f7465000000000000000081525090505b90565b5f6001545f546103249190610556565b905090565b5f6001545f5461033991906104c6565b905090565b5f819050919050565b6103508161033e565b82525050565b5f6020820190506103695f830184610347565b92915050565b5f5ffd5b61037c8161033e565b8114610386575f5ffd5b50565b5f8135905061039781610373565b92915050565b5f602082840312156103b2576103b161036f565b5b5f6103bf84828501610389565b91505092915050565b5f81519050919050565b5f82825260208201905092915050565b8281835e5f83830152505050565b5f601f19601f8301169050919050565b5f61040a826103c8565b61041481856103d2565b93506104248185602086016103e2565b61042d816103f0565b840191505092915050565b5f6020820190508181035f8301526104508184610400565b905092915050565b7f4e487b71000000000000000000000000000000000000000000000000000000005f52601160045260245ffd5b5f61048f8261033e565b915061049a8361033e565b92508282026104a88161033e565b915082820484148315176104bf576104be610458565b5b5092915050565b5f6104d08261033e565b91506104db8361033e565b92508282019050808211156104f3576104f2610458565b5b92915050565b7f4e487b71000000000000000000000000000000000000000000000000000000005f52601260045260245ffd5b5f6105308261033e565b915061053b8361033e565b92508261054b5761054a6104f9565b5b828204905092915050565b5f6105608261033e565b915061056b8361033e565b925082820390508181111561058357610582610458565b5b9291505056fea26469706673582212203085d95ce4617ba2eeaf02904859afb5087f1c451704a19e017fceacd091e68064736f6c634300081e0033",
			"opcodes": "PUSH1 0x80 PUSH1 0x40 MSTORE CALLVALUE DUP1 ISZERO PUSH1 0xE JUMPI PUSH0 PUSH0 REVERT JUMPDEST POP PUSH2 0x5BF DUP1 PUSH2 0x1C PUSH0 CODECOPY PUSH0 RETURN INVALID PUSH1 0x80 PUSH1 0x40 MSTORE CALLVALUE DUP1 ISZERO PUSH2 0xF JUMPI PUSH0 PUSH0 REVERT JUMPDEST POP PUSH1 0x4 CALLDATASIZE LT PUSH2 0x9C JUMPI PUSH0 CALLDATALOAD PUSH1 0xE0 SHR DUP1 PUSH4 0xA59E0D54 GT PUSH2 0x64 JUMPI DUP1 PUSH4 0xA59E0D54 EQ PUSH2 0x132 JUMPI DUP1 PUSH4 0xBDE9E40E EQ PUSH2 0x14E JUMPI DUP1 PUSH4 0xD62FF3A4 EQ PUSH2 0x16C JUMPI DUP1 PUSH4 0xE3EC0251 EQ PUSH2 0x18A JUMPI DUP1 PUSH4 0xEC597128 EQ PUSH2 0x1A8 JUMPI PUSH2 0x9C JUMP JUMPDEST DUP1 PUSH4 0x11285DA EQ PUSH2 0xA0 JUMPI DUP1 PUSH4 0xABFB6EF EQ PUSH2 0xBE JUMPI DUP1 PUSH4 0x3205F5FC EQ PUSH2 0xDC JUMPI DUP1 PUSH4 0x48A9066D EQ PUSH2 0xFA JUMPI DUP1 PUSH4 0x9F17C892 EQ PUSH2 0x116 JUMPI JUMPDEST PUSH0 PUSH0 REVERT JUMPDEST PUSH2 0xA8 PUSH2 0x1C6 JUMP JUMPDEST PUSH1 0x40 MLOAD PUSH2 0xB5 SWAP2 SWAP1 PUSH2 0x356 JUMP JUMPDEST PUSH1 0x40 MLOAD DUP1 SWAP2 SUB SWAP1 RETURN JUMPDEST PUSH2 0xC6 PUSH2 0x1DB JUMP JUMPDEST PUSH1 0x40 MLOAD PUSH2 0xD3 SWAP2 SWAP1 PUSH2 0x356 JUMP JUMPDEST PUSH1 0x40 MLOAD DUP1 SWAP2 SUB SWAP1 RETURN JUMPDEST PUSH2 0xE4 PUSH2 0x1F0 JUMP JUMPDEST PUSH1 0x40 MLOAD PUSH2 0xF1 SWAP2 SWAP1 PUSH2 0x356 JUMP JUMPDEST PUSH1 0x40 MLOAD DUP1 SWAP2 SUB SWAP1 RETURN JUMPDEST PUSH2 0x114 PUSH1 0x4 DUP1 CALLDATASIZE SUB DUP2 ADD SWAP1 PUSH2 0x10F SWAP2 SWAP1 PUSH2 0x39D JUMP JUMPDEST PUSH2 0x205 JUMP JUMPDEST STOP JUMPDEST PUSH2 0x130 PUSH1 0x4 DUP1 CALLDATASIZE SUB DUP2 ADD SWAP1 PUSH2 0x12B SWAP2 SWAP1 PUSH2 0x39D JUMP JUMPDEST PUSH2 0x20E JUMP JUMPDEST STOP JUMPDEST PUSH2 0x14C PUSH1 0x4 DUP1 CALLDATASIZE SUB DUP2 ADD SWAP1 PUSH2 0x147 SWAP2 SWAP1 PUSH2 0x39D JUMP JUMPDEST PUSH2 0x218 JUMP JUMPDEST STOP JUMPDEST PUSH2 0x156 PUSH2 0x222 JUMP JUMPDEST PUSH1 0x40 MLOAD PUSH2 0x163 SWAP2 SWAP1 PUSH2 0x356 JUMP JUMPDEST PUSH1 0x40 MLOAD DUP1 SWAP2 SUB SWAP1 RETURN JUMPDEST PUSH2 0x174 PUSH2 0x237 JUMP JUMPDEST PUSH1 0x40 MLOAD PUSH2 0x181 SWAP2 SWAP1 PUSH2 0x438 JUMP JUMPDEST PUSH1 0x40 MLOAD DUP1 SWAP2 SUB SWAP1 RETURN JUMPDEST PUSH2 0x192 PUSH2 0x314 JUMP JUMPDEST PUSH1 0x40 MLOAD PUSH2 0x19F SWAP2 SWAP1 PUSH2 0x356 JUMP JUMPDEST PUSH1 0x40 MLOAD DUP1 SWAP2 SUB SWAP1 RETURN JUMPDEST PUSH2 0x1B0 PUSH2 0x329 JUMP JUMPDEST PUSH1 0x40 MLOAD PUSH2 0x1BD SWAP2 SWAP1 PUSH2 0x356 JUMP JUMPDEST PUSH1 0x40 MLOAD DUP1 SWAP2 SUB SWAP1 RETURN JUMPDEST PUSH0 PUSH1 0x1 SLOAD PUSH0 SLOAD PUSH2 0x1D6 SWAP2 SWAP1 PUSH2 0x485 JUMP JUMPDEST SWAP1 POP SWAP1 JUMP JUMPDEST PUSH0 PUSH1 0x1 SLOAD PUSH0 SLOAD PUSH2 0x1EB SWAP2 SWAP1 PUSH2 0x4C6 JUMP JUMPDEST SWAP1 POP SWAP1 JUMP JUMPDEST PUSH0 PUSH1 0x1 SLOAD PUSH0 SLOAD PUSH2 0x200 SWAP2 SWAP1 PUSH2 0x526 JUMP JUMPDEST SWAP1 POP SWAP1 JUMP JUMPDEST DUP1 PUSH0 DUP2 SWAP1 SSTORE POP POP JUMP JUMPDEST DUP1 PUSH1 0x1 DUP2 SWAP1 SSTORE POP POP JUMP JUMPDEST DUP1 PUSH1 0x2 DUP2 SWAP1 SSTORE POP POP JUMP JUMPDEST PUSH0 PUSH1 0x1 SLOAD PUSH0 SLOAD PUSH2 0x232 SWAP2 SWAP1 PUSH2 0x4C6 JUMP JUMPDEST SWAP1 POP SWAP1 JUMP JUMPDEST PUSH1 0x60 PUSH1 0x10 PUSH1 0x2 SLOAD GT PUSH2 0x280 JUMPI PUSH1 0x40 MLOAD DUP1 PUSH1 0x40 ADD PUSH1 0x40 MSTORE DUP1 PUSH1 0x18 DUP2 MSTORE PUSH1 0x20 ADD PUSH32 0x736F727279206465617220796F752063616E7420766F74650000000000000000 DUP2 MSTORE POP SWAP1 POP PUSH2 0x311 JUMP JUMPDEST PUSH1 0x11 PUSH1 0x2 SLOAD LT ISZERO DUP1 ISZERO PUSH2 0x296 JUMPI POP PUSH1 0x12 PUSH1 0x2 SLOAD GT ISZERO JUMPDEST ISZERO PUSH2 0x2D8 JUMPI PUSH1 0x40 MLOAD DUP1 PUSH1 0x40 ADD PUSH1 0x40 MSTORE DUP1 PUSH1 0x1C DUP2 MSTORE PUSH1 0x20 ADD PUSH32 0x7665727920736F6F6E20796F752061726520676F6E6E6120766F746500000000 DUP2 MSTORE POP SWAP1 POP PUSH2 0x311 JUMP JUMPDEST PUSH1 0x40 MLOAD DUP1 PUSH1 0x40 ADD PUSH1 0x40 MSTORE DUP1 PUSH1 0x18 DUP2 MSTORE PUSH1 0x20 ADD PUSH32 0x596F752061726520656C696769626C6520746F20766F74650000000000000000 DUP2 MSTORE POP SWAP1 POP JUMPDEST SWAP1 JUMP JUMPDEST PUSH0 PUSH1 0x1 SLOAD PUSH0 SLOAD PUSH2 0x324 SWAP2 SWAP1 PUSH2 0x556 JUMP JUMPDEST SWAP1 POP SWAP1 JUMP JUMPDEST PUSH0 PUSH1 0x1 SLOAD PUSH0 SLOAD PUSH2 0x339 SWAP2 SWAP1 PUSH2 0x4C6 JUMP JUMPDEST SWAP1 POP SWAP1 JUMP JUMPDEST PUSH0 DUP2 SWAP1 POP SWAP2 SWAP1 POP JUMP JUMPDEST PUSH2 0x350 DUP2 PUSH2 0x33E JUMP JUMPDEST DUP3 MSTORE POP POP JUMP JUMPDEST PUSH0 PUSH1 0x20 DUP3 ADD SWAP1 POP PUSH2 0x369 PUSH0 DUP4 ADD DUP5 PUSH2 0x347 JUMP JUMPDEST SWAP3 SWAP2 POP POP JUMP JUMPDEST PUSH0 PUSH0 REVERT JUMPDEST PUSH2 0x37C DUP2 PUSH2 0x33E JUMP JUMPDEST DUP2 EQ PUSH2 0x386 JUMPI PUSH0 PUSH0 REVERT JUMPDEST POP JUMP JUMPDEST PUSH0 DUP2 CALLDATALOAD SWAP1 POP PUSH2 0x397 DUP2 PUSH2 0x373 JUMP JUMPDEST SWAP3 SWAP2 POP POP JUMP JUMPDEST PUSH0 PUSH1 0x20 DUP3 DUP5 SUB SLT ISZERO PUSH2 0x3B2 JUMPI PUSH2 0x3B1 PUSH2 0x36F JUMP JUMPDEST JUMPDEST PUSH0 PUSH2 0x3BF DUP5 DUP3 DUP6 ADD PUSH2 0x389 JUMP JUMPDEST SWAP2 POP POP SWAP3 SWAP2 POP POP JUMP JUMPDEST PUSH0 DUP2 MLOAD SWAP1 POP SWAP2 SWAP1 POP JUMP JUMPDEST PUSH0 DUP3 DUP3 MSTORE PUSH1 0x20 DUP3 ADD SWAP1 POP SWAP3 SWAP2 POP POP JUMP JUMPDEST DUP3 DUP2 DUP4 MCOPY PUSH0 DUP4 DUP4 ADD MSTORE POP POP POP JUMP JUMPDEST PUSH0 PUSH1 0x1F NOT PUSH1 0x1F DUP4 ADD AND SWAP1 POP SWAP2 SWAP1 POP JUMP JUMPDEST PUSH0 PUSH2 0x40A DUP3 PUSH2 0x3C8 JUMP JUMPDEST PUSH2 0x414 DUP2 DUP6 PUSH2 0x3D2 JUMP JUMPDEST SWAP4 POP PUSH2 0x424 DUP2 DUP6 PUSH1 0x20 DUP7 ADD PUSH2 0x3E2 JUMP JUMPDEST PUSH2 0x42D DUP2 PUSH2 0x3F0 JUMP JUMPDEST DUP5 ADD SWAP2 POP POP SWAP3 SWAP2 POP POP JUMP JUMPDEST PUSH0 PUSH1 0x20 DUP3 ADD SWAP1 POP DUP2 DUP2 SUB PUSH0 DUP4 ADD MSTORE PUSH2 0x450 DUP2 DUP5 PUSH2 0x400 JUMP JUMPDEST SWAP1 POP SWAP3 SWAP2 POP POP JUMP JUMPDEST PUSH32 0x4E487B7100000000000000000000000000000000000000000000000000000000 PUSH0 MSTORE PUSH1 0x11 PUSH1 0x4 MSTORE PUSH1 0x24 PUSH0 REVERT JUMPDEST PUSH0 PUSH2 0x48F DUP3 PUSH2 0x33E JUMP JUMPDEST SWAP2 POP PUSH2 0x49A DUP4 PUSH2 0x33E JUMP JUMPDEST SWAP3 POP DUP3 DUP3 MUL PUSH2 0x4A8 DUP2 PUSH2 0x33E JUMP JUMPDEST SWAP2 POP DUP3 DUP3 DIV DUP5 EQ DUP4 ISZERO OR PUSH2 0x4BF JUMPI PUSH2 0x4BE PUSH2 0x458 JUMP JUMPDEST JUMPDEST POP SWAP3 SWAP2 POP POP JUMP JUMPDEST PUSH0 PUSH2 0x4D0 DUP3 PUSH2 0x33E JUMP JUMPDEST SWAP2 POP PUSH2 0x4DB DUP4 PUSH2 0x33E JUMP JUMPDEST SWAP3 POP DUP3 DUP3 ADD SWAP1 POP DUP1 DUP3 GT ISZERO PUSH2 0x4F3 JUMPI PUSH2 0x4F2 PUSH2 0x458 JUMP JUMPDEST JUMPDEST SWAP3 SWAP2 POP POP JUMP JUMPDEST PUSH32 0x4E487B7100000000000000000000000000000000000000000000000000000000 PUSH0 MSTORE PUSH1 0x12 PUSH1 0x4 MSTORE PUSH1 0x24 PUSH0 REVERT JUMPDEST PUSH0 PUSH2 0x530 DUP3 PUSH2 0x33E JUMP JUMPDEST SWAP2 POP PUSH2 0x53B DUP4 PUSH2 0x33E JUMP JUMPDEST SWAP3 POP DUP3 PUSH2 0x54B JUMPI PUSH2 0x54A PUSH2 0x4F9 JUMP JUMPDEST JUMPDEST DUP3 DUP3 DIV SWAP1 POP SWAP3 SWAP2 POP POP JUMP JUMPDEST PUSH0 PUSH2 0x560 DUP3 PUSH2 0x33E JUMP JUMPDEST SWAP2 POP PUSH2 0x56B DUP4 PUSH2 0x33E JUMP JUMPDEST SWAP3 POP DUP3 DUP3 SUB SWAP1 POP DUP2 DUP2 GT ISZERO PUSH2 0x583 JUMPI PUSH2 0x582 PUSH2 0x458 JUMP JUMPDEST JUMPDEST SWAP3 SWAP2 POP POP JUMP INVALID LOG2 PUSH5 0x6970667358 0x22 SLT KECCAK256 ADDRESS DUP6 0xD9 TLOAD RETF PUSH2 0x7BA2 RETURNCONTRACT 0xAF MUL SWAP1 BASEFEE MSIZE 0xAF 0xB5 ADDMOD PUSH32 0x1C451704A19E017FCEACD091E68064736F6C634300081E003300000000000000 "
		},
		"gasEstimates": {
			"creation": {
				"codeDepositCost": "294200",
				"executionCost": "329",
				"totalCost": "294529"
			},
			"external": {
				"addition()": "infinite",
				"checkage()": "infinite",
				"division()": "infinite",
				"getage(uint256)": "22515",
				"getfirstnum(uint256)": "22581",
				"getsecondnum(uint256)": "22604",
				"informat()": "infinite",
				"invalid()": "infinite",
				"multiplication()": "infinite",
				"subtraction()": "infinite"
			}
		},
		"methodIdentifiers": {
			"addition()": "ec597128",
			"checkage()": "d62ff3a4",
			"division()": "3205f5fc",
			"getage(uint256)": "a59e0d54",
			"getfirstnum(uint256)": "48a9066d",
			"getsecondnum(uint256)": "9f17c892",
			"informat()": "0abfb6ef",
			"invalid()": "bde9e40e",
			"multiplication()": "011285da",
			"subtraction()": "e3ec0251"
		}
	},
	"abi": [
		{
			"inputs": [],
			"name": "addition",
			"outputs": [
				{
					"internalType": "uint256",
					"name": "",
					"type": "uint256"
				}
			],
			"stateMutability": "view",
			"type": "function"
		},
		{
			"inputs": [],
			"name": "checkage",
			"outputs": [
				{
					"internalType": "string",
					"name": "",
					"type": "string"
				}
			],
			"stateMutability": "view",
			"type": "function"
		},
		{
			"inputs": [],
			"name": "division",
			"outputs": [
				{
					"internalType": "uint256",
					"name": "",
					"type": "uint256"
				}
			],
			"stateMutability": "view",
			"type": "function"
		},
		{
			"inputs": [
				{
					"internalType": "uint256",
					"name": "_age",
					"type": "uint256"
				}
			],
			"name": "getage",
			"outputs": [],
			"stateMutability": "nonpayable",
			"type": "function"
		},
		{
			"inputs": [
				{
					"internalType": "uint256",
					"name": "_firstnum",
					"type": "uint256"
				}
			],
			"name": "getfirstnum",
			"outputs": [],
			"stateMutability": "nonpayable",
			"type": "function"
		},
		{
			"inputs": [
				{
					"internalType": "uint256",
					"name": "_secnum",
					"type": "uint256"
				}
			],
			"name": "getsecondnum",
			"outputs": [],
			"stateMutability": "nonpayable",
			"type": "function"
		},
		{
			"inputs": [],
			"name": "informat",
			"outputs": [
				{
					"internalType": "uint256",
					"name": "",
					"type": "uint256"
				}
			],
			"stateMutability": "view",
			"type": "function"
		},
		{
			"inputs": [],
			"name": "invalid",
			"outputs": [
				{
					"internalType": "uint256",
					"name": "",
					"type": "uint256"
				}
			],
			"stateMutability": "view",
			"type": "function"
		},
		{
			"inputs": [],
			"name": "multiplication",
			"outputs": [
				{
					"internalType": "uint256",
					"name": "",
					"type": "uint256"
				}
			],
			"stateMutability": "view",
			"type": "function"
		},
		{
			"inputs": [],
			"name": "subtraction",
			"outputs": [
				{
					"internalType": "uint256",
					"name": "",
					"type": "uint256"
				}
			],
			"stateMutability": "view",
			"type": "function"
		}
	]
}