{
	"data": {
		"bytecode": {
			"linkReferences": {},
			"object": "6080604052348015600e575f5ffd5b5061162c8061001c5f395ff3fe608060405234801561000f575f5ffd5b506004361061014b575f3560e01c80639f17c892116100c1578063d39fa2331161007a578063d39fa2331461033b578063d62ff3a41461036b578063e3ec025114610389578063ec597128146103a7578063fc563658146103c5578063fce68023146103f55761014b565b80639f17c8921461028d578063a59e0d54146102a9578063bde9e40e146102c5578063be1c766b146102e3578063bed948c514610301578063c33926cb1461031d5761014b565b80633205f5fc116101135780633205f5fc146101df57806348a9066d146101fd5780637f1098861461021957806391819bf31461023757806395ffebf5146102535780639daaf83a1461026f5761014b565b8063011285da1461014f57806312a094471461016d5780631981bfa01461018957806320fe2144146101a5578063266de1e0146101c1575b5f5ffd5b610157610411565b6040516101649190610d2d565b60405180910390f35b61018760048036038101906101829190610d81565b610426565b005b6101a3600480360381019061019e9190610d81565b610430565b005b6101bf60048036038101906101ba9190610d81565b61043a565b005b6101c9610535565b6040516101d69190610e1c565b60405180910390f35b6101e761066a565b6040516101f49190610d2d565b60405180910390f35b61021760048036038101906102129190610d81565b61067f565b005b610221610688565b60405161022e9190610e1c565b60405180910390f35b610251600480360381019061024c9190610e3c565b610765565b005b61026d60048036038101906102689190610fa6565b61078a565b005b61027761083c565b6040516102849190610e1c565b60405180910390f35b6102a760048036038101906102a29190610d81565b610a21565b005b6102c360048036038101906102be9190610d81565b610a2b565b005b6102cd610a35565b6040516102da9190610d2d565b60405180910390f35b6102eb610a4a565b6040516102f89190610d2d565b60405180910390f35b61031b60048036038101906103169190610d81565b610a56565b005b610325610a60565b6040516103329190611144565b60405180910390f35b61035560048036038101906103509190610d81565b610ba0565b6040516103629190610d2d565b60405180910390f35b610373610bc0565b6040516103809190610e1c565b60405180910390f35b610391610c9d565b60405161039e9190610d2d565b60405180910390f35b6103af610cb2565b6040516103bc9190610d2d565b60405180910390f35b6103df60048036038101906103da9190610d81565b610cc7565b6040516103ec9190610d2d565b60405180910390f35b61040f600480360381019061040a9190610d81565b610cec565b005b5f6001545f546104219190611191565b905090565b8060048190555050565b8060058190555050565b60065f3373ffffffffffffffffffffffffffffffffffffffff1673ffffffffffffffffffffffffffffffffffffffff1681526020019081526020015f208054905081106104bc576040517f08c379a00000000000000000000000000000000000000000000000000000000081526004016104b39061121c565b60405180910390fd5b600160065f3373ffffffffffffffffffffffffffffffffffffffff1673ffffffffffffffffffffffffffffffffffffffff1681526020019081526020015f20828154811061050d5761050c61123a565b5b905f5260205f2090600202016001015f6101000a81548160ff02191690831515021790555050565b6060600c6003541161057e576040518060400160405280600c81526020017f476f6f64204d6f726e696e6700000000000000000000000000000000000000008152509050610667565b600c600354101580156105945750601060035411155b156105d6576040518060400160405280600e81526020017f476f6f642041667465726e6f6f6e0000000000000000000000000000000000008152509050610667565b6010600354101580156105ec5750601460035411155b1561062e576040518060400160405280600c81526020017f476f6f64204576656e696e6700000000000000000000000000000000000000008152509050610667565b6040518060400160405280600a81526020017f476f6f64204e696768740000000000000000000000000000000000000000000081525090505b90565b5f6001545f5461067a9190611294565b905090565b805f8190555050565b6060600f600454116106d1576040518060400160405280600481526020017f636f6c64000000000000000000000000000000000000000000000000000000008152509050610762565b600f600454101580156106e75750601960045411155b15610729576040518060400160405280600681526020017f6e6f726d616c00000000000000000000000000000000000000000000000000008152509050610762565b6040518060400160405280600381526020017f686f74000000000000000000000000000000000000000000000000000000000081525090505b90565b806007838154811061077a5761077961123a565b5b905f5260205f2001819055505050565b60065f3373ffffffffffffffffffffffffffffffffffffffff1673ffffffffffffffffffffffffffffffffffffffff1681526020019081526020015f2060405180604001604052808381526020015f1515815250908060018154018082558091505060019003905f5260205f2090600202015f909190919091505f820151815f01908161081791906114c1565b506020820151816001015f6101000a81548160ff021916908315150217905550505050565b6060600860055411610885576040518060400160405280600f81526020017f6c6561726e2074696c6c203130616d00000000000000000000000000000000008152509050610a1e565b600a6005541015801561089b5750600c60055411155b156108dd576040518060400160405280600d81526020017f676f206e2067657420666f6f64000000000000000000000000000000000000008152509050610a1e565b600c600554101580156108f35750600e60055411155b15610935576040518060400160405280600d81526020017f70726f6261626c792072656164000000000000000000000000000000000000008152509050610a1e565b600e6005541015801561094b5750601260055411155b1561098d576040518060400160405280600581526020017f736c6565700000000000000000000000000000000000000000000000000000008152509050610a1e565b6013600554101580156109a35750601460055411155b156109e5576040518060400160405280600781526020017f68796472617465000000000000000000000000000000000000000000000000008152509050610a1e565b6040518060400160405280600b81526020017f736c65657020616761696e00000000000000000000000000000000000000000081525090505b90565b8060018190555050565b8060028190555050565b5f6001545f54610a459190611590565b905090565b5f600780549050905090565b8060038190555050565b606060065f3373ffffffffffffffffffffffffffffffffffffffff1673ffffffffffffffffffffffffffffffffffffffff1681526020019081526020015f20805480602002602001604051908101604052809291908181526020015f905b82821015610b97578382905f5260205f2090600202016040518060400160405290815f82018054610aee906112f1565b80601f0160208091040260200160405190810160405280929190818152602001828054610b1a906112f1565b8015610b655780601f10610b3c57610100808354040283529160200191610b65565b820191905f5260205f20905b815481529060010190602001808311610b4857829003601f168201915b50505050508152602001600182015f9054906101000a900460ff16151515158152505081526020019060010190610abe565b50505050905090565b60078181548110610baf575f80fd5b905f5260205f20015f915090505481565b6060600f60025411610c09576040518060400160405280601881526020017f736f727279206465617220796f752063616e7420766f746500000000000000008152509050610c9a565b601060025410158015610c1f5750601160025411155b15610c61576040518060400160405280601c81526020017f7665727920736f6f6e20796f752061726520676f6e6e6120766f7465000000008152509050610c9a565b6040518060400160405280601881526020017f596f752061726520656c696769626c6520746f20766f7465000000000000000081525090505b90565b5f6001545f54610cad91906115c3565b905090565b5f6001545f54610cc29190611590565b905090565b5f60078281548110610cdc57610cdb61123a565b5b905f5260205f2001549050919050565b600781908060018154018082558091505060019003905f5260205f20015f909190919091505550565b5f819050919050565b610d2781610d15565b82525050565b5f602082019050610d405f830184610d1e565b92915050565b5f604051905090565b5f5ffd5b5f5ffd5b610d6081610d15565b8114610d6a575f5ffd5b50565b5f81359050610d7b81610d57565b92915050565b5f60208284031215610d9657610d95610d4f565b5b5f610da384828501610d6d565b91505092915050565b5f81519050919050565b5f82825260208201905092915050565b8281835e5f83830152505050565b5f601f19601f8301169050919050565b5f610dee82610dac565b610df88185610db6565b9350610e08818560208601610dc6565b610e1181610dd4565b840191505092915050565b5f6020820190508181035f830152610e348184610de4565b905092915050565b5f5f60408385031215610e5257610e51610d4f565b5b5f610e5f85828601610d6d565b9250506020610e7085828601610d6d565b9150509250929050565b5f5ffd5b5f5ffd5b7f4e487b71000000000000000000000000000000000000000000000000000000005f52604160045260245ffd5b610eb882610dd4565b810181811067ffffffffffffffff82111715610ed757610ed6610e82565b5b80604052505050565b5f610ee9610d46565b9050610ef58282610eaf565b919050565b5f67ffffffffffffffff821115610f1457610f13610e82565b5b610f1d82610dd4565b9050602081019050919050565b828183375f83830152505050565b5f610f4a610f4584610efa565b610ee0565b905082815260208101848484011115610f6657610f65610e7e565b5b610f71848285610f2a565b509392505050565b5f82601f830112610f8d57610f8c610e7a565b5b8135610f9d848260208601610f38565b91505092915050565b5f60208284031215610fbb57610fba610d4f565b5b5f82013567ffffffffffffffff811115610fd857610fd7610d53565b5b610fe484828501610f79565b91505092915050565b5f81519050919050565b5f82825260208201905092915050565b5f819050602082019050919050565b5f82825260208201905092915050565b5f61103082610dac565b61103a8185611016565b935061104a818560208601610dc6565b61105381610dd4565b840191505092915050565b5f8115159050919050565b6110728161105e565b82525050565b5f604083015f8301518482035f8601526110928282611026565b91505060208301516110a76020860182611069565b508091505092915050565b5f6110bd8383611078565b905092915050565b5f602082019050919050565b5f6110db82610fed565b6110e58185610ff7565b9350836020820285016110f785611007565b805f5b85811015611132578484038952815161111385826110b2565b945061111e836110c5565b925060208a019950506001810190506110fa565b50829750879550505050505092915050565b5f6020820190508181035f83015261115c81846110d1565b905092915050565b7f4e487b71000000000000000000000000000000000000000000000000000000005f52601160045260245ffd5b5f61119b82610d15565b91506111a683610d15565b92508282026111b481610d15565b915082820484148315176111cb576111ca611164565b5b5092915050565b7f496e76616c696420696e646578000000000000000000000000000000000000005f82015250565b5f611206600d83610db6565b9150611211826111d2565b602082019050919050565b5f6020820190508181035f830152611233816111fa565b9050919050565b7f4e487b71000000000000000000000000000000000000000000000000000000005f52603260045260245ffd5b7f4e487b71000000000000000000000000000000000000000000000000000000005f52601260045260245ffd5b5f61129e82610d15565b91506112a983610d15565b9250826112b9576112b8611267565b5b828204905092915050565b7f4e487b71000000000000000000000000000000000000000000000000000000005f52602260045260245ffd5b5f600282049050600182168061130857607f821691505b60208210810361131b5761131a6112c4565b5b50919050565b5f819050815f5260205f209050919050565b5f6020601f8301049050919050565b5f82821b905092915050565b5f6008830261137d7fffffffffffffffffffffffffffffffffffffffffffffffffffffffffffffffff82611342565b6113878683611342565b95508019841693508086168417925050509392505050565b5f819050919050565b5f6113c26113bd6113b884610d15565b61139f565b610d15565b9050919050565b5f819050919050565b6113db836113a8565b6113ef6113e7826113c9565b84845461134e565b825550505050565b5f5f905090565b6114066113f7565b6114118184846113d2565b505050565b5b81811015611434576114295f826113fe565b600181019050611417565b5050565b601f8211156114795761144a81611321565b61145384611333565b81016020851015611462578190505b61147661146e85611333565b830182611416565b50505b505050565b5f82821c905092915050565b5f6114995f198460080261147e565b1980831691505092915050565b5f6114b1838361148a565b9150826002028217905092915050565b6114ca82610dac565b67ffffffffffffffff8111156114e3576114e2610e82565b5b6114ed82546112f1565b6114f8828285611438565b5f60209050601f831160018114611529575f8415611517578287015190505b61152185826114a6565b865550611588565b601f19841661153786611321565b5f5b8281101561155e57848901518255600182019150602085019450602081019050611539565b8683101561157b5784890151611577601f89168261148a565b8355505b6001600288020188555050505b505050505050565b5f61159a82610d15565b91506115a583610d15565b92508282019050808211156115bd576115bc611164565b5b92915050565b5f6115cd82610d15565b91506115d883610d15565b92508282039050818111156115f0576115ef611164565b5b9291505056fea264697066735822122091f5cbdef208d1f1f6ce2245dc67d1264dd9489b8a13ab62c1a06b6a861fc1ef64736f6c634300081e0033",
			"opcodes": "PUSH1 0x80 PUSH1 0x40 MSTORE CALLVALUE DUP1 ISZERO PUSH1 0xE JUMPI PUSH0 PUSH0 REVERT JUMPDEST POP PUSH2 0x162C DUP1 PUSH2 0x1C PUSH0 CODECOPY PUSH0 RETURN INVALID PUSH1 0x80 PUSH1 0x40 MSTORE CALLVALUE DUP1 ISZERO PUSH2 0xF JUMPI PUSH0 PUSH0 REVERT JUMPDEST POP PUSH1 0x4 CALLDATASIZE LT PUSH2 0x14B JUMPI PUSH0 CALLDATALOAD PUSH1 0xE0 SHR DUP1 PUSH4 0x9F17C892 GT PUSH2 0xC1 JUMPI DUP1 PUSH4 0xD39FA233 GT PUSH2 0x7A JUMPI DUP1 PUSH4 0xD39FA233 EQ PUSH2 0x33B JUMPI DUP1 PUSH4 0xD62FF3A4 EQ PUSH2 0x36B JUMPI DUP1 PUSH4 0xE3EC0251 EQ PUSH2 0x389 JUMPI DUP1 PUSH4 0xEC597128 EQ PUSH2 0x3A7 JUMPI DUP1 PUSH4 0xFC563658 EQ PUSH2 0x3C5 JUMPI DUP1 PUSH4 0xFCE68023 EQ PUSH2 0x3F5 JUMPI PUSH2 0x14B JUMP JUMPDEST DUP1 PUSH4 0x9F17C892 EQ PUSH2 0x28D JUMPI DUP1 PUSH4 0xA59E0D54 EQ PUSH2 0x2A9 JUMPI DUP1 PUSH4 0xBDE9E40E EQ PUSH2 0x2C5 JUMPI DUP1 PUSH4 0xBE1C766B EQ PUSH2 0x2E3 JUMPI DUP1 PUSH4 0xBED948C5 EQ PUSH2 0x301 JUMPI DUP1 PUSH4 0xC33926CB EQ PUSH2 0x31D JUMPI PUSH2 0x14B JUMP JUMPDEST DUP1 PUSH4 0x3205F5FC GT PUSH2 0x113 JUMPI DUP1 PUSH4 0x3205F5FC EQ PUSH2 0x1DF JUMPI DUP1 PUSH4 0x48A9066D EQ PUSH2 0x1FD JUMPI DUP1 PUSH4 0x7F109886 EQ PUSH2 0x219 JUMPI DUP1 PUSH4 0x91819BF3 EQ PUSH2 0x237 JUMPI DUP1 PUSH4 0x95FFEBF5 EQ PUSH2 0x253 JUMPI DUP1 PUSH4 0x9DAAF83A EQ PUSH2 0x26F JUMPI PUSH2 0x14B JUMP JUMPDEST DUP1 PUSH4 0x11285DA EQ PUSH2 0x14F JUMPI DUP1 PUSH4 0x12A09447 EQ PUSH2 0x16D JUMPI DUP1 PUSH4 0x1981BFA0 EQ PUSH2 0x189 JUMPI DUP1 PUSH4 0x20FE2144 EQ PUSH2 0x1A5 JUMPI DUP1 PUSH4 0x266DE1E0 EQ PUSH2 0x1C1 JUMPI JUMPDEST PUSH0 PUSH0 REVERT JUMPDEST PUSH2 0x157 PUSH2 0x411 JUMP JUMPDEST PUSH1 0x40 MLOAD PUSH2 0x164 SWAP2 SWAP1 PUSH2 0xD2D JUMP JUMPDEST PUSH1 0x40 MLOAD DUP1 SWAP2 SUB SWAP1 RETURN JUMPDEST PUSH2 0x187 PUSH1 0x4 DUP1 CALLDATASIZE SUB DUP2 ADD SWAP1 PUSH2 0x182 SWAP2 SWAP1 PUSH2 0xD81 JUMP JUMPDEST PUSH2 0x426 JUMP JUMPDEST STOP JUMPDEST PUSH2 0x1A3 PUSH1 0x4 DUP1 CALLDATASIZE SUB DUP2 ADD SWAP1 PUSH2 0x19E SWAP2 SWAP1 PUSH2 0xD81 JUMP JUMPDEST PUSH2 0x430 JUMP JUMPDEST STOP JUMPDEST PUSH2 0x1BF PUSH1 0x4 DUP1 CALLDATASIZE SUB DUP2 ADD SWAP1 PUSH2 0x1BA SWAP2 SWAP1 PUSH2 0xD81 JUMP JUMPDEST PUSH2 0x43A JUMP JUMPDEST STOP JUMPDEST PUSH2 0x1C9 PUSH2 0x535 JUMP JUMPDEST PUSH1 0x40 MLOAD PUSH2 0x1D6 SWAP2 SWAP1 PUSH2 0xE1C JUMP JUMPDEST PUSH1 0x40 MLOAD DUP1 SWAP2 SUB SWAP1 RETURN JUMPDEST PUSH2 0x1E7 PUSH2 0x66A JUMP JUMPDEST PUSH1 0x40 MLOAD PUSH2 0x1F4 SWAP2 SWAP1 PUSH2 0xD2D JUMP JUMPDEST PUSH1 0x40 MLOAD DUP1 SWAP2 SUB SWAP1 RETURN JUMPDEST PUSH2 0x217 PUSH1 0x4 DUP1 CALLDATASIZE SUB DUP2 ADD SWAP1 PUSH2 0x212 SWAP2 SWAP1 PUSH2 0xD81 JUMP JUMPDEST PUSH2 0x67F JUMP JUMPDEST STOP JUMPDEST PUSH2 0x221 PUSH2 0x688 JUMP JUMPDEST PUSH1 0x40 MLOAD PUSH2 0x22E SWAP2 SWAP1 PUSH2 0xE1C JUMP JUMPDEST PUSH1 0x40 MLOAD DUP1 SWAP2 SUB SWAP1 RETURN JUMPDEST PUSH2 0x251 PUSH1 0x4 DUP1 CALLDATASIZE SUB DUP2 ADD SWAP1 PUSH2 0x24C SWAP2 SWAP1 PUSH2 0xE3C JUMP JUMPDEST PUSH2 0x765 JUMP JUMPDEST STOP JUMPDEST PUSH2 0x26D PUSH1 0x4 DUP1 CALLDATASIZE SUB DUP2 ADD SWAP1 PUSH2 0x268 SWAP2 SWAP1 PUSH2 0xFA6 JUMP JUMPDEST PUSH2 0x78A JUMP JUMPDEST STOP JUMPDEST PUSH2 0x277 PUSH2 0x83C JUMP JUMPDEST PUSH1 0x40 MLOAD PUSH2 0x284 SWAP2 SWAP1 PUSH2 0xE1C JUMP JUMPDEST PUSH1 0x40 MLOAD DUP1 SWAP2 SUB SWAP1 RETURN JUMPDEST PUSH2 0x2A7 PUSH1 0x4 DUP1 CALLDATASIZE SUB DUP2 ADD SWAP1 PUSH2 0x2A2 SWAP2 SWAP1 PUSH2 0xD81 JUMP JUMPDEST PUSH2 0xA21 JUMP JUMPDEST STOP JUMPDEST PUSH2 0x2C3 PUSH1 0x4 DUP1 CALLDATASIZE SUB DUP2 ADD SWAP1 PUSH2 0x2BE SWAP2 SWAP1 PUSH2 0xD81 JUMP JUMPDEST PUSH2 0xA2B JUMP JUMPDEST STOP JUMPDEST PUSH2 0x2CD PUSH2 0xA35 JUMP JUMPDEST PUSH1 0x40 MLOAD PUSH2 0x2DA SWAP2 SWAP1 PUSH2 0xD2D JUMP JUMPDEST PUSH1 0x40 MLOAD DUP1 SWAP2 SUB SWAP1 RETURN JUMPDEST PUSH2 0x2EB PUSH2 0xA4A JUMP JUMPDEST PUSH1 0x40 MLOAD PUSH2 0x2F8 SWAP2 SWAP1 PUSH2 0xD2D JUMP JUMPDEST PUSH1 0x40 MLOAD DUP1 SWAP2 SUB SWAP1 RETURN JUMPDEST PUSH2 0x31B PUSH1 0x4 DUP1 CALLDATASIZE SUB DUP2 ADD SWAP1 PUSH2 0x316 SWAP2 SWAP1 PUSH2 0xD81 JUMP JUMPDEST PUSH2 0xA56 JUMP JUMPDEST STOP JUMPDEST PUSH2 0x325 PUSH2 0xA60 JUMP JUMPDEST PUSH1 0x40 MLOAD PUSH2 0x332 SWAP2 SWAP1 PUSH2 0x1144 JUMP JUMPDEST PUSH1 0x40 MLOAD DUP1 SWAP2 SUB SWAP1 RETURN JUMPDEST PUSH2 0x355 PUSH1 0x4 DUP1 CALLDATASIZE SUB DUP2 ADD SWAP1 PUSH2 0x350 SWAP2 SWAP1 PUSH2 0xD81 JUMP JUMPDEST PUSH2 0xBA0 JUMP JUMPDEST PUSH1 0x40 MLOAD PUSH2 0x362 SWAP2 SWAP1 PUSH2 0xD2D JUMP JUMPDEST PUSH1 0x40 MLOAD DUP1 SWAP2 SUB SWAP1 RETURN JUMPDEST PUSH2 0x373 PUSH2 0xBC0 JUMP JUMPDEST PUSH1 0x40 MLOAD PUSH2 0x380 SWAP2 SWAP1 PUSH2 0xE1C JUMP JUMPDEST PUSH1 0x40 MLOAD DUP1 SWAP2 SUB SWAP1 RETURN JUMPDEST PUSH2 0x391 PUSH2 0xC9D JUMP JUMPDEST PUSH1 0x40 MLOAD PUSH2 0x39E SWAP2 SWAP1 PUSH2 0xD2D JUMP JUMPDEST PUSH1 0x40 MLOAD DUP1 SWAP2 SUB SWAP1 RETURN JUMPDEST PUSH2 0x3AF PUSH2 0xCB2 JUMP JUMPDEST PUSH1 0x40 MLOAD PUSH2 0x3BC SWAP2 SWAP1 PUSH2 0xD2D JUMP JUMPDEST PUSH1 0x40 MLOAD DUP1 SWAP2 SUB SWAP1 RETURN JUMPDEST PUSH2 0x3DF PUSH1 0x4 DUP1 CALLDATASIZE SUB DUP2 ADD SWAP1 PUSH2 0x3DA SWAP2 SWAP1 PUSH2 0xD81 JUMP JUMPDEST PUSH2 0xCC7 JUMP JUMPDEST PUSH1 0x40 MLOAD PUSH2 0x3EC SWAP2 SWAP1 PUSH2 0xD2D JUMP JUMPDEST PUSH1 0x40 MLOAD DUP1 SWAP2 SUB SWAP1 RETURN JUMPDEST PUSH2 0x40F PUSH1 0x4 DUP1 CALLDATASIZE SUB DUP2 ADD SWAP1 PUSH2 0x40A SWAP2 SWAP1 PUSH2 0xD81 JUMP JUMPDEST PUSH2 0xCEC JUMP JUMPDEST STOP JUMPDEST PUSH0 PUSH1 0x1 SLOAD PUSH0 SLOAD PUSH2 0x421 SWAP2 SWAP1 PUSH2 0x1191 JUMP JUMPDEST SWAP1 POP SWAP1 JUMP JUMPDEST DUP1 PUSH1 0x4 DUP2 SWAP1 SSTORE POP POP JUMP JUMPDEST DUP1 PUSH1 0x5 DUP2 SWAP1 SSTORE POP POP JUMP JUMPDEST PUSH1 0x6 PUSH0 CALLER PUSH20 0xFFFFFFFFFFFFFFFFFFFFFFFFFFFFFFFFFFFFFFFF AND PUSH20 0xFFFFFFFFFFFFFFFFFFFFFFFFFFFFFFFFFFFFFFFF AND DUP2 MSTORE PUSH1 0x20 ADD SWAP1 DUP2 MSTORE PUSH1 0x20 ADD PUSH0 KECCAK256 DUP1 SLOAD SWAP1 POP DUP2 LT PUSH2 0x4BC JUMPI PUSH1 0x40 MLOAD PUSH32 0x8C379A000000000000000000000000000000000000000000000000000000000 DUP2 MSTORE PUSH1 0x4 ADD PUSH2 0x4B3 SWAP1 PUSH2 0x121C JUMP JUMPDEST PUSH1 0x40 MLOAD DUP1 SWAP2 SUB SWAP1 REVERT JUMPDEST PUSH1 0x1 PUSH1 0x6 PUSH0 CALLER PUSH20 0xFFFFFFFFFFFFFFFFFFFFFFFFFFFFFFFFFFFFFFFF AND PUSH20 0xFFFFFFFFFFFFFFFFFFFFFFFFFFFFFFFFFFFFFFFF AND DUP2 MSTORE PUSH1 0x20 ADD SWAP1 DUP2 MSTORE PUSH1 0x20 ADD PUSH0 KECCAK256 DUP3 DUP2 SLOAD DUP2 LT PUSH2 0x50D JUMPI PUSH2 0x50C PUSH2 0x123A JUMP JUMPDEST JUMPDEST SWAP1 PUSH0 MSTORE PUSH1 0x20 PUSH0 KECCAK256 SWAP1 PUSH1 0x2 MUL ADD PUSH1 0x1 ADD PUSH0 PUSH2 0x100 EXP DUP2 SLOAD DUP2 PUSH1 0xFF MUL NOT AND SWAP1 DUP4 ISZERO ISZERO MUL OR SWAP1 SSTORE POP POP JUMP JUMPDEST PUSH1 0x60 PUSH1 0xC PUSH1 0x3 SLOAD GT PUSH2 0x57E JUMPI PUSH1 0x40 MLOAD DUP1 PUSH1 0x40 ADD PUSH1 0x40 MSTORE DUP1 PUSH1 0xC DUP2 MSTORE PUSH1 0x20 ADD PUSH32 0x476F6F64204D6F726E696E670000000000000000000000000000000000000000 DUP2 MSTORE POP SWAP1 POP PUSH2 0x667 JUMP JUMPDEST PUSH1 0xC PUSH1 0x3 SLOAD LT ISZERO DUP1 ISZERO PUSH2 0x594 JUMPI POP PUSH1 0x10 PUSH1 0x3 SLOAD GT ISZERO JUMPDEST ISZERO PUSH2 0x5D6 JUMPI PUSH1 0x40 MLOAD DUP1 PUSH1 0x40 ADD PUSH1 0x40 MSTORE DUP1 PUSH1 0xE DUP2 MSTORE PUSH1 0x20 ADD PUSH32 0x476F6F642041667465726E6F6F6E000000000000000000000000000000000000 DUP2 MSTORE POP SWAP1 POP PUSH2 0x667 JUMP JUMPDEST PUSH1 0x10 PUSH1 0x3 SLOAD LT ISZERO DUP1 ISZERO PUSH2 0x5EC JUMPI POP PUSH1 0x14 PUSH1 0x3 SLOAD GT ISZERO JUMPDEST ISZERO PUSH2 0x62E JUMPI PUSH1 0x40 MLOAD DUP1 PUSH1 0x40 ADD PUSH1 0x40 MSTORE DUP1 PUSH1 0xC DUP2 MSTORE PUSH1 0x20 ADD PUSH32 0x476F6F64204576656E696E670000000000000000000000000000000000000000 DUP2 MSTORE POP SWAP1 POP PUSH2 0x667 JUMP JUMPDEST PUSH1 0x40 MLOAD DUP1 PUSH1 0x40 ADD PUSH1 0x40 MSTORE DUP1 PUSH1 0xA DUP2 MSTORE PUSH1 0x20 ADD PUSH32 0x476F6F64204E6967687400000000000000000000000000000000000000000000 DUP2 MSTORE POP SWAP1 POP JUMPDEST SWAP1 JUMP JUMPDEST PUSH0 PUSH1 0x1 SLOAD PUSH0 SLOAD PUSH2 0x67A SWAP2 SWAP1 PUSH2 0x1294 JUMP JUMPDEST SWAP1 POP SWAP1 JUMP JUMPDEST DUP1 PUSH0 DUP2 SWAP1 SSTORE POP POP JUMP JUMPDEST PUSH1 0x60 PUSH1 0xF PUSH1 0x4 SLOAD GT PUSH2 0x6D1 JUMPI PUSH1 0x40 MLOAD DUP1 PUSH1 0x40 ADD PUSH1 0x40 MSTORE DUP1 PUSH1 0x4 DUP2 MSTORE PUSH1 0x20 ADD PUSH32 0x636F6C6400000000000000000000000000000000000000000000000000000000 DUP2 MSTORE POP SWAP1 POP PUSH2 0x762 JUMP JUMPDEST PUSH1 0xF PUSH1 0x4 SLOAD LT ISZERO DUP1 ISZERO PUSH2 0x6E7 JUMPI POP PUSH1 0x19 PUSH1 0x4 SLOAD GT ISZERO JUMPDEST ISZERO PUSH2 0x729 JUMPI PUSH1 0x40 MLOAD DUP1 PUSH1 0x40 ADD PUSH1 0x40 MSTORE DUP1 PUSH1 0x6 DUP2 MSTORE PUSH1 0x20 ADD PUSH32 0x6E6F726D616C0000000000000000000000000000000000000000000000000000 DUP2 MSTORE POP SWAP1 POP PUSH2 0x762 JUMP JUMPDEST PUSH1 0x40 MLOAD DUP1 PUSH1 0x40 ADD PUSH1 0x40 MSTORE DUP1 PUSH1 0x3 DUP2 MSTORE PUSH1 0x20 ADD PUSH32 0x686F740000000000000000000000000000000000000000000000000000000000 DUP2 MSTORE POP SWAP1 POP JUMPDEST SWAP1 JUMP JUMPDEST DUP1 PUSH1 0x7 DUP4 DUP2 SLOAD DUP2 LT PUSH2 0x77A JUMPI PUSH2 0x779 PUSH2 0x123A JUMP JUMPDEST JUMPDEST SWAP1 PUSH0 MSTORE PUSH1 0x20 PUSH0 KECCAK256 ADD DUP2 SWAP1 SSTORE POP POP POP JUMP JUMPDEST PUSH1 0x6 PUSH0 CALLER PUSH20 0xFFFFFFFFFFFFFFFFFFFFFFFFFFFFFFFFFFFFFFFF AND PUSH20 0xFFFFFFFFFFFFFFFFFFFFFFFFFFFFFFFFFFFFFFFF AND DUP2 MSTORE PUSH1 0x20 ADD SWAP1 DUP2 MSTORE PUSH1 0x20 ADD PUSH0 KECCAK256 PUSH1 0x40 MLOAD DUP1 PUSH1 0x40 ADD PUSH1 0x40 MSTORE DUP1 DUP4 DUP2 MSTORE PUSH1 0x20 ADD PUSH0 ISZERO ISZERO DUP2 MSTORE POP SWAP1 DUP1 PUSH1 0x1 DUP2 SLOAD ADD DUP1 DUP3 SSTORE DUP1 SWAP2 POP POP PUSH1 0x1 SWAP1 SUB SWAP1 PUSH0 MSTORE PUSH1 0x20 PUSH0 KECCAK256 SWAP1 PUSH1 0x2 MUL ADD PUSH0 SWAP1 SWAP2 SWAP1 SWAP2 SWAP1 SWAP2 POP PUSH0 DUP3 ADD MLOAD DUP2 PUSH0 ADD SWAP1 DUP2 PUSH2 0x817 SWAP2 SWAP1 PUSH2 0x14C1 JUMP JUMPDEST POP PUSH1 0x20 DUP3 ADD MLOAD DUP2 PUSH1 0x1 ADD PUSH0 PUSH2 0x100 EXP DUP2 SLOAD DUP2 PUSH1 0xFF MUL NOT AND SWAP1 DUP4 ISZERO ISZERO MUL OR SWAP1 SSTORE POP POP POP POP JUMP JUMPDEST PUSH1 0x60 PUSH1 0x8 PUSH1 0x5 SLOAD GT PUSH2 0x885 JUMPI PUSH1 0x40 MLOAD DUP1 PUSH1 0x40 ADD PUSH1 0x40 MSTORE DUP1 PUSH1 0xF DUP2 MSTORE PUSH1 0x20 ADD PUSH32 0x6C6561726E2074696C6C203130616D0000000000000000000000000000000000 DUP2 MSTORE POP SWAP1 POP PUSH2 0xA1E JUMP JUMPDEST PUSH1 0xA PUSH1 0x5 SLOAD LT ISZERO DUP1 ISZERO PUSH2 0x89B JUMPI POP PUSH1 0xC PUSH1 0x5 SLOAD GT ISZERO JUMPDEST ISZERO PUSH2 0x8DD JUMPI PUSH1 0x40 MLOAD DUP1 PUSH1 0x40 ADD PUSH1 0x40 MSTORE DUP1 PUSH1 0xD DUP2 MSTORE PUSH1 0x20 ADD PUSH32 0x676F206E2067657420666F6F6400000000000000000000000000000000000000 DUP2 MSTORE POP SWAP1 POP PUSH2 0xA1E JUMP JUMPDEST PUSH1 0xC PUSH1 0x5 SLOAD LT ISZERO DUP1 ISZERO PUSH2 0x8F3 JUMPI POP PUSH1 0xE PUSH1 0x5 SLOAD GT ISZERO JUMPDEST ISZERO PUSH2 0x935 JUMPI PUSH1 0x40 MLOAD DUP1 PUSH1 0x40 ADD PUSH1 0x40 MSTORE DUP1 PUSH1 0xD DUP2 MSTORE PUSH1 0x20 ADD PUSH32 0x70726F6261626C79207265616400000000000000000000000000000000000000 DUP2 MSTORE POP SWAP1 POP PUSH2 0xA1E JUMP JUMPDEST PUSH1 0xE PUSH1 0x5 SLOAD LT ISZERO DUP1 ISZERO PUSH2 0x94B JUMPI POP PUSH1 0x12 PUSH1 0x5 SLOAD GT ISZERO JUMPDEST ISZERO PUSH2 0x98D JUMPI PUSH1 0x40 MLOAD DUP1 PUSH1 0x40 ADD PUSH1 0x40 MSTORE DUP1 PUSH1 0x5 DUP2 MSTORE PUSH1 0x20 ADD PUSH32 0x736C656570000000000000000000000000000000000000000000000000000000 DUP2 MSTORE POP SWAP1 POP PUSH2 0xA1E JUMP JUMPDEST PUSH1 0x13 PUSH1 0x5 SLOAD LT ISZERO DUP1 ISZERO PUSH2 0x9A3 JUMPI POP PUSH1 0x14 PUSH1 0x5 SLOAD GT ISZERO JUMPDEST ISZERO PUSH2 0x9E5 JUMPI PUSH1 0x40 MLOAD DUP1 PUSH1 0x40 ADD PUSH1 0x40 MSTORE DUP1 PUSH1 0x7 DUP2 MSTORE PUSH1 0x20 ADD PUSH32 0x6879647261746500000000000000000000000000000000000000000000000000 DUP2 MSTORE POP SWAP1 POP PUSH2 0xA1E JUMP JUMPDEST PUSH1 0x40 MLOAD DUP1 PUSH1 0x40 ADD PUSH1 0x40 MSTORE DUP1 PUSH1 0xB DUP2 MSTORE PUSH1 0x20 ADD PUSH32 0x736C65657020616761696E000000000000000000000000000000000000000000 DUP2 MSTORE POP SWAP1 POP JUMPDEST SWAP1 JUMP JUMPDEST DUP1 PUSH1 0x1 DUP2 SWAP1 SSTORE POP POP JUMP JUMPDEST DUP1 PUSH1 0x2 DUP2 SWAP1 SSTORE POP POP JUMP JUMPDEST PUSH0 PUSH1 0x1 SLOAD PUSH0 SLOAD PUSH2 0xA45 SWAP2 SWAP1 PUSH2 0x1590 JUMP JUMPDEST SWAP1 POP SWAP1 JUMP JUMPDEST PUSH0 PUSH1 0x7 DUP1 SLOAD SWAP1 POP SWAP1 POP SWAP1 JUMP JUMPDEST DUP1 PUSH1 0x3 DUP2 SWAP1 SSTORE POP POP JUMP JUMPDEST PUSH1 0x60 PUSH1 0x6 PUSH0 CALLER PUSH20 0xFFFFFFFFFFFFFFFFFFFFFFFFFFFFFFFFFFFFFFFF AND PUSH20 0xFFFFFFFFFFFFFFFFFFFFFFFFFFFFFFFFFFFFFFFF AND DUP2 MSTORE PUSH1 0x20 ADD SWAP1 DUP2 MSTORE PUSH1 0x20 ADD PUSH0 KECCAK256 DUP1 SLOAD DUP1 PUSH1 0x20 MUL PUSH1 0x20 ADD PUSH1 0x40 MLOAD SWAP1 DUP2 ADD PUSH1 0x40 MSTORE DUP1 SWAP3 SWAP2 SWAP1 DUP2 DUP2 MSTORE PUSH1 0x20 ADD PUSH0 SWAP1 JUMPDEST DUP3 DUP3 LT ISZERO PUSH2 0xB97 JUMPI DUP4 DUP3 SWAP1 PUSH0 MSTORE PUSH1 0x20 PUSH0 KECCAK256 SWAP1 PUSH1 0x2 MUL ADD PUSH1 0x40 MLOAD DUP1 PUSH1 0x40 ADD PUSH1 0x40 MSTORE SWAP1 DUP2 PUSH0 DUP3 ADD DUP1 SLOAD PUSH2 0xAEE SWAP1 PUSH2 0x12F1 JUMP JUMPDEST DUP1 PUSH1 0x1F ADD PUSH1 0x20 DUP1 SWAP2 DIV MUL PUSH1 0x20 ADD PUSH1 0x40 MLOAD SWAP1 DUP2 ADD PUSH1 0x40 MSTORE DUP1 SWAP3 SWAP2 SWAP1 DUP2 DUP2 MSTORE PUSH1 0x20 ADD DUP3 DUP1 SLOAD PUSH2 0xB1A SWAP1 PUSH2 0x12F1 JUMP JUMPDEST DUP1 ISZERO PUSH2 0xB65 JUMPI DUP1 PUSH1 0x1F LT PUSH2 0xB3C JUMPI PUSH2 0x100 DUP1 DUP4 SLOAD DIV MUL DUP4 MSTORE SWAP2 PUSH1 0x20 ADD SWAP2 PUSH2 0xB65 JUMP JUMPDEST DUP3 ADD SWAP2 SWAP1 PUSH0 MSTORE PUSH1 0x20 PUSH0 KECCAK256 SWAP1 JUMPDEST DUP2 SLOAD DUP2 MSTORE SWAP1 PUSH1 0x1 ADD SWAP1 PUSH1 0x20 ADD DUP1 DUP4 GT PUSH2 0xB48 JUMPI DUP3 SWAP1 SUB PUSH1 0x1F AND DUP3 ADD SWAP2 JUMPDEST POP POP POP POP POP DUP2 MSTORE PUSH1 0x20 ADD PUSH1 0x1 DUP3 ADD PUSH0 SWAP1 SLOAD SWAP1 PUSH2 0x100 EXP SWAP1 DIV PUSH1 0xFF AND ISZERO ISZERO ISZERO ISZERO DUP2 MSTORE POP POP DUP2 MSTORE PUSH1 0x20 ADD SWAP1 PUSH1 0x1 ADD SWAP1 PUSH2 0xABE JUMP JUMPDEST POP POP POP POP SWAP1 POP SWAP1 JUMP JUMPDEST PUSH1 0x7 DUP2 DUP2 SLOAD DUP2 LT PUSH2 0xBAF JUMPI PUSH0 DUP1 REVERT JUMPDEST SWAP1 PUSH0 MSTORE PUSH1 0x20 PUSH0 KECCAK256 ADD PUSH0 SWAP2 POP SWAP1 POP SLOAD DUP2 JUMP JUMPDEST PUSH1 0x60 PUSH1 0xF PUSH1 0x2 SLOAD GT PUSH2 0xC09 JUMPI PUSH1 0x40 MLOAD DUP1 PUSH1 0x40 ADD PUSH1 0x40 MSTORE DUP1 PUSH1 0x18 DUP2 MSTORE PUSH1 0x20 ADD PUSH32 0x736F727279206465617220796F752063616E7420766F74650000000000000000 DUP2 MSTORE POP SWAP1 POP PUSH2 0xC9A JUMP JUMPDEST PUSH1 0x10 PUSH1 0x2 SLOAD LT ISZERO DUP1 ISZERO PUSH2 0xC1F JUMPI POP PUSH1 0x11 PUSH1 0x2 SLOAD GT ISZERO JUMPDEST ISZERO PUSH2 0xC61 JUMPI PUSH1 0x40 MLOAD DUP1 PUSH1 0x40 ADD PUSH1 0x40 MSTORE DUP1 PUSH1 0x1C DUP2 MSTORE PUSH1 0x20 ADD PUSH32 0x7665727920736F6F6E20796F752061726520676F6E6E6120766F746500000000 DUP2 MSTORE POP SWAP1 POP PUSH2 0xC9A JUMP JUMPDEST PUSH1 0x40 MLOAD DUP1 PUSH1 0x40 ADD PUSH1 0x40 MSTORE DUP1 PUSH1 0x18 DUP2 MSTORE PUSH1 0x20 ADD PUSH32 0x596F752061726520656C696769626C6520746F20766F74650000000000000000 DUP2 MSTORE POP SWAP1 POP JUMPDEST SWAP1 JUMP JUMPDEST PUSH0 PUSH1 0x1 SLOAD PUSH0 SLOAD PUSH2 0xCAD SWAP2 SWAP1 PUSH2 0x15C3 JUMP JUMPDEST SWAP1 POP SWAP1 JUMP JUMPDEST PUSH0 PUSH1 0x1 SLOAD PUSH0 SLOAD PUSH2 0xCC2 SWAP2 SWAP1 PUSH2 0x1590 JUMP JUMPDEST SWAP1 POP SWAP1 JUMP JUMPDEST PUSH0 PUSH1 0x7 DUP3 DUP2 SLOAD DUP2 LT PUSH2 0xCDC JUMPI PUSH2 0xCDB PUSH2 0x123A JUMP JUMPDEST JUMPDEST SWAP1 PUSH0 MSTORE PUSH1 0x20 PUSH0 KECCAK256 ADD SLOAD SWAP1 POP SWAP2 SWAP1 POP JUMP JUMPDEST PUSH1 0x7 DUP2 SWAP1 DUP1 PUSH1 0x1 DUP2 SLOAD ADD DUP1 DUP3 SSTORE DUP1 SWAP2 POP POP PUSH1 0x1 SWAP1 SUB SWAP1 PUSH0 MSTORE PUSH1 0x20 PUSH0 KECCAK256 ADD PUSH0 SWAP1 SWAP2 SWAP1 SWAP2 SWAP1 SWAP2 POP SSTORE POP JUMP JUMPDEST PUSH0 DUP2 SWAP1 POP SWAP2 SWAP1 POP JUMP JUMPDEST PUSH2 0xD27 DUP2 PUSH2 0xD15 JUMP JUMPDEST DUP3 MSTORE POP POP JUMP JUMPDEST PUSH0 PUSH1 0x20 DUP3 ADD SWAP1 POP PUSH2 0xD40 PUSH0 DUP4 ADD DUP5 PUSH2 0xD1E JUMP JUMPDEST SWAP3 SWAP2 POP POP JUMP JUMPDEST PUSH0 PUSH1 0x40 MLOAD SWAP1 POP SWAP1 JUMP JUMPDEST PUSH0 PUSH0 REVERT JUMPDEST PUSH0 PUSH0 REVERT JUMPDEST PUSH2 0xD60 DUP2 PUSH2 0xD15 JUMP JUMPDEST DUP2 EQ PUSH2 0xD6A JUMPI PUSH0 PUSH0 REVERT JUMPDEST POP JUMP JUMPDEST PUSH0 DUP2 CALLDATALOAD SWAP1 POP PUSH2 0xD7B DUP2 PUSH2 0xD57 JUMP JUMPDEST SWAP3 SWAP2 POP POP JUMP JUMPDEST PUSH0 PUSH1 0x20 DUP3 DUP5 SUB SLT ISZERO PUSH2 0xD96 JUMPI PUSH2 0xD95 PUSH2 0xD4F JUMP JUMPDEST JUMPDEST PUSH0 PUSH2 0xDA3 DUP5 DUP3 DUP6 ADD PUSH2 0xD6D JUMP JUMPDEST SWAP2 POP POP SWAP3 SWAP2 POP POP JUMP JUMPDEST PUSH0 DUP2 MLOAD SWAP1 POP SWAP2 SWAP1 POP JUMP JUMPDEST PUSH0 DUP3 DUP3 MSTORE PUSH1 0x20 DUP3 ADD SWAP1 POP SWAP3 SWAP2 POP POP JUMP JUMPDEST DUP3 DUP2 DUP4 MCOPY PUSH0 DUP4 DUP4 ADD MSTORE POP POP POP JUMP JUMPDEST PUSH0 PUSH1 0x1F NOT PUSH1 0x1F DUP4 ADD AND SWAP1 POP SWAP2 SWAP1 POP JUMP JUMPDEST PUSH0 PUSH2 0xDEE DUP3 PUSH2 0xDAC JUMP JUMPDEST PUSH2 0xDF8 DUP2 DUP6 PUSH2 0xDB6 JUMP JUMPDEST SWAP4 POP PUSH2 0xE08 DUP2 DUP6 PUSH1 0x20 DUP7 ADD PUSH2 0xDC6 JUMP JUMPDEST PUSH2 0xE11 DUP2 PUSH2 0xDD4 JUMP JUMPDEST DUP5 ADD SWAP2 POP POP SWAP3 SWAP2 POP POP JUMP JUMPDEST PUSH0 PUSH1 0x20 DUP3 ADD SWAP1 POP DUP2 DUP2 SUB PUSH0 DUP4 ADD MSTORE PUSH2 0xE34 DUP2 DUP5 PUSH2 0xDE4 JUMP JUMPDEST SWAP1 POP SWAP3 SWAP2 POP POP JUMP JUMPDEST PUSH0 PUSH0 PUSH1 0x40 DUP4 DUP6 SUB SLT ISZERO PUSH2 0xE52 JUMPI PUSH2 0xE51 PUSH2 0xD4F JUMP JUMPDEST JUMPDEST PUSH0 PUSH2 0xE5F DUP6 DUP3 DUP7 ADD PUSH2 0xD6D JUMP JUMPDEST SWAP3 POP POP PUSH1 0x20 PUSH2 0xE70 DUP6 DUP3 DUP7 ADD PUSH2 0xD6D JUMP JUMPDEST SWAP2 POP POP SWAP3 POP SWAP3 SWAP1 POP JUMP JUMPDEST PUSH0 PUSH0 REVERT JUMPDEST PUSH0 PUSH0 REVERT JUMPDEST PUSH32 0x4E487B7100000000000000000000000000000000000000000000000000000000 PUSH0 MSTORE PUSH1 0x41 PUSH1 0x4 MSTORE PUSH1 0x24 PUSH0 REVERT JUMPDEST PUSH2 0xEB8 DUP3 PUSH2 0xDD4 JUMP JUMPDEST DUP2 ADD DUP2 DUP2 LT PUSH8 0xFFFFFFFFFFFFFFFF DUP3 GT OR ISZERO PUSH2 0xED7 JUMPI PUSH2 0xED6 PUSH2 0xE82 JUMP JUMPDEST JUMPDEST DUP1 PUSH1 0x40 MSTORE POP POP POP JUMP JUMPDEST PUSH0 PUSH2 0xEE9 PUSH2 0xD46 JUMP JUMPDEST SWAP1 POP PUSH2 0xEF5 DUP3 DUP3 PUSH2 0xEAF JUMP JUMPDEST SWAP2 SWAP1 POP JUMP JUMPDEST PUSH0 PUSH8 0xFFFFFFFFFFFFFFFF DUP3 GT ISZERO PUSH2 0xF14 JUMPI PUSH2 0xF13 PUSH2 0xE82 JUMP JUMPDEST JUMPDEST PUSH2 0xF1D DUP3 PUSH2 0xDD4 JUMP JUMPDEST SWAP1 POP PUSH1 0x20 DUP2 ADD SWAP1 POP SWAP2 SWAP1 POP JUMP JUMPDEST DUP3 DUP2 DUP4 CALLDATACOPY PUSH0 DUP4 DUP4 ADD MSTORE POP POP POP JUMP JUMPDEST PUSH0 PUSH2 0xF4A PUSH2 0xF45 DUP5 PUSH2 0xEFA JUMP JUMPDEST PUSH2 0xEE0 JUMP JUMPDEST SWAP1 POP DUP3 DUP2 MSTORE PUSH1 0x20 DUP2 ADD DUP5 DUP5 DUP5 ADD GT ISZERO PUSH2 0xF66 JUMPI PUSH2 0xF65 PUSH2 0xE7E JUMP JUMPDEST JUMPDEST PUSH2 0xF71 DUP5 DUP3 DUP6 PUSH2 0xF2A JUMP JUMPDEST POP SWAP4 SWAP3 POP POP POP JUMP JUMPDEST PUSH0 DUP3 PUSH1 0x1F DUP4 ADD SLT PUSH2 0xF8D JUMPI PUSH2 0xF8C PUSH2 0xE7A JUMP JUMPDEST JUMPDEST DUP2 CALLDATALOAD PUSH2 0xF9D DUP5 DUP3 PUSH1 0x20 DUP7 ADD PUSH2 0xF38 JUMP JUMPDEST SWAP2 POP POP SWAP3 SWAP2 POP POP JUMP JUMPDEST PUSH0 PUSH1 0x20 DUP3 DUP5 SUB SLT ISZERO PUSH2 0xFBB JUMPI PUSH2 0xFBA PUSH2 0xD4F JUMP JUMPDEST JUMPDEST PUSH0 DUP3 ADD CALLDATALOAD PUSH8 0xFFFFFFFFFFFFFFFF DUP2 GT ISZERO PUSH2 0xFD8 JUMPI PUSH2 0xFD7 PUSH2 0xD53 JUMP JUMPDEST JUMPDEST PUSH2 0xFE4 DUP5 DUP3 DUP6 ADD PUSH2 0xF79 JUMP JUMPDEST SWAP2 POP POP SWAP3 SWAP2 POP POP JUMP JUMPDEST PUSH0 DUP2 MLOAD SWAP1 POP SWAP2 SWAP1 POP JUMP JUMPDEST PUSH0 DUP3 DUP3 MSTORE PUSH1 0x20 DUP3 ADD SWAP1 POP SWAP3 SWAP2 POP POP JUMP JUMPDEST PUSH0 DUP2 SWAP1 POP PUSH1 0x20 DUP3 ADD SWAP1 POP SWAP2 SWAP1 POP JUMP JUMPDEST PUSH0 DUP3 DUP3 MSTORE PUSH1 0x20 DUP3 ADD SWAP1 POP SWAP3 SWAP2 POP POP JUMP JUMPDEST PUSH0 PUSH2 0x1030 DUP3 PUSH2 0xDAC JUMP JUMPDEST PUSH2 0x103A DUP2 DUP6 PUSH2 0x1016 JUMP JUMPDEST SWAP4 POP PUSH2 0x104A DUP2 DUP6 PUSH1 0x20 DUP7 ADD PUSH2 0xDC6 JUMP JUMPDEST PUSH2 0x1053 DUP2 PUSH2 0xDD4 JUMP JUMPDEST DUP5 ADD SWAP2 POP POP SWAP3 SWAP2 POP POP JUMP JUMPDEST PUSH0 DUP2 ISZERO ISZERO SWAP1 POP SWAP2 SWAP1 POP JUMP JUMPDEST PUSH2 0x1072 DUP2 PUSH2 0x105E JUMP JUMPDEST DUP3 MSTORE POP POP JUMP JUMPDEST PUSH0 PUSH1 0x40 DUP4 ADD PUSH0 DUP4 ADD MLOAD DUP5 DUP3 SUB PUSH0 DUP7 ADD MSTORE PUSH2 0x1092 DUP3 DUP3 PUSH2 0x1026 JUMP JUMPDEST SWAP2 POP POP PUSH1 0x20 DUP4 ADD MLOAD PUSH2 0x10A7 PUSH1 0x20 DUP7 ADD DUP3 PUSH2 0x1069 JUMP JUMPDEST POP DUP1 SWAP2 POP POP SWAP3 SWAP2 POP POP JUMP JUMPDEST PUSH0 PUSH2 0x10BD DUP4 DUP4 PUSH2 0x1078 JUMP JUMPDEST SWAP1 POP SWAP3 SWAP2 POP POP JUMP JUMPDEST PUSH0 PUSH1 0x20 DUP3 ADD SWAP1 POP SWAP2 SWAP1 POP JUMP JUMPDEST PUSH0 PUSH2 0x10DB DUP3 PUSH2 0xFED JUMP JUMPDEST PUSH2 0x10E5 DUP2 DUP6 PUSH2 0xFF7 JUMP JUMPDEST SWAP4 POP DUP4 PUSH1 0x20 DUP3 MUL DUP6 ADD PUSH2 0x10F7 DUP6 PUSH2 0x1007 JUMP JUMPDEST DUP1 PUSH0 JUMPDEST DUP6 DUP2 LT ISZERO PUSH2 0x1132 JUMPI DUP5 DUP5 SUB DUP10 MSTORE DUP2 MLOAD PUSH2 0x1113 DUP6 DUP3 PUSH2 0x10B2 JUMP JUMPDEST SWAP5 POP PUSH2 0x111E DUP4 PUSH2 0x10C5 JUMP JUMPDEST SWAP3 POP PUSH1 0x20 DUP11 ADD SWAP10 POP POP PUSH1 0x1 DUP2 ADD SWAP1 POP PUSH2 0x10FA JUMP JUMPDEST POP DUP3 SWAP8 POP DUP8 SWAP6 POP POP POP POP POP POP SWAP3 SWAP2 POP POP JUMP JUMPDEST PUSH0 PUSH1 0x20 DUP3 ADD SWAP1 POP DUP2 DUP2 SUB PUSH0 DUP4 ADD MSTORE PUSH2 0x115C DUP2 DUP5 PUSH2 0x10D1 JUMP JUMPDEST SWAP1 POP SWAP3 SWAP2 POP POP JUMP JUMPDEST PUSH32 0x4E487B7100000000000000000000000000000000000000000000000000000000 PUSH0 MSTORE PUSH1 0x11 PUSH1 0x4 MSTORE PUSH1 0x24 PUSH0 REVERT JUMPDEST PUSH0 PUSH2 0x119B DUP3 PUSH2 0xD15 JUMP JUMPDEST SWAP2 POP PUSH2 0x11A6 DUP4 PUSH2 0xD15 JUMP JUMPDEST SWAP3 POP DUP3 DUP3 MUL PUSH2 0x11B4 DUP2 PUSH2 0xD15 JUMP JUMPDEST SWAP2 POP DUP3 DUP3 DIV DUP5 EQ DUP4 ISZERO OR PUSH2 0x11CB JUMPI PUSH2 0x11CA PUSH2 0x1164 JUMP JUMPDEST JUMPDEST POP SWAP3 SWAP2 POP POP JUMP JUMPDEST PUSH32 0x496E76616C696420696E64657800000000000000000000000000000000000000 PUSH0 DUP3 ADD MSTORE POP JUMP JUMPDEST PUSH0 PUSH2 0x1206 PUSH1 0xD DUP4 PUSH2 0xDB6 JUMP JUMPDEST SWAP2 POP PUSH2 0x1211 DUP3 PUSH2 0x11D2 JUMP JUMPDEST PUSH1 0x20 DUP3 ADD SWAP1 POP SWAP2 SWAP1 POP JUMP JUMPDEST PUSH0 PUSH1 0x20 DUP3 ADD SWAP1 POP DUP2 DUP2 SUB PUSH0 DUP4 ADD MSTORE PUSH2 0x1233 DUP2 PUSH2 0x11FA JUMP JUMPDEST SWAP1 POP SWAP2 SWAP1 POP JUMP JUMPDEST PUSH32 0x4E487B7100000000000000000000000000000000000000000000000000000000 PUSH0 MSTORE PUSH1 0x32 PUSH1 0x4 MSTORE PUSH1 0x24 PUSH0 REVERT JUMPDEST PUSH32 0x4E487B7100000000000000000000000000000000000000000000000000000000 PUSH0 MSTORE PUSH1 0x12 PUSH1 0x4 MSTORE PUSH1 0x24 PUSH0 REVERT JUMPDEST PUSH0 PUSH2 0x129E DUP3 PUSH2 0xD15 JUMP JUMPDEST SWAP2 POP PUSH2 0x12A9 DUP4 PUSH2 0xD15 JUMP JUMPDEST SWAP3 POP DUP3 PUSH2 0x12B9 JUMPI PUSH2 0x12B8 PUSH2 0x1267 JUMP JUMPDEST JUMPDEST DUP3 DUP3 DIV SWAP1 POP SWAP3 SWAP2 POP POP JUMP JUMPDEST PUSH32 0x4E487B7100000000000000000000000000000000000000000000000000000000 PUSH0 MSTORE PUSH1 0x22 PUSH1 0x4 MSTORE PUSH1 0x24 PUSH0 REVERT JUMPDEST PUSH0 PUSH1 0x2 DUP3 DIV SWAP1 POP PUSH1 0x1 DUP3 AND DUP1 PUSH2 0x1308 JUMPI PUSH1 0x7F DUP3 AND SWAP2 POP JUMPDEST PUSH1 0x20 DUP3 LT DUP2 SUB PUSH2 0x131B JUMPI PUSH2 0x131A PUSH2 0x12C4 JUMP JUMPDEST JUMPDEST POP SWAP2 SWAP1 POP JUMP JUMPDEST PUSH0 DUP2 SWAP1 POP DUP2 PUSH0 MSTORE PUSH1 0x20 PUSH0 KECCAK256 SWAP1 POP SWAP2 SWAP1 POP JUMP JUMPDEST PUSH0 PUSH1 0x20 PUSH1 0x1F DUP4 ADD DIV SWAP1 POP SWAP2 SWAP1 POP JUMP JUMPDEST PUSH0 DUP3 DUP3 SHL SWAP1 POP SWAP3 SWAP2 POP POP JUMP JUMPDEST PUSH0 PUSH1 0x8 DUP4 MUL PUSH2 0x137D PUSH32 0xFFFFFFFFFFFFFFFFFFFFFFFFFFFFFFFFFFFFFFFFFFFFFFFFFFFFFFFFFFFFFFFF DUP3 PUSH2 0x1342 JUMP JUMPDEST PUSH2 0x1387 DUP7 DUP4 PUSH2 0x1342 JUMP JUMPDEST SWAP6 POP DUP1 NOT DUP5 AND SWAP4 POP DUP1 DUP7 AND DUP5 OR SWAP3 POP POP POP SWAP4 SWAP3 POP POP POP JUMP JUMPDEST PUSH0 DUP2 SWAP1 POP SWAP2 SWAP1 POP JUMP JUMPDEST PUSH0 PUSH2 0x13C2 PUSH2 0x13BD PUSH2 0x13B8 DUP5 PUSH2 0xD15 JUMP JUMPDEST PUSH2 0x139F JUMP JUMPDEST PUSH2 0xD15 JUMP JUMPDEST SWAP1 POP SWAP2 SWAP1 POP JUMP JUMPDEST PUSH0 DUP2 SWAP1 POP SWAP2 SWAP1 POP JUMP JUMPDEST PUSH2 0x13DB DUP4 PUSH2 0x13A8 JUMP JUMPDEST PUSH2 0x13EF PUSH2 0x13E7 DUP3 PUSH2 0x13C9 JUMP JUMPDEST DUP5 DUP5 SLOAD PUSH2 0x134E JUMP JUMPDEST DUP3 SSTORE POP POP POP POP JUMP JUMPDEST PUSH0 PUSH0 SWAP1 POP SWAP1 JUMP JUMPDEST PUSH2 0x1406 PUSH2 0x13F7 JUMP JUMPDEST PUSH2 0x1411 DUP2 DUP5 DUP5 PUSH2 0x13D2 JUMP JUMPDEST POP POP POP JUMP JUMPDEST JUMPDEST DUP2 DUP2 LT ISZERO PUSH2 0x1434 JUMPI PUSH2 0x1429 PUSH0 DUP3 PUSH2 0x13FE JUMP JUMPDEST PUSH1 0x1 DUP2 ADD SWAP1 POP PUSH2 0x1417 JUMP JUMPDEST POP POP JUMP JUMPDEST PUSH1 0x1F DUP3 GT ISZERO PUSH2 0x1479 JUMPI PUSH2 0x144A DUP2 PUSH2 0x1321 JUMP JUMPDEST PUSH2 0x1453 DUP5 PUSH2 0x1333 JUMP JUMPDEST DUP2 ADD PUSH1 0x20 DUP6 LT ISZERO PUSH2 0x1462 JUMPI DUP2 SWAP1 POP JUMPDEST PUSH2 0x1476 PUSH2 0x146E DUP6 PUSH2 0x1333 JUMP JUMPDEST DUP4 ADD DUP3 PUSH2 0x1416 JUMP JUMPDEST POP POP JUMPDEST POP POP POP JUMP JUMPDEST PUSH0 DUP3 DUP3 SHR SWAP1 POP SWAP3 SWAP2 POP POP JUMP JUMPDEST PUSH0 PUSH2 0x1499 PUSH0 NOT DUP5 PUSH1 0x8 MUL PUSH2 0x147E JUMP JUMPDEST NOT DUP1 DUP4 AND SWAP2 POP POP SWAP3 SWAP2 POP POP JUMP JUMPDEST PUSH0 PUSH2 0x14B1 DUP4 DUP4 PUSH2 0x148A JUMP JUMPDEST SWAP2 POP DUP3 PUSH1 0x2 MUL DUP3 OR SWAP1 POP SWAP3 SWAP2 POP POP JUMP JUMPDEST PUSH2 0x14CA DUP3 PUSH2 0xDAC JUMP JUMPDEST PUSH8 0xFFFFFFFFFFFFFFFF DUP2 GT ISZERO PUSH2 0x14E3 JUMPI PUSH2 0x14E2 PUSH2 0xE82 JUMP JUMPDEST JUMPDEST PUSH2 0x14ED DUP3 SLOAD PUSH2 0x12F1 JUMP JUMPDEST PUSH2 0x14F8 DUP3 DUP3 DUP6 PUSH2 0x1438 JUMP JUMPDEST PUSH0 PUSH1 0x20 SWAP1 POP PUSH1 0x1F DUP4 GT PUSH1 0x1 DUP2 EQ PUSH2 0x1529 JUMPI PUSH0 DUP5 ISZERO PUSH2 0x1517 JUMPI DUP3 DUP8 ADD MLOAD SWAP1 POP JUMPDEST PUSH2 0x1521 DUP6 DUP3 PUSH2 0x14A6 JUMP JUMPDEST DUP7 SSTORE POP PUSH2 0x1588 JUMP JUMPDEST PUSH1 0x1F NOT DUP5 AND PUSH2 0x1537 DUP7 PUSH2 0x1321 JUMP JUMPDEST PUSH0 JUMPDEST DUP3 DUP2 LT ISZERO PUSH2 0x155E JUMPI DUP5 DUP10 ADD MLOAD DUP3 SSTORE PUSH1 0x1 DUP3 ADD SWAP2 POP PUSH1 0x20 DUP6 ADD SWAP5 POP PUSH1 0x20 DUP2 ADD SWAP1 POP PUSH2 0x1539 JUMP JUMPDEST DUP7 DUP4 LT ISZERO PUSH2 0x157B JUMPI DUP5 DUP10 ADD MLOAD PUSH2 0x1577 PUSH1 0x1F DUP10 AND DUP3 PUSH2 0x148A JUMP JUMPDEST DUP4 SSTORE POP JUMPDEST PUSH1 0x1 PUSH1 0x2 DUP9 MUL ADD DUP9 SSTORE POP POP POP JUMPDEST POP POP POP POP POP POP JUMP JUMPDEST PUSH0 PUSH2 0x159A DUP3 PUSH2 0xD15 JUMP JUMPDEST SWAP2 POP PUSH2 0x15A5 DUP4 PUSH2 0xD15 JUMP JUMPDEST SWAP3 POP DUP3 DUP3 ADD SWAP1 POP DUP1 DUP3 GT ISZERO PUSH2 0x15BD JUMPI PUSH2 0x15BC PUSH2 0x1164 JUMP JUMPDEST JUMPDEST SWAP3 SWAP2 POP POP JUMP JUMPDEST PUSH0 PUSH2 0x15CD DUP3 PUSH2 0xD15 JUMP JUMPDEST SWAP2 POP PUSH2 0x15D8 DUP4 PUSH2 0xD15 JUMP JUMPDEST SWAP3 POP DUP3 DUP3 SUB SWAP1 POP DUP2 DUP2 GT ISZERO PUSH2 0x15F0 JUMPI PUSH2 0x15EF PUSH2 0x1164 JUMP JUMPDEST JUMPDEST SWAP3 SWAP2 POP POP JUMP INVALID LOG2 PUSH5 0x6970667358 0x22 SLT KECCAK256 SWAP2 CREATE2 0xCB 0xDE CALLCODE ADDMOD DATALOADN 0xF1F6 0xCE 0x22 GASLIMIT 0xDC PUSH8 0xD1264DD9489B8A13 0xAB PUSH3 0xC1A06B PUSH11 0x861FC1EF64736F6C634300 ADDMOD 0x1E STOP CALLER "
		},
		"gasEstimates": {
			"creation": {
				"codeDepositCost": "1135200",
				"executionCost": "1178",
				"totalCost": "1136378"
			},
			"external": {
				"addNumber(uint256)": "46953",
				"addTodo(string)": "infinite",
				"addition()": "infinite",
				"checkage()": "infinite",
				"checktime()": "infinite",
				"checktrack()": "infinite",
				"checkweather()": "infinite",
				"completeTodo(uint256)": "29257",
				"division()": "infinite",
				"getLength()": "2529",
				"getNumber(uint256)": "infinite",
				"getTodos()": "infinite",
				"getage(uint256)": "22560",
				"getfirstnum(uint256)": "22559",
				"getsecondnum(uint256)": "22538",
				"getweather(uint256)": "22561",
				"invalid()": "infinite",
				"multiplication()": "infinite",
				"numbers(uint256)": "infinite",
				"subtraction()": "infinite",
				"tracktime(uint256)": "22626",
				"trackup(uint256)": "22583",
				"updateNumber(uint256,uint256)": "infinite"
			}
		},
		"methodIdentifiers": {
			"addNumber(uint256)": "fce68023",
			"addTodo(string)": "95ffebf5",
			"addition()": "ec597128",
			"checkage()": "d62ff3a4",
			"checktime()": "266de1e0",
			"checktrack()": "9daaf83a",
			"checkweather()": "7f109886",
			"completeTodo(uint256)": "20fe2144",
			"division()": "3205f5fc",
			"getLength()": "be1c766b",
			"getNumber(uint256)": "fc563658",
			"getTodos()": "c33926cb",
			"getage(uint256)": "a59e0d54",
			"getfirstnum(uint256)": "48a9066d",
			"getsecondnum(uint256)": "9f17c892",
			"getweather(uint256)": "12a09447",
			"invalid()": "bde9e40e",
			"multiplication()": "011285da",
			"numbers(uint256)": "d39fa233",
			"subtraction()": "e3ec0251",
			"tracktime(uint256)": "bed948c5",
			"trackup(uint256)": "1981bfa0",
			"updateNumber(uint256,uint256)": "91819bf3"
		}
	},
	"abi": [
		{
			"inputs": [
				{
					"internalType": "uint256",
					"name": "_num",
					"type": "uint256"
				}
			],
			"name": "addNumber",
			"outputs": [],
			"stateMutability": "nonpayable",
			"type": "function"
		},
		{
			"inputs": [
				{
					"internalType": "string",
					"name": "_task",
					"type": "string"
				}
			],
			"name": "addTodo",
			"outputs": [],
			"stateMutability": "nonpayable",
			"type": "function"
		},
		{
			"inputs": [],
			"name": "addition",
			"outputs": [
				{
					"internalType": "uint256",
					"name": "",
					"type": "uint256"
				}
			],
			"stateMutability": "view",
			"type": "function"
		},
		{
			"inputs": [],
			"name": "checkage",
			"outputs": [
				{
					"internalType": "string",
					"name": "",
					"type": "string"
				}
			],
			"stateMutability": "view",
			"type": "function"
		},
		{
			"inputs": [],
			"name": "checktime",
			"outputs": [
				{
					"internalType": "string",
					"name": "",
					"type": "string"
				}
			],
			"stateMutability": "view",
			"type": "function"
		},
		{
			"inputs": [],
			"name": "checktrack",
			"outputs": [
				{
					"internalType": "string",
					"name": "",
					"type": "string"
				}
			],
			"stateMutability": "view",
			"type": "function"
		},
		{
			"inputs": [],
			"name": "checkweather",
			"outputs": [
				{
					"internalType": "string",
					"name": "",
					"type": "string"
				}
			],
			"stateMutability": "view",
			"type": "function"
		},
		{
			"inputs": [
				{
					"internalType": "uint256",
					"name": "_index",
					"type": "uint256"
				}
			],
			"name": "completeTodo",
			"outputs": [],
			"stateMutability": "nonpayable",
			"type": "function"
		},
		{
			"inputs": [],
			"name": "division",
			"outputs": [
				{
					"internalType": "uint256",
					"name": "",
					"type": "uint256"
				}
			],
			"stateMutability": "view",
			"type": "function"
		},
		{
			"inputs": [],
			"name": "getLength",
			"outputs": [
				{
					"internalType": "uint256",
					"name": "",
					"type": "uint256"
				}
			],
			"stateMutability": "view",
			"type": "function"
		},
		{
			"inputs": [
				{
					"internalType": "uint256",
					"name": "_index",
					"type": "uint256"
				}
			],
			"name": "getNumber",
			"outputs": [
				{
					"internalType": "uint256",
					"name": "",
					"type": "uint256"
				}
			],
			"stateMutability": "view",
			"type": "function"
		},
		{
			"inputs": [],
			"name": "getTodos",
			"outputs": [
				{
					"components": [
						{
							"internalType": "string",
							"name": "task",
							"type": "string"
						},
						{
							"internalType": "bool",
							"name": "completed",
							"type": "bool"
						}
					],
					"internalType": "struct calculatorandall.Todo[]",
					"name": "",
					"type": "tuple[]"
				}
			],
			"stateMutability": "view",
			"type": "function"
		},
		{
			"inputs": [
				{
					"internalType": "uint256",
					"name": "_age",
					"type": "uint256"
				}
			],
			"name": "getage",
			"outputs": [],
			"stateMutability": "nonpayable",
			"type": "function"
		},
		{
			"inputs": [
				{
					"internalType": "uint256",
					"name": "_firstnum",
					"type": "uint256"
				}
			],
			"name": "getfirstnum",
			"outputs": [],
			"stateMutability": "nonpayable",
			"type": "function"
		},
		{
			"inputs": [
				{
					"internalType": "uint256",
					"name": "_secnum",
					"type": "uint256"
				}
			],
			"name": "getsecondnum",
			"outputs": [],
			"stateMutability": "nonpayable",
			"type": "function"
		},
		{
			"inputs": [
				{
					"internalType": "uint256",
					"name": "_wet",
					"type": "uint256"
				}
			],
			"name": "getweather",
			"outputs": [],
			"stateMutability": "nonpayable",
			"type": "function"
		},
		{
			"inputs": [],
			"name": "invalid",
			"outputs": [
				{
					"internalType": "uint256",
					"name": "",
					"type": "uint256"
				}
			],
			"stateMutability": "view",
			"type": "function"
		},
		{
			"inputs": [],
			"name": "multiplication",
			"outputs": [
				{
					"internalType": "uint256",
					"name": "",
					"type": "uint256"
				}
			],
			"stateMutability": "view",
			"type": "function"
		},
		{
			"inputs": [
				{
					"internalType": "uint256",
					"name": "",
					"type": "uint256"
				}
			],
			"name": "numbers",
			"outputs": [
				{
					"internalType": "uint256",
					"name": "",
					"type": "uint256"
				}
			],
			"stateMutability": "view",
			"type": "function"
		},
		{
			"inputs": [],
			"name": "subtraction",
			"outputs": [
				{
					"internalType": "uint256",
					"name": "",
					"type": "uint256"
				}
			],
			"stateMutability": "view",
			"type": "function"
		},
		{
			"inputs": [
				{
					"internalType": "uint256",
					"name": "_ctime",
					"type": "uint256"
				}
			],
			"name": "tracktime",
			"outputs": [],
			"stateMutability": "nonpayable",
			"type": "function"
		},
		{
			"inputs": [
				{
					"internalType": "uint256",
					"name": "_track",
					"type": "uint256"
				}
			],
			"name": "trackup",
			"outputs": [],
			"stateMutability": "nonpayable",
			"type": "function"
		},
		{
			"inputs": [
				{
					"internalType": "uint256",
					"name": "_index",
					"type": "uint256"
				},
				{
					"internalType": "uint256",
					"name": "_newNum",
					"type": "uint256"
				}
			],
			"name": "updateNumber",
			"outputs": [],
			"stateMutability": "nonpayable",
			"type": "function"
		}
	]
}